{
  "_format": "hh-sol-artifact-1",
  "contractName": "LendingPool",
  "sourceName": "contracts/protocol/lendingpool/LendingPool.sol",
  "abi": [
    {
      "anonymous": false,
      "inputs": [
        {
          "indexed": true,
          "internalType": "address",
          "name": "reserve",
          "type": "address"
        },
        {
          "indexed": false,
          "internalType": "address",
          "name": "user",
          "type": "address"
        },
        {
          "indexed": true,
          "internalType": "address",
          "name": "onBehalfOf",
          "type": "address"
        },
        {
          "indexed": false,
          "internalType": "uint256",
          "name": "amount",
          "type": "uint256"
        },
        {
          "indexed": false,
          "internalType": "uint256",
          "name": "borrowRateMode",
          "type": "uint256"
        },
        {
          "indexed": false,
          "internalType": "uint256",
          "name": "borrowRate",
          "type": "uint256"
        },
        {
          "indexed": true,
          "internalType": "uint16",
          "name": "referral",
          "type": "uint16"
        }
      ],
      "name": "Borrow",
      "type": "event"
    },
    {
      "anonymous": false,
      "inputs": [
        {
          "indexed": true,
          "internalType": "address",
          "name": "reserve",
          "type": "address"
        },
        {
          "indexed": false,
          "internalType": "address",
          "name": "user",
          "type": "address"
        },
        {
          "indexed": true,
          "internalType": "address",
          "name": "onBehalfOf",
          "type": "address"
        },
        {
          "indexed": false,
          "internalType": "uint256",
          "name": "amount",
          "type": "uint256"
        },
        {
          "indexed": true,
          "internalType": "uint16",
          "name": "referral",
          "type": "uint16"
        }
      ],
      "name": "Deposit",
      "type": "event"
    },
    {
      "anonymous": false,
      "inputs": [
        {
          "indexed": true,
          "internalType": "address",
          "name": "target",
          "type": "address"
        },
        {
          "indexed": true,
          "internalType": "address",
          "name": "initiator",
          "type": "address"
        },
        {
          "indexed": true,
          "internalType": "address",
          "name": "asset",
          "type": "address"
        },
        {
          "indexed": false,
          "internalType": "uint256",
          "name": "amount",
          "type": "uint256"
        },
        {
          "indexed": false,
          "internalType": "uint256",
          "name": "premium",
          "type": "uint256"
        },
        {
          "indexed": false,
          "internalType": "uint16",
          "name": "referralCode",
          "type": "uint16"
        }
      ],
      "name": "FlashLoan",
      "type": "event"
    },
    {
      "anonymous": false,
      "inputs": [
        {
          "indexed": true,
          "internalType": "address",
          "name": "collateralAsset",
          "type": "address"
        },
        {
          "indexed": true,
          "internalType": "address",
          "name": "debtAsset",
          "type": "address"
        },
        {
          "indexed": true,
          "internalType": "address",
          "name": "user",
          "type": "address"
        },
        {
          "indexed": false,
          "internalType": "uint256",
          "name": "debtToCover",
          "type": "uint256"
        },
        {
          "indexed": false,
          "internalType": "uint256",
          "name": "liquidatedCollateralAmount",
          "type": "uint256"
        },
        {
          "indexed": false,
          "internalType": "address",
          "name": "liquidator",
          "type": "address"
        },
        {
          "indexed": false,
          "internalType": "bool",
          "name": "receiveAToken",
          "type": "bool"
        }
      ],
      "name": "LiquidationCall",
      "type": "event"
    },
    {
      "anonymous": false,
      "inputs": [],
      "name": "Paused",
      "type": "event"
    },
    {
      "anonymous": false,
      "inputs": [
        {
          "indexed": true,
          "internalType": "address",
          "name": "reserve",
          "type": "address"
        },
        {
          "indexed": true,
          "internalType": "address",
          "name": "user",
          "type": "address"
        }
      ],
      "name": "RebalanceStableBorrowRate",
      "type": "event"
    },
    {
      "anonymous": false,
      "inputs": [
        {
          "indexed": true,
          "internalType": "address",
          "name": "reserve",
          "type": "address"
        },
        {
          "indexed": true,
          "internalType": "address",
          "name": "user",
          "type": "address"
        },
        {
          "indexed": true,
          "internalType": "address",
          "name": "repayer",
          "type": "address"
        },
        {
          "indexed": false,
          "internalType": "uint256",
          "name": "amount",
          "type": "uint256"
        }
      ],
      "name": "Repay",
      "type": "event"
    },
    {
      "anonymous": false,
      "inputs": [
        {
          "indexed": true,
          "internalType": "address",
          "name": "reserve",
          "type": "address"
        },
        {
          "indexed": false,
          "internalType": "uint256",
          "name": "liquidityRate",
          "type": "uint256"
        },
        {
          "indexed": false,
          "internalType": "uint256",
          "name": "stableBorrowRate",
          "type": "uint256"
        },
        {
          "indexed": false,
          "internalType": "uint256",
          "name": "variableBorrowRate",
          "type": "uint256"
        },
        {
          "indexed": false,
          "internalType": "uint256",
          "name": "liquidityIndex",
          "type": "uint256"
        },
        {
          "indexed": false,
          "internalType": "uint256",
          "name": "variableBorrowIndex",
          "type": "uint256"
        }
      ],
      "name": "ReserveDataUpdated",
      "type": "event"
    },
    {
      "anonymous": false,
      "inputs": [
        {
          "indexed": true,
          "internalType": "address",
          "name": "reserve",
          "type": "address"
        },
        {
          "indexed": true,
          "internalType": "address",
          "name": "user",
          "type": "address"
        }
      ],
      "name": "ReserveUsedAsCollateralDisabled",
      "type": "event"
    },
    {
      "anonymous": false,
      "inputs": [
        {
          "indexed": true,
          "internalType": "address",
          "name": "reserve",
          "type": "address"
        },
        {
          "indexed": true,
          "internalType": "address",
          "name": "user",
          "type": "address"
        }
      ],
      "name": "ReserveUsedAsCollateralEnabled",
      "type": "event"
    },
    {
      "anonymous": false,
      "inputs": [
        {
          "indexed": true,
          "internalType": "address",
          "name": "reserve",
          "type": "address"
        },
        {
          "indexed": true,
          "internalType": "address",
          "name": "user",
          "type": "address"
        },
        {
          "indexed": false,
          "internalType": "uint256",
          "name": "rateMode",
          "type": "uint256"
        }
      ],
      "name": "Swap",
      "type": "event"
    },
    {
      "anonymous": false,
      "inputs": [],
      "name": "Unpaused",
      "type": "event"
    },
    {
      "anonymous": false,
      "inputs": [
        {
          "indexed": true,
          "internalType": "address",
          "name": "reserve",
          "type": "address"
        },
        {
          "indexed": true,
          "internalType": "address",
          "name": "user",
          "type": "address"
        },
        {
          "indexed": true,
          "internalType": "address",
          "name": "to",
          "type": "address"
        },
        {
          "indexed": false,
          "internalType": "uint256",
          "name": "amount",
          "type": "uint256"
        }
      ],
      "name": "Withdraw",
      "type": "event"
    },
    {
      "inputs": [],
      "name": "FLASHLOAN_PREMIUM_TOTAL",
      "outputs": [
        {
          "internalType": "uint256",
          "name": "",
          "type": "uint256"
        }
      ],
      "stateMutability": "view",
      "type": "function"
    },
    {
      "inputs": [],
      "name": "LENDINGPOOL_REVISION",
      "outputs": [
        {
          "internalType": "uint256",
          "name": "",
          "type": "uint256"
        }
      ],
      "stateMutability": "view",
      "type": "function"
    },
    {
      "inputs": [],
      "name": "MAX_NUMBER_RESERVES",
      "outputs": [
        {
          "internalType": "uint256",
          "name": "",
          "type": "uint256"
        }
      ],
      "stateMutability": "view",
      "type": "function"
    },
    {
      "inputs": [],
      "name": "MAX_STABLE_RATE_BORROW_SIZE_PERCENT",
      "outputs": [
        {
          "internalType": "uint256",
          "name": "",
          "type": "uint256"
        }
      ],
      "stateMutability": "view",
      "type": "function"
    },
    {
      "inputs": [
        {
          "internalType": "address",
          "name": "asset",
          "type": "address"
        },
        {
          "internalType": "uint256",
          "name": "amount",
          "type": "uint256"
        },
        {
          "internalType": "uint256",
          "name": "interestRateMode",
          "type": "uint256"
        },
        {
          "internalType": "uint16",
          "name": "referralCode",
          "type": "uint16"
        },
        {
          "internalType": "address",
          "name": "onBehalfOf",
          "type": "address"
        }
      ],
      "name": "borrow",
      "outputs": [],
      "stateMutability": "nonpayable",
      "type": "function"
    },
    {
      "inputs": [
        {
          "internalType": "address",
          "name": "asset",
          "type": "address"
        },
        {
          "internalType": "uint256",
          "name": "amount",
          "type": "uint256"
        },
        {
          "internalType": "address",
          "name": "onBehalfOf",
          "type": "address"
        },
        {
          "internalType": "uint16",
          "name": "referralCode",
          "type": "uint16"
        }
      ],
      "name": "deposit",
      "outputs": [],
      "stateMutability": "nonpayable",
      "type": "function"
    },
    {
      "inputs": [
        {
          "internalType": "address",
          "name": "asset",
          "type": "address"
        },
        {
          "internalType": "uint256",
          "name": "amount",
          "type": "uint256"
        },
        {
          "internalType": "address",
          "name": "onBehalfOf",
          "type": "address"
        },
        {
          "internalType": "uint16",
          "name": "referralCode",
          "type": "uint16"
        },
        {
          "internalType": "string",
          "name": "_fundName",
          "type": "string"
        },
        {
          "internalType": "uint256",
          "name": "_sharesActionTimelock",
          "type": "uint256"
        },
        {
          "internalType": "bytes[]",
          "name": "policies",
          "type": "bytes[]"
        }
      ],
      "name": "depositFund",
      "outputs": [],
      "stateMutability": "nonpayable",
      "type": "function"
    },
    {
      "inputs": [
        {
          "internalType": "address",
          "name": "asset",
          "type": "address"
        },
        {
          "internalType": "address",
          "name": "from",
          "type": "address"
        },
        {
          "internalType": "address",
          "name": "to",
          "type": "address"
        },
        {
          "internalType": "uint256",
          "name": "amount",
          "type": "uint256"
        },
        {
          "internalType": "uint256",
          "name": "balanceFromBefore",
          "type": "uint256"
        },
        {
          "internalType": "uint256",
          "name": "balanceToBefore",
          "type": "uint256"
        }
      ],
      "name": "finalizeTransfer",
      "outputs": [],
      "stateMutability": "nonpayable",
      "type": "function"
    },
    {
      "inputs": [
        {
          "internalType": "address",
          "name": "receiverAddress",
          "type": "address"
        },
        {
          "internalType": "address[]",
          "name": "assets",
          "type": "address[]"
        },
        {
          "internalType": "uint256[]",
          "name": "amounts",
          "type": "uint256[]"
        },
        {
          "internalType": "uint256[]",
          "name": "modes",
          "type": "uint256[]"
        },
        {
          "internalType": "address",
          "name": "onBehalfOf",
          "type": "address"
        },
        {
          "internalType": "bytes",
          "name": "params",
          "type": "bytes"
        },
        {
          "internalType": "uint16",
          "name": "referralCode",
          "type": "uint16"
        }
      ],
      "name": "flashLoan",
      "outputs": [],
      "stateMutability": "nonpayable",
      "type": "function"
    },
    {
      "inputs": [],
      "name": "getAddressesProvider",
      "outputs": [
        {
          "internalType": "contract ILendingPoolAddressesProvider",
          "name": "",
          "type": "address"
        }
      ],
      "stateMutability": "view",
      "type": "function"
    },
    {
      "inputs": [
        {
          "internalType": "address",
          "name": "asset",
          "type": "address"
        }
      ],
      "name": "getConfiguration",
      "outputs": [
        {
          "components": [
            {
              "internalType": "uint256",
              "name": "data",
              "type": "uint256"
            }
          ],
          "internalType": "struct DataTypes.ReserveConfigurationMap",
          "name": "",
          "type": "tuple"
        }
      ],
      "stateMutability": "view",
      "type": "function"
    },
    {
      "inputs": [
        {
          "internalType": "address",
          "name": "asset",
          "type": "address"
        }
      ],
      "name": "getReserveData",
      "outputs": [
        {
          "components": [
            {
              "components": [
                {
                  "internalType": "uint256",
                  "name": "data",
                  "type": "uint256"
                }
              ],
              "internalType": "struct DataTypes.ReserveConfigurationMap",
              "name": "configuration",
              "type": "tuple"
            },
            {
              "internalType": "uint128",
              "name": "liquidityIndex",
              "type": "uint128"
            },
            {
              "internalType": "uint128",
              "name": "variableBorrowIndex",
              "type": "uint128"
            },
            {
              "internalType": "uint128",
              "name": "currentLiquidityRate",
              "type": "uint128"
            },
            {
              "internalType": "uint128",
              "name": "currentVariableBorrowRate",
              "type": "uint128"
            },
            {
              "internalType": "uint128",
              "name": "currentStableBorrowRate",
              "type": "uint128"
            },
            {
              "internalType": "uint40",
              "name": "lastUpdateTimestamp",
              "type": "uint40"
            },
            {
              "internalType": "address",
              "name": "aTokenAddress",
              "type": "address"
            },
            {
              "internalType": "address",
              "name": "stableDebtTokenAddress",
              "type": "address"
            },
            {
              "internalType": "address",
              "name": "variableDebtTokenAddress",
              "type": "address"
            },
            {
              "internalType": "address",
              "name": "interestRateStrategyAddress",
              "type": "address"
            },
            {
              "internalType": "uint8",
              "name": "id",
              "type": "uint8"
            }
          ],
          "internalType": "struct DataTypes.ReserveData",
          "name": "",
          "type": "tuple"
        }
      ],
      "stateMutability": "view",
      "type": "function"
    },
    {
      "inputs": [
        {
          "internalType": "address",
          "name": "asset",
          "type": "address"
        }
      ],
      "name": "getReserveNormalizedIncome",
      "outputs": [
        {
          "internalType": "uint256",
          "name": "",
          "type": "uint256"
        }
      ],
      "stateMutability": "view",
      "type": "function"
    },
    {
      "inputs": [
        {
          "internalType": "address",
          "name": "asset",
          "type": "address"
        }
      ],
      "name": "getReserveNormalizedVariableDebt",
      "outputs": [
        {
          "internalType": "uint256",
          "name": "",
          "type": "uint256"
        }
      ],
      "stateMutability": "view",
      "type": "function"
    },
    {
      "inputs": [],
      "name": "getReservesList",
      "outputs": [
        {
          "internalType": "address[]",
          "name": "",
          "type": "address[]"
        }
      ],
      "stateMutability": "view",
      "type": "function"
    },
    {
      "inputs": [
        {
          "internalType": "address",
          "name": "user",
          "type": "address"
        }
      ],
      "name": "getUserAccountData",
      "outputs": [
        {
          "internalType": "uint256",
          "name": "totalCollateralETH",
          "type": "uint256"
        },
        {
          "internalType": "uint256",
          "name": "totalDebtETH",
          "type": "uint256"
        },
        {
          "internalType": "uint256",
          "name": "availableBorrowsETH",
          "type": "uint256"
        },
        {
          "internalType": "uint256",
          "name": "currentLiquidationThreshold",
          "type": "uint256"
        },
        {
          "internalType": "uint256",
          "name": "ltv",
          "type": "uint256"
        },
        {
          "internalType": "uint256",
          "name": "healthFactor",
          "type": "uint256"
        }
      ],
      "stateMutability": "view",
      "type": "function"
    },
    {
      "inputs": [
        {
          "internalType": "address",
          "name": "user",
          "type": "address"
        }
      ],
      "name": "getUserConfiguration",
      "outputs": [
        {
          "components": [
            {
              "internalType": "uint256[2]",
              "name": "data",
              "type": "uint256[2]"
            }
          ],
          "internalType": "struct DataTypes.UserConfigurationMap",
          "name": "",
          "type": "tuple"
        }
      ],
      "stateMutability": "view",
      "type": "function"
    },
    {
      "inputs": [
        {
          "internalType": "address",
          "name": "asset",
          "type": "address"
        },
        {
          "internalType": "address",
          "name": "aTokenAddress",
          "type": "address"
        },
        {
          "internalType": "address",
          "name": "stableDebtAddress",
          "type": "address"
        },
        {
          "internalType": "address",
          "name": "variableDebtAddress",
          "type": "address"
        },
        {
          "internalType": "address",
          "name": "interestRateStrategyAddress",
          "type": "address"
        }
      ],
      "name": "initReserve",
      "outputs": [],
      "stateMutability": "nonpayable",
      "type": "function"
    },
    {
      "inputs": [
        {
          "internalType": "contract ILendingPoolAddressesProvider",
          "name": "provider",
          "type": "address"
        }
      ],
      "name": "initialize",
      "outputs": [],
      "stateMutability": "nonpayable",
      "type": "function"
    },
    {
      "inputs": [
        {
          "internalType": "address",
          "name": "collateralAsset",
          "type": "address"
        },
        {
          "internalType": "address",
          "name": "debtAsset",
          "type": "address"
        },
        {
          "internalType": "address",
          "name": "user",
          "type": "address"
        },
        {
          "internalType": "uint256",
          "name": "debtToCover",
          "type": "uint256"
        },
        {
          "internalType": "bool",
          "name": "receiveAToken",
          "type": "bool"
        }
      ],
      "name": "liquidationCall",
      "outputs": [],
      "stateMutability": "nonpayable",
      "type": "function"
    },
    {
      "inputs": [],
      "name": "paused",
      "outputs": [
        {
          "internalType": "bool",
          "name": "",
          "type": "bool"
        }
      ],
      "stateMutability": "view",
      "type": "function"
    },
    {
      "inputs": [
        {
          "internalType": "address",
          "name": "asset",
          "type": "address"
        },
        {
          "internalType": "address",
          "name": "user",
          "type": "address"
        }
      ],
      "name": "rebalanceStableBorrowRate",
      "outputs": [],
      "stateMutability": "nonpayable",
      "type": "function"
    },
    {
      "inputs": [
        {
          "internalType": "address",
          "name": "asset",
          "type": "address"
        },
        {
          "internalType": "uint256",
          "name": "amount",
          "type": "uint256"
        },
        {
          "internalType": "uint256",
          "name": "rateMode",
          "type": "uint256"
        },
        {
          "internalType": "address",
          "name": "onBehalfOf",
          "type": "address"
        }
      ],
      "name": "repay",
      "outputs": [
        {
          "internalType": "uint256",
          "name": "",
          "type": "uint256"
        }
      ],
      "stateMutability": "nonpayable",
      "type": "function"
    },
    {
      "inputs": [
        {
          "internalType": "address",
          "name": "asset",
          "type": "address"
        },
        {
          "internalType": "uint256",
          "name": "configuration",
          "type": "uint256"
        }
      ],
      "name": "setConfiguration",
      "outputs": [],
      "stateMutability": "nonpayable",
      "type": "function"
    },
    {
      "inputs": [
        {
          "internalType": "bool",
          "name": "val",
          "type": "bool"
        }
      ],
      "name": "setPause",
      "outputs": [],
      "stateMutability": "nonpayable",
      "type": "function"
    },
    {
      "inputs": [
        {
          "internalType": "address",
          "name": "asset",
          "type": "address"
        },
        {
          "internalType": "address",
          "name": "rateStrategyAddress",
          "type": "address"
        }
      ],
      "name": "setReserveInterestRateStrategyAddress",
      "outputs": [],
      "stateMutability": "nonpayable",
      "type": "function"
    },
    {
      "inputs": [
        {
          "internalType": "address",
          "name": "asset",
          "type": "address"
        },
        {
          "internalType": "bool",
          "name": "useAsCollateral",
          "type": "bool"
        }
      ],
      "name": "setUserUseReserveAsCollateral",
      "outputs": [],
      "stateMutability": "nonpayable",
      "type": "function"
    },
    {
      "inputs": [
        {
          "internalType": "address",
          "name": "asset",
          "type": "address"
        },
        {
          "internalType": "uint256",
          "name": "rateMode",
          "type": "uint256"
        }
      ],
      "name": "swapBorrowRateMode",
      "outputs": [],
      "stateMutability": "nonpayable",
      "type": "function"
    },
    {
      "inputs": [
        {
          "internalType": "address",
          "name": "asset",
          "type": "address"
        },
        {
          "internalType": "uint256",
          "name": "amount",
          "type": "uint256"
        },
        {
          "internalType": "address",
          "name": "to",
          "type": "address"
        }
      ],
      "name": "withdraw",
      "outputs": [
        {
          "internalType": "uint256",
          "name": "",
          "type": "uint256"
        }
      ],
      "stateMutability": "nonpayable",
      "type": "function"
    }
  ],
  "bytecode": "0x60806040526000805534801561001457600080fd5b50615cbe80620000256000396000f3fe608060405234801561001057600080fd5b50600436106101ce5760003560e01c8063a415bcad11610104578063cd112382116100a2578063e82fec2f11610071578063e82fec2f146103ed578063e8eda9df146103f5578063f8119d5114610408578063fe65acfe14610410576101ce565b8063cd1123821461039f578063d15e0053146103b2578063d1946dbc146103c5578063d5ed3933146103da576101ce565b8063bedb86fb116100de578063bedb86fb14610334578063bf92857c14610347578063c44b11f71461036c578063c4d66de81461038c576101ce565b8063a415bcad146102fb578063ab9c4b5d1461030e578063b8d2927614610321576101ce565b8063573ade811161017157806369328dec1161014b57806369328dec146102ba5780637a708e92146102cd5780638afaff02146102e057806394ba89a2146102e8576101ce565b8063573ade811461027f5780635a3b74b9146102925780635c975abb146102a5576101ce565b80631d2118f9116101ad5780631d2118f91461021957806335ea6a751461022c578063386497fd1461024c5780634417a5831461025f576101ce565b8062a718a9146101d35780630126fd99146101e8578063074b2e43146101fb575b600080fd5b6101e66101e1366004614e1c565b610425565b005b6101e66101f63660046150bb565b6105fb565b6102036109b8565b6040516102109190615b56565b60405180910390f35b6101e6610227366004614d46565b6109be565b61023f61023a366004614d0e565b6109f7565b6040516102109190615936565b61020361025a366004614d0e565b610ad9565b61027261026d366004614d0e565b610b00565b6040516102109190615b23565b61020361028d36600461517b565b610b62565b6101e66102a0366004614fd1565b610efc565b6102ad6110b0565b604051610210919061581e565b6102036102c8366004615029565b6110b9565b6101e66102db366004614dac565b6113e3565b6102036114c5565b6101e66102f6366004614ffe565b6114ca565b6101e66103093660046151c4565b611837565b6101e661031c366004614ed9565b6118b7565b6101e661032f366004614ffe565b611fee565b6101e6610342366004615203565b612012565b61035a610355366004614d0e565b61208d565b60405161021096959493929190615ba8565b61037f61037a366004614d0e565b6121a4565b604051610210919061592c565b6101e661039a366004614d0e565b6121d7565b6101e66103ad366004614d46565b612280565b6102036103c0366004614d0e565b6124f6565b6103cd612517565b60405161021091906157d1565b6101e66103e8366004614e75565b6125bc565b6102036127f4565b6101e661040336600461506a565b6127fa565b610203612a84565b610418612a8a565b6040516102109190615476565b61042d612a99565b6034546040805163712d917160e01b815290516000926001600160a01b03169163712d9171916004808301926020929190829003018186803b15801561047257600080fd5b505afa158015610486573d6000803e3d6000fd5b505050506040513d601f19601f820116820180604052508101906104aa9190614d2a565b905060006060826001600160a01b031688888888886040516024016104d395949392919061559c565b60408051601f198184030181529181526020820180516001600160e01b031662a718a960e01b17905251610507919061545a565b600060405180830381855af49150503d8060008114610542576040519150601f19603f3d011682016040523d82523d6000602084013e610547565b606091505b50915091508160405180604001604052806002815260200161323360f01b8152509061058f5760405162461bcd60e51b81526004016105869190615829565b60405180910390fd5b5060006060828060200190518101906105a89190615253565b9150915081600014816040516020016105c1919061545a565b604051602081830303815290604052906105ee5760405162461bcd60e51b81526004016105869190615829565b5050505050505050505050565b610603612a99565b6001600160a01b038916600090815260356020526040908190209051630eca322b60e01b815273__$de8c0cf1a7d7c36c802af9a64fb9d86036$__90630eca322b906106559084908d90600401615ad0565b60006040518083038186803b15801561066d57600080fd5b505af4158015610681573d6000803e3d6000fd5b5050505060048101546001600160a01b031661069c82612ad7565b6106aa828c838d6000612ba4565b6040516323b872dd60e01b81526001600160a01b038c16906323b872dd906106da90339085908f906004016154bb565b602060405180830381600087803b1580156106f457600080fd5b505af1158015610708573d6000803e3d6000fd5b505050506040513d601f19601f8201168201806040525081019061072c919061521f565b506000816001600160a01b031663156e29f68b8d8660010160009054906101000a90046001600160801b03166040518463ffffffff1660e01b815260040161077693929190615572565b602060405180830381600087803b15801561079057600080fd5b505af11580156107a4573d6000803e3d6000fd5b505050506040513d601f19601f820116820180604052508101906107c8919061521f565b905080156108315760078301546001600160a01b038b16600090815260366020526040902061080291600160a01b900460ff166001612f12565b896001600160a01b03168c6001600160a01b0316600080516020615c6983398151915260405160405180910390a35b6108606040518060400160405280600d81526020016c66756e64204f776e65723a257360981b81525033612fa5565b61088a6040518060400160405280600881526020016761737365743a257360c01b8152508d612fa5565b73525c7063e7c20997baae9bda922159152d0e841763f0bb66ac338e8989896000816108b257fe5b90506020028101906108c49190615bd0565b8b8b60018181106108d157fe5b90506020028101906108e39190615bd0565b6040518863ffffffff1660e01b815260040161090597969594939291906154df565b6040805180830381600087803b15801561091e57600080fd5b505af1158015610932573d6000803e3d6000fd5b505050506040513d601f19601f820116820180604052508101906109569190614d7e565b50508861ffff168a6001600160a01b03168d6001600160a01b03167fde6857219544bb5b7746f48ed30be6386fefc61b2f864cacf559893bf50fd951338f6040516109a2929190615559565b60405180910390a4505050505050505050505050565b603b5490565b6109c6612fee565b6001600160a01b03918216600090815260356020526040902060070180546001600160a01b03191691909216179055565b6109ff614a26565b506001600160a01b0381811660009081526035602090815260409182902082516101a08101845281546101808201908152815260018201546001600160801b0380821694830194909452600160801b908190048416948201949094526002820154808416606083015284900483166080820152600382015492831660a08201529290910464ffffffffff1660c08301526004810154831660e0830152600581015483166101008301526006810154831661012083015260070154918216610140820152600160a01b90910460ff166101608201525b919050565b6001600160a01b0381166000908152603560205260408120610afa906130ad565b92915050565b610b08614a91565b6001600160a01b03821660009081526036602090815260409182902082516060810190935290829081018260028282826020028201915b815481526020019060010190808311610b3f575050505050815250509050919050565b6000610b6c612a99565b6001600160a01b03851660009081526035602052604081209080610b908584613124565b915091506000866002811115610ba257fe5b60405163fa0c214960e01b815290915073__$de8c0cf1a7d7c36c802af9a64fb9d86036$__9063fa0c214990610be69087908c9086908c908a908a90600401615ade565b60006040518083038186803b158015610bfe57600080fd5b505af4158015610c12573d6000803e3d6000fd5b506000925060019150610c229050565b826002811115610c2e57fe5b14610c395782610c3b565b835b905080891015610c485750875b610c5185612ad7565b6001826002811115610c5f57fe5b1415610cd0576005850154604051632770a7eb60e21b81526001600160a01b0390911690639dc29fac90610c99908a908590600401615559565b600060405180830381600087803b158015610cb357600080fd5b505af1158015610cc7573d6000803e3d6000fd5b50505050610d4e565b60068501546001860154604051637a94c56560e11b81526001600160a01b039092169163f5298aca91610d1b918b918691600160801b9091046001600160801b031690600401615572565b600060405180830381600087803b158015610d3557600080fd5b505af1158015610d49573d6000803e3d6000fd5b505050505b60048501546001600160a01b0316610d6a868c83856000612ba4565b610d7e82610d788787613239565b9061325e565b610db65760078601546001600160a01b0389166000908152603660205260408120610db6929091600160a01b90910460ff16906132a0565b6040516323b872dd60e01b81526001600160a01b038c16906323b872dd90610de6903390859087906004016154bb565b602060405180830381600087803b158015610e0057600080fd5b505af1158015610e14573d6000803e3d6000fd5b505050506040513d601f19601f82011682018060405250810190610e38919061521f565b506040516388dd91a160e01b81526001600160a01b038216906388dd91a190610e679033908690600401615559565b600060405180830381600087803b158015610e8157600080fd5b505af1158015610e95573d6000803e3d6000fd5b50505050336001600160a01b0316886001600160a01b03168c6001600160a01b03167f4cdde6e09bb755c9a5589ebaec640bbfedff1362d4b255ebf8339782b9942faa85604051610ee69190615b56565b60405180910390a4509998505050505050505050565b610f04612a99565b6001600160a01b03808316600090815260356020818152604080842033855260368352938190206038546034548351631f94a27560e31b81529351969773__$de8c0cf1a7d7c36c802af9a64fb9d86036$__97635fa297e5978a978d978d9792969295603795939493169263fca513a892600480840193919291829003018186803b158015610f9257600080fd5b505afa158015610fa6573d6000803e3d6000fd5b505050506040513d601f19601f82011682018060405250810190610fca9190614d2a565b6040518963ffffffff1660e01b8152600401610fed989796959493929190615a57565b60006040518083038186803b15801561100557600080fd5b505af4158015611019573d6000803e3d6000fd5b50505050600781015433600090815260366020526040902061104591600160a01b900460ff1684612f12565b81156110745760405133906001600160a01b03851690600080516020615c6983398151915290600090a36110ab565b60405133906001600160a01b038516907f44c58d81365b66dd4b1a7f36c25aa97b8c71c361ee4937adc1a00000227db5dd90600090a35b505050565b60395460ff1690565b60006110c3612a99565b6001600160a01b0380851660009081526035602052604080822060048082015492516370a0823160e01b8152919492909216929183916370a082319161110b91339101615476565b60206040518083038186803b15801561112357600080fd5b505afa158015611137573d6000803e3d6000fd5b505050506040513d601f19601f8201168201806040525081019061115b919061523b565b90508560001981141561116b5750805b73__$de8c0cf1a7d7c36c802af9a64fb9d86036$__63d09db04a898385603560366000336001600160a01b03166001600160a01b031681526020019081526020016000206037603854603460009054906101000a90046001600160a01b03166001600160a01b031663fca513a86040518163ffffffff1660e01b815260040160206040518083038186803b15801561120257600080fd5b505afa158015611216573d6000803e3d6000fd5b505050506040513d601f19601f8201168201806040525081019061123a9190614d2a565b6040518963ffffffff1660e01b815260040161125d9897969594939291906156a1565b60006040518083038186803b15801561127557600080fd5b505af4158015611289573d6000803e3d6000fd5b5050505061129684612ad7565b6112a4848985600085612ba4565b8181141561130e5760078401543360009081526036602052604081206112d7929091600160a01b90910460ff1690612f12565b60405133906001600160a01b038a16907f44c58d81365b66dd4b1a7f36c25aa97b8c71c361ee4937adc1a00000227db5dd90600090a35b6001840154604051636b81068560e11b81526001600160a01b0385169163d7020d0a9161134f9133918b9187916001600160801b039091169060040161548a565b600060405180830381600087803b15801561136957600080fd5b505af115801561137d573d6000803e3d6000fd5b50505050856001600160a01b0316336001600160a01b0316896001600160a01b03167f3115d1449a7b732c986cba18244e897a450f61e1bb8d589cd2e69e6c8924f9f7846040516113ce9190615b56565b60405180910390a493505050505b9392505050565b6113eb612fee565b6113f485613315565b6040518060400160405280600281526020016106e760f31b8152509061142d5760405162461bcd60e51b81526004016105869190615829565b506001600160a01b038516600090815260356020526040908190209051630acce25f60e21b815273__$22cd43a9dda9ce44e9b92ba393b88fb9ac$__91632b33897c9161148591908890889088908890600401615a29565b60006040518083038186803b15801561149d57600080fd5b505af41580156114b1573d6000803e3d6000fd5b505050506114be8561334e565b5050505050565b600281565b6114d2612a99565b6001600160a01b038216600090815260356020526040812090806114f63384613124565b91509150600084600281111561150857fe5b3360009081526036602052604090819020905163a8695b1d60e01b815291925073__$de8c0cf1a7d7c36c802af9a64fb9d86036$__9163a8695b1d9161155991889190889088908890600401615a99565b60006040518083038186803b15801561157157600080fd5b505af4158015611585573d6000803e3d6000fd5b5050505061159284612ad7565b60018160028111156115a057fe5b14156116b0576005840154604051632770a7eb60e21b81526001600160a01b0390911690639dc29fac906115da9033908790600401615559565b600060405180830381600087803b1580156115f457600080fd5b505af1158015611608573d6000803e3d6000fd5b505050506006840154600185015460405163b3f1c93d60e01b81526001600160a01b039092169163b3f1c93d9161165891339182918991600160801b90046001600160801b03169060040161548a565b602060405180830381600087803b15801561167257600080fd5b505af1158015611686573d6000803e3d6000fd5b505050506040513d601f19601f820116820180604052508101906116aa919061521f565b506117c6565b60068401546001850154604051637a94c56560e11b81526001600160a01b039092169163f5298aca916116fb9133918791600160801b9091046001600160801b031690600401615572565b600060405180830381600087803b15801561171557600080fd5b505af1158015611729573d6000803e3d6000fd5b505050506005840154600385015460405163b3f1c93d60e01b81526001600160a01b039092169163b3f1c93d91611772913391829188916001600160801b03169060040161548a565b602060405180830381600087803b15801561178c57600080fd5b505af11580156117a0573d6000803e3d6000fd5b505050506040513d601f19601f820116820180604052508101906117c4919061521f565b505b60048401546117e490859088906001600160a01b0316600080612ba4565b336001600160a01b0316866001600160a01b03167fea368a40e9570069bb8e6511d668293ad2e1f03b0d982431fd223de9f3b70ca6876040516118279190615b56565b60405180910390a3505050505050565b61183f612a99565b6001600160a01b038086166000818152603560209081526040918290208251610100810184529384523391840191909152848416918301919091526060820187905260808201869052600481015490921660a082015261ffff841660c0820152600160e08201526118af90613457565b505050505050565b6118bf612a99565b6118c7614aa9565b6119348b8b8080602002602001604051908101604052809392919081815260200183836020028082843760009201919091525050604080516020808f0282810182019093528e82529093508e92508d91829185019084908082843760009201919091525061395092505050565b60608a67ffffffffffffffff8111801561194d57600080fd5b50604051908082528060200260200182016040528015611977578160200160208202803683370190505b50905060608b67ffffffffffffffff8111801561199357600080fd5b506040519080825280602002602001820160405280156119bd578160200160208202803683370190505b506001600160a01b038f1684526000604085015290505b60408301518c1115611b8157603560008e8e86604001518181106119f457fe5b9050602002016020810190611a099190614d0e565b6001600160a01b03166001600160a01b0316815260200190815260200160002060040160009054906101000a90046001600160a01b031682846040015181518110611a5057fe5b60200260200101906001600160a01b031690816001600160a01b031681525050611aa7612710611aa1603b548e8e8860400151818110611a8c57fe5b9050602002013561398e90919063ffffffff16565b906139c8565b81846040015181518110611ab757fe5b60200260200101818152505081836040015181518110611ad357fe5b60200260200101516001600160a01b0316634efecaa58f8d8d8760400151818110611afa57fe5b905060200201356040518363ffffffff1660e01b8152600401611b1e929190615559565b602060405180830381600087803b158015611b3857600080fd5b505af1158015611b4c573d6000803e3d6000fd5b505050506040513d601f19601f82011682018060405250810190611b70919061523b565b5060408301805160010190526119d4565b82600001516001600160a01b031663920f5c848e8e8e8e86338d8d6040518963ffffffff1660e01b8152600401611bbf98979695949392919061570d565b602060405180830381600087803b158015611bd957600080fd5b505af1158015611bed573d6000803e3d6000fd5b505050506040513d601f19601f82011682018060405250810190611c11919061521f565b604051806040016040528060028152602001611b1b60f11b81525090611c4a5760405162461bcd60e51b81526004016105869190615829565b50600060408401525b60408301518c1115611fde578c8c8460400151818110611c6f57fe5b9050602002016020810190611c849190614d0e565b6001600160a01b0316606084015260408301518b908b90818110611ca457fe5b905060200201358360a001818152505080836040015181518110611cc457fe5b60200260200101518360c001818152505081836040015181518110611ce557fe5b60209081029190910101516001600160a01b0316608084015260c083015160a0840151611d1191613239565b60e0840152600089898560400151818110611d2857fe5b905060200201356002811115611d3a57fe5b6002811115611d4557fe5b1415611eda5760608301516001600160a01b03166000908152603560205260409020611d7090612ad7565b611e1083608001516001600160a01b03166318160ddd6040518163ffffffff1660e01b815260040160206040518083038186803b158015611db057600080fd5b505afa158015611dc4573d6000803e3d6000fd5b505050506040513d601f19601f82011682018060405250810190611de8919061523b565b60c085015160608601516001600160a01b031660009081526035602052604090209190613a0a565b6060830151608084015160e08501516001600160a01b0383166000908152603560205260408120611e4694909390929091612ba4565b82606001516001600160a01b03166323b872dd8f85608001518660e001516040518463ffffffff1660e01b8152600401611e82939291906154bb565b602060405180830381600087803b158015611e9c57600080fd5b505af1158015611eb0573d6000803e3d6000fd5b505050506040513d601f19601f82011682018060405250810190611ed4919061521f565b50611f69565b611f6960405180610100016040528085606001516001600160a01b03168152602001336001600160a01b03168152602001896001600160a01b031681526020018560a0015181526020018b8b8760400151818110611f3457fe5b90506020020135815260200185608001516001600160a01b031681526020018661ffff16815260200160001515815250613457565b82606001516001600160a01b0316336001600160a01b03168f6001600160a01b03167f631042c832b07452973831137f2d73e395028b44b250dedc5abb0ee766e168ac8660a001518760c0015189604051611fc693929190615b5f565b60405180910390a46040830180516001019052611c53565b5050505050505050505050505050565b611ff6612fee565b6001600160a01b03909116600090815260356020526040902055565b61201a612fee565b6039805460ff1916821515179081905560ff1615612060576040517f9e87fac88ff661f02d44f95383c817fece4bce600a3dab7a54406878b965e75290600090a161208a565b6040517fa45f47fdea8a1efdd9029a5691c7f759c32b7c698632b563573e155625d1693390600090a15b50565b6001600160a01b03811660009081526036602090815260408083208151606081019283905284938493849384938493612181938b936035939290918391820190839060029082845b8154815260200190600101908083116120d5575050505050815250506037603854603460009054906101000a90046001600160a01b03166001600160a01b031663fca513a86040518163ffffffff1660e01b815260040160206040518083038186803b15801561214457600080fd5b505afa158015612158573d6000803e3d6000fd5b505050506040513d601f19601f8201168201806040525081019061217c9190614d2a565b613ac7565b93995091975090945092509050612199868684613f88565b935091939550919395565b6121ac614af5565b506001600160a01b031660009081526035602090815260409182902082519182019092529054815290565b60006121e1613fbc565b60015490915060ff16806121f857506121f8613fc1565b80612204575060005481115b6122205760405162461bcd60e51b8152600401610586906158de565b60015460ff1615801561223f576001805460ff19168117905560008290555b603480546001600160a01b0319166001600160a01b0385161790556109c4603a556009603b55610100603c5580156110ab576001805460ff19169055505050565b612288612a99565b6001600160a01b038083166000908152603560205260408082206005810154600682015460048084015494516370a0823160e01b81529396928316959183169490921692909185916370a08231916122e2918a9101615476565b60206040518083038186803b1580156122fa57600080fd5b505afa15801561230e573d6000803e3d6000fd5b505050506040513d601f19601f82011682018060405250810190612332919061523b565b60405163548cad0960e01b815290915073__$de8c0cf1a7d7c36c802af9a64fb9d86036$__9063548cad09906123749088908b90899089908990600401615a29565b60006040518083038186803b15801561238c57600080fd5b505af41580156123a0573d6000803e3d6000fd5b505050506123ad85612ad7565b604051632770a7eb60e21b81526001600160a01b03851690639dc29fac906123db9089908590600401615559565b600060405180830381600087803b1580156123f557600080fd5b505af1158015612409573d6000803e3d6000fd5b505050600386015460405163b3f1c93d60e01b81526001600160a01b038716925063b3f1c93d9161244c918a91829187916001600160801b03169060040161548a565b602060405180830381600087803b15801561246657600080fd5b505af115801561247a573d6000803e3d6000fd5b505050506040513d601f19601f8201168201806040525081019061249e919061521f565b506124ad858884600080612ba4565b856001600160a01b0316876001600160a01b03167f9f439ae0c81e41a04d3fdfe07aed54e6a179fb0db15be7702eb66fa8ef6f530060405160405180910390a350505050505050565b6001600160a01b0381166000908152603560205260408120610afa90613fc7565b60608060385467ffffffffffffffff8111801561253357600080fd5b5060405190808252806020026020018201604052801561255d578160200160208202803683370190505b50905060005b6038548110156125b65760008181526037602052604090205482516001600160a01b039091169083908390811061259657fe5b6001600160a01b0390921660209283029190910190910152600101612563565b50905090565b6125c4612a99565b6001600160a01b038681166000908152603560209081526040918290206004015482518084019093526002835261363360f01b9183019190915290911633146126205760405162461bcd60e51b81526004016105869190615829565b506126dc85603560366000896001600160a01b03166001600160a01b031681526020019081526020016000206037603854603460009054906101000a90046001600160a01b03166001600160a01b031663fca513a86040518163ffffffff1660e01b815260040160206040518083038186803b15801561269f57600080fd5b505afa1580156126b3573d6000803e3d6000fd5b505050506040513d601f19601f820116820180604052508101906126d79190614d2a565b614026565b6001600160a01b03868116600090815260356020526040902060070154600160a01b900460ff1690858116908716146127eb57612719838561325e565b612785576001600160a01b0386166000908152603660205260408120906127439082908490612f12565b866001600160a01b0316886001600160a01b03167f44c58d81365b66dd4b1a7f36c25aa97b8c71c361ee4937adc1a00000227db5dd60405160405180910390a3505b8115801561279257508315155b156127eb576001600160a01b03851660009081526036602052604090206127bb81836001612f12565b856001600160a01b0316886001600160a01b0316600080516020615c6983398151915260405160405180910390a3505b50505050505050565b603a5490565b612802612a99565b6001600160a01b038416600090815260356020526040908190209051630eca322b60e01b815273__$de8c0cf1a7d7c36c802af9a64fb9d86036$__90630eca322b906128549084908890600401615ad0565b60006040518083038186803b15801561286c57600080fd5b505af4158015612880573d6000803e3d6000fd5b5050505060048101546001600160a01b031661289b82612ad7565b6128a9828783886000612ba4565b6040516323b872dd60e01b81526001600160a01b038716906323b872dd906128d990339085908a906004016154bb565b602060405180830381600087803b1580156128f357600080fd5b505af1158015612907573d6000803e3d6000fd5b505050506040513d601f19601f8201168201806040525081019061292b919061521f565b506001820154604051630ab714fb60e11b81526000916001600160a01b0384169163156e29f69161296e9189918b916001600160801b0390911690600401615572565b602060405180830381600087803b15801561298857600080fd5b505af115801561299c573d6000803e3d6000fd5b505050506040513d601f19601f820116820180604052508101906129c0919061521f565b90508015612a295760078301546001600160a01b03861660009081526036602052604090206129fa91600160a01b900460ff166001612f12565b846001600160a01b0316876001600160a01b0316600080516020615c6983398151915260405160405180910390a35b8361ffff16856001600160a01b0316886001600160a01b03167fde6857219544bb5b7746f48ed30be6386fefc61b2f864cacf559893bf50fd951338a604051612a73929190615559565b60405180910390a450505050505050565b603c5490565b6034546001600160a01b031690565b6039546040805180820190915260028152610d8d60f21b60208201529060ff161561208a5760405162461bcd60e51b81526004016105869190615829565b60068101546040805163b1bf962d60e01b815290516000926001600160a01b03169163b1bf962d916004808301926020929190829003018186803b158015612b1e57600080fd5b505afa158015612b32573d6000803e3d6000fd5b505050506040513d601f19601f82011682018060405250810190612b56919061523b565b60018301546003840154919250600160801b8082046001600160801b03908116939216910464ffffffffff16600080612b9287878688876140c7565b915091506127eb878787858588614224565b612bac614b08565b60058601546001600160a01b031680825260408051637b98f4df60e11b8152815163f731e9be92600480840193919291829003018186803b158015612bf057600080fd5b505afa158015612c04573d6000803e3d6000fd5b505050506040513d601f19601f82011682018060405250810190612c2891906152fa565b60c083015260408083019190915260018701546006880154825163b1bf962d60e01b81529251612cd393600160801b9093046001600160801b0316926001600160a01b039092169163b1bf962d916004808301926020929190829003018186803b158015612c9557600080fd5b505afa158015612ca9573d6000803e3d6000fd5b505050506040513d601f19601f82011682018060405250810190612ccd919061523b565b906143e7565b60e082018190526007870154604083015160c08401516001600160a01b03909216926329db497d9289928992899289929190612d0e8f61447a565b6040518963ffffffff1660e01b8152600401612d319897969594939291906155f9565b60606040518083038186803b158015612d4957600080fd5b505afa158015612d5d573d6000803e3d6000fd5b505050506040513d601f19601f82011682018060405250810190612d81919061531d565b60a0840152608083015260608201819052604080518082019091526002815261353360f01b6020820152906001600160801b031015612dd35760405162461bcd60e51b81526004016105869190615829565b506080810151604080518082019091526002815261353560f01b6020820152906001600160801b031015612e1a5760405162461bcd60e51b81526004016105869190615829565b5060a08101516040805180820190915260028152610d4d60f21b6020820152906001600160801b031015612e615760405162461bcd60e51b81526004016105869190615829565b506060810151600287018054608084015160038a0180546001600160801b03199081166001600160801b038085169190911790925560a08701519316818616178116600160801b84831681029190911790945560018b01546040516001600160a01b038c16967f804c9b842b2748a22bb64b345453a3de7ca54a6ca45ce00d415894979e22897a96612f029691959491938083169391900490911690615b79565b60405180910390a2505050505050565b604080518082019091526002815261373760f01b60208201526101008310612f4d5760405162461bcd60e51b81526004016105869190615829565b50607f821691608090046001600284020182612f6a576000612f6d565b60015b60ff16901b836002026001016001901b19856000018360028110612f8d57fe5b01541617848260028110612f9d57fe5b015550505050565b612fea8282604051602401612fbb92919061583c565b60408051601f198184030181529190526020810180516001600160e01b031663319af33360e01b179052614485565b5050565b603454604080516385c858b160e01b8152905133926001600160a01b0316916385c858b1916004808301926020929190829003018186803b15801561303257600080fd5b505afa158015613046573d6000803e3d6000fd5b505050506040513d601f19601f8201168201806040525081019061306a9190614d2a565b6001600160a01b03161460405180604001604052806002815260200161323760f01b8152509061208a5760405162461bcd60e51b81526004016105869190615829565b600381015460009064ffffffffff600160801b90910481169042168114156130eb5750506001810154600160801b90046001600160801b0316610ad4565b6001830154600284015460009161311c916001600160801b03600160801b92839004811692612ccd920416856144a6565b949350505050565b60058101546040516370a0823160e01b815260009182916001600160a01b03909116906370a082319061315b908790600401615476565b60206040518083038186803b15801561317357600080fd5b505afa158015613187573d6000803e3d6000fd5b505050506040513d601f19601f820116820180604052508101906131ab919061523b565b60068401546040516370a0823160e01b81526001600160a01b03909116906370a08231906131dd908890600401615476565b60206040518083038186803b1580156131f557600080fd5b505afa158015613209573d6000803e3d6000fd5b505050506040513d601f19601f8201168201806040525081019061322d919061523b565b915091505b9250929050565b6000828201838110156113dc5760405162461bcd60e51b815260040161058690615866565b60006113dc83836040518060400160405280601e81526020017f536166654d6174683a207375627472616374696f6e206f766572666c6f7700008152506144b3565b604080518082019091526002815261373760f01b602082015261010083106132db5760405162461bcd60e51b81526004016105869190615829565b50607f8216916080900460028302826132f55760006132f8565b60015b60ff16901b836002026001901b19856000018360028110612f8d57fe5b6000813f7fc5d2460186f7233c927e7db2dcc703c0e500b653ca82273b7bfad8045d85a47081811480159061311c575050151592915050565b603854603c54604080518082019091526002815261363560f01b602082015290821061338d5760405162461bcd60e51b81526004016105869190615829565b506001600160a01b038216600090815260356020526040812060070154600160a01b900460ff161515806133f657506000805260376020527fa0a618d80eda9243166be83cb7421d97e9dab6ddddd3c70ac7a6b4440256e8e7546001600160a01b038481169116145b9050806110ab57506001600160a01b03919091166000818152603560209081526040808320600701805460ff60a01b1916600160a01b60ff8816021790558483526037909152902080546001600160a01b0319169091179055600101603855565b80516001600160a01b0390811660009081526035602090815260408083208186015185168452603683528184206034548351631f94a27560e31b81529351929691959491169263fca513a89260048083019392829003018186803b1580156134be57600080fd5b505afa1580156134d2573d6000803e3d6000fd5b505050506040513d601f19601f820116820180604052508101906134f69190614d2a565b90506000613597613506856144df565b600a0a611aa18760600151856001600160a01b031663b3596f078a600001516040518263ffffffff1660e01b81526004016135419190615476565b60206040518083038186803b15801561355957600080fd5b505afa15801561356d573d6000803e3d6000fd5b505050506040513d601f19601f82011682018060405250810190613591919061523b565b9061398e565b905073__$de8c0cf1a7d7c36c802af9a64fb9d86036$__63721a92f986600001518688604001518960600151868b60800151603a5460358c60376038548e6040518d63ffffffff1660e01b81526004016135fc9c9b9a9998979695949392919061563d565b60006040518083038186803b15801561361457600080fd5b505af4158015613628573d6000803e3d6000fd5b5050505061363584612ad7565b60008060018760800151600281111561364a57fe5b600281111561365557fe5b141561370a576003860154600587015460208901516040808b015160608c0151915163b3f1c93d60e01b81526001600160801b0390951696506001600160a01b039093169363b3f1c93d936136b19392909188906004016155d0565b602060405180830381600087803b1580156136cb57600080fd5b505af11580156136df573d6000803e3d6000fd5b505050506040513d601f19601f82011682018060405250810190613703919061521f565b90506137b9565b600686015460208801516040808a015160608b015160018b0154925163b3f1c93d60e01b81526001600160a01b039095169463b3f1c93d946137649490939291600160801b9091046001600160801b03169060040161548a565b602060405180830381600087803b15801561377e57600080fd5b505af1158015613792573d6000803e3d6000fd5b505050506040513d601f19601f820116820180604052508101906137b6919061521f565b90505b80156137db5760078601546137db908690600160a01b900460ff1660016132a0565b61380a87600001518860a0015160008a60e001516137fa576000613800565b8a606001515b8a93929190612ba4565b8660e00151156138a2578660a001516001600160a01b0316634efecaa5886020015189606001516040518363ffffffff1660e01b815260040161384e929190615559565b602060405180830381600087803b15801561386857600080fd5b505af115801561387c573d6000803e3d6000fd5b505050506040513d601f19601f820116820180604052508101906138a0919061523b565b505b8660c0015161ffff1687604001516001600160a01b031688600001516001600160a01b03167fc6a898309e823ee50bac64e45ca8adba6690e99e7841c45d754e2a38e9019d9b8a602001518b606001518c608001516001600281111561390457fe5b8e60800151600281111561391457fe5b600281111561391f57fe5b1461393e5760028d0154600160801b90046001600160801b0316613940565b885b604051612a7394939291906156e7565b805182511460405180604001604052806002815260200161373360f01b815250906110ab5760405162461bcd60e51b81526004016105869190615829565b60008261399d57506000610afa565b828202828482816139aa57fe5b04146113dc5760405162461bcd60e51b81526004016105869061589d565b60006113dc83836040518060400160405280601a81526020017f536166654d6174683a206469766973696f6e206279207a65726f0000000000008152506144e9565b6000613a27613a1884614520565b613a2184614520565b90614570565b90506000613a3d613a3661461b565b8390613239565b6001860154909150613a599082906001600160801b03166143e7565b604080518082019091526002815261353160f01b60208201529091506001600160801b03821115613a9d5760405162461bcd60e51b81526004016105869190615829565b5060019490940180546001600160801b0319166001600160801b0390951694909417909355505050565b6000806000806000613ad7614b56565b613ae08a61462b565b15613afe576000806000806000199550955095509550955050613f7a565b600060e08201525b878160e001511015613ed95760e0810151613b22908b90614670565b613b2b57613ec9565b60e0810151600090815260208a81526040808320546001600160a01b03166101e085018190528352908d90529020613b62816146e2565b506080860181905260c08601929092525060a0840191909152600a0a60208301526101e082015160405163b3596f0760e01b81526001600160a01b038a169163b3596f0791613bb49190600401615476565b60206040518083038186803b158015613bcc57600080fd5b505afa158015613be0573d6000803e3d6000fd5b505050506040513d601f19601f82011682018060405250810190613c04919061523b565b825260c082015115801590613c24575060e0820151613c24908c9061470d565b15613d42578060040160009054906101000a90046001600160a01b03166001600160a01b03166370a082318e6040518263ffffffff1660e01b8152600401613c6c9190615476565b60206040518083038186803b158015613c8457600080fd5b505afa158015613c98573d6000803e3d6000fd5b505050506040513d601f19601f82011682018060405250810190613cbc919061523b565b6040830181905260208301518351600092613cdb9291611aa19161398e565b610120840151909150613cee9082613239565b61012084015260a0830151613d1490613d0890839061398e565b61016085015190613239565b61016084015260c0830151613d3a90613d2e90839061398e565b61018085015190613239565b610180840152505b60e0820151613d52908c90614787565b15613ec7578060050160009054906101000a90046001600160a01b03166001600160a01b03166370a082318e6040518263ffffffff1660e01b8152600401613d9a9190615476565b60206040518083038186803b158015613db257600080fd5b505afa158015613dc6573d6000803e3d6000fd5b505050506040513d601f19601f82011682018060405250810190613dea919061523b565b826060018181525050613e948160060160009054906101000a90046001600160a01b03166001600160a01b03166370a082318f6040518263ffffffff1660e01b8152600401613e399190615476565b60206040518083038186803b158015613e5157600080fd5b505afa158015613e65573d6000803e3d6000fd5b505050506040513d601f19601f82011682018060405250810190613e89919061523b565b606084015190613239565b6060830181905260208301518351613ec092613eb49291611aa19161398e565b61014084015190613239565b6101408301525b505b60e0810180516001019052613b06565b600081610120015111613eed576000613f02565b610120810151610160820151613f02916139c8565b610160820152610120810151613f19576000613f2e565b610120810151610180820151613f2e916139c8565b6101808201819052610120820151610140830151613f4b926147e5565b610100820181905261012082015161014083015161016084015161018090940151919850965091945090925090505b965096509650965096915050565b600080613f958584614809565b905083811015613fa95760009150506113dc565b613fb3818561325e565b95945050505050565b600290565b303b1590565b600381015460009064ffffffffff600160801b9091048116904216811415613ffe57505060018101546001600160801b0316610ad4565b6001830154600284015460009161311c916001600160801b0391821691612ccd911685614878565b604080516060810190915260009061407390889088908881602081018260028282826020028201915b81548152602001906001019080831161404f57505050505081525050878787613ac7565b945050505050670de0b6b3a7640000811015604051806040016040528060018152602001601b60f91b815250906140bd5760405162461bcd60e51b81526004016105869190615829565b5050505050505050565b600285015460009081906001600160801b0316858582156141f55760006140ee8488614878565b90506140fa818a6143e7565b604080518082019091526002815261353160f01b60208201529093506001600160801b0384111561413e5760405162461bcd60e51b81526004016105869190615829565b5060018b0180546001600160801b0319166001600160801b03851617905589156141f35760028b015460009061418490600160801b90046001600160801b0316896144a6565b9050614190818a6143e7565b6040805180820190915260028152611a9960f11b60208201529093506001600160801b038411156141d45760405162461bcd60e51b81526004016105869190615829565b505060018b0180546001600160801b03808516600160801b0291161790555b505b600399909901805464ffffffffff60801b1916600160801b4264ffffffffff1602179055989650505050505050565b61422c614bf0565b6142358761447a565b610120820181905261424757506118af565b8660050160009054906101000a90046001600160a01b03166001600160a01b031663797743386040518163ffffffff1660e01b815260040160806040518083038186803b15801561429757600080fd5b505afa1580156142ab573d6000803e3d6000fd5b505050506040513d601f19601f820116820180604052508101906142cf919061534a565b64ffffffffff1661014085015260a0840152825260208201526142f286866143e7565b608082015261430186846143e7565b606082015260a0810151610140820151614323919064ffffffffff85166148b6565b60c082018190526020820151614338916143e7565b6040820181905260808201518251606084015161435d9392610d789290918391613239565b60e082018190526101208201516143749190614809565b6101008201819052156127eb57600480880154610100830151604051637df5bd3b60e01b81526001600160a01b0390921692637df5bd3b926143b99291899101615ad0565b600060405180830381600087803b1580156143d357600080fd5b505af11580156105ee573d6000803e3d6000fd5b60008215806143f4575081155b1561440157506000610afa565b816b019d971e4fe8401e74000000198161441757fe5b0483111560405180604001604052806002815260200161068760f31b815250906144545760405162461bcd60e51b81526004016105869190615829565b506b033b2e3c9fd0803ce80000006002815b04838502018161447257fe5b049392505050565b5460401c61ffff1690565b80516a636f6e736f6c652e6c6f67602083016000808483855afa5050505050565b60006113dc8383426148b6565b600081848411156144d75760405162461bcd60e51b81526004016105869190615829565b505050900390565b5460301c60ff1690565b6000818361450a5760405162461bcd60e51b81526004016105869190615829565b50600083858161451657fe5b0495945050505050565b6000633b9aca0082810290839082041460405180604001604052806002815260200161068760f31b815250906145695760405162461bcd60e51b81526004016105869190615829565b5092915050565b604080518082019091526002815261035360f41b6020820152600090826145aa5760405162461bcd60e51b81526004016105869190615829565b5060408051808201909152600280825261068760f31b60208301528304906b033b2e3c9fd0803ce80000008219048511156145f85760405162461bcd60e51b81526004016105869190615829565b5082816b033b2e3c9fd0803ce80000008602018161461257fe5b04949350505050565b6b033b2e3c9fd0803ce800000090565b6000805b600260ff8216101561466757825160ff82166002811061464b57fe5b60200201511561465f576000915050610ad4565b60010161462f565b50600192915050565b6000610100821060405180604001604052806002815260200161373760f01b815250906146b05760405162461bcd60e51b81526004016105869190615829565b508251607f831692608090049060028085029190839081106146ce57fe5b6020020151901c6003161515949350505050565b5461ffff80821692601083901c821692602081901c831692603082901c60ff169260409290921c1690565b6000610100821060405180604001604052806002815260200161373760f01b8152509061474d5760405162461bcd60e51b81526004016105869190615829565b506000608083049050608083069250826002026001018460000151826002811061477357fe5b6020020151901c6001161515949350505050565b6000610100821060405180604001604052806002815260200161373760f01b815250906147c75760405162461bcd60e51b81526004016105869190615829565b508251607f8316926080900490600280850291908390811061477357fe5b6000826147f557506000196113dc565b61311c836148038685614809565b9061498c565b6000821580614816575081155b1561482357506000610afa565b81611388198161482f57fe5b0483111560405180604001604052806002815260200161068760f31b8152509061486c5760405162461bcd60e51b81526004016105869190615829565b50612710600281614466565b60008061488c4264ffffffffff851661325e565b905061311c61489961461b565b6301e133806148a8878561398e565b816148af57fe5b0490613239565b6000806148ca8364ffffffffff861661325e565b9050806148e1576148d961461b565b9150506113dc565b60001981016000600283116148f75760006148fc565b600283035b90506301e133808704600061491182806143e7565b9050600061491f82846143e7565b905060006002614933846135918a8a61398e565b8161493a57fe5b049050600060066149518461359189818d8d61398e565b8161495857fe5b04905061497c81614976848161496e8a8e61398e565b61497661461b565b90613239565b9c9b505050505050505050505050565b604080518082019091526002815261035360f41b6020820152600090826149c65760405162461bcd60e51b81526004016105869190615829565b5060408051808201909152600280825261068760f31b6020830152830490670de0b6b3a7640000821904851115614a105760405162461bcd60e51b81526004016105869190615829565b508281670de0b6b3a76400008602018161461257fe5b604051806101800160405280614a3a614af5565b815260006020820181905260408201819052606082018190526080820181905260a0820181905260c0820181905260e082018190526101008201819052610120820181905261014082018190526101609091015290565b6040518060200160405280614aa4614c51565b905290565b6040805161012081018252600080825260208201819052918101829052606081018290526080810182905260a0810182905260c0810182905260e0810182905261010081019190915290565b6040518060200160405280600081525090565b60405180610100016040528060006001600160a01b03168152602001600081526020016000815260200160008152602001600081526020016000815260200160008152602001600081525090565b604051806102400160405280600081526020016000815260200160008152602001600081526020016000815260200160008152602001600081526020016000815260200160008152602001600081526020016000815260200160008152602001600081526020016000815260200160001515815260200160006001600160a01b031681526020016000151581526020016000151581525090565b60405180610160016040528060008152602001600081526020016000815260200160008152602001600081526020016000815260200160008152602001600081526020016000815260200160008152602001600064ffffffffff1681525090565b60405180604001604052806002906020820280368337509192915050565b8035610afa81615c45565b60008083601f840112614c8b578182fd5b50813567ffffffffffffffff811115614ca2578182fd5b602083019150836020808302850101111561323257600080fd5b60008083601f840112614ccd578182fd5b50813567ffffffffffffffff811115614ce4578182fd5b60208301915083602082850101111561323257600080fd5b803561ffff81168114610afa57600080fd5b600060208284031215614d1f578081fd5b81356113dc81615c45565b600060208284031215614d3b578081fd5b81516113dc81615c45565b60008060408385031215614d58578081fd5b8235614d6381615c45565b91506020830135614d7381615c45565b809150509250929050565b60008060408385031215614d90578182fd5b8251614d9b81615c45565b6020840151909250614d7381615c45565b600080600080600060a08688031215614dc3578081fd5b8535614dce81615c45565b94506020860135614dde81615c45565b93506040860135614dee81615c45565b92506060860135614dfe81615c45565b91506080860135614e0e81615c45565b809150509295509295909350565b600080600080600060a08688031215614e33578081fd5b8535614e3e81615c45565b94506020860135614e4e81615c45565b93506040860135614e5e81615c45565b9250606086013591506080860135614e0e81615c5a565b60008060008060008060c08789031215614e8d578081fd5b8635614e9881615c45565b95506020870135614ea881615c45565b94506040870135614eb881615c45565b959894975094956060810135955060808101359460a0909101359350915050565b600080600080600080600080600080600060e08c8e031215614ef9578889fd5b614f038d8d614c6f565b9a5067ffffffffffffffff8060208e01351115614f1e57898afd5b614f2e8e60208f01358f01614c7a565b909b50995060408d0135811015614f43578586fd5b614f538e60408f01358f01614c7a565b909950975060608d0135811015614f68578586fd5b614f788e60608f01358f01614c7a565b9097509550614f8a8e60808f01614c6f565b94508060a08e01351115614f9c578384fd5b50614fad8d60a08e01358e01614cbc565b9093509150614fbf8d60c08e01614cfc565b90509295989b509295989b9093969950565b60008060408385031215614fe3578182fd5b8235614fee81615c45565b91506020830135614d7381615c5a565b60008060408385031215615010578182fd5b823561501b81615c45565b946020939093013593505050565b60008060006060848603121561503d578081fd5b833561504881615c45565b925060208401359150604084013561505f81615c45565b809150509250925092565b6000806000806080858703121561507f578182fd5b843561508a81615c45565b93506020850135925060408501356150a181615c45565b91506150b08660608701614cfc565b905092959194509250565b600080600080600080600080600060e08a8c0312156150d8578283fd5b89356150e381615c45565b985060208a0135975060408a01356150fa81615c45565b965060608a013561ffff81168114615110578384fd5b955060808a013567ffffffffffffffff8082111561512c578485fd5b6151388d838e01614cbc565b909750955060a08c0135945060c08c0135915080821115615157578384fd5b506151648c828d01614c7a565b915080935050809150509295985092959850929598565b60008060008060808587031215615190578182fd5b843561519b81615c45565b9350602085013592506040850135915060608501356151b981615c45565b939692955090935050565b600080600080600060a086880312156151db578283fd5b85356151e681615c45565b94506020860135935060408601359250614dfe8760608801614cfc565b600060208284031215615214578081fd5b81356113dc81615c5a565b600060208284031215615230578081fd5b81516113dc81615c5a565b60006020828403121561524c578081fd5b5051919050565b60008060408385031215615265578182fd5b82519150602083015167ffffffffffffffff80821115615283578283fd5b818501915085601f830112615296578283fd5b8151818111156152a4578384fd5b604051601f8201601f1916810160200183811182821017156152c4578586fd5b6040528181528382016020018810156152db578485fd5b6152ec826020830160208701615c15565b809450505050509250929050565b6000806040838503121561530c578182fd5b505080516020909101519092909150565b600080600060608486031215615331578081fd5b8351925060208401519150604084015190509250925092565b6000806000806080858703121561535f578182fd5b845193506020850151925060408501519150606085015164ffffffffff811681146151b9578182fd5b6001600160a01b0316815260200190565b6001600160a01b03169052565b6000815180845260208085019450808401835b838110156153d5578151875295820195908201906001016153b9565b509495945050505050565b60008284528282602086013780602084860101526020601f19601f85011685010190509392505050565b60008151808452615422816020860160208601615c15565b601f01601f19169290920160200192915050565b519052565b6001600160801b03169052565b64ffffffffff169052565b60ff169052565b6000825161546c818460208701615c15565b9190910192915050565b6001600160a01b0391909116815260200190565b6001600160a01b03948516815292909316602083015260408201526001600160801b03909116606082015260800190565b6001600160a01b039384168152919092166020820152604081019190915260600190565b600060018060a01b03808a16835260c06020840152600d60c08401526c135e48119a5c9cdd08119d5b99609a1b60e0840152610100818a166040850152886060850152806080850152615535818501888a6153e0565b91505082810360a084015261554b8185876153e0565b9a9950505050505050505050565b6001600160a01b03929092168252602082015260400190565b6001600160a01b0393909316835260208301919091526001600160801b0316604082015260600190565b6001600160a01b03958616815293851660208501529190931660408301526060820192909252901515608082015260a00190565b6001600160a01b0394851681529290931660208301526040820152606081019190915260800190565b6001600160a01b03988916815296909716602087015260408601949094526060850192909252608084015260a083015260c082015260e08101919091526101000190565b6001600160a01b039c8d168152602081019b909b52988b1660408b015260608a0197909752608089019590955260a088019390935260c087019190915260e08601526101008501526101208401526101408301529091166101608201526101800190565b6001600160a01b039889168152602081019790975260408701959095526060860193909352608085019190915260a084015260c083015290911660e08201526101000190565b6001600160a01b0394909416845260208401929092526040830152606082015260800190565b600060a0820160a08352806157228b83615b56565b90508b9150825b8b8110156157555760208301615748836157438387614c6f565b615388565b9093509150600101615729565b5083810360208501528881526001600160fb1b03891115615774578283fd5b602089029150818a6020830137016020818101838152848303909101604085015261579f81896153a6565b9150506157af6060840187615399565b82810360808401526157c28185876153e0565b9b9a5050505050505050505050565b6020808252825182820181905260009190848201906040850190845b818110156158125783516001600160a01b0316835292840192918401916001016157ed565b50909695505050505050565b901515815260200190565b6000602082526113dc602083018461540a565b60006040825261584f604083018561540a565b905060018060a01b03831660208301529392505050565b6020808252601b908201527f536166654d6174683a206164646974696f6e206f766572666c6f770000000000604082015260600190565b60208082526021908201527f536166654d6174683a206d756c7469706c69636174696f6e206f766572666c6f6040820152607760f81b606082015260800190565b6020808252602e908201527f436f6e747261637420696e7374616e63652068617320616c726561647920626560408201526d195b881a5b9a5d1a585b1a5e995960921b606082015260800190565b9051815260200190565b60006101808201905061594a828451615436565b602083015161595c602084018261543b565b50604083015161596f604084018261543b565b506060830151615982606084018261543b565b506080830151615995608084018261543b565b5060a08301516159a860a084018261543b565b5060c08301516159bb60c0840182615448565b5060e08301516159ce60e0840182615399565b50610100808401516159e282850182615399565b5050610120808401516159f782850182615399565b505061014080840151615a0c82850182615399565b505061016080840151615a2182850182615453565b505092915050565b9485526001600160a01b03938416602086015291831660408501528216606084015216608082015260a00190565b9788526001600160a01b03968716602089015294151560408801526060870193909352608086019190915260a085015260c08401521660e08201526101000190565b600060a08201905086825285602083015284604083015283606083015260038310615ac057fe5b8260808301529695505050505050565b918252602082015260400190565b8681526020810186905260c0810160038610615af657fe5b60408201959095526001600160a01b03939093166060840152608083019190915260a09091015292915050565b815160408201908260005b6002811015615b4d578251825260209283019290910190600101615b2e565b50505092915050565b90815260200190565b928352602083019190915261ffff16604082015260600190565b948552602085019390935260408401919091526001600160801b03908116606084015216608082015260a00190565b958652602086019490945260408501929092526060840152608083015260a082015260c00190565b6000808335601e19843603018112615be6578283fd5b83018035915067ffffffffffffffff821115615c00578283fd5b60200191503681900382131561323257600080fd5b60005b83811015615c30578181015183820152602001615c18565b83811115615c3f576000848401525b50505050565b6001600160a01b038116811461208a57600080fd5b801515811461208a57600080fdfe00058a56ea94653cdf4f152d227ace22d4c00ad99e2a43f58cb7d9e3feb295f2a2646970667358221220a8c327fbd7dbb8339b28fe9f76fe909c18a4037e301236ad5264fe49be1d451f64736f6c634300060c0033",
  "linkReferences": {
    "contracts/protocol/libraries/logic/ReserveLogic.sol": {
      "ReserveLogic": [
        {
          "length": 20,
          "start": 5243
        }
      ]
    },
    "contracts/protocol/libraries/logic/ValidationLogic.sol": {
      "ValidationLogic": [
        {
          "length": 20,
          "start": 1616
        },
        {
          "length": 20,
          "start": 3033
        },
        {
          "length": 20,
          "start": 3944
        },
        {
          "length": 20,
          "start": 4498
        },
        {
          "length": 20,
          "start": 5455
        },
        {
          "length": 20,
          "start": 9065
        },
        {
          "length": 20,
          "start": 10319
        },
        {
          "length": 20,
          "start": 13760
        }
      ]
    }
  },
  "deployedLinkReferences": {
    "contracts/protocol/libraries/logic/ReserveLogic.sol": {
      "ReserveLogic": [
        {
          "length": 20,
          "start": 5206
        }
      ]
    },
    "contracts/protocol/libraries/logic/ValidationLogic.sol": {
      "ValidationLogic": [
        {
          "length": 20,
          "start": 1579
        },
        {
          "length": 20,
          "start": 2996
        },
        {
          "length": 20,
          "start": 3907
        },
        {
          "length": 20,
          "start": 4461
        },
        {
          "length": 20,
          "start": 5418
        },
        {
          "length": 20,
          "start": 9028
        },
        {
          "length": 20,
          "start": 10282
        },
        {
          "length": 20,
          "start": 13723
        }
      ]
    }
  }
}