{
  "_format": "hh-sol-artifact-1",
  "contractName": "LendingPoolCollateralManager",
  "sourceName": "contracts/protocol/lendingpool/LendingPoolCollateralManager.sol",
  "abi": [
    {
      "anonymous": false,
      "inputs": [
        {
          "indexed": true,
          "internalType": "address",
          "name": "collateral",
          "type": "address"
        },
        {
          "indexed": true,
          "internalType": "address",
          "name": "principal",
          "type": "address"
        },
        {
          "indexed": true,
          "internalType": "address",
          "name": "user",
          "type": "address"
        },
        {
          "indexed": false,
          "internalType": "uint256",
          "name": "debtToCover",
          "type": "uint256"
        },
        {
          "indexed": false,
          "internalType": "uint256",
          "name": "liquidatedCollateralAmount",
          "type": "uint256"
        },
        {
          "indexed": false,
          "internalType": "address",
          "name": "liquidator",
          "type": "address"
        },
        {
          "indexed": false,
          "internalType": "bool",
          "name": "receiveAToken",
          "type": "bool"
        }
      ],
      "name": "LiquidationCall",
      "type": "event"
    },
    {
      "anonymous": false,
      "inputs": [
        {
          "indexed": true,
          "internalType": "address",
          "name": "reserve",
          "type": "address"
        },
        {
          "indexed": true,
          "internalType": "address",
          "name": "user",
          "type": "address"
        }
      ],
      "name": "ReserveUsedAsCollateralDisabled",
      "type": "event"
    },
    {
      "anonymous": false,
      "inputs": [
        {
          "indexed": true,
          "internalType": "address",
          "name": "reserve",
          "type": "address"
        },
        {
          "indexed": true,
          "internalType": "address",
          "name": "user",
          "type": "address"
        }
      ],
      "name": "ReserveUsedAsCollateralEnabled",
      "type": "event"
    },
    {
      "inputs": [
        {
          "internalType": "address",
          "name": "collateralAsset",
          "type": "address"
        },
        {
          "internalType": "address",
          "name": "debtAsset",
          "type": "address"
        },
        {
          "internalType": "address",
          "name": "user",
          "type": "address"
        },
        {
          "internalType": "uint256",
          "name": "debtToCover",
          "type": "uint256"
        },
        {
          "internalType": "bool",
          "name": "receiveAToken",
          "type": "bool"
        }
      ],
      "name": "liquidationCall",
      "outputs": [
        {
          "internalType": "uint256",
          "name": "",
          "type": "uint256"
        },
        {
          "internalType": "string",
          "name": "",
          "type": "string"
        }
      ],
      "stateMutability": "nonpayable",
      "type": "function"
    }
  ],
  "bytecode": "0x60806040526000805534801561001457600080fd5b50612907806100246000396000f3fe608060405234801561001057600080fd5b506004361061002a5760003560e01c8062a718a91461002f575b600080fd5b610073600480360360a081101561004557600080fd5b506001600160a01b0381358116916020810135821691604082013516906060810135906080013515156100f2565b6040518083815260200180602001828103825283818151815260200191508051906020019080838360005b838110156100b657818101518382015260200161009e565b50505050905090810190601f1680156100e35780820380516001836020036101000a031916815260200191505b50935050505060405180910390f35b6001600160a01b0380861660009081526035602090815260408083208885168452818420948816845260369092528220919260609261012f612690565b60408051606081019091526101f6908a906035908581602081018260028282826020028201915b815481526020019060010190808311610156575050505050815250506037603854603460009054906101000a90046001600160a01b03166001600160a01b031663fca513a86040518163ffffffff1660e01b815260040160206040518083038186803b1580156101c557600080fd5b505afa1580156101d9573d6000803e3d6000fd5b505050506040513d60208110156101ef57600080fd5b5051610a21565b6101408601525061020d92508b9150859050610ee7565b6040830181905260208301829052610140830151610232928792879287929091610fea565b6102008301526101e08201819052600090600981111561024e57fe5b600981111561025957fe5b1461027757806101e001518161020001519550955050505050610a17565b6004808501546001600160a01b039081166101808401819052604080516370a0823160e01b8152928d169383019390935291516370a0823191602480820192602092909190829003018186803b1580156102d057600080fd5b505afa1580156102e4573d6000803e3d6000fd5b505050506040513d60208110156102fa57600080fd5b505181526040810151602082015161031f91611388916103199161115b565b906111be565b6060820181905288116103325787610338565b80606001515b60808201819052815161035391869186918f918f91906112a8565b61012083018190526101008301919091526080820151111561037b5761012081015160808201525b8661043d5760008b6001600160a01b03166370a082318361018001516040518263ffffffff1660e01b815260040180826001600160a01b0316815260200191505060206040518083038186803b1580156103d457600080fd5b505afa1580156103e8573d6000803e3d6000fd5b505050506040513d60208110156103fe57600080fd5b505161010083015190915081101561043b57600560405180604001604052806002815260200161343560f01b815250965096505050505050610a17565b505b61044683611521565b80608001518160400151106104e95760068301546080820151600185015460408051637a94c56560e11b81526001600160a01b038e811660048301526024820194909452600160801b9092046001600160801b0316604483015251919092169163f5298aca91606480830192600092919082900301818387803b1580156104cc57600080fd5b505af11580156104e0573d6000803e3d6000fd5b5050505061060d565b60408101511561058257600683015460408281015160018601548251637a94c56560e11b81526001600160a01b038e811660048301526024820193909352600160801b9091046001600160801b03166044820152915192169163f5298aca9160648082019260009290919082900301818387803b15801561056957600080fd5b505af115801561057d573d6000803e3d6000fd5b505050505b6005830154604082015160808301516001600160a01b0390921691639dc29fac918c916105ae916115eb565b6040518363ffffffff1660e01b815260040180836001600160a01b0316815260200182815260200192505050600060405180830381600087803b1580156105f457600080fd5b505af1158015610608573d6000803e3d6000fd5b505050505b600483015460808201516106309185918d916001600160a01b031690600061162d565b86156107ac578061018001516001600160a01b03166370a08231336040518263ffffffff1660e01b815260040180826001600160a01b0316815260200191505060206040518083038186803b15801561068857600080fd5b505afa15801561069c573d6000803e3d6000fd5b505050506040513d60208110156106b257600080fd5b50516101608201526101808101516101008201516040805163f866c31960e01b81526001600160a01b038d8116600483015233602483015260448201939093529051919092169163f866c31991606480830192600092919082900301818387803b15801561071f57600080fd5b505af1158015610733573d6000803e3d6000fd5b50505050806101600151600014156107a7573360009081526036602052604090206007850154610770908290600160a01b900460ff166001611a60565b60405133906001600160a01b038e16907e058a56ea94653cdf4f152d227ace22d4c00ad99e2a43f58cb7d9e3feb295f290600090a3505b610864565b6107b584611521565b6101808101516101008201516107d29186918e919060009061162d565b610180810151610100820151600186015460408051636b81068560e11b81526001600160a01b038e8116600483015233602483015260448201949094526001600160801b03909216606483015251919092169163d7020d0a91608480830192600092919082900301818387803b15801561084b57600080fd5b505af115801561085f573d6000803e3d6000fd5b505050505b805161010082015114156108cf57600784015461088e908390600160a01b900460ff166000611a60565b886001600160a01b03168b6001600160a01b03167f44c58d81365b66dd4b1a7f36c25aa97b8c71c361ee4937adc1a00000227db5dd60405160405180910390a35b6004808401546080830151604080516323b872dd60e01b815233948101949094526001600160a01b039283166024850152604484019190915251908c16916323b872dd9160648083019260209291908290030181600087803b15801561093457600080fd5b505af1158015610948573d6000803e3d6000fd5b505050506040513d602081101561095e57600080fd5b810190808051906020019092919050505050886001600160a01b03168a6001600160a01b03168c6001600160a01b03167fe413a321e8681d831f4dbccbca790d2952b56f977908e45be37335533e0052868460800151856101000151338d60405180858152602001848152602001836001600160a01b03168152602001821515815260200194505050505060405180910390a46000604051806040016040528060028152602001611a1b60f11b81525095509550505050505b9550959350505050565b6000806000806000610a3161272a565b610a3a8a611b21565b15610a58576000806000806000199550955095509550955050610ed9565b600060e08201525b878160e001511015610e385760e0810151610a7c908b90611b68565b610a8557610e28565b60e0810151600090815260208a81526040808320546001600160a01b03166101e085018190528352908d90529020610abc81611c08565b506080860181905260c08601929092525060a0840191909152600a0a6020808401919091526101e08301516040805163b3596f0760e01b81526001600160a01b0392831660048201529051918b169263b3596f0792602480840193829003018186803b158015610b2b57600080fd5b505afa158015610b3f573d6000803e3d6000fd5b505050506040513d6020811015610b5557600080fd5b5051825260c082015115801590610b77575060e0820151610b77908c90611c33565b15610c98578060040160009054906101000a90046001600160a01b03166001600160a01b03166370a082318e6040518263ffffffff1660e01b815260040180826001600160a01b0316815260200191505060206040518083038186803b158015610be057600080fd5b505afa158015610bf4573d6000803e3d6000fd5b505050506040513d6020811015610c0a57600080fd5b50516040830181905260208301518351600092610c319291610c2b91611cdb565b90611d34565b610120840151909150610c44908261115b565b61012084015260a0830151610c6a90610c5e908390611cdb565b6101608501519061115b565b61016084015260c0830151610c9090610c84908390611cdb565b6101808501519061115b565b610180840152505b60e0820151610ca8908c90611d76565b15610e26578060050160009054906101000a90046001600160a01b03166001600160a01b03166370a082318e6040518263ffffffff1660e01b815260040180826001600160a01b0316815260200191505060206040518083038186803b158015610d1157600080fd5b505afa158015610d25573d6000803e3d6000fd5b505050506040513d6020811015610d3b57600080fd5b8101908080519060200190929190505050826060018181525050610df38160060160009054906101000a90046001600160a01b03166001600160a01b03166370a082318f6040518263ffffffff1660e01b815260040180826001600160a01b0316815260200191505060206040518083038186803b158015610dbc57600080fd5b505afa158015610dd0573d6000803e3d6000fd5b505050506040513d6020811015610de657600080fd5b505160608401519061115b565b6060830181905260208301518351610e1f92610e139291610c2b91611cdb565b6101408401519061115b565b6101408301525b505b60e0810180516001019052610a60565b600081610120015111610e4c576000610e61565b610120810151610160820151610e6191611d34565b610160820152610120810151610e78576000610e8d565b610120810151610180820151610e8d91611d34565b6101808201819052610120820151610140830151610eaa92611e02565b610100820181905261012082015161014083015161016084015161018090940151919850965091945090925090505b965096509650965096915050565b6005810154604080516370a0823160e01b81526001600160a01b0385811660048301529151600093849316916370a08231916024808301926020929190829003018186803b158015610f3857600080fd5b505afa158015610f4c573d6000803e3d6000fd5b505050506040513d6020811015610f6257600080fd5b50516006840154604080516370a0823160e01b81526001600160a01b038881166004830152915191909216916370a08231916024808301926020929190829003018186803b158015610fb357600080fd5b505afa158015610fc7573d6000803e3d6000fd5b505050506040513d6020811015610fdd57600080fd5b5051909590945092505050565b60006060610ff788611e30565b1580611009575061100787611e30565b155b156110305750506040805180820190915260018152601960f91b6020820152600690611150565b670de0b6b3a764000085106110625750506040805180820190915260028152611a1960f11b6020820152600490611150565b60008061106e8a611e40565b1180156110d1575060078901546040805160608101918290526110d192600160a01b900460ff16918a9082906020820190839060029082845b8154815260200190600101908083116110a757505050505081525050611c3390919063ffffffff16565b9050806110fb57505060408051808201909152600280825261343360f01b60208301529150611150565b84158015611107575083155b156111305750506040805180820190915260028152610d0d60f21b602082015260039150611150565b50506040805180820190915260028152611a1b60f11b6020820152600091505b965096945050505050565b6000828201838110156111b5576040805162461bcd60e51b815260206004820152601b60248201527f536166654d6174683a206164646974696f6e206f766572666c6f770000000000604482015290519081900360640190fd5b90505b92915050565b60008215806111cb575081155b156111d8575060006111b8565b8161138819816111e457fe5b0483111560405180604001604052806002815260200161068760f31b8152509061128c5760405162461bcd60e51b81526004018080602001828103825283818151815260200191508051906020019080838360005b83811015611251578181015183820152602001611239565b50505050905090810190601f16801561127e5780820380516001836020036101000a031916815260200191505b509250505060405180910390fd5b506127106002815b0483850201816112a057fe5b049392505050565b6000806000806000603460009054906101000a90046001600160a01b03166001600160a01b031663fca513a86040518163ffffffff1660e01b815260040160206040518083038186803b1580156112fe57600080fd5b505afa158015611312573d6000803e3d6000fd5b505050506040513d602081101561132857600080fd5b505190506113346127c4565b816001600160a01b031663b3596f078b6040518263ffffffff1660e01b815260040180826001600160a01b0316815260200191505060206040518083038186803b15801561138157600080fd5b505afa158015611395573d6000803e3d6000fd5b505050506040513d60208110156113ab57600080fd5b5051604080830191909152805163b3596f0760e01b81526001600160a01b038b8116600483015291519184169163b3596f0791602480820192602092909190829003018186803b1580156113fe57600080fd5b505afa158015611412573d6000803e3d6000fd5b505050506040513d602081101561142857600080fd5b505160608201526114388c611c08565b5060c085015260208401525061144f90508b611e4b565b60a08201819052604082015161149c9161146c9190600a0a611cdb565b610c2b83602001516103198560c00151600a0a6114968e8860600151611cdb90919063ffffffff16565b90611cdb565b60808201819052871015611505578693506114fe81602001516114f86114d68460c00151600a0a8560600151611cdb90919063ffffffff16565b610c2b8560a00151600a0a6114968a8860400151611cdb90919063ffffffff16565b90611e55565b9250611510565b806080015193508792505b50919a909950975050505050505050565b60068101546040805163b1bf962d60e01b815290516000926001600160a01b03169163b1bf962d916004808301926020929190829003018186803b15801561156857600080fd5b505afa15801561157c573d6000803e3d6000fd5b505050506040513d602081101561159257600080fd5b505160018301546003840154919250600160801b8082046001600160801b03908116939216910464ffffffffff166000806115d08787868887611f48565b915091506115e2878787858588612101565b50505050505050565b60006111b583836040518060400160405280601e81526020017f536166654d6174683a207375627472616374696f6e206f766572666c6f7700008152506122ea565b611635612801565b60058601546001600160a01b031680825260408051637b98f4df60e11b8152815163f731e9be92600480840193919291829003018186803b15801561167957600080fd5b505afa15801561168d573d6000803e3d6000fd5b505050506040513d60408110156116a357600080fd5b50805160209182015160c084015260408084019190915260018801546006890154825163b1bf962d60e01b8152925161174794600160801b9093046001600160801b0316936001600160a01b039092169263b1bf962d9260048082019391829003018186803b15801561171557600080fd5b505afa158015611729573d6000803e3d6000fd5b505050506040513d602081101561173f57600080fd5b505190612344565b60e082018190526007870154604083015160c08401516001600160a01b03909216926329db497d92899289928992899291906117828f6123f5565b6040518963ffffffff1660e01b815260040180896001600160a01b03168152602001886001600160a01b031681526020018781526020018681526020018581526020018481526020018381526020018281526020019850505050505050505060606040518083038186803b1580156117f957600080fd5b505afa15801561180d573d6000803e3d6000fd5b505050506040513d606081101561182357600080fd5b50805160208083015160409384015160a086015260808501526060840182905282518084019093526002835261353360f01b908301526001600160801b0310156118ae5760405162461bcd60e51b8152602060048201818152835160248401528351909283926044909101919085019080838360008315611251578181015183820152602001611239565b506080810151604080518082019091526002815261353560f01b6020820152906001600160801b0310156119235760405162461bcd60e51b8152602060048201818152835160248401528351909283926044909101919085019080838360008315611251578181015183820152602001611239565b5060a08101516040805180820190915260028152610d4d60f21b6020820152906001600160801b0310156119985760405162461bcd60e51b8152602060048201818152835160248401528351909283926044909101919085019080838360008315611251578181015183820152602001611239565b5060608181015160028801805460808086015160038c0180546001600160801b03199081166001600160801b038085169190911790925560a0808a015191909516828816178216600160801b82841681029190911790965560018e01546040805198895260208901949094528784019190915280821697870197909752939095049092169183019190915291516001600160a01b038816927f804c9b842b2748a22bb64b345453a3de7ca54a6ca45ce00d415894979e22897a928290030190a2505050505050565b604080518082019091526002815261373760f01b60208201526101008310611ac95760405162461bcd60e51b8152602060048201818152835160248401528351909283926044909101919085019080838360008315611251578181015183820152602001611239565b50607f821691608090046001600284020182611ae6576000611ae9565b60015b60ff16901b836002026001016001901b19856000018360028110611b0957fe5b01541617848260028110611b1957fe5b015550505050565b6000805b600260ff82161015611b5d57825160ff821660028110611b4157fe5b602002015115611b55576000915050611b63565b600101611b25565b50600190505b919050565b6000610100821060405180604001604052806002815260200161373760f01b81525090611bd65760405162461bcd60e51b8152602060048201818152835160248401528351909283926044909101919085019080838360008315611251578181015183820152602001611239565b508251607f83169260809004906002808502919083908110611bf457fe5b6020020151901c6003161515949350505050565b5461ffff80821692601083901c821692602081901c831692603082901c60ff169260409290921c1690565b6000610100821060405180604001604052806002815260200161373760f01b81525090611ca15760405162461bcd60e51b8152602060048201818152835160248401528351909283926044909101919085019080838360008315611251578181015183820152602001611239565b5060006080830490506080830692508260020260010184600001518260028110611cc757fe5b6020020151901c6001161515949350505050565b600082611cea575060006111b8565b82820282848281611cf757fe5b04146111b55760405162461bcd60e51b81526004018080602001828103825260218152602001806128b16021913960400191505060405180910390fd5b60006111b583836040518060400160405280601a81526020017f536166654d6174683a206469766973696f6e206279207a65726f000000000000815250612400565b6000610100821060405180604001604052806002815260200161373760f01b81525090611de45760405162461bcd60e51b8152602060048201818152835160248401528351909283926044909101919085019080838360008315611251578181015183820152602001611239565b508251607f83169260809004906002808502919083908110611cc757fe5b600082611e125750600019611e29565b611e2683611e2086856111be565b90612465565b90505b9392505050565b5467010000000000000016151590565b5460101c61ffff1690565b5460301c60ff1690565b604080518082019091526002815261035360f41b602082015260009082611ebd5760405162461bcd60e51b8152602060048201818152835160248401528351909283926044909101919085019080838360008315611251578181015183820152602001611239565b5060408051808201909152600280825261068760f31b6020830152830490612710821904851115611f2f5760405162461bcd60e51b8152602060048201818152835160248401528351909283926044909101919085019080838360008315611251578181015183820152602001611239565b50828161271086020181611f3f57fe5b04949350505050565b600285015460009081906001600160801b0316858582156120d2576000611f6f848861255b565b9050611f7b818a612344565b604080518082019091526002815261353160f01b60208201529093506001600160801b03841115611fed5760405162461bcd60e51b8152602060048201818152835160248401528351909283926044909101919085019080838360008315611251578181015183820152602001611239565b5060018b0180546001600160801b0319166001600160801b03851617905589156120d05760028b015460009061203390600160801b90046001600160801b0316896125a1565b905061203f818a612344565b6040805180820190915260028152611a9960f11b60208201529093506001600160801b038411156120b15760405162461bcd60e51b8152602060048201818152835160248401528351909283926044909101919085019080838360008315611251578181015183820152602001611239565b505060018b0180546001600160801b03808516600160801b0291161790555b505b600399909901805464ffffffffff60801b1916600160801b4264ffffffffff1602179055989650505050505050565b61210961284f565b612112876123f5565b610120820181905261212457506122e2565b8660050160009054906101000a90046001600160a01b03166001600160a01b031663797743386040518163ffffffff1660e01b815260040160806040518083038186803b15801561217457600080fd5b505afa158015612188573d6000803e3d6000fd5b505050506040513d608081101561219e57600080fd5b508051602080830151604084015160609094015164ffffffffff1661014086015260a0850193909352918352908201526121d88686612344565b60808201526121e78684612344565b606082015260a0810151610140820151612209919064ffffffffff85166125aa565b60c08201819052602082015161221e91612344565b604082018190526080820151825160608401516122499392612243929091839161115b565b906115eb565b60e0820181905261012082015161226091906111be565b6101008201819052156115e25760048088015461010083015160408051637df5bd3b60e01b81529384019190915260248301879052516001600160a01b0390911691637df5bd3b91604480830192600092919082900301818387803b1580156122c857600080fd5b505af11580156122dc573d6000803e3d6000fd5b50505050505b505050505050565b6000818484111561233c5760405162461bcd60e51b8152602060048201818152835160248401528351909283926044909101919085019080838360008315611251578181015183820152602001611239565b505050900390565b6000821580612351575081155b1561235e575060006111b8565b816b019d971e4fe8401e74000000198161237457fe5b0483111560405180604001604052806002815260200161068760f31b815250906123df5760405162461bcd60e51b8152602060048201818152835160248401528351909283926044909101919085019080838360008315611251578181015183820152602001611239565b506b033b2e3c9fd0803ce8000000600281611294565b5460401c61ffff1690565b6000818361244f5760405162461bcd60e51b8152602060048201818152835160248401528351909283926044909101919085019080838360008315611251578181015183820152602001611239565b50600083858161245b57fe5b0495945050505050565b604080518082019091526002815261035360f41b6020820152600090826124cd5760405162461bcd60e51b8152602060048201818152835160248401528351909283926044909101919085019080838360008315611251578181015183820152602001611239565b5060408051808201909152600280825261068760f31b6020830152830490670de0b6b3a76400008219048511156125455760405162461bcd60e51b8152602060048201818152835160248401528351909283926044909101919085019080838360008315611251578181015183820152602001611239565b508281670de0b6b3a764000086020181611f3f57fe5b60008061256f4264ffffffffff85166115eb565b905061259961257c612680565b6301e1338061258b8785611cdb565b8161259257fe5b049061115b565b949350505050565b60006111b58383425b6000806125be8364ffffffffff86166115eb565b9050806125d5576125cd612680565b915050611e29565b60001981016000600283116125eb5760006125f0565b600283035b90506301e13380870460006126058280612344565b905060006126138284612344565b905060006002612627846114968a8a611cdb565b8161262e57fe5b049050600060066126458461149689818d8d611cdb565b8161264c57fe5b0490506126708161266a84816126628a8e611cdb565b61266a612680565b9061115b565b9c9b505050505050505050505050565b6b033b2e3c9fd0803ce800000090565b60405180610220016040528060008152602001600081526020016000815260200160008152602001600081526020016000815260200160008152602001600081526020016000815260200160008152602001600081526020016000815260200160006001600160a01b031681526020016000151581526020016000600281111561271657fe5b815260200160008152602001606081525090565b604051806102400160405280600081526020016000815260200160008152602001600081526020016000815260200160008152602001600081526020016000815260200160008152602001600081526020016000815260200160008152602001600081526020016000815260200160001515815260200160006001600160a01b031681526020016000151581526020016000151581525090565b6040518060e00160405280600081526020016000815260200160008152602001600081526020016000815260200160008152602001600081525090565b60405180610100016040528060006001600160a01b03168152602001600081526020016000815260200160008152602001600081526020016000815260200160008152602001600081525090565b60405180610160016040528060008152602001600081526020016000815260200160008152602001600081526020016000815260200160008152602001600081526020016000815260200160008152602001600064ffffffffff168152509056fe536166654d6174683a206d756c7469706c69636174696f6e206f766572666c6f77a264697066735822122019adb08c2aa93d4f0105981a64e522023da41580fabec8a39886826ab220844464736f6c634300060c0033",
  "linkReferences": {},
  "deployedLinkReferences": {}
}