{
  "address": "0x09120eAED8e4cD86D85a616680151DAA653880F2",
  "abi": [
    {
      "inputs": [
        {
          "internalType": "address",
          "name": "_integrationManager",
          "type": "address"
        },
        {
          "internalType": "address",
          "name": "_liquidityGaugeToken",
          "type": "address"
        },
        {
          "internalType": "address",
          "name": "_lpToken",
          "type": "address"
        },
        {
          "internalType": "address",
          "name": "_minter",
          "type": "address"
        },
        {
          "internalType": "address",
          "name": "_pool",
          "type": "address"
        },
        {
          "internalType": "address",
          "name": "_crvToken",
          "type": "address"
        },
        {
          "internalType": "address[3]",
          "name": "_aaveTokens",
          "type": "address[3]"
        },
        {
          "internalType": "address[3]",
          "name": "_underlyingTokens",
          "type": "address[3]"
        }
      ],
      "stateMutability": "nonpayable",
      "type": "constructor"
    },
    {
      "inputs": [],
      "name": "CLAIM_REWARDS_SELECTOR",
      "outputs": [
        {
          "internalType": "bytes4",
          "name": "",
          "type": "bytes4"
        }
      ],
      "stateMutability": "view",
      "type": "function"
    },
    {
      "inputs": [],
      "name": "LEND_AND_STAKE_SELECTOR",
      "outputs": [
        {
          "internalType": "bytes4",
          "name": "",
          "type": "bytes4"
        }
      ],
      "stateMutability": "view",
      "type": "function"
    },
    {
      "inputs": [],
      "name": "LEND_SELECTOR",
      "outputs": [
        {
          "internalType": "bytes4",
          "name": "",
          "type": "bytes4"
        }
      ],
      "stateMutability": "view",
      "type": "function"
    },
    {
      "inputs": [],
      "name": "REDEEM_SELECTOR",
      "outputs": [
        {
          "internalType": "bytes4",
          "name": "",
          "type": "bytes4"
        }
      ],
      "stateMutability": "view",
      "type": "function"
    },
    {
      "inputs": [],
      "name": "STAKE_SELECTOR",
      "outputs": [
        {
          "internalType": "bytes4",
          "name": "",
          "type": "bytes4"
        }
      ],
      "stateMutability": "view",
      "type": "function"
    },
    {
      "inputs": [],
      "name": "TAKE_ORDER_SELECTOR",
      "outputs": [
        {
          "internalType": "bytes4",
          "name": "",
          "type": "bytes4"
        }
      ],
      "stateMutability": "view",
      "type": "function"
    },
    {
      "inputs": [],
      "name": "UNSTAKE_AND_REDEEM_SELECTOR",
      "outputs": [
        {
          "internalType": "bytes4",
          "name": "",
          "type": "bytes4"
        }
      ],
      "stateMutability": "view",
      "type": "function"
    },
    {
      "inputs": [],
      "name": "UNSTAKE_SELECTOR",
      "outputs": [
        {
          "internalType": "bytes4",
          "name": "",
          "type": "bytes4"
        }
      ],
      "stateMutability": "view",
      "type": "function"
    },
    {
      "inputs": [
        {
          "internalType": "address",
          "name": "_vaultProxy",
          "type": "address"
        },
        {
          "internalType": "bytes",
          "name": "",
          "type": "bytes"
        },
        {
          "internalType": "bytes",
          "name": "",
          "type": "bytes"
        }
      ],
      "name": "claimRewards",
      "outputs": [],
      "stateMutability": "nonpayable",
      "type": "function"
    },
    {
      "inputs": [
        {
          "internalType": "uint256",
          "name": "_index",
          "type": "uint256"
        },
        {
          "internalType": "bool",
          "name": "_useUnderlying",
          "type": "bool"
        }
      ],
      "name": "getAssetByPoolIndex",
      "outputs": [
        {
          "internalType": "address",
          "name": "asset_",
          "type": "address"
        }
      ],
      "stateMutability": "view",
      "type": "function"
    },
    {
      "inputs": [],
      "name": "getCurveAaveLiquidityPool",
      "outputs": [
        {
          "internalType": "address",
          "name": "pool_",
          "type": "address"
        }
      ],
      "stateMutability": "view",
      "type": "function"
    },
    {
      "inputs": [],
      "name": "getCurveGaugeV2RewardsHandlerCrvToken",
      "outputs": [
        {
          "internalType": "address",
          "name": "crvToken_",
          "type": "address"
        }
      ],
      "stateMutability": "view",
      "type": "function"
    },
    {
      "inputs": [],
      "name": "getCurveGaugeV2RewardsHandlerMinter",
      "outputs": [
        {
          "internalType": "address",
          "name": "minter_",
          "type": "address"
        }
      ],
      "stateMutability": "view",
      "type": "function"
    },
    {
      "inputs": [],
      "name": "getIntegrationManager",
      "outputs": [
        {
          "internalType": "address",
          "name": "integrationManager_",
          "type": "address"
        }
      ],
      "stateMutability": "view",
      "type": "function"
    },
    {
      "inputs": [],
      "name": "getLiquidityGaugeToken",
      "outputs": [
        {
          "internalType": "address",
          "name": "liquidityGaugeToken_",
          "type": "address"
        }
      ],
      "stateMutability": "view",
      "type": "function"
    },
    {
      "inputs": [],
      "name": "getLpToken",
      "outputs": [
        {
          "internalType": "address",
          "name": "lpToken_",
          "type": "address"
        }
      ],
      "stateMutability": "view",
      "type": "function"
    },
    {
      "inputs": [
        {
          "internalType": "address",
          "name": "_vaultProxy",
          "type": "address"
        },
        {
          "internalType": "bytes",
          "name": "_actionData",
          "type": "bytes"
        },
        {
          "internalType": "bytes",
          "name": "_assetData",
          "type": "bytes"
        }
      ],
      "name": "lend",
      "outputs": [],
      "stateMutability": "nonpayable",
      "type": "function"
    },
    {
      "inputs": [
        {
          "internalType": "address",
          "name": "_vaultProxy",
          "type": "address"
        },
        {
          "internalType": "bytes",
          "name": "_actionData",
          "type": "bytes"
        },
        {
          "internalType": "bytes",
          "name": "_assetData",
          "type": "bytes"
        }
      ],
      "name": "lendAndStake",
      "outputs": [],
      "stateMutability": "nonpayable",
      "type": "function"
    },
    {
      "inputs": [
        {
          "internalType": "address",
          "name": "",
          "type": "address"
        },
        {
          "internalType": "bytes4",
          "name": "_selector",
          "type": "bytes4"
        },
        {
          "internalType": "bytes",
          "name": "_actionData",
          "type": "bytes"
        }
      ],
      "name": "parseAssetsForAction",
      "outputs": [
        {
          "internalType": "enum IIntegrationManager.SpendAssetsHandleType",
          "name": "spendAssetsHandleType_",
          "type": "uint8"
        },
        {
          "internalType": "address[]",
          "name": "spendAssets_",
          "type": "address[]"
        },
        {
          "internalType": "uint256[]",
          "name": "spendAssetAmounts_",
          "type": "uint256[]"
        },
        {
          "internalType": "address[]",
          "name": "incomingAssets_",
          "type": "address[]"
        },
        {
          "internalType": "uint256[]",
          "name": "minIncomingAssetAmounts_",
          "type": "uint256[]"
        }
      ],
      "stateMutability": "view",
      "type": "function"
    },
    {
      "inputs": [
        {
          "internalType": "address",
          "name": "_vaultProxy",
          "type": "address"
        },
        {
          "internalType": "bytes",
          "name": "_actionData",
          "type": "bytes"
        },
        {
          "internalType": "bytes",
          "name": "_assetData",
          "type": "bytes"
        }
      ],
      "name": "redeem",
      "outputs": [],
      "stateMutability": "nonpayable",
      "type": "function"
    },
    {
      "inputs": [
        {
          "internalType": "address",
          "name": "_vaultProxy",
          "type": "address"
        },
        {
          "internalType": "bytes",
          "name": "_actionData",
          "type": "bytes"
        },
        {
          "internalType": "bytes",
          "name": "_assetData",
          "type": "bytes"
        }
      ],
      "name": "stake",
      "outputs": [],
      "stateMutability": "nonpayable",
      "type": "function"
    },
    {
      "inputs": [
        {
          "internalType": "address",
          "name": "_vaultProxy",
          "type": "address"
        },
        {
          "internalType": "bytes",
          "name": "_actionData",
          "type": "bytes"
        },
        {
          "internalType": "bytes",
          "name": "_assetData",
          "type": "bytes"
        }
      ],
      "name": "unstake",
      "outputs": [],
      "stateMutability": "nonpayable",
      "type": "function"
    },
    {
      "inputs": [
        {
          "internalType": "address",
          "name": "_vaultProxy",
          "type": "address"
        },
        {
          "internalType": "bytes",
          "name": "_actionData",
          "type": "bytes"
        },
        {
          "internalType": "bytes",
          "name": "_assetData",
          "type": "bytes"
        }
      ],
      "name": "unstakeAndRedeem",
      "outputs": [],
      "stateMutability": "nonpayable",
      "type": "function"
    }
  ],
  "transactionHash": "0x55e1ff7af719e143447b8768e8a8f043f05aea025dd62c81548df1b351b2afa3",
  "args": [
    "0x9C85258d9A00C01d00ded98065ea3840dF06f09c",
    "0xd662908ADA2Ea1916B3318327A97eB18aD588b5d",
    "0xFd2a8fA60Abd58Efe3EeE34dd494cD491dC14900",
    "0xd061D61a4d941c39E5453435B6345Dc261C2fcE0",
    "0xDeBF20617708857ebe4F679508E7b7863a8A8EeE",
    "0xd533a949740bb3306d119cc777fa900ba034cd52",
    [
      "0xFa4AB6F16145d91862D06fE6C830Af14C8Ceda30",
      "0xBcca60bB61934080951369a648Fb03DF4F96263C",
      "0x3Ed3B47Dd13EC9a98b44e6204A523E766B225811"
    ],
    [
      "0x01c1DeF3b91672704716159C9041Aeca392DdFfb",
      "0xA0b86991c6218b36c1d19D4a2e9Eb0cE3606eB48",
      "0xdac17f958d2ee523a2206206994597c13d831ec7"
    ]
  ],
  "linkedData": {
    "nonSlippageAdapter": true,
    "type": "ADAPTER"
  },
  "solcInputHash": "98bd749f7e71b40180f647a72bc94975",
  "bytecode": "0x6102006040523480156200001257600080fd5b50604051620037053803806200370583398181016040526101808110156200003957600080fd5b5080516020820151604083015160608085015160808087015160a0808901516001600160601b031989871b811690945280861b841690915283851b831660c09081529482901b90921660e0529596949593949193929091908101906101200183828260005b600381101562000144576000838260038110620000b757fe5b60200201516001600160a01b03161462000103576200010384600019858460038110620000e057fe5b60200201516001600160a01b0316620001f460201b620015ee179092919060201c565b60008282600381106200011257fe5b60200201516001600160a01b0316146200013b576200013b84600019848460038110620000e057fe5b6001016200009e565b50505050816000600381106200015657fe5b602090810291909101516001600160601b0319606091821b81166101005284830151821b811661012052604080860151831b8216610140528451831b82166101605284840151831b821661018052840151821b81166101a05289821b81166101c0529088901b166101e052620001e6906001600160a01b03881690899060001990620001f4811b620015ee17901c565b505050505050505062000607565b8015806200027e575060408051636eb1769f60e11b81523060048201526001600160a01b03848116602483015291519185169163dd62ed3e91604480820192602092909190829003018186803b1580156200024e57600080fd5b505afa15801562000263573d6000803e3d6000fd5b505050506040513d60208110156200027a57600080fd5b5051155b620002bb5760405162461bcd60e51b8152600401808060200182810382526036815260200180620036cf6036913960400191505060405180910390fd5b604080516001600160a01b038416602482015260448082018490528251808303909101815260649091019091526020810180516001600160e01b0390811663095ea7b360e01b17909152620003139185916200031816565b505050565b606062000374826040518060400160405280602081526020017f5361666545524332303a206c6f772d6c6576656c2063616c6c206661696c6564815250856001600160a01b0316620003d460201b62001706179092919060201c565b80519091501562000313578080602001905160208110156200039557600080fd5b5051620003135760405162461bcd60e51b815260040180806020018281038252602a815260200180620036a5602a913960400191505060405180910390fd5b6060620003e58484600085620003ef565b90505b9392505050565b606082471015620004325760405162461bcd60e51b81526004018080602001828103825260268152602001806200367f6026913960400191505060405180910390fd5b6200043d8562000557565b6200048f576040805162461bcd60e51b815260206004820152601d60248201527f416464726573733a2063616c6c20746f206e6f6e2d636f6e7472616374000000604482015290519081900360640190fd5b60006060866001600160a01b031685876040518082805190602001908083835b60208310620004d05780518252601f199092019160209182019101620004af565b6001836020036101000a03801982511681845116808217855250505050505090500191505060006040518083038185875af1925050503d806000811462000534576040519150601f19603f3d011682016040523d82523d6000602084013e62000539565b606091505b5090925090506200054c8282866200055d565b979650505050505050565b3b151590565b606083156200056e575081620003e8565b8251156200057f5782518084602001fd5b8160405162461bcd60e51b81526004018080602001828103825283818151815260200191508051906020019080838360005b83811015620005cb578181015183820152602001620005b1565b50505050905090810190601f168015620005f95780820380516001836020036101000a031916815260200191505b509250505060405180910390fd5b60805160601c60a05160601c60c05160601c60e05160601c6101005160601c6101205160601c6101405160601c6101605160601c6101805160601c6101a05160601c6101c05160601c6101e05160601c612f476200073860003980610c355280610c565280610ebe52806115c95280611fd8528061219a52806122a452806124da525080610c145280610e675280610e9a5280610fd752806110cb52806115a852806120ee5280612343528061243b528061258652508061140a5250806113ad5250806113505250806114315250806113d4525080611377525080610d60528061176e5280611c9b5280611d8b52508061147d5280611e4b525080610cf45250806109b55280610b1f5280610d8d5280610eeb528061106a5280611102528061145952806114ce5250612f476000f3fe608060405234801561001057600080fd5b506004361061014d5760003560e01c80638214f5a4116100c3578063c54efee51161007c578063c54efee5146106b9578063dff5af991461087b578063e7c45690146108a0578063f003eb85146108a8578063f7d882b5146108b0578063fa7dd04d146108b85761014d565b80638214f5a4146104375780638334eb991461043f578063863e5ad01461050d578063b23228cf14610515578063b9dfbacc1461051d578063c29fa9dd146105eb5761014d565b8063332d709f11610115578063332d709f146103255780633ffc15911461034957806340da225d1461035157806358a647fa1461035957806368e30677146103615780637240b2251461042f5761014d565b8063080456c114610152578063099f751514610177578063131461c014610247578063257cb1a31461024f57806329fa046e14610257575b600080fd5b61015a610986565b604080516001600160e01b03199092168252519081900360200190f35b6102456004803603606081101561018d57600080fd5b6001600160a01b038235169190810190604081016020820135600160201b8111156101b757600080fd5b8201836020820111156101c957600080fd5b803590602001918460018302840111600160201b831117156101ea57600080fd5b919390929091602081019035600160201b81111561020757600080fd5b82018360208201111561021957600080fd5b803590602001918460018302840111600160201b8311171561023a57600080fd5b5090925090506109aa565b005b61015a610acc565b61015a610af0565b6102456004803603606081101561026d57600080fd5b6001600160a01b038235169190810190604081016020820135600160201b81111561029757600080fd5b8201836020820111156102a957600080fd5b803590602001918460018302840111600160201b831117156102ca57600080fd5b919390929091602081019035600160201b8111156102e757600080fd5b8201836020820111156102f957600080fd5b803590602001918460018302840111600160201b8311171561031a57600080fd5b509092509050610b14565b61032d610cf2565b604080516001600160a01b039092168252519081900360200190f35b61015a610d16565b61015a610d3a565b61032d610d5e565b6102456004803603606081101561037757600080fd5b6001600160a01b038235169190810190604081016020820135600160201b8111156103a157600080fd5b8201836020820111156103b357600080fd5b803590602001918460018302840111600160201b831117156103d457600080fd5b919390929091602081019035600160201b8111156103f157600080fd5b82018360208201111561040357600080fd5b803590602001918460018302840111600160201b8311171561042457600080fd5b509092509050610d82565b61032d610e98565b61032d610ebc565b6102456004803603606081101561045557600080fd5b6001600160a01b038235169190810190604081016020820135600160201b81111561047f57600080fd5b82018360208201111561049157600080fd5b803590602001918460018302840111600160201b831117156104b257600080fd5b919390929091602081019035600160201b8111156104cf57600080fd5b8201836020820111156104e157600080fd5b803590602001918460018302840111600160201b8311171561050257600080fd5b509092509050610ee0565b61015a611017565b61015a61103b565b6102456004803603606081101561053357600080fd5b6001600160a01b038235169190810190604081016020820135600160201b81111561055d57600080fd5b82018360208201111561056f57600080fd5b803590602001918460018302840111600160201b8311171561059057600080fd5b919390929091602081019035600160201b8111156105ad57600080fd5b8201836020820111156105bf57600080fd5b803590602001918460018302840111600160201b831117156105e057600080fd5b50909250905061105f565b6102456004803603606081101561060157600080fd5b6001600160a01b038235169190810190604081016020820135600160201b81111561062b57600080fd5b82018360208201111561063d57600080fd5b803590602001918460018302840111600160201b8311171561065e57600080fd5b919390929091602081019035600160201b81111561067b57600080fd5b82018360208201111561068d57600080fd5b803590602001918460018302840111600160201b831117156106ae57600080fd5b5090925090506110f7565b610746600480360360608110156106cf57600080fd5b6001600160a01b03823516916001600160e01b031960208201351691810190606081016040820135600160201b81111561070857600080fd5b82018360208201111561071a57600080fd5b803590602001918460018302840111600160201b8311171561073b57600080fd5b5090925090506111f5565b6040518086600281111561075657fe5b815260200180602001806020018060200180602001858103855289818151815260200191508051906020019060200280838360005b838110156107a357818101518382015260200161078b565b50505050905001858103845288818151815260200191508051906020019060200280838360005b838110156107e25781810151838201526020016107ca565b50505050905001858103835287818151815260200191508051906020019060200280838360005b83811015610821578181015183820152602001610809565b50505050905001858103825286818151815260200191508051906020019060200280838360005b83811015610860578181015183820152602001610848565b50505050905001995050505050505050505060405180910390f35b61032d6004803603604081101561089157600080fd5b50803590602001351515611340565b61032d611457565b61032d61147b565b61015a61149f565b610245600480360360608110156108ce57600080fd5b6001600160a01b038235169190810190604081016020820135600160201b8111156108f857600080fd5b82018360208201111561090a57600080fd5b803590602001918460018302840111600160201b8311171561092b57600080fd5b919390929091602081019035600160201b81111561094857600080fd5b82018360208201111561095a57600080fd5b803590602001918460018302840111600160201b8311171561097b57600080fd5b5090925090506114c3565b7f8334eb99be0145865eba9889fca2ee920288090caefff4cc776038e20ad9259a81565b336001600160a01b037f00000000000000000000000000000000000000000000000000000000000000001614610a115760405162461bcd60e51b8152600401808060200182810382526032815260200180612dd06032913960400191505060405180910390fd5b8482828080601f016020809104026020016040519081016040528093929190818152602001838380828437600092019190915250610a529250612d8b915050565b600080610a9489898080601f01602080910402602001604051908101604052809392919081815260200183838082843760009201919091525061171f92505050565b925092509250610aa5838383611757565b5050506060610ab38261181e565b92505050610ac183826119db565b505050505050505050565b7f29fa046e79524c3c5ac4c01df692c35e217802b2b13b21121b76cf0ef02b138c81565b7f099f75155f0e997bf83a7993a71d5e7e7540bd386fe1e84643a09ce6b412521981565b336001600160a01b037f00000000000000000000000000000000000000000000000000000000000000001614610b7b5760405162461bcd60e51b8152600401808060200182810382526032815260200180612dd06032913960400191505060405180910390fd5b8482828080601f016020809104026020016040519081016040528093929190818152602001838380828437600092019190915250610bbc9250612d8b915050565b600080610bfe89898080601f01602080910402602001604051908101604052809392919081815260200183838082843760009201919091525061171f92505050565b925092509250610c0f838383611757565b610aa57f00000000000000000000000000000000000000000000000000000000000000007f00000000000000000000000000000000000000000000000000000000000000007f00000000000000000000000000000000000000000000000000000000000000006001600160a01b03166370a08231306040518263ffffffff1660e01b815260040180826001600160a01b0316815260200191505060206040518083038186803b158015610cc157600080fd5b505afa158015610cd5573d6000803e3d6000fd5b505050506040513d6020811015610ceb57600080fd5b5051611b36565b7f000000000000000000000000000000000000000000000000000000000000000090565b7ffa7dd04da627f433da73c4355ead9c75682a67a8fc84d3f6170ef0922f402d2481565b7fb9dfbaccbe5cd2a84fdcf1d15f23ef25d23086f5afbaa99516065ed4a5bbc7a381565b7f000000000000000000000000000000000000000000000000000000000000000090565b336001600160a01b037f00000000000000000000000000000000000000000000000000000000000000001614610de95760405162461bcd60e51b8152600401808060200182810382526032815260200180612dd06032913960400191505060405180910390fd5b8482828080601f0160208091040260200160405190810160405280939291908181526020018383808284376000920182905250604080516020601f8c018190048102820181019092528a8152919450610e6093509091508990899081908401838280828437600092019190915250611bac92505050565b9050610e8c7f000000000000000000000000000000000000000000000000000000000000000082611bcb565b506060610ab38261181e565b7f000000000000000000000000000000000000000000000000000000000000000090565b7f000000000000000000000000000000000000000000000000000000000000000090565b336001600160a01b037f00000000000000000000000000000000000000000000000000000000000000001614610f475760405162461bcd60e51b8152600401808060200182810382526032815260200180612dd06032913960400191505060405180910390fd5b8482828080601f01602080910402602001604051908101604052809392919081815260200183838082843760009201829052509250610f889150612d8b9050565b600080610fca8a8a8080601f016020809104026020016040519081016040528093929190818152602001838380828437600092019190915250611c2d92505050565b9350935093509350610ffc7f000000000000000000000000000000000000000000000000000000000000000085611bcb565b61100884848484611c6e565b505050506060610ab38261181e565b7f03e38a2bd7063d45c897edeafc330e71657502dd86434d3c37a489caf116af6981565b7f68e30677f607df46e87da13e15b637784cfa62374b653f35ab43d10361a2f83081565b336001600160a01b037f000000000000000000000000000000000000000000000000000000000000000016146110c65760405162461bcd60e51b8152600401808060200182810382526032815260200180612dd06032913960400191505060405180910390fd5b6110f07f000000000000000000000000000000000000000000000000000000000000000086611e49565b5050505050565b336001600160a01b037f0000000000000000000000000000000000000000000000000000000000000000161461115e5760405162461bcd60e51b8152600401808060200182810382526032815260200180612dd06032913960400191505060405180910390fd5b8482828080601f0160208091040260200160405190810160405280939291908181526020018383808284376000920182905250925061119f9150612d8b9050565b6000806111e18a8a8080601f016020809104026020016040519081016040528093929190818152602001838380828437600092019190915250611c2d92505050565b935093509350935061100884848484611c6e565b600060608080806001600160e01b03198816632e77eeb360e21b141561122c5761121d611eef565b94509450945094509450611335565b6001600160e01b0319881663099f751560e01b141561124f5761121d8787611f4f565b6001600160e01b031988166314fd023760e11b14156112725761121d8787612065565b6001600160e01b0319881663c29fa9dd60e01b14156112955761121d878761211a565b6001600160e01b0319881663fa7dd04d60e01b14156112b85761121d8787612237565b6001600160e01b031988166368e3067760e01b14156112db5761121d87876123ce565b6001600160e01b03198816638334eb9960e01b14156112fe5761121d8787612506565b60405162461bcd60e51b8152600401808060200182810382526027815260200180612eeb6027913960400191505060405180910390fd5b945094509450945094565b60008261139b57811561137457507f0000000000000000000000000000000000000000000000000000000000000000611451565b507f0000000000000000000000000000000000000000000000000000000000000000611451565b82600114156113f85781156113d157507f0000000000000000000000000000000000000000000000000000000000000000611451565b507f0000000000000000000000000000000000000000000000000000000000000000611451565b826002141561145157811561142e57507f0000000000000000000000000000000000000000000000000000000000000000611451565b507f00000000000000000000000000000000000000000000000000000000000000005b92915050565b7f000000000000000000000000000000000000000000000000000000000000000090565b7f000000000000000000000000000000000000000000000000000000000000000090565b7fc29fa9dde84204c2908778afd0613d802d31cf046179b88f6d2b4a4e507ea2d581565b336001600160a01b037f0000000000000000000000000000000000000000000000000000000000000000161461152a5760405162461bcd60e51b8152600401808060200182810382526032815260200180612dd06032913960400191505060405180910390fd5b8482828080601f0160208091040260200160405190810160405280939291908181526020018383808284376000920182905250604080516020601f8c018190048102820181019092528a81529194506115a193509091508990899081908401838280828437600092019190915250611bac92505050565b9050610e8c7f00000000000000000000000000000000000000000000000000000000000000007f000000000000000000000000000000000000000000000000000000000000000083611b36565b801580611674575060408051636eb1769f60e11b81523060048201526001600160a01b03848116602483015291519185169163dd62ed3e91604480820192602092909190829003018186803b15801561164657600080fd5b505afa15801561165a573d6000803e3d6000fd5b505050506040513d602081101561167057600080fd5b5051155b6116af5760405162461bcd60e51b8152600401808060200182810382526036815260200180612eb56036913960400191505060405180910390fd5b604080516001600160a01b038416602482015260448082018490528251808303909101815260649091019091526020810180516001600160e01b031663095ea7b360e01b1790526117019084906125b2565b505050565b60606117158484600085612663565b90505b9392505050565b611727612d8b565b6000808380602001905160a081101561173f57600080fd5b50606081015160808201519196909550909350915050565b6040516315b74c9d60e11b81526001600160a01b037f00000000000000000000000000000000000000000000000000000000000000001690632b6e993a908590859085906004018084606080838360005b838110156117c05781810151838201526020016117a8565b5050505090500183815260200182151581526020019350505050602060405180830381600087803b1580156117f457600080fd5b505af1158015611808573d6000803e3d6000fd5b505050506040513d60208110156110f057600080fd5b606080606083806020019051606081101561183857600080fd5b8101908080516040519392919084600160201b82111561185757600080fd5b90830190602082018581111561186c57600080fd5b82518660208202830111600160201b8211171561188857600080fd5b82525081516020918201928201910280838360005b838110156118b557818101518382015260200161189d565b5050505090500160405260200180516040519392919084600160201b8211156118dd57600080fd5b9083019060208201858111156118f257600080fd5b82518660208202830111600160201b8211171561190e57600080fd5b82525081516020918201928201910280838360005b8381101561193b578181015183820152602001611923565b5050505090500160405260200180516040519392919084600160201b82111561196357600080fd5b90830190602082018581111561197857600080fd5b82518660208202830111600160201b8211171561199457600080fd5b82525081516020918201928201910280838360005b838110156119c15781810151838201526020016119a9565b505050509050016040525050509250925092509193909250565b6060815167ffffffffffffffff811180156119f557600080fd5b50604051908082528060200260200182016040528015611a1f578160200160208202803683370190505b50905060005b8251811015611b2f576000838281518110611a3c57fe5b60200260200101519050806001600160a01b03166370a08231306040518263ffffffff1660e01b815260040180826001600160a01b0316815260200191505060206040518083038186803b158015611a9357600080fd5b505afa158015611aa7573d6000803e3d6000fd5b505050506040513d6020811015611abd57600080fd5b50518351849084908110611acd57fe5b6020026020010181815250506000838381518110611ae757fe5b60200260200101511115611b2657611b2685848481518110611b0557fe5b6020026020010151836001600160a01b03166127bf9092919063ffffffff16565b50600101611a25565b5092915050565b611b41828483612811565b60408051636e553f6560e01b81526004810183905230602482015290516001600160a01b03851691636e553f6591604480830192600092919082900301818387803b158015611b8f57600080fd5b505af1158015611ba3573d6000803e3d6000fd5b50505050505050565b6000818060200190516020811015611bc357600080fd5b505192915050565b816001600160a01b0316632e1a7d4d826040518263ffffffff1660e01b815260040180828152602001915050600060405180830381600087803b158015611c1157600080fd5b505af1158015611c25573d6000803e3d6000fd5b505050505050565b6000611c37612d8b565b6000808480602001905160c0811015611c4f57600080fd5b508051608082015160a083015191986020909301975095509350915050565b8115611d6d5760005b6003811015611d67576000848260038110611c8e57fe5b60200201511115611d5f577f00000000000000000000000000000000000000000000000000000000000000006001600160a01b031663517a55a38683878560038110611cd657fe5b6020020151866040518563ffffffff1660e01b81526004018085815260200184600f0b81526020018381526020018215158152602001945050505050602060405180830381600087803b158015611d2c57600080fd5b505af1158015611d40573d6000803e3d6000fd5b505050506040513d6020811015611d5657600080fd5b50611e43915050565b600101611c77565b50611e43565b604051637e73239b60e11b8152600481018581526001600160a01b037f0000000000000000000000000000000000000000000000000000000000000000169163fce647369187918791869160240183606080838360005b83811015611ddc578181015183820152602001611dc4565b5050505090500182151581526020019350505050606060405180830381600087803b158015611e0a57600080fd5b505af1158015611e1e573d6000803e3d6000fd5b505050506040513d601f19601f820116820180604052506060811015611c2557600080fd5b50505050565b7f00000000000000000000000000000000000000000000000000000000000000006001600160a01b03166327f18ae383836040518363ffffffff1660e01b815260040180836001600160a01b03168152602001826001600160a01b0316815260200192505050600060405180830381600087803b158015611ec957600080fd5b505af1158015611edd573d6000803e3d6000fd5b50505050611eeb82826128c9565b5050565b600060608080808480604051908082528060200260200182016040528015611f21578160200160208202803683370190505b5060408051600080825260208201818152828401918252606083019093529399929850965094509092509050565b6000606080606080611f5f612d8b565b600080611fa18a8a8080601f01602080910402602001604051908101604052809392919081815260200183838082843760009201919091525061171f92505050565b925092509250611fb18382612918565b604080516001808252818301909252929950909750602080830190803683370190505094507f00000000000000000000000000000000000000000000000000000000000000008560008151811061200457fe5b6001600160a01b0392909216602092830291909101820152604080516001808252818301909252918281019080368337019050509350818460008151811061204857fe5b602002602001018181525050600297505050509295509295909350565b6000606080606080612075612d8b565b6000806120b78a8a8080601f01602080910402602001604051908101604052809392919081815260200183838082843760009201919091525061171f92505050565b9250925092506120c78382612918565b604080516001808252818301909252929950909750602080830190803683370190505094507f00000000000000000000000000000000000000000000000000000000000000008560008151811061200457fe5b6000606080606080600061212c612d8b565b60008061216e8b8b8080601f016020809104026020016040519081016040528093929190818152602001838380828437600092019190915250611c2d92505050565b6040805160018082528183019092529498509296509094509250602080830190803683370190505097507f0000000000000000000000000000000000000000000000000000000000000000886000815181106121c657fe5b6001600160a01b0392909216602092830291909101820152604080516001808252818301909252918281019080368337019050509650838760008151811061220a57fe5b602002602001018181525050612221838383612a76565b60029d999c50979a509850959695505050505050565b6000606080606080600061228088888080601f016020809104026020016040519081016040528093929190818152602001838380828437600092019190915250611bac92505050565b604080516001808252818301909252919250602080830190803683370190505094507f0000000000000000000000000000000000000000000000000000000000000000856000815181106122d057fe5b6001600160a01b0392909216602092830291909101820152604080516001808252818301909252918281019080368337019050509350808460008151811061231457fe5b6020908102919091010152604080516001808252818301909252908160200160208202803683370190505092507f00000000000000000000000000000000000000000000000000000000000000008360008151811061236f57fe5b6001600160a01b039290921660209283029190910182015260408051600180825281830190925291828101908036833701905050915080826000815181106123b357fe5b60200260200101818152505060029550509295509295909350565b6000606080606080600061241788888080601f016020809104026020016040519081016040528093929190818152602001838380828437600092019190915250611bac92505050565b604080516001808252818301909252919250602080830190803683370190505094507f00000000000000000000000000000000000000000000000000000000000000008560008151811061246757fe5b6001600160a01b039290921660209283029190910182015260408051600180825281830190925291828101908036833701905050935080846000815181106124ab57fe5b6020908102919091010152604080516001808252818301909252908160200160208202803683370190505092507f00000000000000000000000000000000000000000000000000000000000000008360008151811061236f57fe5b60006060806060806000612518612d8b565b60008061255a8b8b8080601f016020809104026020016040519081016040528093929190818152602001838380828437600092019190915250611c2d92505050565b6040805160018082528183019092529498509296509094509250602080830190803683370190505097507f0000000000000000000000000000000000000000000000000000000000000000886000815181106121c657fe5b6060612607826040518060400160405280602081526020017f5361666545524332303a206c6f772d6c6576656c2063616c6c206661696c6564815250856001600160a01b03166117069092919063ffffffff16565b8051909150156117015780806020019051602081101561262657600080fd5b50516117015760405162461bcd60e51b815260040180806020018281038252602a815260200180612e8b602a913960400191505060405180910390fd5b6060824710156126a45760405162461bcd60e51b8152600401808060200182810382526026815260200180612daa6026913960400191505060405180910390fd5b6126ad85612ce1565b6126fe576040805162461bcd60e51b815260206004820152601d60248201527f416464726573733a2063616c6c20746f206e6f6e2d636f6e7472616374000000604482015290519081900360640190fd5b60006060866001600160a01b031685876040518082805190602001908083835b6020831061273d5780518252601f19909201916020918201910161271e565b6001836020036101000a03801982511681845116808217855250505050505090500191505060006040518083038185875af1925050503d806000811461279f576040519150601f19603f3d011682016040523d82523d6000602084013e6127a4565b606091505b50915091506127b4828286612ce7565b979650505050505050565b604080516001600160a01b038416602482015260448082018490528251808303909101815260649091019091526020810180516001600160e01b031663a9059cbb60e01b1790526117019084906125b2565b60408051636eb1769f60e11b81523060048201526001600160a01b038481166024830152915160009286169163dd62ed3e916044808301926020929190829003018186803b15801561286257600080fd5b505afa158015612876573d6000803e3d6000fd5b505050506040513d602081101561288c57600080fd5b5051905081811015611e435780156128b3576128b36001600160a01b0385168460006115ee565b611e436001600160a01b038516846000196115ee565b816001600160a01b03166384e9bd7e826040518263ffffffff1660e01b815260040180826001600160a01b03168152602001915050600060405180830381600087803b158015611c1157600080fd5b6060806000805b600381101561295057600086826003811061293657fe5b60200201511115612948576001909101905b60010161291f565b508067ffffffffffffffff8111801561296857600080fd5b50604051908082528060200260200182016040528015612992578160200160208202803683370190505b5092508067ffffffffffffffff811180156129ac57600080fd5b506040519080825280602002602001820160405280156129d6578160200160208202803683370190505b5091506000805b6003811015612a6c5760008782600381106129f457fe5b60200201511115612a6457612a098187611340565b858381518110612a1557fe5b60200260200101906001600160a01b031690816001600160a01b031681525050868160038110612a4157fe5b6020020151848381518110612a5257fe5b60209081029190910101526001909101905b6001016129dd565b5050509250929050565b6060808315612c23576040805160018082528183019092529060208083019080368337505060408051600180825281830190925292945090506020808301908036833701905050905060005b6003811015612bb757858160038110612ad757fe5b6020020151612ae557612baf565b600181015b6003811015612b4857868160038110612aff57fe5b602002015115612b405760405162461bcd60e51b815260040180806020018281038252604d815260200180612e02604d913960600191505060405180910390fd5b600101612aea565b50612b538185611340565b83600081518110612b6057fe5b60200260200101906001600160a01b031690816001600160a01b031681525050858160038110612b8c57fe5b602002015182600081518110612b9e57fe5b602002602001018181525050612bb7565b600101612ac2565b5060006001600160a01b031682600081518110612bd057fe5b60200260200101516001600160a01b03161415612c1e5760405162461bcd60e51b815260040180806020018281038252603c815260200180612e4f603c913960400191505060405180910390fd5b612cd9565b60408051600380825260808201909252906020820160608036833750506040805160038082526080820190925292945090506020820160608036833701905050905060005b8251811015612cd757612c7b8185611340565b838281518110612c8757fe5b60200260200101906001600160a01b031690816001600160a01b031681525050858160038110612cb357fe5b6020020151828281518110612cc457fe5b6020908102919091010152600101612c68565b505b935093915050565b3b151590565b60608315612cf6575081611718565b825115612d065782518084602001fd5b8160405162461bcd60e51b81526004018080602001828103825283818151815260200191508051906020019080838360005b83811015612d50578181015183820152602001612d38565b50505050905090810190601f168015612d7d5780820380516001836020036101000a031916815260200191505b509250505060405180910390fd5b6040518060600160405280600390602082028036833750919291505056fe416464726573733a20696e73756666696369656e742062616c616e636520666f722063616c6c4f6e6c792074686520496e746567726174696f6e4d616e616765722063616e2063616c6c20746869732066756e6374696f6e5f5f7061727365496e636f6d696e67417373657473466f72526564656d7074696f6e43616c6c733a20546f6f206d616e79206d696e20617373657420616d6f756e7473207370656369666965645f5f7061727365496e636f6d696e67417373657473466f72526564656d7074696f6e43616c6c733a204e6f206d696e20617373657420616d6f756e745361666545524332303a204552433230206f7065726174696f6e20646964206e6f7420737563636565645361666545524332303a20617070726f76652066726f6d206e6f6e2d7a65726f20746f206e6f6e2d7a65726f20616c6c6f77616e63657061727365417373657473466f72416374696f6e3a205f73656c6563746f7220696e76616c6964a2646970667358221220a45d7209be8dc25971969225ffb9ca08e895029049354814e796a9f00ec8802b64736f6c634300060c0033416464726573733a20696e73756666696369656e742062616c616e636520666f722063616c6c5361666545524332303a204552433230206f7065726174696f6e20646964206e6f7420737563636565645361666545524332303a20617070726f76652066726f6d206e6f6e2d7a65726f20746f206e6f6e2d7a65726f20616c6c6f77616e6365",
  "devdoc": {
    "author": "Enzyme Council <security@enzyme.finance>",
    "details": "Rewards tokens are not included as spend assets or incoming assets for claimRewards() or claimRewardsAndReinvest(). Rationale: - rewards tokens can be claimed to the vault outside of the IntegrationManager, so no need to enforce policy management or emit an event - rewards tokens can be outside of the asset universe, in which case they cannot be tracked",
    "kind": "dev",
    "methods": {
      "claimRewards(address,bytes,bytes)": {
        "params": {
          "_vaultProxy": "The VaultProxy of the calling fund"
        }
      },
      "getCurveAaveLiquidityPool()": {
        "returns": {
          "pool_": "The `CURVE_AAVE_LIQUIDITY_POOL` variable value"
        }
      },
      "getCurveGaugeV2RewardsHandlerCrvToken()": {
        "returns": {
          "crvToken_": "The `CURVE_GAUGE_V2_REWARDS_HANDLER_CRV_TOKEN` variable value"
        }
      },
      "getCurveGaugeV2RewardsHandlerMinter()": {
        "returns": {
          "minter_": "The `CURVE_GAUGE_V2_REWARDS_HANDLER_MINTER` variable value"
        }
      },
      "getIntegrationManager()": {
        "returns": {
          "integrationManager_": "The `INTEGRATION_MANAGER` variable value"
        }
      },
      "getLiquidityGaugeToken()": {
        "returns": {
          "liquidityGaugeToken_": "The `LIQUIDITY_GAUGE_TOKEN` variable value"
        }
      },
      "getLpToken()": {
        "returns": {
          "lpToken_": "The `LP_TOKEN` variable value"
        }
      },
      "lend(address,bytes,bytes)": {
        "params": {
          "_actionData": "Data specific to this action",
          "_assetData": "Parsed spend assets and incoming assets data for this action",
          "_vaultProxy": "The VaultProxy of the calling fund"
        }
      },
      "lendAndStake(address,bytes,bytes)": {
        "params": {
          "_actionData": "Data specific to this action",
          "_assetData": "Parsed spend assets and incoming assets data for this action",
          "_vaultProxy": "The VaultProxy of the calling fund"
        }
      },
      "parseAssetsForAction(address,bytes4,bytes)": {
        "params": {
          "_actionData": "Data specific to this action",
          "_selector": "The function selector for the callOnIntegration"
        },
        "returns": {
          "incomingAssets_": "The assets to receive in the call",
          "minIncomingAssetAmounts_": "The min asset amounts to receive in the call",
          "spendAssetAmounts_": "The max asset amounts to spend in the call",
          "spendAssetsHandleType_": "A type that dictates how to handle granting the adapter access to spend assets (`None` by default)",
          "spendAssets_": "The assets to spend in the call"
        }
      },
      "redeem(address,bytes,bytes)": {
        "params": {
          "_actionData": "Data specific to this action",
          "_assetData": "Parsed spend assets and incoming assets data for this action",
          "_vaultProxy": "The VaultProxy of the calling fund"
        }
      },
      "stake(address,bytes,bytes)": {
        "params": {
          "_actionData": "Data specific to this action",
          "_assetData": "Parsed spend assets and incoming assets data for this action",
          "_vaultProxy": "The VaultProxy of the calling fund"
        }
      },
      "unstake(address,bytes,bytes)": {
        "params": {
          "_actionData": "Data specific to this action",
          "_assetData": "Parsed spend assets and incoming assets data for this action",
          "_vaultProxy": "The VaultProxy of the calling fund"
        }
      },
      "unstakeAndRedeem(address,bytes,bytes)": {
        "params": {
          "_actionData": "Data specific to this action",
          "_assetData": "Parsed spend assets and incoming assets data for this action",
          "_vaultProxy": "The VaultProxy of the calling fund"
        }
      }
    },
    "title": "CurveLiquidityAaveAdapter Contract",
    "version": 1
  },
  "userdoc": {
    "kind": "user",
    "methods": {
      "claimRewards(address,bytes,bytes)": {
        "notice": "Claims rewards from the Curve liquidity gauge as well as pool-specific rewards"
      },
      "getAssetByPoolIndex(uint256,bool)": {
        "notice": "Gets an asset by its pool index and whether or not to use the underlying instead of the aToken"
      },
      "getCurveAaveLiquidityPool()": {
        "notice": "Gets the `CURVE_AAVE_LIQUIDITY_POOL` variable"
      },
      "getCurveGaugeV2RewardsHandlerCrvToken()": {
        "notice": "Gets the `CURVE_GAUGE_V2_REWARDS_HANDLER_CRV_TOKEN` variable"
      },
      "getCurveGaugeV2RewardsHandlerMinter()": {
        "notice": "Gets the `CURVE_GAUGE_V2_REWARDS_HANDLER_MINTER` variable"
      },
      "getIntegrationManager()": {
        "notice": "Gets the `INTEGRATION_MANAGER` variable"
      },
      "getLiquidityGaugeToken()": {
        "notice": "Gets the `LIQUIDITY_GAUGE_TOKEN` variable"
      },
      "getLpToken()": {
        "notice": "Gets the `LP_TOKEN` variable"
      },
      "lend(address,bytes,bytes)": {
        "notice": "Lends assets for LP tokens"
      },
      "lendAndStake(address,bytes,bytes)": {
        "notice": "Lends assets for LP tokens, then stakes the received LP tokens"
      },
      "parseAssetsForAction(address,bytes4,bytes)": {
        "notice": "Parses the expected assets in a particular action"
      },
      "redeem(address,bytes,bytes)": {
        "notice": "Redeems LP tokens"
      },
      "stake(address,bytes,bytes)": {
        "notice": "Stakes LP tokens"
      },
      "unstake(address,bytes,bytes)": {
        "notice": "Unstakes LP tokens"
      },
      "unstakeAndRedeem(address,bytes,bytes)": {
        "notice": "Unstakes LP tokens, then redeems them"
      }
    },
    "notice": "Adapter for liquidity provision in Curve's aave pool (https://www.curve.fi/aave)",
    "version": 1
  },
  "storageLayout": {
    "storage": [],
    "types": null
  }
}