{
  "address": "0xA3307BF348ACC4bEDdd67CCA2f7F0c4349d347Db",
  "abi": [
    {
      "inputs": [
        {
          "internalType": "address",
          "name": "_fundDeployer",
          "type": "address"
        }
      ],
      "stateMutability": "nonpayable",
      "type": "constructor"
    },
    {
      "anonymous": false,
      "inputs": [
        {
          "indexed": true,
          "internalType": "address",
          "name": "comptrollerProxy",
          "type": "address"
        },
        {
          "indexed": true,
          "internalType": "address",
          "name": "fee",
          "type": "address"
        },
        {
          "indexed": false,
          "internalType": "bytes",
          "name": "settingsData",
          "type": "bytes"
        }
      ],
      "name": "FeeEnabledForFund",
      "type": "event"
    },
    {
      "anonymous": false,
      "inputs": [
        {
          "indexed": true,
          "internalType": "address",
          "name": "comptrollerProxy",
          "type": "address"
        },
        {
          "indexed": true,
          "internalType": "address",
          "name": "fee",
          "type": "address"
        },
        {
          "indexed": true,
          "internalType": "enum IFeeManager.SettlementType",
          "name": "settlementType",
          "type": "uint8"
        },
        {
          "indexed": false,
          "internalType": "address",
          "name": "payer",
          "type": "address"
        },
        {
          "indexed": false,
          "internalType": "address",
          "name": "payee",
          "type": "address"
        },
        {
          "indexed": false,
          "internalType": "uint256",
          "name": "sharesDue",
          "type": "uint256"
        }
      ],
      "name": "FeeSettledForFund",
      "type": "event"
    },
    {
      "anonymous": false,
      "inputs": [
        {
          "indexed": true,
          "internalType": "address",
          "name": "comptrollerProxy",
          "type": "address"
        },
        {
          "indexed": true,
          "internalType": "address",
          "name": "fee",
          "type": "address"
        },
        {
          "indexed": true,
          "internalType": "address",
          "name": "payee",
          "type": "address"
        },
        {
          "indexed": false,
          "internalType": "uint256",
          "name": "sharesDue",
          "type": "uint256"
        }
      ],
      "name": "SharesOutstandingPaidForFund",
      "type": "event"
    },
    {
      "anonymous": false,
      "inputs": [
        {
          "indexed": true,
          "internalType": "address",
          "name": "comptrollerProxy",
          "type": "address"
        },
        {
          "indexed": true,
          "internalType": "address",
          "name": "vaultProxy",
          "type": "address"
        }
      ],
      "name": "ValidatedVaultProxySetForFund",
      "type": "event"
    },
    {
      "inputs": [
        {
          "internalType": "bool",
          "name": "",
          "type": "bool"
        }
      ],
      "name": "activateForFund",
      "outputs": [],
      "stateMutability": "nonpayable",
      "type": "function"
    },
    {
      "inputs": [],
      "name": "deactivateForFund",
      "outputs": [],
      "stateMutability": "nonpayable",
      "type": "function"
    },
    {
      "inputs": [
        {
          "internalType": "address",
          "name": "_comptrollerProxy",
          "type": "address"
        }
      ],
      "name": "getEnabledFeesForFund",
      "outputs": [
        {
          "internalType": "address[]",
          "name": "enabledFees_",
          "type": "address[]"
        }
      ],
      "stateMutability": "view",
      "type": "function"
    },
    {
      "inputs": [
        {
          "internalType": "address",
          "name": "_comptrollerProxy",
          "type": "address"
        },
        {
          "internalType": "address",
          "name": "_fee",
          "type": "address"
        }
      ],
      "name": "getFeeSharesOutstandingForFund",
      "outputs": [
        {
          "internalType": "uint256",
          "name": "sharesOutstanding_",
          "type": "uint256"
        }
      ],
      "stateMutability": "view",
      "type": "function"
    },
    {
      "inputs": [],
      "name": "getFundDeployer",
      "outputs": [
        {
          "internalType": "address",
          "name": "fundDeployer_",
          "type": "address"
        }
      ],
      "stateMutability": "view",
      "type": "function"
    },
    {
      "inputs": [],
      "name": "getOwner",
      "outputs": [
        {
          "internalType": "address",
          "name": "owner_",
          "type": "address"
        }
      ],
      "stateMutability": "view",
      "type": "function"
    },
    {
      "inputs": [
        {
          "internalType": "address",
          "name": "_comptrollerProxy",
          "type": "address"
        }
      ],
      "name": "getVaultProxyForFund",
      "outputs": [
        {
          "internalType": "address",
          "name": "vaultProxy_",
          "type": "address"
        }
      ],
      "stateMutability": "view",
      "type": "function"
    },
    {
      "inputs": [
        {
          "internalType": "enum IFeeManager.FeeHook",
          "name": "_hook",
          "type": "uint8"
        },
        {
          "internalType": "bytes",
          "name": "_settlementData",
          "type": "bytes"
        },
        {
          "internalType": "uint256",
          "name": "_gav",
          "type": "uint256"
        }
      ],
      "name": "invokeHook",
      "outputs": [],
      "stateMutability": "nonpayable",
      "type": "function"
    },
    {
      "inputs": [
        {
          "internalType": "address",
          "name": "",
          "type": "address"
        },
        {
          "internalType": "uint256",
          "name": "_actionId",
          "type": "uint256"
        },
        {
          "internalType": "bytes",
          "name": "_callArgs",
          "type": "bytes"
        }
      ],
      "name": "receiveCallFromComptroller",
      "outputs": [],
      "stateMutability": "nonpayable",
      "type": "function"
    },
    {
      "inputs": [
        {
          "internalType": "address",
          "name": "_comptrollerProxy",
          "type": "address"
        },
        {
          "internalType": "address",
          "name": "_vaultProxy",
          "type": "address"
        },
        {
          "internalType": "bytes",
          "name": "_configData",
          "type": "bytes"
        }
      ],
      "name": "setConfigForFund",
      "outputs": [],
      "stateMutability": "nonpayable",
      "type": "function"
    }
  ],
  "transactionHash": "0xf694c641904769f3f983cfe0f0f41ab201ddcb993c39ac4044dd37a2fbbdcc15",
  "args": [
    "0xa4E00CB342B36eC9fDc4B50b3d527c3643D4C49e"
  ],
  "solcInputHash": "b2d0c2e3b549d952387d70aebac13f1c",
  "bytecode": "0x60a06040523480156200001157600080fd5b506040516200222a3803806200222a83398101604081905262000034916200005d565b60601b6001600160601b031916608052620000b2565b8051620000578162000098565b92915050565b6000602082840312156200007057600080fd5b60006200007e84846200004a565b949350505050565b60006001600160a01b03821662000057565b620000a38162000086565b8114620000af57600080fd5b50565b60805160601c612150620000da6000398061032352806103d752806103fe52506121506000f3fe608060405234801561001057600080fd5b506004361061009e5760003560e01c806397c0ac871161006657806397c0ac871461010f578063a9f3b42f14610117578063aa051c2c14610137578063bd8e959a14610157578063f067cc111461015f5761009e565b80631bee801e146100a357806346790346146100b85780637759c164146100e157806380d57063146100f4578063893d20e814610107575b600080fd5b6100b66100b1366004611730565b610172565b005b6100cb6100c636600461164a565b61020b565b6040516100d89190611c4a565b60405180910390f35b6100b66100ef366004611863565b61022c565b6100b66101023660046117f7565b610272565b6100cb61031f565b6100cb6103b7565b61012a61012536600461164a565b610420565b6040516100d89190611d1f565b61014a61014536600461168e565b610496565b6040516100d89190611e2b565b6100b66104c3565b6100b661016d3660046116c8565b610510565b8261019b57610196336000604051806020016040528060008152506000600161082c565b610205565b82600114156101e4576101963383838080601f0160208091040260200160405190810160405280939291908181526020018383808284376000920191909152506108ac92505050565b60405162461bcd60e51b81526004016101fc90611dbb565b60405180910390fd5b50505050565b6001600160a01b03808216600090815260208190526040902054165b919050565b610205338585858080601f0160208091040260200160405190810160405280939291908181526020018383808284376000920191909152508792506001915061082c9050565b33600061027e8261020b565b9050606061028b83610420565b905060005b8151811015610318578181815181106102a557fe5b60200260200101516001600160a01b0316633146d05885856040518363ffffffff1660e01b81526004016102da929190611c58565b600060405180830381600087803b1580156102f457600080fd5b505af1158015610308573d6000803e3d6000fd5b5050600190920191506102909050565b5050505050565b60007f00000000000000000000000000000000000000000000000000000000000000006001600160a01b031663893d20e86040518163ffffffff1660e01b815260040160206040518083038186803b15801561037a57600080fd5b505afa15801561038e573d6000803e3d6000fd5b505050506040513d601f19601f820116820180604052508101906103b29190611670565b905090565b60006103fb604051806060016040528060298152602001611fc6602991397f000000000000000000000000000000000000000000000000000000000000000061098e565b507f000000000000000000000000000000000000000000000000000000000000000090565b6001600160a01b03811660009081526001602090815260409182902080548351818402810184019094528084526060939283018282801561048a57602002820191906000526020600020905b81546001600160a01b0316815260019091019060200180831161046c575b50505050509050919050565b6001600160a01b038083166000908152600260209081526040808320938516835292905220545b92915050565b3360006104cf8261020b565b905060606104dc83610420565b905060005b81518110156102055761050884848484815181106104fb57fe5b60200260200101516109d7565b6001016104e1565b6105186103b7565b6001600160a01b0316336001600160a01b0316146105485760405162461bcd60e51b81526004016101fc90611dfb565b61056a604051806060016040528060268152602001611fef602691393361098e565b6105748484610a90565b6105956040518060600160405280603481526020016120c360349139610ae7565b6060806105a483850185611798565b915091506105c960405180606001604052806028815260200161209b60289139610ae7565b80518251146105ea5760405162461bcd60e51b81526004016101fc90611ddb565b61060b60405180606001604052806029815260200161201560299139610ae7565b61061482610b2d565b6106305760405162461bcd60e51b81526004016101fc90611deb565b6106516040518060600160405280602a8152602001611f9c602a9139610ae7565b60005b82518110156108235761067f6040518060600160405280602481526020016120f76024913982610bc1565b82818151811061068b57fe5b60200260200101516001600160a01b0316630f5f6b4f888484815181106106ae57fe5b60200260200101516040518363ffffffff1660e01b81526004016106d3929190611ce4565b600060405180830381600087803b1580156106ed57600080fd5b505af1158015610701573d6000803e3d6000fd5b505050506107266040518060600160405280602b8152602001612070602b9139610ae7565b6001600160a01b0387166000908152600160205260409020835184908390811061074c57fe5b602090810291909101810151825460018101845560009384529282902090920180546001600160a01b0319166001600160a01b0390931692909217909155604080516060810190915260328082526107aa9261203e90830139610ae7565b8281815181106107b657fe5b60200260200101516001600160a01b0316876001600160a01b03167f62b7814f137868e44c7a83c2b0a340fc5dacef8f3e748867d0f5f879fc0ef6da8484815181106107fe57fe5b60200260200101516040516108139190611d3e565b60405180910390a3600101610654565b50505050505050565b606061083786610420565b90508051600014156108495750610318565b60006108548761020b565b90506001600160a01b03811661087c5760405162461bcd60e51b81526004016101fc90611e1b565b600061088c8883858a8a8a610c06565b905083156108a2576108a28883858a8a86610cff565b5050505050505050565b6060818060200190518101906108c29190611763565b905060006108cf3361020b565b905060005b8251811015610318578281815181106108e957fe5b60200260200101516001600160a01b031663b78b481386846040518363ffffffff1660e01b815260040161091e929190611c58565b602060405180830381600087803b15801561093857600080fd5b505af115801561094c573d6000803e3d6000fd5b505050506040513d601f19601f820116820180604052508101906109709190611815565b156109865761098685838584815181106104fb57fe5b6001016108d4565b6109d382826040516024016109a4929190611d6b565b60408051601f198184030181529190526020810180516001600160e01b031663319af33360e01b179052610e44565b5050565b60006109e38483610496565b9050806109f05750610a8b565b6001600160a01b0380851660009081526002602090815260408083209386168352929052908120819055610a25858585610e65565b9050610a3385858385610f6f565b806001600160a01b0316836001600160a01b0316866001600160a01b03167f4e6eff738a7af3dbd4288f753eb551833c09a82d6c3dfaf07a23c3fcc82a352285604051610a809190611e2b565b60405180910390a450505b505050565b6001600160a01b0382811660008181526020819052604080822080546001600160a01b0319169486169485179055517f8852dcaa71340ea616a65ffac013450dfb238607481fb9d78346c667fe256c139190a35050565b610b2a81604051602401610afb9190611d3e565b60408051601f198184030181529190526020810180516001600160e01b031663104c13eb60e21b179052610e44565b50565b60006001825111610b4057506001610227565b815160005b81811015610bb757600181015b82811015610bae57848181518110610b6657fe5b60200260200101516001600160a01b0316858381518110610b8357fe5b60200260200101516001600160a01b03161415610ba65760009350505050610227565b600101610b52565b50600101610b45565b5060019392505050565b6109d38282604051602401610bd7929190611d8b565b60408051601f198184030181529190526020810180516001600160e01b03166309710a9d60e41b179052610e44565b8060005b8551811015610cf357600080878381518110610c2257fe5b60200260200101516001600160a01b031663320f0ddd886040518263ffffffff1660e01b8152600401610c559190611d4f565b604080518083038186803b158015610c6c57600080fd5b505afa158015610c80573d6000803e3d6000fd5b505050506040513d601f19601f82011682018060405250810190610ca49190611833565b9150915081610cb4575050610ceb565b8015610cc757610cc48a85610fef565b93505b610ce88a8a8a8681518110610cd857fe5b60200260200101518a8a89611083565b50505b600101610c0a565b505b9695505050505050565b8060005b85518110156108a257600080878381518110610d1b57fe5b60200260200101516001600160a01b031663e337a91f886040518263ffffffff1660e01b8152600401610d4e9190611d4f565b604080518083038186803b158015610d6557600080fd5b505afa158015610d79573d6000803e3d6000fd5b505050506040513d601f19601f82011682018060405250810190610d9d9190611833565b9150915081610dad575050610e3c565b8015610dc057610dbd8a85610fef565b93505b878381518110610dcc57fe5b60200260200101516001600160a01b031663233faf5f8b8b8a8a896040518663ffffffff1660e01b8152600401610e07959493929190611c73565b600060405180830381600087803b158015610e2157600080fd5b505af1158015610e35573d6000803e3d6000fd5b5050505050505b600101610d03565b80516a636f6e736f6c652e6c6f67602083016000808483855afa5050505050565b60405163189e02cf60e21b81526000906001600160a01b038316906362780b3c90610e94908790600401611c4a565b60206040518083038186803b158015610eac57600080fd5b505afa158015610ec0573d6000803e3d6000fd5b505050506040513d601f19601f82011682018060405250810190610ee49190611670565b90506001600160a01b038116610f6857826001600160a01b031663893d20e86040518163ffffffff1660e01b815260040160206040518083038186803b158015610f2d57600080fd5b505afa158015610f41573d6000803e3d6000fd5b505050506040513d601f19601f82011682018060405250810190610f659190611670565b90505b9392505050565b836001600160a01b03166310acd06d6003858585604051602001610f9593929190611cbc565b6040516020818303038152906040526040518363ffffffff1660e01b8152600401610fc1929190611d5d565b600060405180830381600087803b158015610fdb57600080fd5b505af11580156108a2573d6000803e3d6000fd5b60008161107c57604051637a89e49360e11b81526001600160a01b0384169063f513c9269061102390600090600401611d30565b602060405180830381600087803b15801561103d57600080fd5b505af1158015611051573d6000803e3d6000fd5b505050506040513d601f19601f82011682018060405250810190611075919061191a565b90506104bd565b50806104bd565b6000806000866001600160a01b03166341892d7e8a8a8989896040518663ffffffff1660e01b81526004016110bc959493929190611c73565b606060405180830381600087803b1580156110d657600080fd5b505af11580156110ea573d6000803e3d6000fd5b505050506040513d601f19601f8201168201806040525081019061110e91906118cd565b91945092509050600083600581111561112357fe5b141561113157505050611317565b6000600184600581111561114157fe5b1415611165576111528a8a8a610e65565b90506111608a848385610f6f565b6112b7565b600284600581111561117357fe5b1415611191576111848a8a8a610e65565b90506111608a828461131f565b600384600581111561119f57fe5b14156111b0576111608a848461139d565b60048460058111156111be57fe5b1415611227576001600160a01b03808b166000908152600260209081526040808320938c16835292905220546111f490836113c1565b6001600160a01b03808c166000908152600260209081526040808320938d168352929052205550876111608a828461131f565b600584600581111561123557fe5b141561129f576001600160a01b03808b166000908152600260209081526040808320938c168352929052205461126b90836113e6565b6001600160a01b03808c166000908152600260209081526040808320938d16835292905220558892506111608a848461139d565b60405162461bcd60e51b81526004016101fc90611e0b565b8360058111156112c357fe5b886001600160a01b03168b6001600160a01b03167fef7da7c40d1fc52df907f6fed0e539680d5fb491c3b8f94db234a360dafe1d6286858760405161130a93929190611cbc565b60405180910390a4505050505b505050505050565b826001600160a01b03166310acd06d60028484604051602001611343929190611d04565b6040516020818303038152906040526040518363ffffffff1660e01b815260040161136f929190611d5d565b600060405180830381600087803b15801561138957600080fd5b505af1158015610823573d6000803e3d6000fd5b826001600160a01b03166310acd06d60018484604051602001611343929190611d04565b600082820183811015610f685760405162461bcd60e51b81526004016101fc90611dab565b6000828211156114085760405162461bcd60e51b81526004016101fc90611dcb565b50900390565b80356104bd81611f5b565b80516104bd81611f5b565b600082601f83011261143557600080fd5b813561144861144382611e60565b611e39565b9150818183526020840193506020810190508385602084028201111561146d57600080fd5b60005b838110156114995781611483888261140e565b8452506020928301929190910190600101611470565b5050505092915050565b600082601f8301126114b457600080fd5b81516114c261144382611e60565b915081818352602084019350602081019050838560208402820111156114e757600080fd5b60005b8381101561149957816114fd8882611419565b84525060209283019291909101906001016114ea565b600082601f83011261152457600080fd5b813561153261144382611e60565b81815260209384019390925082018360005b83811015611499578135860161155a88826115cf565b8452506020928301929190910190600101611544565b80356104bd81611f6f565b80516104bd81611f6f565b60008083601f84011261159857600080fd5b50813567ffffffffffffffff8111156115b057600080fd5b6020830191508360018202830111156115c857600080fd5b9250929050565b600082601f8301126115e057600080fd5b81356115ee61144382611e81565b9150808252602083016020830185838301111561160a57600080fd5b611615838284611f05565b50505092915050565b80356104bd81611f78565b80516104bd81611f85565b80356104bd81611f92565b80516104bd81611f92565b60006020828403121561165c57600080fd5b6000611668848461140e565b949350505050565b60006020828403121561168257600080fd5b60006116688484611419565b600080604083850312156116a157600080fd5b60006116ad858561140e565b92505060206116be8582860161140e565b9150509250929050565b600080600080606085870312156116de57600080fd5b60006116ea878761140e565b94505060206116fb8782880161140e565b935050604085013567ffffffffffffffff81111561171857600080fd5b61172487828801611586565b95989497509550505050565b6000806000806060858703121561174657600080fd5b6000611752878761140e565b94505060206116fb87828801611634565b60006020828403121561177557600080fd5b815167ffffffffffffffff81111561178c57600080fd5b611668848285016114a3565b600080604083850312156117ab57600080fd5b823567ffffffffffffffff8111156117c257600080fd5b6117ce85828601611424565b925050602083013567ffffffffffffffff8111156117eb57600080fd5b6116be85828601611513565b60006020828403121561180957600080fd5b60006116688484611570565b60006020828403121561182757600080fd5b6000611668848461157b565b6000806040838503121561184657600080fd5b6000611852858561157b565b92505060206116be8582860161157b565b6000806000806060858703121561187957600080fd5b6000611885878761161e565b945050602085013567ffffffffffffffff8111156118a257600080fd5b6118ae87828801611586565b935093505060406118c187828801611634565b91505092959194509250565b6000806000606084860312156118e257600080fd5b60006118ee8686611629565b93505060206118ff86828701611419565b92505060406119108682870161163f565b9150509250925092565b60006020828403121561192c57600080fd5b6000611668848461163f565b6000611944838361194c565b505060200190565b61195581611ebc565b82525050565b600061196682611eaf565b6119708185611eb3565b935061197b83611ea9565b8060005b838110156119a95781516119938882611938565b975061199e83611ea9565b92505060010161197f565b509495945050505050565b61195581611ec7565b60006119c882611eaf565b6119d28185611eb3565b93506119e2818560208601611f11565b6119eb81611f3d565b9093019392505050565b61195581611eef565b61195581611efa565b6000611a14601b83611eb3565b7f536166654d6174683a206164646974696f6e206f766572666c6f770000000000815260200192915050565b6000611a4d602d83611eb3565b7f7265636569766543616c6c46726f6d436f6d7074726f6c6c65723a20496e766181526c1b1a590817d858dd1a5bdb9259609a1b602082015260400192915050565b6000611a9c601e83611eb3565b7f536166654d6174683a207375627472616374696f6e206f766572666c6f770000815260200192915050565b6000611ad5603d83611eb3565b7f736574436f6e666967466f7246756e643a206665657320616e6420736574746981527f6e677344617461206172726179206c656e6774687320756e657175616c000000602082015260400192915050565b6000611b34603083611eb3565b7f736574436f6e666967466f7246756e643a20666565732063616e6e6f7420696e81526f636c756465206475706c69636174657360801b602082015260400192915050565b6000611b86602883611eb3565b7f4f6e6c79207468652046756e644465706c6f7965722063616e206d616b6520748152671a1a5cc818d85b1b60c21b602082015260400192915050565b6000611bd0602383611eb3565b7f5f5f736574746c654665653a20496e76616c696420536574746c656d656e745481526279706560e81b602082015260400192915050565b6000611c15602083611eb3565b7f5f5f696e766f6b65486f6f6b3a2046756e64206973206e6f7420616374697665815260200192915050565b61195581611eec565b602081016104bd828461194c565b60408101611c66828561194c565b610f68602083018461194c565b60a08101611c81828861194c565b611c8e602083018761194c565b611c9b60408301866119f5565b8181036060830152611cad81856119bd565b9050610cf56080830184611c41565b60608101611cca828661194c565b611cd7602083018561194c565b6116686040830184611c41565b60408101611cf2828561194c565b8181036020830152610f6581846119bd565b60408101611d12828561194c565b610f686020830184611c41565b60208082528101610f68818461195b565b602081016104bd82846119b4565b60208082528101610f6881846119bd565b602081016104bd82846119f5565b60408101611cf282856119fe565b60408082528101611d7c81856119bd565b9050610f68602083018461194c565b60408082528101611d9c81856119bd565b9050610f686020830184611c41565b602080825281016104bd81611a07565b602080825281016104bd81611a40565b602080825281016104bd81611a8f565b602080825281016104bd81611ac8565b602080825281016104bd81611b27565b602080825281016104bd81611b79565b602080825281016104bd81611bc3565b602080825281016104bd81611c08565b602081016104bd8284611c41565b60405181810167ffffffffffffffff81118282101715611e5857600080fd5b604052919050565b600067ffffffffffffffff821115611e7757600080fd5b5060209081020190565b600067ffffffffffffffff821115611e9857600080fd5b506020601f91909101601f19160190565b60200190565b5190565b90815260200190565b60006104bd82611ee0565b151590565b8061022781611f47565b8061022781611f51565b6001600160a01b031690565b90565b60006104bd82611ecc565b60006104bd82611ed6565b82818337506000910152565b60005b83811015611f2c578181015183820152602001611f14565b838111156102055750506000910152565b601f01601f191690565b60048110610b2a57fe5b600b8110610b2a57fe5b611f6481611ebc565b8114610b2a57600080fd5b611f6481611ec7565b60048110610b2a57600080fd5b60068110610b2a57600080fd5b611f6481611eec56fe4665654d616e616765723a736574436f6e666967466f7246756e643a7365636f6e64207265717569726546756e644465706c6f7965724f776e65724d6978696e3a67657446756e644465706c6f7965723a25734665654d616e616765723a736574436f6e666967466f7246756e643a73656e646572202025734665654d616e616765723a736574436f6e666967466f7246756e643a666972737420726571756972654665654d616e616765723a736574436f6e666967466f7246756e643a636f6d7074726f6c6c657250726f7879546f466565734665654d616e616765723a736574436f6e666967466f7246756e643a61646446756e6453657474696e67734665654d616e616765723a736574436f6e666967466f7246756e643a73657474696e6773446174614665654d616e616765723a736574436f6e666967466f7246756e643a5f5f73657456616c6964617465645661756c7450726f78794665654d616e616765723a736574436f6e666967466f7246756e643a6c6f6f703a202564a2646970667358221220d7834a4bcf1fcb2c147fd60872c901fe4377d29f7df785afa13acaf31ea79ae964736f6c634300060c0033",
  "devdoc": {
    "author": "Enzyme Council <security@enzyme.finance>",
    "details": "Any arbitrary fee is allowed by default, so all participants must be aware of their fund's configuration, especially whether they use official fees only. Fees can only be added upon fund setup, migration, or reconfiguration.",
    "kind": "dev",
    "methods": {
      "deactivateForFund()": {
        "details": "There will be no fees if the caller is not a valid ComptrollerProxy"
      },
      "getEnabledFeesForFund(address)": {
        "params": {
          "_comptrollerProxy": "The ComptrollerProxy of the fund"
        },
        "returns": {
          "enabledFees_": "An array of enabled fee addresses"
        }
      },
      "getFeeSharesOutstandingForFund(address,address)": {
        "params": {
          "_comptrollerProxy": "The ComptrollerProxy of the fund",
          "_fee": "The fee address"
        },
        "returns": {
          "sharesOutstanding_": "The amount of shares outstanding"
        }
      },
      "getFundDeployer()": {
        "returns": {
          "fundDeployer_": "The `FUND_DEPLOYER` variable value"
        }
      },
      "getOwner()": {
        "details": "Ownership is deferred to the owner of the FundDeployer contract",
        "returns": {
          "owner_": "The owner"
        }
      },
      "getVaultProxyForFund(address)": {
        "params": {
          "_comptrollerProxy": "The ComptrollerProxy of the fund"
        },
        "returns": {
          "vaultProxy_": "The VaultProxy of the fund"
        }
      },
      "invokeHook(uint8,bytes,uint256)": {
        "params": {
          "_gav": "The GAV for a fund if known in the invocating code, otherwise 0",
          "_hook": "The FeeHook to invoke",
          "_settlementData": "The encoded settlement parameters specific to the FeeHook"
        }
      },
      "receiveCallFromComptroller(address,uint256,bytes)": {
        "details": "This is the only way to call a function on this contract that updates VaultProxy state. For both of these actions, any caller is allowed, so we don't use the caller param.",
        "params": {
          "_actionId": "An ID representing the desired action",
          "_callArgs": "Encoded arguments specific to the _actionId"
        }
      },
      "setConfigForFund(address,address,bytes)": {
        "details": "The order of `fees` determines the order in which fees of the same FeeHook will be applied. It is recommended to run ManagementFee before PerformanceFee in order to achieve precise PerformanceFee calcs.",
        "params": {
          "_comptrollerProxy": "The ComptrollerProxy of the fund",
          "_configData": "Encoded config data",
          "_vaultProxy": "The VaultProxy of the fund"
        }
      }
    },
    "title": "FeeManager Contract",
    "version": 1
  },
  "userdoc": {
    "kind": "user",
    "methods": {
      "activateForFund(bool)": {
        "notice": "Activate already-configured fees for use in the calling fund"
      },
      "deactivateForFund()": {
        "notice": "Deactivate fees for a fund"
      },
      "getEnabledFeesForFund(address)": {
        "notice": "Get a list of enabled fees for a given fund"
      },
      "getFeeSharesOutstandingForFund(address,address)": {
        "notice": "Get the amount of shares outstanding for a particular fee for a fund"
      },
      "getFundDeployer()": {
        "notice": "Gets the `FUND_DEPLOYER` variable"
      },
      "getOwner()": {
        "notice": "Gets the owner of this contract"
      },
      "getVaultProxyForFund(address)": {
        "notice": "Gets the verified VaultProxy for a given ComptrollerProxy"
      },
      "invokeHook(uint8,bytes,uint256)": {
        "notice": "Allows all fees for a particular FeeHook to implement settle() and update() logic"
      },
      "receiveCallFromComptroller(address,uint256,bytes)": {
        "notice": "Receives a dispatched `callOnExtension` from a fund's ComptrollerProxy"
      },
      "setConfigForFund(address,address,bytes)": {
        "notice": "Enable and configure fees for use in the calling fund"
      }
    },
    "notice": "Manages fees for funds",
    "version": 1
  },
  "storageLayout": {
    "storage": [
      {
        "astId": 39255,
        "contract": "contracts/release/extensions/fee-manager/FeeManager.sol:FeeManager",
        "label": "comptrollerProxyToVaultProxy",
        "offset": 0,
        "slot": "0",
        "type": "t_mapping(t_address,t_address)"
      },
      {
        "astId": 17021,
        "contract": "contracts/release/extensions/fee-manager/FeeManager.sol:FeeManager",
        "label": "comptrollerProxyToFees",
        "offset": 0,
        "slot": "1",
        "type": "t_mapping(t_address,t_array(t_address)dyn_storage)"
      },
      {
        "astId": 17027,
        "contract": "contracts/release/extensions/fee-manager/FeeManager.sol:FeeManager",
        "label": "comptrollerProxyToFeeToSharesOutstanding",
        "offset": 0,
        "slot": "2",
        "type": "t_mapping(t_address,t_mapping(t_address,t_uint256))"
      }
    ],
    "types": {
      "t_address": {
        "encoding": "inplace",
        "label": "address",
        "numberOfBytes": "20"
      },
      "t_array(t_address)dyn_storage": {
        "base": "t_address",
        "encoding": "dynamic_array",
        "label": "address[]",
        "numberOfBytes": "32"
      },
      "t_mapping(t_address,t_address)": {
        "encoding": "mapping",
        "key": "t_address",
        "label": "mapping(address => address)",
        "numberOfBytes": "32",
        "value": "t_address"
      },
      "t_mapping(t_address,t_array(t_address)dyn_storage)": {
        "encoding": "mapping",
        "key": "t_address",
        "label": "mapping(address => address[])",
        "numberOfBytes": "32",
        "value": "t_array(t_address)dyn_storage"
      },
      "t_mapping(t_address,t_mapping(t_address,t_uint256))": {
        "encoding": "mapping",
        "key": "t_address",
        "label": "mapping(address => mapping(address => uint256))",
        "numberOfBytes": "32",
        "value": "t_mapping(t_address,t_uint256)"
      },
      "t_mapping(t_address,t_uint256)": {
        "encoding": "mapping",
        "key": "t_address",
        "label": "mapping(address => uint256)",
        "numberOfBytes": "32",
        "value": "t_uint256"
      },
      "t_uint256": {
        "encoding": "inplace",
        "label": "uint256",
        "numberOfBytes": "32"
      }
    }
  }
}