{
  "address": "0x20d7B364E8Ed1F4260b5B90C41c2deC3C1F6D367",
  "abi": [
    {
      "inputs": [
        {
          "internalType": "address",
          "name": "_integrationManager",
          "type": "address"
        },
        {
          "internalType": "address",
          "name": "_augustusSwapper",
          "type": "address"
        },
        {
          "internalType": "address",
          "name": "_tokenTransferProxy",
          "type": "address"
        }
      ],
      "stateMutability": "nonpayable",
      "type": "constructor"
    },
    {
      "inputs": [],
      "name": "CLAIM_REWARDS_SELECTOR",
      "outputs": [
        {
          "internalType": "bytes4",
          "name": "",
          "type": "bytes4"
        }
      ],
      "stateMutability": "view",
      "type": "function"
    },
    {
      "inputs": [],
      "name": "LEND_AND_STAKE_SELECTOR",
      "outputs": [
        {
          "internalType": "bytes4",
          "name": "",
          "type": "bytes4"
        }
      ],
      "stateMutability": "view",
      "type": "function"
    },
    {
      "inputs": [],
      "name": "LEND_SELECTOR",
      "outputs": [
        {
          "internalType": "bytes4",
          "name": "",
          "type": "bytes4"
        }
      ],
      "stateMutability": "view",
      "type": "function"
    },
    {
      "inputs": [],
      "name": "REDEEM_SELECTOR",
      "outputs": [
        {
          "internalType": "bytes4",
          "name": "",
          "type": "bytes4"
        }
      ],
      "stateMutability": "view",
      "type": "function"
    },
    {
      "inputs": [],
      "name": "STAKE_SELECTOR",
      "outputs": [
        {
          "internalType": "bytes4",
          "name": "",
          "type": "bytes4"
        }
      ],
      "stateMutability": "view",
      "type": "function"
    },
    {
      "inputs": [],
      "name": "TAKE_ORDER_SELECTOR",
      "outputs": [
        {
          "internalType": "bytes4",
          "name": "",
          "type": "bytes4"
        }
      ],
      "stateMutability": "view",
      "type": "function"
    },
    {
      "inputs": [],
      "name": "UNSTAKE_AND_REDEEM_SELECTOR",
      "outputs": [
        {
          "internalType": "bytes4",
          "name": "",
          "type": "bytes4"
        }
      ],
      "stateMutability": "view",
      "type": "function"
    },
    {
      "inputs": [],
      "name": "UNSTAKE_SELECTOR",
      "outputs": [
        {
          "internalType": "bytes4",
          "name": "",
          "type": "bytes4"
        }
      ],
      "stateMutability": "view",
      "type": "function"
    },
    {
      "inputs": [],
      "name": "getIntegrationManager",
      "outputs": [
        {
          "internalType": "address",
          "name": "integrationManager_",
          "type": "address"
        }
      ],
      "stateMutability": "view",
      "type": "function"
    },
    {
      "inputs": [],
      "name": "getParaSwapV4AugustusSwapper",
      "outputs": [
        {
          "internalType": "address",
          "name": "augustusSwapper_",
          "type": "address"
        }
      ],
      "stateMutability": "view",
      "type": "function"
    },
    {
      "inputs": [],
      "name": "getParaSwapV4TokenTransferProxy",
      "outputs": [
        {
          "internalType": "address",
          "name": "tokenTransferProxy_",
          "type": "address"
        }
      ],
      "stateMutability": "view",
      "type": "function"
    },
    {
      "inputs": [
        {
          "internalType": "address",
          "name": "",
          "type": "address"
        },
        {
          "internalType": "bytes4",
          "name": "_selector",
          "type": "bytes4"
        },
        {
          "internalType": "bytes",
          "name": "_actionData",
          "type": "bytes"
        }
      ],
      "name": "parseAssetsForAction",
      "outputs": [
        {
          "internalType": "enum IIntegrationManager.SpendAssetsHandleType",
          "name": "spendAssetsHandleType_",
          "type": "uint8"
        },
        {
          "internalType": "address[]",
          "name": "spendAssets_",
          "type": "address[]"
        },
        {
          "internalType": "uint256[]",
          "name": "spendAssetAmounts_",
          "type": "uint256[]"
        },
        {
          "internalType": "address[]",
          "name": "incomingAssets_",
          "type": "address[]"
        },
        {
          "internalType": "uint256[]",
          "name": "minIncomingAssetAmounts_",
          "type": "uint256[]"
        }
      ],
      "stateMutability": "view",
      "type": "function"
    },
    {
      "inputs": [
        {
          "internalType": "address",
          "name": "_vaultProxy",
          "type": "address"
        },
        {
          "internalType": "bytes",
          "name": "_actionData",
          "type": "bytes"
        },
        {
          "internalType": "bytes",
          "name": "",
          "type": "bytes"
        }
      ],
      "name": "takeOrder",
      "outputs": [],
      "stateMutability": "nonpayable",
      "type": "function"
    }
  ],
  "transactionHash": "0xe03a875f68c9aae7b488e458931eada76539a7e134b2606215671a23489a1b81",
  "args": [
    "0x313F922BE1649cEc058EC0f076664500c78bdc0b",
    "0x1bD435F3C054b6e901B7b108a0ab7617C808677b",
    "0xb70Bc06D2c9Bf03b3373799606dc7d39346c06B3"
  ],
  "linkedData": {
    "type": "ADAPTER"
  },
  "solcInputHash": "fd41f4d5d0ef192ad3cb382782c5b450",
  "bytecode": "0x60e06040523480156200001157600080fd5b50604051620018933803806200189383398101604081905262000034916200006f565b6001600160601b0319606093841b811660805291831b821660a05290911b1660c052620000ef565b80516200006981620000d5565b92915050565b6000806000606084860312156200008557600080fd5b60006200009386866200005c565b9350506020620000a6868287016200005c565b9250506040620000b9868287016200005c565b9150509250925092565b60006001600160a01b03821662000069565b620000e081620000c3565b8114620000ec57600080fd5b50565b60805160601c60a05160601c60c05160601c61175f620001346000398061053c52806105da5250806102fa52806106785250806101935280610560525061175f6000f3fe608060405234801561001057600080fd5b50600436106100cf5760003560e01c80635e21197a1161008c578063c54efee511610066578063c54efee51461014c578063c7308c0314610170578063e7c4569014610178578063f7d882b514610180576100cf565b80635e21197a14610127578063863e5ad01461013c578063b23228cf14610144576100cf565b806303e38a2b146100d4578063080456c1146100e9578063131461c014610107578063257cb1a31461010f5780633ffc15911461011757806340da225d1461011f575b600080fd5b6100e76100e2366004610df8565b610188565b005b6100f1610244565b6040516100fe9190611507565b60405180910390f35b6100f1610268565b6100f161028c565b6100f16102b0565b6100f16102d4565b61012f6102f8565b6040516100fe91906114c3565b6100f161031c565b6100f1610340565b61015f61015a366004610d90565b610364565b6040516100fe959493929190611515565b61012f61053a565b61012f61055e565b6100f1610582565b336001600160a01b037f000000000000000000000000000000000000000000000000000000000000000016146101d95760405162461bcd60e51b81526004016101d090611592565b60405180910390fd5b600080600080606061022089898080601f0160208091040260200160405190810160405280939291908181526020018383808284376000920191909152506105a692505050565b94509450945094509450610238838387878e866105d4565b50505050505050505050565b7f8334eb99be0145865eba9889fca2ee920288090caefff4cc776038e20ad9259a81565b7f29fa046e79524c3c5ac4c01df692c35e217802b2b13b21121b76cf0ef02b138c81565b7f099f75155f0e997bf83a7993a71d5e7e7540bd386fe1e84643a09ce6b412521981565b7ffa7dd04da627f433da73c4355ead9c75682a67a8fc84d3f6170ef0922f402d2481565b7fb9dfbaccbe5cd2a84fdcf1d15f23ef25d23086f5afbaa99516065ed4a5bbc7a381565b7f000000000000000000000000000000000000000000000000000000000000000090565b7f03e38a2bd7063d45c897edeafc330e71657502dd86434d3c37a489caf116af6981565b7f68e30677f607df46e87da13e15b637784cfa62374b653f35ab43d10361a2f83081565b600060608080806001600160e01b031988166303e38a2b60e01b1461039b5760405162461bcd60e51b81526004016101d0906115d2565b600080600060606103e18b8b8080601f0160208091040260200160405190810160405280939291908181526020018383808284376000920191909152506105a692505050565b945094509450509350600167ffffffffffffffff8111801561040257600080fd5b5060405190808252806020026020018201604052801561042c578160200160208202803683370190505b509750828860008151811061043d57fe5b6001600160a01b0392909216602092830291909101820152604080516001808252818301909252918281019080368337019050509650818760008151811061048157fe5b602090810291909101015260408051600180825281830190925290816020016020820280368337019050509550806001825103815181106104be57fe5b602002602001015160000151866000815181106104d757fe5b6001600160a01b0392909216602092830291909101820152604080516001808252818301909252918281019080368337019050509450838560008151811061051b57fe5b6020026020010181815250506002985050505050945094509450945094565b7f000000000000000000000000000000000000000000000000000000000000000090565b7f000000000000000000000000000000000000000000000000000000000000000090565b7fc29fa9dde84204c2908778afd0613d802d31cf046179b88f6d2b4a4e507ea2d581565b6000806000806060858060200190518101906105c29190610ec3565b939a9299509097509550909350915050565b6105ff867f00000000000000000000000000000000000000000000000000000000000000008761071e565b610607610a8b565b604051806101000160405280886001600160a01b03168152602001878152602001868152602001858152602001846001600160a01b0316815260200160405180604001604052806006815260200165656e7a796d6560d01b81525081526020016000151581526020018381525090507f00000000000000000000000000000000000000000000000000000000000000006001600160a01b0316638f00eccb826040518263ffffffff1660e01b81526004016106c291906115e2565b602060405180830381600087803b1580156106dc57600080fd5b505af11580156106f0573d6000803e3d6000fd5b505050506040513d601f19601f820116820180604052508101906107149190610ea5565b5050505050505050565b604051636eb1769f60e11b81526000906001600160a01b0385169063dd62ed3e9061074f90309087906004016114d1565b60206040518083038186803b15801561076757600080fd5b505afa15801561077b573d6000803e3d6000fd5b505050506040513d601f19601f8201168201806040525081019061079f9190610ea5565b9050818110156107da5780156107c4576107c46001600160a01b0385168460006107e0565b6107da6001600160a01b038516846000196107e0565b50505050565b8015806108685750604051636eb1769f60e11b81526001600160a01b0384169063dd62ed3e9061081690309086906004016114d1565b60206040518083038186803b15801561082e57600080fd5b505afa158015610842573d6000803e3d6000fd5b505050506040513d601f19601f820116820180604052508101906108669190610ea5565b155b6108845760405162461bcd60e51b81526004016101d0906115c2565b6108da8363095ea7b360e01b84846040516024016108a39291906114ec565b60408051601f198184030181529190526020810180516001600160e01b03166001600160e01b0319909316929092179091526108df565b505050565b6060610934826040518060400160405280602081526020017f5361666545524332303a206c6f772d6c6576656c2063616c6c206661696c6564815250856001600160a01b031661096e9092919063ffffffff16565b8051909150156108da57808060200190518101906109529190610e7f565b6108da5760405162461bcd60e51b81526004016101d0906115b2565b606061097d8484600085610987565b90505b9392505050565b6060824710156109a95760405162461bcd60e51b81526004016101d090611582565b6109b285610a48565b6109ce5760405162461bcd60e51b81526004016101d0906115a2565b60006060866001600160a01b031685876040516109eb91906114b7565b60006040518083038185875af1925050503d8060008114610a28576040519150601f19603f3d011682016040523d82523d6000602084013e610a2d565b606091505b5091509150610a3d828286610a52565b979650505050505050565b803b15155b919050565b60608315610a61575081610980565b825115610a715782518084602001fd5b8160405162461bcd60e51b81526004016101d09190611571565b60405180610100016040528060006001600160a01b0316815260200160008152602001600081526020016000815260200160006001600160a01b0316815260200160608152602001600015158152602001606081525090565b8035610aef816116fa565b92915050565b8051610aef816116fa565b600082601f830112610b1157600080fd5b8151610b24610b1f8261161a565b6115f3565b81815260209384019390925082018360005b83811015610b625781518601610b4c8882610c77565b8452506020928301929190910190600101610b36565b5050505092915050565b600082601f830112610b7d57600080fd5b8151610b8b610b1f8261161a565b81815260209384019390925082018360005b83811015610b625781518601610bb38882610cea565b8452506020928301929190910190600101610b9d565b8051610aef8161170e565b8035610aef81611717565b60008083601f840112610bf157600080fd5b50813567ffffffffffffffff811115610c0957600080fd5b602083019150836001820283011115610c2157600080fd5b9250929050565b600082601f830112610c3957600080fd5b8151610c47610b1f8261163b565b91508082526020830160208301858383011115610c6357600080fd5b610c6e8382846116b7565b50505092915050565b600060608284031215610c8957600080fd5b610c9360606115f3565b90506000610ca18484610af5565b8252506020610cb284848301610d85565b602083015250604082015167ffffffffffffffff811115610cd257600080fd5b610cde84828501610b6c565b60408301525092915050565b600060a08284031215610cfc57600080fd5b610d0660a06115f3565b90506000610d148484610af5565b8252506020610d2584848301610af5565b6020830152506040610d3984828501610d85565b604083015250606082015167ffffffffffffffff811115610d5957600080fd5b610d6584828501610c28565b6060830152506080610d7984828501610d85565b60808301525092915050565b8051610aef81611720565b60008060008060608587031215610da657600080fd5b6000610db28787610ae4565b9450506020610dc387828801610bd4565b935050604085013567ffffffffffffffff811115610de057600080fd5b610dec87828801610bdf565b95989497509550505050565b600080600080600060608688031215610e1057600080fd5b6000610e1c8888610ae4565b955050602086013567ffffffffffffffff811115610e3957600080fd5b610e4588828901610bdf565b9450945050604086013567ffffffffffffffff811115610e6457600080fd5b610e7088828901610bdf565b92509250509295509295909350565b600060208284031215610e9157600080fd5b6000610e9d8484610bc9565b949350505050565b600060208284031215610eb757600080fd5b6000610e9d8484610d85565b600080600080600060a08688031215610edb57600080fd5b6000610ee78888610d85565b9550506020610ef888828901610d85565b9450506040610f0988828901610af5565b9350506060610f1a88828901610d85565b925050608086015167ffffffffffffffff811115610f3757600080fd5b610f4388828901610b00565b9150509295509295909350565b6000610f5c8383610f88565b505060200190565b60006109808383611351565b60006109808383611399565b6000610f5c83836114ae565b610f9181611676565b82525050565b6000610fa282611669565b610fac818561166d565b9350610fb783611663565b8060005b83811015610fe5578151610fcf8882610f50565b9750610fda83611663565b925050600101610fbb565b509495945050505050565b6000610ffb82611669565b611005818561166d565b93508360208202850161101785611663565b8060005b8581101561105157848403895281516110348582610f64565b945061103f83611663565b60209a909a019992505060010161101b565b5091979650505050505050565b600061106982611669565b611073818561166d565b93508360208202850161108585611663565b8060005b8581101561105157848403895281516110a28582610f70565b94506110ad83611663565b60209a909a0199925050600101611089565b60006110ca82611669565b6110d4818561166d565b93506110df83611663565b8060005b83811015610fe55781516110f78882610f7c565b975061110283611663565b9250506001016110e3565b610f9181611681565b610f9181611686565b600061112a82611669565b611134818561166d565b93506111448185602086016116b7565b61114d816116e3565b9093019392505050565b600061116282611669565b61116c8185610a4d565b935061117c8185602086016116b7565b9290920192915050565b610f91816116ac565b600061119c60268361166d565b7f416464726573733a20696e73756666696369656e742062616c616e636520666f8152651c8818d85b1b60d21b602082015260400192915050565b60006111e460328361166d565b7f4f6e6c792074686520496e746567726174696f6e4d616e616765722063616e2081527131b0b636103a3434b990333ab731ba34b7b760711b602082015260400192915050565b6000611238601d8361166d565b7f416464726573733a2063616c6c20746f206e6f6e2d636f6e7472616374000000815260200192915050565b6000611271602a8361166d565b7f5361666545524332303a204552433230206f7065726174696f6e20646964206e8152691bdd081cdd58d8d9595960b21b602082015260400192915050565b60006112bd60368361166d565b7f5361666545524332303a20617070726f76652066726f6d206e6f6e2d7a65726f81527520746f206e6f6e2d7a65726f20616c6c6f77616e636560501b602082015260400192915050565b600061131560278361166d565b7f7061727365417373657473466f72416374696f6e3a205f73656c6563746f72208152661a5b9d985b1a5960ca1b602082015260400192915050565b805160009060608401906113658582610f88565b50602083015161137860208601826114ae565b5060408301518482036040860152611390828261105e565b95945050505050565b805160009060a08401906113ad8582610f88565b5060208301516113c06020860182610f88565b5060408301516113d360408601826114ae565b50606083015184820360608601526113eb828261111f565b915050608083015161140060808601826114ae565b509392505050565b805160009061010084019061141d8582610f88565b50602083015161143060208601826114ae565b50604083015161144360408601826114ae565b50606083015161145660608601826114ae565b5060808301516114696080860182610f88565b5060a083015184820360a0860152611481828261111f565b91505060c083015161149660c086018261110d565b5060e083015184820360e08601526113908282610ff0565b610f91816116a9565b60006109808284611157565b60208101610aef8284610f88565b604081016114df8285610f88565b6109806020830184610f88565b604081016114fa8285610f88565b61098060208301846114ae565b60208101610aef8284611116565b60a081016115238288611186565b81810360208301526115358187610f97565b9050818103604083015261154981866110bf565b9050818103606083015261155d8185610f97565b90508181036080830152610a3d81846110bf565b60208082528101610980818461111f565b60208082528101610aef8161118f565b60208082528101610aef816111d7565b60208082528101610aef8161122b565b60208082528101610aef81611264565b60208082528101610aef816112b0565b60208082528101610aef81611308565b602080825281016109808184611408565b60405181810167ffffffffffffffff8111828210171561161257600080fd5b604052919050565b600067ffffffffffffffff82111561163157600080fd5b5060209081020190565b600067ffffffffffffffff82111561165257600080fd5b506020601f91909101601f19160190565b60200190565b5190565b90815260200190565b6000610aef8261169d565b151590565b6001600160e01b03191690565b80610a4d816116ed565b6001600160a01b031690565b90565b6000610aef82611693565b60005b838110156116d25781810151838201526020016116ba565b838111156107da5750506000910152565b601f01601f191690565b600381106116f757fe5b50565b61170381611676565b81146116f757600080fd5b61170381611681565b61170381611686565b611703816116a956fea2646970667358221220b9bf2f3231cdfed33ada65ba418e8ceb640e05cb2577a5363e17233b67a1b45664736f6c634300060c0033",
  "devdoc": {
    "author": "Enzyme Council <security@enzyme.finance>",
    "details": "Does not allow any protocol that collects protocol fees in ETH, e.g., 0x v3",
    "kind": "dev",
    "methods": {
      "getIntegrationManager()": {
        "returns": {
          "integrationManager_": "The `INTEGRATION_MANAGER` variable value"
        }
      },
      "getParaSwapV4AugustusSwapper()": {
        "returns": {
          "augustusSwapper_": "The `PARA_SWAP_V4_AUGUSTUS_SWAPPER` variable value"
        }
      },
      "getParaSwapV4TokenTransferProxy()": {
        "returns": {
          "tokenTransferProxy_": "The `PARA_SWAP_V4_TOKEN_TRANSFER_PROXY` variable value"
        }
      },
      "parseAssetsForAction(address,bytes4,bytes)": {
        "params": {
          "_actionData": "Data specific to this action",
          "_selector": "The function selector for the callOnIntegration"
        },
        "returns": {
          "incomingAssets_": "The assets to receive in the call",
          "minIncomingAssetAmounts_": "The min asset amounts to receive in the call",
          "spendAssetAmounts_": "The max asset amounts to spend in the call",
          "spendAssetsHandleType_": "A type that dictates how to handle granting the adapter access to spend assets (`None` by default)",
          "spendAssets_": "The assets to spend in the call"
        }
      },
      "takeOrder(address,bytes,bytes)": {
        "details": "ParaSwap v4 completely uses entire outgoing asset balance and incoming asset is sent directly to the beneficiary (the _vaultProxy)",
        "params": {
          "_actionData": "Data specific to this action",
          "_vaultProxy": "The VaultProxy of the calling fund"
        }
      }
    },
    "title": "ParaSwapV4Adapter Contract",
    "version": 1
  },
  "userdoc": {
    "kind": "user",
    "methods": {
      "getIntegrationManager()": {
        "notice": "Gets the `INTEGRATION_MANAGER` variable"
      },
      "getParaSwapV4AugustusSwapper()": {
        "notice": "Gets the `PARA_SWAP_V4_AUGUSTUS_SWAPPER` variable"
      },
      "getParaSwapV4TokenTransferProxy()": {
        "notice": "Gets the `PARA_SWAP_V4_TOKEN_TRANSFER_PROXY` variable"
      },
      "parseAssetsForAction(address,bytes4,bytes)": {
        "notice": "Parses the expected assets in a particular action"
      },
      "takeOrder(address,bytes,bytes)": {
        "notice": "Trades assets on ParaSwap"
      }
    },
    "notice": "Adapter for interacting with ParaSwap (v4)",
    "version": 1
  },
  "storageLayout": {
    "storage": [],
    "types": null
  }
}