{
  "address": "0xFD6D23eE2b6b136E34572fc80cbCd33E9787705e",
  "abi": [
    {
      "inputs": [
        {
          "internalType": "address",
          "name": "_fundDeployer",
          "type": "address"
        },
        {
          "internalType": "address",
          "name": "_gasRelayPaymasterFactory",
          "type": "address"
        }
      ],
      "stateMutability": "nonpayable",
      "type": "constructor"
    },
    {
      "anonymous": false,
      "inputs": [
        {
          "indexed": true,
          "internalType": "address",
          "name": "comptrollerProxy",
          "type": "address"
        },
        {
          "indexed": true,
          "internalType": "address",
          "name": "policy",
          "type": "address"
        },
        {
          "indexed": true,
          "internalType": "enum IPolicyManager.PolicyHook",
          "name": "hook",
          "type": "uint8"
        }
      ],
      "name": "PolicyDisabledOnHookForFund",
      "type": "event"
    },
    {
      "anonymous": false,
      "inputs": [
        {
          "indexed": true,
          "internalType": "address",
          "name": "comptrollerProxy",
          "type": "address"
        },
        {
          "indexed": true,
          "internalType": "address",
          "name": "policy",
          "type": "address"
        },
        {
          "indexed": false,
          "internalType": "bytes",
          "name": "settingsData",
          "type": "bytes"
        }
      ],
      "name": "PolicyEnabledForFund",
      "type": "event"
    },
    {
      "anonymous": false,
      "inputs": [
        {
          "indexed": true,
          "internalType": "address",
          "name": "comptrollerProxy",
          "type": "address"
        },
        {
          "indexed": true,
          "internalType": "address",
          "name": "vaultProxy",
          "type": "address"
        }
      ],
      "name": "ValidatedVaultProxySetForFund",
      "type": "event"
    },
    {
      "inputs": [
        {
          "internalType": "bool",
          "name": "_isMigratedFund",
          "type": "bool"
        }
      ],
      "name": "activateForFund",
      "outputs": [],
      "stateMutability": "nonpayable",
      "type": "function"
    },
    {
      "inputs": [],
      "name": "deactivateForFund",
      "outputs": [],
      "stateMutability": "nonpayable",
      "type": "function"
    },
    {
      "inputs": [
        {
          "internalType": "address",
          "name": "_comptrollerProxy",
          "type": "address"
        },
        {
          "internalType": "address",
          "name": "_policy",
          "type": "address"
        }
      ],
      "name": "disablePolicyForFund",
      "outputs": [],
      "stateMutability": "nonpayable",
      "type": "function"
    },
    {
      "inputs": [
        {
          "internalType": "address",
          "name": "_comptrollerProxy",
          "type": "address"
        },
        {
          "internalType": "address",
          "name": "_policy",
          "type": "address"
        },
        {
          "internalType": "bytes",
          "name": "_settingsData",
          "type": "bytes"
        }
      ],
      "name": "enablePolicyForFund",
      "outputs": [],
      "stateMutability": "nonpayable",
      "type": "function"
    },
    {
      "inputs": [
        {
          "internalType": "address",
          "name": "_comptrollerProxy",
          "type": "address"
        }
      ],
      "name": "getEnabledPoliciesForFund",
      "outputs": [
        {
          "internalType": "address[]",
          "name": "enabledPolicies_",
          "type": "address[]"
        }
      ],
      "stateMutability": "view",
      "type": "function"
    },
    {
      "inputs": [
        {
          "internalType": "address",
          "name": "_comptrollerProxy",
          "type": "address"
        },
        {
          "internalType": "enum IPolicyManager.PolicyHook",
          "name": "_hook",
          "type": "uint8"
        }
      ],
      "name": "getEnabledPoliciesOnHookForFund",
      "outputs": [
        {
          "internalType": "address[]",
          "name": "enabledPolicies_",
          "type": "address[]"
        }
      ],
      "stateMutability": "view",
      "type": "function"
    },
    {
      "inputs": [],
      "name": "getFundDeployer",
      "outputs": [
        {
          "internalType": "address",
          "name": "fundDeployer_",
          "type": "address"
        }
      ],
      "stateMutability": "view",
      "type": "function"
    },
    {
      "inputs": [],
      "name": "getGasRelayPaymasterFactory",
      "outputs": [
        {
          "internalType": "address",
          "name": "gasRelayPaymasterFactory_",
          "type": "address"
        }
      ],
      "stateMutability": "view",
      "type": "function"
    },
    {
      "inputs": [],
      "name": "getGasRelayTrustedForwarder",
      "outputs": [
        {
          "internalType": "address",
          "name": "trustedForwarder_",
          "type": "address"
        }
      ],
      "stateMutability": "view",
      "type": "function"
    },
    {
      "inputs": [],
      "name": "getOwner",
      "outputs": [
        {
          "internalType": "address",
          "name": "owner_",
          "type": "address"
        }
      ],
      "stateMutability": "view",
      "type": "function"
    },
    {
      "inputs": [
        {
          "internalType": "address",
          "name": "_comptrollerProxy",
          "type": "address"
        }
      ],
      "name": "getVaultProxyForFund",
      "outputs": [
        {
          "internalType": "address",
          "name": "vaultProxy_",
          "type": "address"
        }
      ],
      "stateMutability": "view",
      "type": "function"
    },
    {
      "inputs": [
        {
          "internalType": "address",
          "name": "_comptrollerProxy",
          "type": "address"
        },
        {
          "internalType": "enum IPolicyManager.PolicyHook",
          "name": "_hook",
          "type": "uint8"
        },
        {
          "internalType": "address",
          "name": "_policy",
          "type": "address"
        }
      ],
      "name": "policyIsEnabledOnHookForFund",
      "outputs": [
        {
          "internalType": "bool",
          "name": "isEnabled_",
          "type": "bool"
        }
      ],
      "stateMutability": "view",
      "type": "function"
    },
    {
      "inputs": [
        {
          "internalType": "address",
          "name": "",
          "type": "address"
        },
        {
          "internalType": "uint256",
          "name": "",
          "type": "uint256"
        },
        {
          "internalType": "bytes",
          "name": "",
          "type": "bytes"
        }
      ],
      "name": "receiveCallFromComptroller",
      "outputs": [],
      "stateMutability": "nonpayable",
      "type": "function"
    },
    {
      "inputs": [
        {
          "internalType": "address",
          "name": "_comptrollerProxy",
          "type": "address"
        },
        {
          "internalType": "address",
          "name": "_vaultProxy",
          "type": "address"
        },
        {
          "internalType": "bytes",
          "name": "_configData",
          "type": "bytes"
        }
      ],
      "name": "setConfigForFund",
      "outputs": [],
      "stateMutability": "nonpayable",
      "type": "function"
    },
    {
      "inputs": [
        {
          "internalType": "address",
          "name": "_comptrollerProxy",
          "type": "address"
        },
        {
          "internalType": "address",
          "name": "_policy",
          "type": "address"
        },
        {
          "internalType": "bytes",
          "name": "_settingsData",
          "type": "bytes"
        }
      ],
      "name": "updatePolicySettingsForFund",
      "outputs": [],
      "stateMutability": "nonpayable",
      "type": "function"
    },
    {
      "inputs": [
        {
          "internalType": "address",
          "name": "_comptrollerProxy",
          "type": "address"
        },
        {
          "internalType": "enum IPolicyManager.PolicyHook",
          "name": "_hook",
          "type": "uint8"
        },
        {
          "internalType": "bytes",
          "name": "_validationData",
          "type": "bytes"
        }
      ],
      "name": "validatePolicies",
      "outputs": [],
      "stateMutability": "nonpayable",
      "type": "function"
    }
  ],
  "transactionHash": "0x6b9c570a02beb1e422ed6fc10d910cdfc159a3e9d5b0e2c72eb0b296155ef6c1",
  "args": [
    "0xa4E00CB342B36eC9fDc4B50b3d527c3643D4C49e",
    "0x9849832a1d8274aaeDb1112ad9686413461e7101"
  ],
  "solcInputHash": "b2d0c2e3b549d952387d70aebac13f1c",
  "bytecode": "0x60c06040523480156200001157600080fd5b50604051620022dd380380620022dd833981016040819052620000349162000066565b6001600160601b0319606092831b8116608052911b1660a052620000d1565b80516200006081620000b7565b92915050565b600080604083850312156200007a57600080fd5b600062000088858562000053565b92505060206200009b8582860162000053565b9150509250929050565b60006001600160a01b03821662000060565b620000c281620000a5565b8114620000ce57600080fd5b50565b60805160601c60a05160601c6121d86200010560003980610de1525080610c285280610d965280610dbd52506121d86000f3fe608060405234801561001057600080fd5b50600436106101005760003560e01c806380d570631161009757806397c0ac871161006657806397c0ac8714610205578063ac2594561461020d578063bd8e959a14610215578063f067cc111461021d57610100565b806380d57063146101b7578063893d20e8146101ca5780638aa740b4146101d25780638af6d89e146101f257610100565b806346790346116100d3578063467903461461016957806348f35209146101895780634ed28b3f1461019c5780636ea21143146101af57610100565b80630442bad5146101055780631bee801e1461011a578063248a2aab1461012d57806345d582e714610156575b600080fd5b61011861011336600461195e565b610230565b005b610118610128366004611991565b610511565b61014061013b366004611911565b610529565b60405161014d9190611f84565b60405180910390f35b61011861016436600461183f565b610549565b61017c6101773660046117fb565b6107ec565b60405161014d9190611ee3565b610118610197366004611879565b61080d565b6101186101aa366004611879565b6109d2565b61017c610aeb565b6101186101c5366004611a58565b610bdb565b61017c610c24565b6101e56101e03660046118e1565b610c7f565b60405161014d9190611f73565b6101e56102003660046117fb565b610d21565b61017c610d76565b61017c610ddf565b610118610e03565b61011861022b366004611879565b610e05565b606061023c8585610c7f565b905080516000141561024e575061050b565b336001600160a01b03861614806102e65750846001600160a01b031663e7c456906040518163ffffffff1660e01b815260040160206040518083038186803b15801561029957600080fd5b505afa1580156102ad573d6000803e3d6000fd5b505050506040513d601f19601f820116820180604052508101906102d19190611821565b6001600160a01b0316336001600160a01b0316145b806103725750846001600160a01b031663b3fc38e96040518163ffffffff1660e01b815260040160206040518083038186803b15801561032557600080fd5b505afa158015610339573d6000803e3d6000fd5b505050506040513d601f19601f8201168201806040525081019061035d9190611821565b6001600160a01b0316336001600160a01b0316145b6103975760405162461bcd60e51b815260040161038e90611fe3565b60405180910390fd5b60005b8151811015610508578181815181106103af57fe5b60200260200101516001600160a01b031663579be718878787876040518563ffffffff1660e01b81526004016103e89493929190611f3b565b602060405180830381600087803b15801561040257600080fd5b505af1158015610416573d6000803e3d6000fd5b505050506040513d601f19601f8201168201806040525081019061043a9190611a76565b82828151811061044657fe5b60200260200101516001600160a01b0316637998a1c46040518163ffffffff1660e01b815260040160006040518083038186803b15801561048657600080fd5b505afa15801561049a573d6000803e3d6000fd5b505050506040513d6000823e601f3d908101601f191682016040526104c29190810190611a94565b6040516020016104d29190611ecc565b604051602081830303815290604052906104ff5760405162461bcd60e51b815260040161038e9190611f92565b5060010161039a565b50505b50505050565b60405162461bcd60e51b815260040161038e90611ff3565b600061053f826105398686610c7f565b90610f5b565b90505b9392505050565b81610553816107ec565b6001600160a01b031663893d20e86040518163ffffffff1660e01b815260040160206040518083038186803b15801561058b57600080fd5b505afa15801561059f573d6000803e3d6000fd5b505050506040513d601f19601f820116820180604052508101906105c39190611821565b6001600160a01b03166105d4610fb1565b6001600160a01b0316146105fa5760405162461bcd60e51b815260040161038e90612033565b816001600160a01b0316631ef925786040518163ffffffff1660e01b815260040160206040518083038186803b15801561063357600080fd5b505afa158015610647573d6000803e3d6000fd5b505050506040513d601f19601f8201168201806040525081019061066b9190611a76565b6106875760405162461bcd60e51b815260040161038e90612013565b6060826001600160a01b031663cbf54bb26040518163ffffffff1660e01b815260040160006040518083038186803b1580156106c257600080fd5b505afa1580156106d6573d6000803e3d6000fd5b505050506040513d6000823e601f3d908101601f191682016040526106fe9190810190611a23565b905060005b81518110156107e5576001600160a01b03851660009081526001602052604081208351610774918791849087908790811061073a57fe5b6020026020010151600981111561074d57fe5b600981111561075857fe5b8152602001908152602001600020610ff590919063ffffffff16565b905080156107dc5782828151811061078857fe5b6020026020010151600981111561079b57fe5b856001600160a01b0316876001600160a01b03167f672fd0d75642b1e8875f32a1c3f8197c03288c7215329c9a99336feafb801c0260405160405180910390a45b50600101610703565b5050505050565b6001600160a01b03808216600090815260208190526040902054165b919050565b83610817816107ec565b6001600160a01b031663893d20e86040518163ffffffff1660e01b815260040160206040518083038186803b15801561084f57600080fd5b505afa158015610863573d6000803e3d6000fd5b505050506040513d601f19601f820116820180604052508101906108879190611821565b6001600160a01b0316610898610fb1565b6001600160a01b0316146108be5760405162461bcd60e51b815260040161038e90612033565b6060846001600160a01b031663cbf54bb26040518163ffffffff1660e01b815260040160006040518083038186803b1580156108f957600080fd5b505afa15801561090d573d6000803e3d6000fd5b505050506040513d6000823e601f3d908101601f191682016040526109359190810190611a23565b905060005b81518110156109845761095f82828151811061095257fe5b60200260200101516110ed565b1561097c5760405162461bcd60e51b815260040161038e90611fc3565b60010161093a565b506109c8868686868080601f016020809104026020016040519081016040528093929190818152602001838380828437600092019190915250879250611119915050565b61050886866112a6565b836109dc816107ec565b6001600160a01b031663893d20e86040518163ffffffff1660e01b815260040160206040518083038186803b158015610a1457600080fd5b505afa158015610a28573d6000803e3d6000fd5b505050506040513d601f19601f82011682018060405250810190610a4c9190611821565b6001600160a01b0316610a5d610fb1565b6001600160a01b031614610a835760405162461bcd60e51b815260040161038e90612033565b60405162d4d75160e41b81526001600160a01b03851690630d4d751090610ab290889087908790600401611ef1565b600060405180830381600087803b158015610acc57600080fd5b505af1158015610ae0573d6000803e3d6000fd5b505050505050505050565b6000610af5610ddf565b6001600160a01b03166398a7c4c76040518163ffffffff1660e01b815260040160206040518083038186803b158015610b2d57600080fd5b505afa158015610b41573d6000803e3d6000fd5b505050506040513d601f19601f82011682018060405250810190610b659190611821565b6001600160a01b0316637da0a8776040518163ffffffff1660e01b815260040160206040518083038186803b158015610b9d57600080fd5b505afa158015610bb1573d6000803e3d6000fd5b505050506040513d601f19601f82011682018060405250810190610bd59190611821565b90505b90565b338115610c20576060610bed82610d21565b905060005b815181101561050b57610c1883838381518110610c0b57fe5b60200260200101516112a6565b600101610bf2565b5050565b60007f00000000000000000000000000000000000000000000000000000000000000006001600160a01b031663893d20e86040518163ffffffff1660e01b815260040160206040518083038186803b158015610b9d57600080fd5b6001600160a01b0382166000908152600160205260408120606091836009811115610ca657fe5b6009811115610cb157fe5b8152602001908152602001600020805480602002602001604051908101604052809291908181526020018280548015610d1357602002820191906000526020600020905b81546001600160a01b03168152600190910190602001808311610cf5575b505050505090505b92915050565b6060610d2b61156e565b610d33611300565b905060005b600a811015610d6f57610d65610d5e858484600a8110610d5457fe5b6020020151610c7f565b849061135d565b9250600101610d38565b5050919050565b6000610dba60405180606001604052806029815260200161217a602991397f00000000000000000000000000000000000000000000000000000000000000006114b1565b507f000000000000000000000000000000000000000000000000000000000000000090565b7f000000000000000000000000000000000000000000000000000000000000000090565b565b610e0d610d76565b6001600160a01b0316336001600160a01b031614610e3d5760405162461bcd60e51b815260040161038e90612003565b610e4784846114f6565b80610e515761050b565b606080610e60838501856119c4565b915091508051825114610e855760405162461bcd60e51b815260040161038e90611fd3565b60005b8251811015610f5257610f4a87848381518110610ea157fe5b6020026020010151848481518110610eb557fe5b6020026020010151868581518110610ec957fe5b60200260200101516001600160a01b031663cbf54bb26040518163ffffffff1660e01b815260040160006040518083038186803b158015610f0957600080fd5b505afa158015610f1d573d6000803e3d6000fd5b505050506040513d6000823e601f3d908101601f19168201604052610f459190810190611a23565b611119565b600101610e88565b50505050505050565b6000805b8351811015610fa757838181518110610f7457fe5b60200260200101516001600160a01b0316836001600160a01b03161415610f9f576001915050610d1b565b600101610f5f565b5060009392505050565b600060183610801590610fdc5750610fc7610aeb565b6001600160a01b0316336001600160a01b0316145b15610ff0575060131936013560601c610bd8565b503390565b8154600090815b818110156110e557836001600160a01b031685828154811061101a57fe5b6000918252602090912001546001600160a01b031614156110dd57600182038110156110a85784600183038154811061104f57fe5b9060005260206000200160009054906101000a90046001600160a01b031685828154811061107957fe5b9060005260206000200160006101000a8154816001600160a01b0302191690836001600160a01b031602179055505b848054806110b257fe5b600082815260209020810160001990810180546001600160a01b0319169055019055600192506110e5565b600101610ffc565b505092915050565b600060028260098111156110fd57fe5b1480610d1b5750600382600981111561111257fe5b1492915050565b81511561118157604051630f5f6b4f60e01b81526001600160a01b03841690630f5f6b4f9061114e9087908690600401611f1b565b600060405180830381600087803b15801561116857600080fd5b505af115801561117c573d6000803e3d6000fd5b505050505b60005b8151811015611254576111ab8583838151811061119d57fe5b602002602001015186610529565b156111c85760405162461bcd60e51b815260040161038e90612023565b6001600160a01b038516600090815260016020526040812083519091908490849081106111f157fe5b6020026020010151600981111561120457fe5b600981111561120f57fe5b815260208082019290925260400160009081208054600180820183559183529290912090910180546001600160a01b0319166001600160a01b03871617905501611184565b50826001600160a01b0316846001600160a01b03167faa4df4fe117c520783cfff01c11283496ff2999c77c2a9b800808251a9a0332a846040516112989190611f92565b60405180910390a350505050565b60405163ceb9a0ad60e01b81526001600160a01b0382169063ceb9a0ad906112d2908590600401611ee3565b600060405180830381600087803b1580156112ec57600080fd5b505af1158015610508573d6000803e3d6000fd5b61130861156e565b6040805161014081019091528060008152602001600181526020016002815260200160038152602001600481526020016005815260200160068152602001600781526020016008815260200160099052905090565b60606000805b835181101561139c576113898585838151811061137c57fe5b6020026020010151610f5b565b611394576001909101905b600101611363565b50806113ab5783915050610d1b565b8084510167ffffffffffffffff811180156113c557600080fd5b506040519080825280602002602001820160405280156113ef578160200160208202803683370190505b50915060005b845181101561143e5784818151811061140a57fe5b602002602001015183828151811061141e57fe5b6001600160a01b03909216602092830291909101909101526001016113f5565b50835160005b84518110156114a85761145d8686838151811061137c57fe5b6114a05784818151811061146d57fe5b602002602001015184838151811061148157fe5b6001600160a01b03909216602092830291909101909101526001909101905b600101611444565b50505092915050565b610c2082826040516024016114c7929190611fa3565b60408051601f198184030181529190526020810180516001600160e01b031663319af33360e01b17905261154d565b6001600160a01b0382811660008181526020819052604080822080546001600160a01b0319169486169485179055517f8852dcaa71340ea616a65ffac013450dfb238607481fb9d78346c667fe256c139190a35050565b80516a636f6e736f6c652e6c6f67602083016000808483855afa5050505050565b604051806101400160405280600a906020820280368337509192915050565b8035610d1b81612146565b8051610d1b81612146565b600082601f8301126115b457600080fd5b81356115c76115c28261206a565b612043565b915081818352602084019350602081019050838560208402820111156115ec57600080fd5b60005b838110156116185781611602888261158d565b84525060209283019291909101906001016115ef565b5050505092915050565b600082601f83011261163357600080fd5b81356116416115c28261206a565b81815260209384019390925082018360005b838110156116185781358601611669888261174e565b8452506020928301929190910190600101611653565b600082601f83011261169057600080fd5b815161169e6115c28261206a565b915081818352602084019350602081019050838560208402820111156116c357600080fd5b60005b8381101561161857816116d9888261179f565b84525060209283019291909101906001016116c6565b8035610d1b8161215a565b8051610d1b8161215a565b60008083601f84011261171757600080fd5b50813567ffffffffffffffff81111561172f57600080fd5b60208301915083600182028301111561174757600080fd5b9250929050565b600082601f83011261175f57600080fd5b813561176d6115c28261208b565b9150808252602083016020830185838301111561178957600080fd5b6114a88382846120f7565b8035610d1b81612163565b8051610d1b81612163565b600082601f8301126117bb57600080fd5b81516117c96115c28261208b565b915080825260208301602083018583830111156117e557600080fd5b6114a8838284612103565b8035610d1b81612170565b60006020828403121561180d57600080fd5b6000611819848461158d565b949350505050565b60006020828403121561183357600080fd5b60006118198484611598565b6000806040838503121561185257600080fd5b600061185e858561158d565b925050602061186f8582860161158d565b9150509250929050565b6000806000806060858703121561188f57600080fd5b600061189b878761158d565b94505060206118ac8782880161158d565b935050604085013567ffffffffffffffff8111156118c957600080fd5b6118d587828801611705565b95989497509550505050565b600080604083850312156118f457600080fd5b6000611900858561158d565b925050602061186f85828601611794565b60008060006060848603121561192657600080fd5b6000611932868661158d565b935050602061194386828701611794565b92505060406119548682870161158d565b9150509250925092565b6000806000806060858703121561197457600080fd5b6000611980878761158d565b94505060206118ac87828801611794565b600080600080606085870312156119a757600080fd5b60006119b3878761158d565b94505060206118ac878288016117f0565b600080604083850312156119d757600080fd5b823567ffffffffffffffff8111156119ee57600080fd5b6119fa858286016115a3565b925050602083013567ffffffffffffffff811115611a1757600080fd5b61186f85828601611622565b600060208284031215611a3557600080fd5b815167ffffffffffffffff811115611a4c57600080fd5b6118198482850161167f565b600060208284031215611a6a57600080fd5b600061181984846116ef565b600060208284031215611a8857600080fd5b600061181984846116fa565b600060208284031215611aa657600080fd5b815167ffffffffffffffff811115611abd57600080fd5b611819848285016117aa565b6000611ad58383611add565b505060200190565b611ae6816120c6565b82525050565b6000611af7826120b9565b611b0181856120bd565b9350611b0c836120b3565b8060005b83811015611b3a578151611b248882611ac9565b9750611b2f836120b3565b925050600101611b10565b509495945050505050565b611ae6816120d1565b6000611b5a83856120bd565b9350611b678385846120f7565b611b708361212f565b9093019392505050565b6000611b85826120b9565b611b8f81856120bd565b9350611b9f818560208601612103565b611b708161212f565b611ae6816120ec565b6000611bbc826120b9565b611bc68185610808565b9350611bd6818560208601612103565b9290920192915050565b6000611bed6043836120bd565b7f656e61626c65506f6c696379466f7246756e643a205f706f6c6963792072657381527f74726963747320616374696f6e73206f662063757272656e7420696e766573746020820152626f727360e81b604082015260600192915050565b6000611c586041836120bd565b7f736574436f6e666967466f7246756e643a20706f6c696369657320616e64207381527f657474696e677344617461206172726179206c656e6774687320756e657175616020820152601b60fa1b604082015260600192915050565b6000611cc1601983610808565b7f52756c65206576616c756174656420746f2066616c73653a2000000000000000815260190192915050565b6000611cfa6024836120bd565b7f76616c6964617465506f6c69636965733a2043616c6c6572206e6f7420616c6c8152631bddd95960e21b602082015260400192915050565b6000611d406037836120bd565b7f7265636569766543616c6c46726f6d436f6d7074726f6c6c65723a20556e696d81527f706c656d656e74656420666f7220457874656e73696f6e000000000000000000602082015260400192915050565b6000611d9f6028836120bd565b7f4f6e6c79207468652046756e644465706c6f7965722063616e206d616b6520748152671a1a5cc818d85b1b60c21b602082015260400192915050565b6000611de96030836120bd565b7f64697361626c65506f6c696379466f7246756e643a205f706f6c69637920636181526f1b9b9bdd08189948191a5cd8589b195960821b602082015260400192915050565b6000611e3b6030836120bd565b7f5f5f656e61626c65506f6c696379466f7246756e643a20506f6c69637920697381526f08185b1c9958591e48195b98589b195960821b602082015260400192915050565b6000611e8d602a836120bd565b7f4f6e6c79207468652066756e64206f776e65722063616e2063616c6c207468698152693990333ab731ba34b7b760b11b602082015260400192915050565b6000611ed782611cb4565b91506105428284611bb1565b60208101610d1b8284611add565b60408101611eff8286611add565b8181036020830152611f12818486611b4e565b95945050505050565b60408101611f298285611add565b818103602083015261053f8184611b7a565b60608101611f498287611add565b611f566020830186611ba8565b8181036040830152611f69818486611b4e565b9695505050505050565b602080825281016105428184611aec565b60208101610d1b8284611b45565b602080825281016105428184611b7a565b60408082528101611fb48185611b7a565b90506105426020830184611add565b60208082528101610d1b81611be0565b60208082528101610d1b81611c4b565b60208082528101610d1b81611ced565b60208082528101610d1b81611d33565b60208082528101610d1b81611d92565b60208082528101610d1b81611ddc565b60208082528101610d1b81611e2e565b60208082528101610d1b81611e80565b60405181810167ffffffffffffffff8111828210171561206257600080fd5b604052919050565b600067ffffffffffffffff82111561208157600080fd5b5060209081020190565b600067ffffffffffffffff8211156120a257600080fd5b506020601f91909101601f19160190565b60200190565b5190565b90815260200190565b6000610d1b826120e0565b151590565b8061080881612139565b6001600160a01b031690565b6000610d1b826120d6565b82818337506000910152565b60005b8381101561211e578181015183820152602001612106565b8381111561050b5750506000910152565b601f01601f191690565b600a811061214357fe5b50565b61214f816120c6565b811461214357600080fd5b61214f816120d1565b600a811061214357600080fd5b61214f81610bd856fe46756e644465706c6f7965724f776e65724d6978696e3a67657446756e644465706c6f7965723a2573a2646970667358221220fcd2264474842a59cae795a6aea3f4c13fcb9459b7947262704bc732d92c91e164736f6c634300060c0033",
  "devdoc": {
    "author": "Enzyme Council <security@enzyme.finance>",
    "details": "Any arbitrary fee is allowed by default, so all participants must be aware of their fund's configuration, especially whether they use official policies only. Policies that restrict current investors can only be added upon fund setup, migration, or reconfiguration. Policies that restrict new investors or asset management actions can be added at any time. Policies themselves specify whether or not they are allowed to be updated or removed.",
    "kind": "dev",
    "methods": {
      "activateForFund(bool)": {
        "details": "There will be no enabledPolicies if the caller is not a valid ComptrollerProxy",
        "params": {
          "_isMigratedFund": "True if the fund is migrating to this release"
        }
      },
      "deactivateForFund()": {
        "details": "Unimplemented by default, may be overridden."
      },
      "disablePolicyForFund(address,address)": {
        "details": "If an arbitrary policy changes its `implementedHooks()` return values after it is already enabled on a fund, then this will not correctly disable the policy from any removed hook values.",
        "params": {
          "_comptrollerProxy": "The ComptrollerProxy of the fund",
          "_policy": "The policy address to disable"
        }
      },
      "enablePolicyForFund(address,address,bytes)": {
        "details": "Disabling a policy does not delete fund config on the policy, so if a policy is disabled and then enabled again, its initial state will be the previous config. It is the policy's job to determine how to merge that config with the _settingsData param in this function.",
        "params": {
          "_comptrollerProxy": "The ComptrollerProxy of the fund",
          "_policy": "The policy address to enable",
          "_settingsData": "The encoded settings data with which to configure the policy"
        }
      },
      "getEnabledPoliciesForFund(address)": {
        "params": {
          "_comptrollerProxy": "The ComptrollerProxy"
        },
        "returns": {
          "enabledPolicies_": "The array of enabled policy addresses"
        }
      },
      "getEnabledPoliciesOnHookForFund(address,uint8)": {
        "params": {
          "_comptrollerProxy": "The ComptrollerProxy",
          "_hook": "The PolicyHook"
        },
        "returns": {
          "enabledPolicies_": "The array of enabled policy addresses"
        }
      },
      "getFundDeployer()": {
        "returns": {
          "fundDeployer_": "The `FUND_DEPLOYER` variable value"
        }
      },
      "getGasRelayPaymasterFactory()": {
        "returns": {
          "gasRelayPaymasterFactory_": "The `GAS_RELAY_PAYMASTER_FACTORY` variable value"
        }
      },
      "getGasRelayTrustedForwarder()": {
        "returns": {
          "trustedForwarder_": "The trusted forwarder"
        }
      },
      "getOwner()": {
        "details": "Ownership is deferred to the owner of the FundDeployer contract",
        "returns": {
          "owner_": "The owner"
        }
      },
      "getVaultProxyForFund(address)": {
        "params": {
          "_comptrollerProxy": "The ComptrollerProxy of the fund"
        },
        "returns": {
          "vaultProxy_": "The VaultProxy of the fund"
        }
      },
      "policyIsEnabledOnHookForFund(address,uint8,address)": {
        "params": {
          "_comptrollerProxy": "The ComptrollerProxy",
          "_hook": "The PolicyHook",
          "_policy": "The policy"
        },
        "returns": {
          "isEnabled_": "True if the policy is enabled"
        }
      },
      "receiveCallFromComptroller(address,uint256,bytes)": {
        "details": "Unimplemented by default, may be overridden."
      },
      "setConfigForFund(address,address,bytes)": {
        "params": {
          "_comptrollerProxy": "The ComptrollerProxy of the fund",
          "_configData": "Encoded config data",
          "_vaultProxy": "The VaultProxy of the fund"
        }
      },
      "updatePolicySettingsForFund(address,address,bytes)": {
        "params": {
          "_comptrollerProxy": "The ComptrollerProxy of the fund",
          "_policy": "The Policy contract to update",
          "_settingsData": "The encoded settings data with which to update the policy config"
        }
      },
      "validatePolicies(address,uint8,bytes)": {
        "params": {
          "_comptrollerProxy": "The ComptrollerProxy of the fund",
          "_hook": "The PolicyHook for which to validate policies",
          "_validationData": "The encoded data with which to validate the filtered policies"
        }
      }
    },
    "title": "PolicyManager Contract",
    "version": 1
  },
  "userdoc": {
    "kind": "user",
    "methods": {
      "activateForFund(bool)": {
        "notice": "Validates and initializes policies as necessary prior to fund activation"
      },
      "deactivateForFund()": {
        "notice": "Allows extension to run logic during fund deactivation (destruct)"
      },
      "disablePolicyForFund(address,address)": {
        "notice": "Disables a policy for a fund"
      },
      "enablePolicyForFund(address,address,bytes)": {
        "notice": "Enables a policy for a fund"
      },
      "getEnabledPoliciesForFund(address)": {
        "notice": "Get a list of enabled policies for the given fund"
      },
      "getEnabledPoliciesOnHookForFund(address,uint8)": {
        "notice": "Get a list of enabled policies that run on a given hook for the given fund"
      },
      "getFundDeployer()": {
        "notice": "Gets the `FUND_DEPLOYER` variable"
      },
      "getGasRelayPaymasterFactory()": {
        "notice": "Gets the `GAS_RELAY_PAYMASTER_FACTORY` variable"
      },
      "getGasRelayTrustedForwarder()": {
        "notice": "Gets the trusted forwarder for GSN relaying"
      },
      "getOwner()": {
        "notice": "Gets the owner of this contract"
      },
      "getVaultProxyForFund(address)": {
        "notice": "Gets the verified VaultProxy for a given ComptrollerProxy"
      },
      "policyIsEnabledOnHookForFund(address,uint8,address)": {
        "notice": "Check whether a given policy runs on a given hook for a given fund"
      },
      "receiveCallFromComptroller(address,uint256,bytes)": {
        "notice": "Receives calls from ComptrollerLib.callOnExtension() and dispatches the appropriate action"
      },
      "setConfigForFund(address,address,bytes)": {
        "notice": "Enable policies for use in a fund"
      },
      "updatePolicySettingsForFund(address,address,bytes)": {
        "notice": "Updates policy settings for a fund"
      },
      "validatePolicies(address,uint8,bytes)": {
        "notice": "Validates all policies that apply to a given hook for a fund"
      }
    },
    "notice": "Manages policies for funds",
    "version": 1
  },
  "storageLayout": {
    "storage": [
      {
        "astId": 39255,
        "contract": "contracts/release/extensions/policy-manager/PolicyManager.sol:PolicyManager",
        "label": "comptrollerProxyToVaultProxy",
        "offset": 0,
        "slot": "0",
        "type": "t_mapping(t_address,t_address)"
      },
      {
        "astId": 34907,
        "contract": "contracts/release/extensions/policy-manager/PolicyManager.sol:PolicyManager",
        "label": "comptrollerProxyToHookToPolicies",
        "offset": 0,
        "slot": "1",
        "type": "t_mapping(t_address,t_mapping(t_enum(PolicyHook)34850,t_array(t_address)dyn_storage))"
      }
    ],
    "types": {
      "t_address": {
        "encoding": "inplace",
        "label": "address",
        "numberOfBytes": "20"
      },
      "t_array(t_address)dyn_storage": {
        "base": "t_address",
        "encoding": "dynamic_array",
        "label": "address[]",
        "numberOfBytes": "32"
      },
      "t_enum(PolicyHook)34850": {
        "encoding": "inplace",
        "label": "enum IPolicyManager.PolicyHook",
        "numberOfBytes": "1"
      },
      "t_mapping(t_address,t_address)": {
        "encoding": "mapping",
        "key": "t_address",
        "label": "mapping(address => address)",
        "numberOfBytes": "32",
        "value": "t_address"
      },
      "t_mapping(t_address,t_mapping(t_enum(PolicyHook)34850,t_array(t_address)dyn_storage))": {
        "encoding": "mapping",
        "key": "t_address",
        "label": "mapping(address => mapping(enum IPolicyManager.PolicyHook => address[]))",
        "numberOfBytes": "32",
        "value": "t_mapping(t_enum(PolicyHook)34850,t_array(t_address)dyn_storage)"
      },
      "t_mapping(t_enum(PolicyHook)34850,t_array(t_address)dyn_storage)": {
        "encoding": "mapping",
        "key": "t_enum(PolicyHook)34850",
        "label": "mapping(enum IPolicyManager.PolicyHook => address[])",
        "numberOfBytes": "32",
        "value": "t_array(t_address)dyn_storage"
      }
    }
  }
}