{
  "_format": "hh-sol-artifact-1",
  "contractName": "UniswapV2PoolPriceFeed",
  "sourceName": "contracts/release/infrastructure/price-feeds/derivatives/feeds/UniswapV2PoolPriceFeed.sol",
  "abi": [
    {
      "inputs": [
        {
          "internalType": "address",
          "name": "_fundDeployer",
          "type": "address"
        },
        {
          "internalType": "address",
          "name": "_valueInterpreter",
          "type": "address"
        },
        {
          "internalType": "address",
          "name": "_factory",
          "type": "address"
        }
      ],
      "stateMutability": "nonpayable",
      "type": "constructor"
    },
    {
      "anonymous": false,
      "inputs": [
        {
          "indexed": true,
          "internalType": "address",
          "name": "poolToken",
          "type": "address"
        },
        {
          "indexed": false,
          "internalType": "address",
          "name": "token0",
          "type": "address"
        },
        {
          "indexed": false,
          "internalType": "address",
          "name": "token1",
          "type": "address"
        }
      ],
      "name": "PoolTokenAdded",
      "type": "event"
    },
    {
      "inputs": [
        {
          "internalType": "address[]",
          "name": "_poolTokens",
          "type": "address[]"
        }
      ],
      "name": "addPoolTokens",
      "outputs": [],
      "stateMutability": "nonpayable",
      "type": "function"
    },
    {
      "inputs": [
        {
          "internalType": "address",
          "name": "_derivative",
          "type": "address"
        },
        {
          "internalType": "uint256",
          "name": "_derivativeAmount",
          "type": "uint256"
        }
      ],
      "name": "calcUnderlyingValues",
      "outputs": [
        {
          "internalType": "address[]",
          "name": "underlyings_",
          "type": "address[]"
        },
        {
          "internalType": "uint256[]",
          "name": "underlyingAmounts_",
          "type": "uint256[]"
        }
      ],
      "stateMutability": "nonpayable",
      "type": "function"
    },
    {
      "inputs": [],
      "name": "getFactory",
      "outputs": [
        {
          "internalType": "address",
          "name": "factory_",
          "type": "address"
        }
      ],
      "stateMutability": "view",
      "type": "function"
    },
    {
      "inputs": [],
      "name": "getFundDeployer",
      "outputs": [
        {
          "internalType": "address",
          "name": "fundDeployer_",
          "type": "address"
        }
      ],
      "stateMutability": "view",
      "type": "function"
    },
    {
      "inputs": [],
      "name": "getOwner",
      "outputs": [
        {
          "internalType": "address",
          "name": "owner_",
          "type": "address"
        }
      ],
      "stateMutability": "view",
      "type": "function"
    },
    {
      "inputs": [
        {
          "internalType": "address",
          "name": "_poolToken",
          "type": "address"
        }
      ],
      "name": "getPoolTokenInfo",
      "outputs": [
        {
          "components": [
            {
              "internalType": "address",
              "name": "token0",
              "type": "address"
            },
            {
              "internalType": "address",
              "name": "token1",
              "type": "address"
            },
            {
              "internalType": "uint8",
              "name": "token0Decimals",
              "type": "uint8"
            },
            {
              "internalType": "uint8",
              "name": "token1Decimals",
              "type": "uint8"
            }
          ],
          "internalType": "struct UniswapV2PoolPriceFeed.PoolTokenInfo",
          "name": "poolTokenInfo_",
          "type": "tuple"
        }
      ],
      "stateMutability": "view",
      "type": "function"
    },
    {
      "inputs": [
        {
          "internalType": "address",
          "name": "_poolToken",
          "type": "address"
        }
      ],
      "name": "getPoolTokenUnderlyings",
      "outputs": [
        {
          "internalType": "address",
          "name": "token0_",
          "type": "address"
        },
        {
          "internalType": "address",
          "name": "token1_",
          "type": "address"
        }
      ],
      "stateMutability": "view",
      "type": "function"
    },
    {
      "inputs": [],
      "name": "getValueInterpreter",
      "outputs": [
        {
          "internalType": "address",
          "name": "valueInterpreter_",
          "type": "address"
        }
      ],
      "stateMutability": "view",
      "type": "function"
    },
    {
      "inputs": [
        {
          "internalType": "address",
          "name": "_asset",
          "type": "address"
        }
      ],
      "name": "isSupportedAsset",
      "outputs": [
        {
          "internalType": "bool",
          "name": "isSupported_",
          "type": "bool"
        }
      ],
      "stateMutability": "view",
      "type": "function"
    }
  ],
  "bytecode": "0x60e06040523480156200001157600080fd5b5060405162001db738038062001db783398101604081905262000034916200006e565b6001600160601b0319606093841b811660805290831b811660a052911b1660c052620000ee565b80516200006881620000d4565b92915050565b6000806000606084860312156200008457600080fd5b60006200009286866200005b565b9350506020620000a5868287016200005b565b9250506040620000b8868287016200005b565b9150509250925092565b60006001600160a01b03821662000068565b620000df81620000c2565b8114620000eb57600080fd5b50565b60805160601c60a05160601c60c05160601c611c75620001426000398061084452806109bb5280610bfe5280610cbb5280610d6b525080610783528061086852508061088e52806109245250611c756000f3fe608060405234801561001057600080fd5b50600436106100935760003560e01c8063875fb4b311610066578063875fb4b31461011857806388cc58e41461012d578063893d20e81461013557806397c0ac871461013d5780639be918e61461014557610093565b806301b453e51461009857806332db4ed5146100c257806367e0e076146100d7578063727212f6146100f7575b600080fd5b6100ab6100a63660046114bd565b610165565b6040516100b99291906119fc565b60405180910390f35b6100d56100d036600461153b565b61018f565b005b6100ea6100e53660046114bd565b610605565b6040516100b99190611b22565b61010a610105366004611501565b61066d565b6040516100b9929190611a3f565b610120610842565b6040516100b991906119ee565b610120610866565b61012061088a565b610120610922565b6101586101533660046114bd565b610946565b6040516100b99190611a64565b6001600160a01b039081166000908152602081905260409020805460019091015490821692911690565b61019761088a565b6001600160a01b0316336001600160a01b0316146101d05760405162461bcd60e51b81526004016101c790611a92565b60405180910390fd5b806101ed5760405162461bcd60e51b81526004016101c790611b02565b60005b8181101561060057600083838381811061020657fe5b905060200201602081019061021b91906114bd565b6001600160a01b031614156102425760405162461bcd60e51b81526004016101c790611b12565b6000808085858581811061025257fe5b905060200201602081019061026791906114bd565b6001600160a01b03908116825260208201929092526040016000205416146102a15760405162461bcd60e51b81526004016101c790611af2565b60008383838181106102af57fe5b90506020020160208101906102c491906114bd565b90506000816001600160a01b0316630dfe16816040518163ffffffff1660e01b815260040160206040518083038186803b15801561030157600080fd5b505afa158015610315573d6000803e3d6000fd5b505050506040513d601f19601f8201168201806040525081019061033991906114e3565b90506000826001600160a01b031663d21220a76040518163ffffffff1660e01b815260040160206040518083038186803b15801561037657600080fd5b505afa15801561038a573d6000803e3d6000fd5b505050506040513d601f19601f820116820180604052508101906103ae91906114e3565b90506103ba8282610966565b6103d65760405162461bcd60e51b81526004016101c790611ac2565b6040518060800160405280836001600160a01b03168152602001826001600160a01b03168152602001836001600160a01b031663313ce5676040518163ffffffff1660e01b815260040160206040518083038186803b15801561043857600080fd5b505afa15801561044c573d6000803e3d6000fd5b505050506040513d601f19601f820116820180604052508101906104709190611606565b60ff168152602001826001600160a01b031663313ce5676040518163ffffffff1660e01b815260040160206040518083038186803b1580156104b157600080fd5b505afa1580156104c5573d6000803e3d6000fd5b505050506040513d601f19601f820116820180604052508101906104e99190611606565b60ff1690526000808888888181106104fd57fe5b905060200201602081019061051291906114bd565b6001600160a01b0390811682526020808301939093526040918201600020845181546001600160a01b03199081169184169190911782559385015160019091018054938601516060909601519390941691161760ff60a01b1916600160a01b60ff948516021760ff60a81b1916600160a81b939091169290920291909117905585858581811061059e57fe5b90506020020160208101906105b391906114bd565b6001600160a01b03167f2d64d749034284f79591001c60e51eeab7a396decc5296df21e417306e9d92bf83836040516105ed9291906119fc565b60405180910390a25050506001016101f0565b505050565b61060d6113fc565b506001600160a01b038082166000908152602081815260409182902082516080810184528154851681526001909101549384169181019190915260ff600160a01b8404811692820192909252600160a81b9092041660608201525b919050565b6060806106786113fc565b506001600160a01b038481166000908152602081815260409182902082516080810184528154851681526001909101549384168183015260ff600160a01b8504811682850152600160a81b9094049093166060808501919091528251600280825291810184529290918301908036833701905050925080600001518360008151811061070057fe5b60200260200101906001600160a01b031690816001600160a01b03168152505080602001518360018151811061073257fe5b60200260200101906001600160a01b031690816001600160a01b03168152505060008061077783600001518460200151856040015160ff16866060015160ff16610bf9565b915091506000806107aa7f00000000000000000000000000000000000000000000000000000000000000008a8686610e02565b604080516002808252606082019092529294509092508160200160208202803683370190505095506107ee670de0b6b3a76400006107e88a85610e32565b90610e73565b866000815181106107fb57fe5b602090810291909101015261081c670de0b6b3a76400006107e88a84610e32565b8660018151811061082957fe5b60200260200101818152505050505050505b9250929050565b7f000000000000000000000000000000000000000000000000000000000000000090565b7f000000000000000000000000000000000000000000000000000000000000000090565b60007f00000000000000000000000000000000000000000000000000000000000000006001600160a01b031663893d20e86040518163ffffffff1660e01b815260040160206040518083038186803b1580156108e557600080fd5b505afa1580156108f9573d6000803e3d6000fd5b505050506040513d601f19601f8201168201806040525081019061091d91906114e3565b905090565b7f000000000000000000000000000000000000000000000000000000000000000090565b6001600160a01b0390811660009081526020819052604090205416151590565b600061098a604051806060016040528060248152602001611c1c6024913984610ea5565b6109ac604051806060016040528060248152602001611bf86024913983610ea5565b604051631892df1d60e31b81527f0000000000000000000000000000000000000000000000000000000000000000906001600160a01b0382169063c496f8e8906109fa9087906004016119ee565b60206040518083038186803b158015610a1257600080fd5b505afa158015610a26573d6000803e3d6000fd5b505050506040513d601f19601f82011682018060405250810190610a4a919061157d565b15610adf57604051634df48c7360e11b81526001600160a01b03821690639be918e690610a7b9086906004016119ee565b60206040518083038186803b158015610a9357600080fd5b505afa158015610aa7573d6000803e3d6000fd5b505050506040513d601f19601f82011682018060405250810190610acb919061157d565b15610ada576001915050610bf3565b610bed565b6040516364b01dc160e01b81526001600160a01b038216906364b01dc190610b0b9087906004016119ee565b60206040518083038186803b158015610b2357600080fd5b505afa158015610b37573d6000803e3d6000fd5b505050506040513d601f19601f82011682018060405250810190610b5b919061157d565b8015610bde5750604051631892df1d60e31b81526001600160a01b0382169063c496f8e890610b8e9086906004016119ee565b60206040518083038186803b158015610ba657600080fd5b505afa158015610bba573d6000803e3d6000fd5b505050506040513d601f19601f82011682018060405250810190610bde919061157d565b15610bed576001915050610bf3565b60009150505b92915050565b6000807f00000000000000000000000000000000000000000000000000000000000000006001600160a01b031663c496f8e8876040518263ffffffff1660e01b8152600401610c4891906119ee565b60206040518083038186803b158015610c6057600080fd5b505afa158015610c74573d6000803e3d6000fd5b505050506040513d601f19601f82011682018060405250810190610c98919061157d565b15610d4d5750604051632633f08360e11b8152600a83900a906001600160a01b037f00000000000000000000000000000000000000000000000000000000000000001690634c67e10690610cf490889085908b90600401611a17565b602060405180830381600087803b158015610d0e57600080fd5b505af1158015610d22573d6000803e3d6000fd5b505050506040513d601f19601f82011682018060405250810190610d4691906115e8565b9150610df9565b604051632633f08360e11b8152600a85900a92506001600160a01b037f00000000000000000000000000000000000000000000000000000000000000001690634c67e10690610da490899086908a90600401611a17565b602060405180830381600087803b158015610dbe57600080fd5b505af1158015610dd2573d6000803e3d6000fd5b505050506040513d601f19601f82011682018060405250810190610df691906115e8565b90505b94509492505050565b600080600080610e13878787610eee565b91509150610e2388888484610ffd565b93509350505094509492505050565b600082610e4157506000610bf3565b82820282848281610e4e57fe5b0414610e6c5760405162461bcd60e51b81526004016101c790611ae2565b9392505050565b6000808211610e945760405162461bcd60e51b81526004016101c790611ad2565b818381610e9d57fe5b049392505050565b610eea8282604051602401610ebb929190611a72565b60408051601f198184030181529190526020810180516001600160e01b031663319af33360e01b17905261122a565b5050565b600080846001600160a01b0316630902f1ac6040518163ffffffff1660e01b815260040160606040518083038186803b158015610f2a57600080fd5b505afa158015610f3e573d6000803e3d6000fd5b505050506040513d601f19601f82011682018060405250810190610f62919061159b565b506001600160701b039182169350169050600080610f828686868661124b565b915091508060001415610f96575050610ff5565b8115610fc9576000610fa9828686611316565b9050610fb5858361135e565b9450610fc18482611383565b935050610ff2565b6000610fd6828587611316565b9050610fe2848361135e565b9350610fee8582611383565b9450505b50505b935093915050565b60008060008590506000816001600160a01b03166318160ddd6040518163ffffffff1660e01b815260040160206040518083038186803b15801561104057600080fd5b505afa158015611054573d6000803e3d6000fd5b505050506040513d601f19601f8201168201806040525081019061107891906115e8565b905060006001600160a01b0316886001600160a01b031663017e7e586040518163ffffffff1660e01b815260040160206040518083038186803b1580156110be57600080fd5b505afa1580156110d2573d6000803e3d6000fd5b505050506040513d601f19601f820116820180604052508101906110f691906114e3565b6001600160a01b0316146111fe576000826001600160a01b0316637464fc3d6040518163ffffffff1660e01b815260040160206040518083038186803b15801561113f57600080fd5b505afa158015611153573d6000803e3d6000fd5b505050506040513d601f19601f8201168201806040525081019061117791906115e8565b905080156111fc57600061119361118e8989610e32565b6113ab565b905060006111a0836113ab565b9050808211156111f95760006111c06111b98484611383565b8690610e32565b905060006111d9836111d3866005610e32565b9061135e565b905060006111e78383610e73565b90506111f3878261135e565b96505050505b50505b505b611214816107e888670de0b6b3a7640000610e32565b610e23826107e888670de0b6b3a7640000610e32565b80516a636f6e736f6c652e6c6f67602083016000808483855afa5050505050565b6000808561125d846107e88789610e32565b10915060008083156112ae5761129361118e61127b896103e5610e32565b6107e86103e861128d8d818d8d610e32565b90610e32565b91506112a76103e56107e8886103e8610e32565b90506112e9565b6112d261118e6112c08a6103e5610e32565b6107e86103e861128d8c818d8d610e32565b91506112e66103e56107e8876103e8610e32565b90505b808210156112ff57600080935093505050610df9565b6113098282611383565b9250505094509492505050565b600080611325856103e5610e32565b905060006113338285610e32565b90506000611347836111d3886103e8610e32565b90506113538282610e73565b979650505050505050565b600082820183811015610e6c5760405162461bcd60e51b81526004016101c790611aa2565b6000828211156113a55760405162461bcd60e51b81526004016101c790611ab2565b50900390565b600060038211156113ee575080600160028204015b818110156113e8578091506002818285816113d757fe5b0401816113e057fe5b0490506113c0565b50610668565b811561066857506001919050565b60408051608081018252600080825260208201819052918101829052606081019190915290565b8035610bf381611bb3565b8051610bf381611bb3565b60008083601f84011261144b57600080fd5b50813567ffffffffffffffff81111561146357600080fd5b60208301915083602082028301111561083b57600080fd5b8051610bf381611bca565b8051610bf381611bd3565b8035610bf381611bdc565b8051610bf381611bdc565b8051610bf381611be5565b8051610bf381611bee565b6000602082840312156114cf57600080fd5b60006114db8484611423565b949350505050565b6000602082840312156114f557600080fd5b60006114db848461142e565b6000806040838503121561151457600080fd5b60006115208585611423565b925050602061153185828601611491565b9150509250929050565b6000806020838503121561154e57600080fd5b823567ffffffffffffffff81111561156557600080fd5b61157185828601611439565b92509250509250929050565b60006020828403121561158f57600080fd5b60006114db848461147b565b6000806000606084860312156115b057600080fd5b60006115bc8686611486565b93505060206115cd86828701611486565b92505060406115de868287016114a7565b9150509250925092565b6000602082840312156115fa57600080fd5b60006114db848461149c565b60006020828403121561161857600080fd5b60006114db84846114b2565b60006116308383611644565b505060200190565b600061163083836119dc565b61164d81611b43565b82525050565b600061165e82611b36565b6116688185611b3a565b935061167383611b30565b8060005b838110156116a157815161168b8882611624565b975061169683611b30565b925050600101611677565b509495945050505050565b60006116b782611b36565b6116c18185611b3a565b93506116cc83611b30565b8060005b838110156116a15781516116e48882611638565b97506116ef83611b30565b9250506001016116d0565b61164d81611b4e565b600061170e82611b36565b6117188185611b3a565b9350611728818560208601611b7d565b61173181611ba9565b9093019392505050565b6000611748604983611b3a565b7f6f6e6c7946756e644465706c6f7965724f776e65723a204f6e6c79207468652081527f46756e644465706c6f796572206f776e65722063616e2063616c6c207468697360208201526810333ab731ba34b7b760b91b604082015260600192915050565b60006117b9601b83611b3a565b7f536166654d6174683a206164646974696f6e206f766572666c6f770000000000815260200192915050565b60006117f2601e83611b3a565b7f536166654d6174683a207375627472616374696f6e206f766572666c6f770000815260200192915050565b600061182b602583611b3a565b7f616464506f6f6c546f6b656e733a20556e737570706f7274656420706f6f6c208152643a37b5b2b760d91b602082015260400192915050565b6000611872601a83611b3a565b7f536166654d6174683a206469766973696f6e206279207a65726f000000000000815260200192915050565b60006118ab602183611b3a565b7f536166654d6174683a206d756c7469706c69636174696f6e206f766572666c6f8152607760f81b602082015260400192915050565b60006118ee602083611b3a565b7f616464506f6f6c546f6b656e733a2056616c756520616c726561647920736574815260200192915050565b6000611927602083611b3a565b7f616464506f6f6c546f6b656e733a20456d707479205f706f6f6c546f6b656e73815260200192915050565b6000611960601e83611b3a565b7f616464506f6f6c546f6b656e733a20456d70747920706f6f6c546f6b656e0000815260200192915050565b8051608083019061199d8482611644565b5060208201516119b06020850182611644565b5060408201516119c360408501826119e5565b5060608201516119d660608501826119e5565b50505050565b61164d81611b6b565b61164d81611b77565b60208101610bf38284611644565b60408101611a0a8285611644565b610e6c6020830184611644565b60608101611a258286611644565b611a3260208301856119dc565b6114db6040830184611644565b60408082528101611a508185611653565b905081810360208301526114db81846116ac565b60208101610bf382846116fa565b60408082528101611a838185611703565b9050610e6c6020830184611644565b60208082528101610bf38161173b565b60208082528101610bf3816117ac565b60208082528101610bf3816117e5565b60208082528101610bf38161181e565b60208082528101610bf381611865565b60208082528101610bf38161189e565b60208082528101610bf3816118e1565b60208082528101610bf38161191a565b60208082528101610bf381611953565b60808101610bf3828461198c565b60200190565b5190565b90815260200190565b6000610bf382611b5f565b151590565b6001600160701b031690565b6001600160a01b031690565b90565b63ffffffff1690565b60ff1690565b60005b83811015611b98578181015183820152602001611b80565b838111156119d65750506000910152565b601f01601f191690565b611bbc81611b43565b8114611bc757600080fd5b50565b611bbc81611b4e565b611bbc81611b53565b611bbc81611b6b565b611bbc81611b6e565b611bbc81611b7756fe5f5f706f6f6c546f6b656e4973537570706f727461626c653a20746f6b656e313a2025735f5f706f6f6c546f6b656e4973537570706f727461626c653a20746f6b656e303a202573a2646970667358221220f8e1e5190b39bdaa0ca65a956bffdfa9c09561de308974481abc2c38973f4f9264736f6c634300060c0033",
  "linkReferences": {},
  "deployedLinkReferences": {}
}