{
  "address": "0xe8c3F27D20472e4f3C546A3f73C04B54DD72871d",
  "abi": [
    {
      "inputs": [
        {
          "internalType": "address",
          "name": "_fundDeployer",
          "type": "address"
        },
        {
          "internalType": "address",
          "name": "_wethToken",
          "type": "address"
        },
        {
          "internalType": "uint256",
          "name": "_chainlinkStaleRateThreshold",
          "type": "uint256"
        }
      ],
      "stateMutability": "nonpayable",
      "type": "constructor"
    },
    {
      "anonymous": false,
      "inputs": [
        {
          "indexed": true,
          "internalType": "address",
          "name": "derivative",
          "type": "address"
        },
        {
          "indexed": false,
          "internalType": "address",
          "name": "priceFeed",
          "type": "address"
        }
      ],
      "name": "DerivativeAdded",
      "type": "event"
    },
    {
      "anonymous": false,
      "inputs": [
        {
          "indexed": true,
          "internalType": "address",
          "name": "derivative",
          "type": "address"
        }
      ],
      "name": "DerivativeRemoved",
      "type": "event"
    },
    {
      "anonymous": false,
      "inputs": [
        {
          "indexed": false,
          "internalType": "address",
          "name": "prevEthUsdAggregator",
          "type": "address"
        },
        {
          "indexed": false,
          "internalType": "address",
          "name": "nextEthUsdAggregator",
          "type": "address"
        }
      ],
      "name": "EthUsdAggregatorSet",
      "type": "event"
    },
    {
      "anonymous": false,
      "inputs": [
        {
          "indexed": true,
          "internalType": "address",
          "name": "primitive",
          "type": "address"
        },
        {
          "indexed": false,
          "internalType": "address",
          "name": "aggregator",
          "type": "address"
        },
        {
          "indexed": false,
          "internalType": "enum ChainlinkPriceFeedMixin.RateAsset",
          "name": "rateAsset",
          "type": "uint8"
        },
        {
          "indexed": false,
          "internalType": "uint256",
          "name": "unit",
          "type": "uint256"
        }
      ],
      "name": "PrimitiveAdded",
      "type": "event"
    },
    {
      "anonymous": false,
      "inputs": [
        {
          "indexed": true,
          "internalType": "address",
          "name": "primitive",
          "type": "address"
        }
      ],
      "name": "PrimitiveRemoved",
      "type": "event"
    },
    {
      "inputs": [
        {
          "internalType": "address[]",
          "name": "_derivatives",
          "type": "address[]"
        },
        {
          "internalType": "address[]",
          "name": "_priceFeeds",
          "type": "address[]"
        }
      ],
      "name": "addDerivatives",
      "outputs": [],
      "stateMutability": "nonpayable",
      "type": "function"
    },
    {
      "inputs": [
        {
          "internalType": "address[]",
          "name": "_primitives",
          "type": "address[]"
        },
        {
          "internalType": "address[]",
          "name": "_aggregators",
          "type": "address[]"
        },
        {
          "internalType": "enum ChainlinkPriceFeedMixin.RateAsset[]",
          "name": "_rateAssets",
          "type": "uint8[]"
        }
      ],
      "name": "addPrimitives",
      "outputs": [],
      "stateMutability": "nonpayable",
      "type": "function"
    },
    {
      "inputs": [
        {
          "internalType": "address",
          "name": "_baseAsset",
          "type": "address"
        },
        {
          "internalType": "uint256",
          "name": "_amount",
          "type": "uint256"
        },
        {
          "internalType": "address",
          "name": "_quoteAsset",
          "type": "address"
        }
      ],
      "name": "calcCanonicalAssetValue",
      "outputs": [
        {
          "internalType": "uint256",
          "name": "value_",
          "type": "uint256"
        }
      ],
      "stateMutability": "nonpayable",
      "type": "function"
    },
    {
      "inputs": [
        {
          "internalType": "address[]",
          "name": "_baseAssets",
          "type": "address[]"
        },
        {
          "internalType": "uint256[]",
          "name": "_amounts",
          "type": "uint256[]"
        },
        {
          "internalType": "address",
          "name": "_quoteAsset",
          "type": "address"
        }
      ],
      "name": "calcCanonicalAssetsTotalValue",
      "outputs": [
        {
          "internalType": "uint256",
          "name": "value_",
          "type": "uint256"
        }
      ],
      "stateMutability": "nonpayable",
      "type": "function"
    },
    {
      "inputs": [
        {
          "internalType": "address",
          "name": "_primitive",
          "type": "address"
        }
      ],
      "name": "getAggregatorForPrimitive",
      "outputs": [
        {
          "internalType": "address",
          "name": "aggregator_",
          "type": "address"
        }
      ],
      "stateMutability": "view",
      "type": "function"
    },
    {
      "inputs": [],
      "name": "getEthUsdAggregator",
      "outputs": [
        {
          "internalType": "address",
          "name": "ethUsdAggregator_",
          "type": "address"
        }
      ],
      "stateMutability": "view",
      "type": "function"
    },
    {
      "inputs": [],
      "name": "getFundDeployer",
      "outputs": [
        {
          "internalType": "address",
          "name": "fundDeployer_",
          "type": "address"
        }
      ],
      "stateMutability": "view",
      "type": "function"
    },
    {
      "inputs": [],
      "name": "getOwner",
      "outputs": [
        {
          "internalType": "address",
          "name": "owner_",
          "type": "address"
        }
      ],
      "stateMutability": "view",
      "type": "function"
    },
    {
      "inputs": [
        {
          "internalType": "address",
          "name": "_derivative",
          "type": "address"
        }
      ],
      "name": "getPriceFeedForDerivative",
      "outputs": [
        {
          "internalType": "address",
          "name": "priceFeed_",
          "type": "address"
        }
      ],
      "stateMutability": "view",
      "type": "function"
    },
    {
      "inputs": [
        {
          "internalType": "address",
          "name": "_primitive",
          "type": "address"
        }
      ],
      "name": "getRateAssetForPrimitive",
      "outputs": [
        {
          "internalType": "enum ChainlinkPriceFeedMixin.RateAsset",
          "name": "rateAsset_",
          "type": "uint8"
        }
      ],
      "stateMutability": "view",
      "type": "function"
    },
    {
      "inputs": [],
      "name": "getStaleRateThreshold",
      "outputs": [
        {
          "internalType": "uint256",
          "name": "staleRateThreshold_",
          "type": "uint256"
        }
      ],
      "stateMutability": "view",
      "type": "function"
    },
    {
      "inputs": [
        {
          "internalType": "address",
          "name": "_primitive",
          "type": "address"
        }
      ],
      "name": "getUnitForPrimitive",
      "outputs": [
        {
          "internalType": "uint256",
          "name": "unit_",
          "type": "uint256"
        }
      ],
      "stateMutability": "view",
      "type": "function"
    },
    {
      "inputs": [],
      "name": "getWethToken",
      "outputs": [
        {
          "internalType": "address",
          "name": "wethToken_",
          "type": "address"
        }
      ],
      "stateMutability": "view",
      "type": "function"
    },
    {
      "inputs": [
        {
          "internalType": "address",
          "name": "_asset",
          "type": "address"
        }
      ],
      "name": "isSupportedAsset",
      "outputs": [
        {
          "internalType": "bool",
          "name": "isSupported_",
          "type": "bool"
        }
      ],
      "stateMutability": "view",
      "type": "function"
    },
    {
      "inputs": [
        {
          "internalType": "address",
          "name": "_asset",
          "type": "address"
        }
      ],
      "name": "isSupportedDerivativeAsset",
      "outputs": [
        {
          "internalType": "bool",
          "name": "isSupported_",
          "type": "bool"
        }
      ],
      "stateMutability": "view",
      "type": "function"
    },
    {
      "inputs": [
        {
          "internalType": "address",
          "name": "_asset",
          "type": "address"
        }
      ],
      "name": "isSupportedPrimitiveAsset",
      "outputs": [
        {
          "internalType": "bool",
          "name": "isSupported_",
          "type": "bool"
        }
      ],
      "stateMutability": "view",
      "type": "function"
    },
    {
      "inputs": [
        {
          "internalType": "address[]",
          "name": "_derivatives",
          "type": "address[]"
        }
      ],
      "name": "removeDerivatives",
      "outputs": [],
      "stateMutability": "nonpayable",
      "type": "function"
    },
    {
      "inputs": [
        {
          "internalType": "address[]",
          "name": "_primitives",
          "type": "address[]"
        }
      ],
      "name": "removePrimitives",
      "outputs": [],
      "stateMutability": "nonpayable",
      "type": "function"
    },
    {
      "inputs": [
        {
          "internalType": "address",
          "name": "_nextEthUsdAggregator",
          "type": "address"
        }
      ],
      "name": "setEthUsdAggregator",
      "outputs": [],
      "stateMutability": "nonpayable",
      "type": "function"
    },
    {
      "inputs": [
        {
          "internalType": "address[]",
          "name": "_derivatives",
          "type": "address[]"
        },
        {
          "internalType": "address[]",
          "name": "_priceFeeds",
          "type": "address[]"
        }
      ],
      "name": "updateDerivatives",
      "outputs": [],
      "stateMutability": "nonpayable",
      "type": "function"
    },
    {
      "inputs": [
        {
          "internalType": "address[]",
          "name": "_primitives",
          "type": "address[]"
        },
        {
          "internalType": "address[]",
          "name": "_aggregators",
          "type": "address[]"
        },
        {
          "internalType": "enum ChainlinkPriceFeedMixin.RateAsset[]",
          "name": "_rateAssets",
          "type": "uint8[]"
        }
      ],
      "name": "updatePrimitives",
      "outputs": [],
      "stateMutability": "nonpayable",
      "type": "function"
    }
  ],
  "transactionHash": "0x08bda9c8379ca4acd2a64192c4e38e3db14fcddb6d40eb6c0fecf8783f748acd",
  "args": [
    "0x0BbfcD7a557FFB8A70CB0948FF680F0E573bbFf2",
    "0xc02aaa39b223fe8d0a0e5c4f27ead9083c756cc2",
    315576000
  ],
  "solcInputHash": "bf82b92434eb8ee1ebfebd70a344c57e",
  "bytecode": "0x60e06040523480156200001157600080fd5b5060405162002d4638038062002d46833981016040819052620000349162000079565b6001600160601b0319606093841b811660805260a091909152911b1660c05262000107565b80516200006681620000e2565b92915050565b80516200006681620000fc565b6000806000606084860312156200008f57600080fd5b60006200009d868662000059565b9350506020620000b08682870162000059565b9250506040620000c3868287016200006c565b9150509250925092565b60006001600160a01b03821662000066565b90565b620000ed81620000cd565b8114620000f957600080fd5b50565b620000ed81620000df565b60805160601c60a05160c05160601c612c02620001446000398061038952508061082a525080610535528061066152806106885250612c026000f3fe608060405234801561001057600080fd5b50600436106101375760003560e01c806397c0ac87116100b8578063b54fbdaa1161007c578063b54fbdaa1461025f578063c496f8e814610267578063cf0399c81461027a578063e106264f1461028d578063e2dd0978146102a0578063e35e318e146102b357610137565b806397c0ac871461020b5780639be918e614610213578063a98acadc14610226578063ae6f52ad14610239578063b3d3af3b1461024c57610137565b80636d3b9410116100ff5780636d3b9410146101c257806374626f87146101d5578063787f2568146101dd578063893d20e8146101f05780638f72b136146101f857610137565b806339cbb63c1461013c5780634c252f91146101515780634c67e1061461016f57806364b01dc11461018f57806368e81c6d146101af575b600080fd5b61014f61014a366004611cbe565b6102d3565b005b610159610387565b604051610166919061281c565b60405180910390f35b61018261017d366004611c30565b6103ab565b6040516101669190612a74565b6101a261019d366004611bf4565b61043f565b6040516101669190612888565b6101596101bd366004611bf4565b61045e565b61014f6101d0366004611d2c565b61047c565b6101596104d4565b6101826101eb366004611bf4565b6104e3565b610159610531565b61014f610206366004611c7d565b6105c9565b610159610641565b6101a2610221366004611bf4565b6106aa565b61014f610234366004611bf4565b6106ca565b610182610247366004611e31565b61070e565b61014f61025a366004611cbe565b6107b4565b610182610828565b6101a2610275366004611bf4565b61084c565b61014f610288366004611d2c565b61087b565b61014f61029b366004611c7d565b6108b3565b6101596102ae366004611bf4565b6108f5565b6102c66102c1366004611bf4565b610913565b6040516101669190612896565b6102db610531565b6001600160a01b0316336001600160a01b0316146103145760405162461bcd60e51b815260040161030b906128f4565b60405180910390fd5b6103818484808060200260200160405190810160405280939291908181526020018383602002808284376000920191909152505060408051602080880282810182019093528782529093508792508691829185019084908082843760009201919091525061096492505050565b50505050565b7f000000000000000000000000000000000000000000000000000000000000000090565b6000816001600160a01b0316846001600160a01b031614806103cb575082155b156103d7575081610438565b6103e08261084c565b156103f7576103f0848484610af1565b9050610438565b6104008261043f565b801561041057506104108461084c565b15610420576103f0848484610b7e565b60405162461bcd60e51b815260040161030b90612914565b9392505050565b60008061044b8361045e565b6001600160a01b0316141590505b919050565b6001600160a01b039081166000908152602081905260409020541690565b610484610531565b6001600160a01b0316336001600160a01b0316146104b45760405162461bcd60e51b815260040161030b906128f4565b6104be8686610c58565b6104cc868686868686610da4565b505050505050565b6001546001600160a01b031690565b60006104ed610387565b6001600160a01b0316826001600160a01b031614156105155750670de0b6b3a7640000610459565b506001600160a01b031660009081526003602052604090205490565b60007f00000000000000000000000000000000000000000000000000000000000000006001600160a01b031663893d20e86040518163ffffffff1660e01b815260040160206040518083038186803b15801561058c57600080fd5b505afa1580156105a0573d6000803e3d6000fd5b505050506040513d601f19601f820116820180604052508101906105c49190611c12565b905090565b6105d1610531565b6001600160a01b0316336001600160a01b0316146106015760405162461bcd60e51b815260040161030b906128f4565b61063d8282808060200260200160405190810160405280939291908181526020018383602002808284376000920191909152506110c992505050565b5050565b6000610685604051806060016040528060298152602001612ba4602991397f00000000000000000000000000000000000000000000000000000000000000006111b4565b507f000000000000000000000000000000000000000000000000000000000000000090565b60006106b58261084c565b806106c457506106c48261043f565b92915050565b6106d2610531565b6001600160a01b0316336001600160a01b0316146107025760405162461bcd60e51b815260040161030b906128f4565b61070b816111f9565b50565b600082518451146107315760405162461bcd60e51b815260040161030b90612984565b61073a8261084c565b6107565760405162461bcd60e51b815260040161030b906128d4565b60005b84518110156107ac57600061079586838151811061077357fe5b602002602001015186848151811061078757fe5b602002602001015186610af1565b90506107a18382611299565b925050600101610759565b509392505050565b6107bc610531565b6001600160a01b0316336001600160a01b0316146107ec5760405162461bcd60e51b815260040161030b906128f4565b6103148484808060200260200160405190810160405280939291908181526020018383602002808284376000920191909152506110c992505050565b7f000000000000000000000000000000000000000000000000000000000000000090565b6000610856610387565b6001600160a01b0316826001600160a01b031614806106c45750600061044b836108f5565b610883610531565b6001600160a01b0316336001600160a01b0316146104be5760405162461bcd60e51b815260040161030b906128f4565b6108bb610531565b6001600160a01b0316336001600160a01b0316146108eb5760405162461bcd60e51b815260040161030b906128f4565b61063d8282610c58565b6001600160a01b039081166000908152600260205260409020541690565b600061091d610387565b6001600160a01b0316826001600160a01b0316141561093e57506000610459565b506001600160a01b0316600090815260026020526040902054600160a01b900460ff1690565b80518251146109855760405162461bcd60e51b815260040161030b90612a44565b60005b8251811015610aec5760006001600160a01b03166109b88483815181106109ab57fe5b602002602001015161045e565b6001600160a01b0316146109de5760405162461bcd60e51b815260040161030b906129d4565b610a0e8382815181106109ed57fe5b6020026020010151838381518110610a0157fe5b60200260200101516112be565b818181518110610a1a57fe5b6020026020010151600080858481518110610a3157fe5b60200260200101516001600160a01b03166001600160a01b0316815260200190815260200160002060006101000a8154816001600160a01b0302191690836001600160a01b03160217905550828181518110610a8957fe5b60200260200101516001600160a01b03167faa4ae250fb435bb4b31ed0b95822bc179fc6c5dd0c727c3ffe08d444025efd98838381518110610ac757fe5b6020026020010151604051610adc919061281c565b60405180910390a2600101610988565b505050565b6000816001600160a01b0316846001600160a01b03161480610b11575082155b15610b1d575081610438565b610b268461084c565b15610b36576103f0848484611356565b6000610b418561045e565b90506001600160a01b03811615610b6657610b5e818686866113c8565b915050610438565b60405162461bcd60e51b815260040161030b90612a34565b600080826001600160a01b031663313ce5676040518163ffffffff1660e01b815260040160206040518083038186803b158015610bba57600080fd5b505afa158015610bce573d6000803e3d6000fd5b505050506040513d601f19601f82011682018060405250810190610bf29190611f41565b60ff16600a0a90506000610c058461045e565b90506000610c158286858a6113c8565b90506127108111610c385760405162461bcd60e51b815260040161030b90612a54565b610c4d610c46826001611299565b84886114f8565b979650505050505050565b60005b81811015610aec576000610c89848484818110610c7457fe5b90506020020160208101906102ae9190611bf4565b6001600160a01b03161415610cb05760405162461bcd60e51b815260040161030b906129f4565b60026000848484818110610cc057fe5b9050602002016020810190610cd59190611bf4565b6001600160a01b031681526020810191909152604001600090812080546001600160a81b0319169055600390848484818110610d0d57fe5b9050602002016020810190610d229190611bf4565b6001600160a01b03166001600160a01b0316815260200190815260200160002060009055828282818110610d5257fe5b9050602002016020810190610d679190611bf4565b6001600160a01b03167fb100e8178a081ba9130260173ee2ebe0db3a6c3b6751a7801111ab3017df0e9760405160405180910390a2600101610c5b565b848314610dc35760405162461bcd60e51b815260040161030b90612a24565b848114610de25760405162461bcd60e51b815260040161030b90612974565b60005b858110156110c0576000610dfe888884818110610c7457fe5b6001600160a01b031614610e245760405162461bcd60e51b815260040161030b90612a64565b610e4d858583818110610e3357fe5b9050602002016020810190610e489190611bf4565b611516565b6040518060400160405280868684818110610e6457fe5b9050602002016020810190610e799190611bf4565b6001600160a01b03168152602001848484818110610e9357fe5b9050602002016020810190610ea89190611eae565b6001811115610eb357fe5b905260026000898985818110610ec557fe5b9050602002016020810190610eda9190611bf4565b6001600160a01b0390811682526020808301939093526040909101600020835181546001600160a01b031916921691909117808255918301519091829060ff60a01b1916600160a01b836001811115610f2f57fe5b02179055509050506000878783818110610f4557fe5b9050602002016020810190610f5a9190611bf4565b6001600160a01b031663313ce5676040518163ffffffff1660e01b815260040160206040518083038186803b158015610f9257600080fd5b505afa158015610fa6573d6000803e3d6000fd5b505050506040513d601f19601f82011682018060405250810190610fca9190611f41565b60ff16600a0a905080600360008a8a86818110610fe357fe5b9050602002016020810190610ff89190611bf4565b6001600160a01b0316815260208101919091526040016000205587878381811061101e57fe5b90506020020160208101906110339190611bf4565b6001600160a01b03167f742bdf00da3d8f16c0fab93ce38eb6a536a019c9e283888dd44c3a08c0148c0287878581811061106957fe5b905060200201602081019061107e9190611bf4565b86868681811061108a57fe5b905060200201602081019061109f9190611eae565b846040516110af93929190612845565b60405180910390a250600101610de5565b50505050505050565b60005b815181101561063d5760006001600160a01b03166110ef8383815181106109ab57fe5b6001600160a01b031614156111165760405162461bcd60e51b815260040161030b90612994565b60008083838151811061112557fe5b60200260200101516001600160a01b03166001600160a01b0316815260200190815260200160002060006101000a8154906001600160a01b03021916905581818151811061116f57fe5b60200260200101516001600160a01b03167fc15eb25d807b570f4567baf6e97c7b26d58a7d0512dc85e8db15375a056b860460405160405180910390a26001016110cc565b61063d82826040516024016111ca9291906128a4565b60408051601f198184030181529190526020810180516001600160e01b031663319af33360e01b1790526115ba565b60006112036104d4565b9050806001600160a01b0316826001600160a01b031614156112375760405162461bcd60e51b815260040161030b906128c4565b61124082611516565b600180546001600160a01b0319166001600160a01b0384161790556040517f98b60a60ba6130248e985ae4140dc3109d9c2980c7e435fed385e2756bc944619061128d908390859061282a565b60405180910390a15050565b6000828201838110156104385760405162461bcd60e51b815260040161030b90612904565b604051634df48c7360e11b81526001600160a01b03821690639be918e6906112ea90859060040161281c565b60206040518083038186803b15801561130257600080fd5b505afa158015611316573d6000803e3d6000fd5b505050506040513d601f19601f8201168201806040525081019061133a9190611e90565b61063d5760405162461bcd60e51b815260040161030b90612a14565b600080611362856115db565b9050600081136113845760405162461bcd60e51b815260040161030b906129b4565b600061138f846115db565b9050600081136113b15760405162461bcd60e51b815260040161030b906129e4565b6113be86868487856116ce565b9695505050505050565b6000606080866001600160a01b031663727212f687876040518363ffffffff1660e01b81526004016113fb92919061286d565b600060405180830381600087803b15801561141557600080fd5b505af1158015611429573d6000803e3d6000fd5b505050506040513d6000823e601f3d908101601f191682016040526114519190810190611dca565b9150915060008251116114765760405162461bcd60e51b815260040161030b906129a4565b80518251146114975760405162461bcd60e51b815260040161030b90612934565b60005b82518110156114ed5760006114d68483815181106114b457fe5b60200260200101518484815181106114c857fe5b602002602001015188610af1565b90506114e28582611299565b94505060010161149a565b505050949350505050565b600061150e846115088486611833565b9061186d565b949350505050565b600080826001600160a01b031663feaf968c6040518163ffffffff1660e01b815260040160a06040518083038186803b15801561155257600080fd5b505afa158015611566573d6000803e3d6000fd5b505050506040513d601f19601f8201168201806040525081019061158a9190611ecc565b50935050925050600082136115b15760405162461bcd60e51b815260040161030b90612a04565b610aec8161189f565b80516a636f6e736f6c652e6c6f67602083016000808483855afa5050505050565b60006115e5610387565b6001600160a01b0316826001600160a01b0316141561160d5750670de0b6b3a7640000610459565b6000611618836108f5565b90506001600160a01b0381166116405760405162461bcd60e51b815260040161030b906128e4565b6000816001600160a01b031663feaf968c6040518163ffffffff1660e01b815260040160a06040518083038186803b15801561167b57600080fd5b505afa15801561168f573d6000803e3d6000fd5b505050506040513d601f19601f820116820180604052508101906116b39190611ecc565b509195509092506116c7915082905061189f565b5050919050565b6000806116da87610913565b905060006116e785610913565b905060006116f4896104e3565b90506000611701876104e3565b905082600181111561170f57fe5b84600181111561171b57fe5b14156117395761172e89838a848a6118d0565b94505050505061182a565b6000806117446104d4565b6001600160a01b031663feaf968c6040518163ffffffff1660e01b815260040160a06040518083038186803b15801561177c57600080fd5b505afa158015611790573d6000803e3d6000fd5b505050506040513d601f19601f820116820180604052508101906117b49190611ecc565b50935050925050600082136117db5760405162461bcd60e51b815260040161030b90612954565b6117e48161189f565b60008660018111156117f257fe5b1415611813576118068b858c868c876118f3565b965050505050505061182a565b6118218b858c868c8761192e565b96505050505050505b95945050505050565b600082611842575060006106c4565b8282028284828161184f57fe5b04146104385760405162461bcd60e51b815260040161030b906129c4565b600080821161188e5760405162461bcd60e51b815260040161030b90612944565b81838161189757fe5b049392505050565b6118b16118aa610828565b429061195d565b81101561070b5760405162461bcd60e51b815260040161030b90612964565b60006113be6118df8684611833565b611508856118ed8a89611833565b90611833565b600080611910670de0b6b3a7640000611508856118ed8c8b611833565b9050611922846115088981858a611833565b98975050505050505050565b60008061194383611508876118ed8c8b611833565b905061192284611508898185670de0b6b3a7640000611833565b60008282111561197f5760405162461bcd60e51b815260040161030b90612924565b50900390565b80356106c481612b5e565b80516106c481612b5e565b60008083601f8401126119ad57600080fd5b5081356001600160401b038111156119c457600080fd5b6020830191508360208202830111156119dc57600080fd5b9250929050565b600082601f8301126119f457600080fd5b8135611a07611a0282612aa8565b612a82565b91508181835260208401935060208101905083856020840282011115611a2c57600080fd5b60005b83811015611a585781611a428882611985565b8452506020928301929190910190600101611a2f565b5050505092915050565b600082601f830112611a7357600080fd5b8151611a81611a0282612aa8565b91508181835260208401935060208101905083856020840282011115611aa657600080fd5b60005b83811015611a585781611abc8882611990565b8452506020928301929190910190600101611aa9565b600082601f830112611ae357600080fd5b8135611af1611a0282612aa8565b91508181835260208401935060208101905083856020840282011115611b1657600080fd5b60005b83811015611a585781611b2c8882611bd3565b8452506020928301929190910190600101611b19565b600082601f830112611b5357600080fd5b8151611b61611a0282612aa8565b91508181835260208401935060208101905083856020840282011115611b8657600080fd5b60005b83811015611a585781611b9c8882611bc8565b8452506020928301929190910190600101611b89565b80516106c481612b72565b80356106c481612b7b565b80516106c481612b88565b80356106c481612b88565b80516106c481612b9a565b80516106c481612b91565b600060208284031215611c0657600080fd5b600061150e8484611985565b600060208284031215611c2457600080fd5b600061150e8484611990565b600080600060608486031215611c4557600080fd5b6000611c518686611985565b9350506020611c6286828701611bd3565b9250506040611c7386828701611985565b9150509250925092565b60008060208385031215611c9057600080fd5b82356001600160401b03811115611ca657600080fd5b611cb28582860161199b565b92509250509250929050565b60008060008060408587031215611cd457600080fd5b84356001600160401b03811115611cea57600080fd5b611cf68782880161199b565b945094505060208501356001600160401b03811115611d1457600080fd5b611d208782880161199b565b95989497509550505050565b60008060008060008060608789031215611d4557600080fd5b86356001600160401b03811115611d5b57600080fd5b611d6789828a0161199b565b965096505060208701356001600160401b03811115611d8557600080fd5b611d9189828a0161199b565b945094505060408701356001600160401b03811115611daf57600080fd5b611dbb89828a0161199b565b92509250509295509295509295565b60008060408385031215611ddd57600080fd5b82516001600160401b03811115611df357600080fd5b611dff85828601611a62565b92505060208301516001600160401b03811115611e1b57600080fd5b611e2785828601611b42565b9150509250929050565b600080600060608486031215611e4657600080fd5b83356001600160401b03811115611e5c57600080fd5b611e68868287016119e3565b93505060208401356001600160401b03811115611e8457600080fd5b611c6286828701611ad2565b600060208284031215611ea257600080fd5b600061150e8484611bb2565b600060208284031215611ec057600080fd5b600061150e8484611bbd565b600080600080600060a08688031215611ee457600080fd5b6000611ef08888611bde565b9550506020611f0188828901611bc8565b9450506040611f1288828901611bc8565b9350506060611f2388828901611bc8565b9250506080611f3488828901611bde565b9150509295509295909350565b600060208284031215611f5357600080fd5b600061150e8484611be9565b611f6881612ad5565b82525050565b611f6881612ae0565b611f6881612b13565b6000611f8b82612ac8565b611f958185612acc565b9350611fa5818560208601612b1e565b611fae81612b4a565b9093019392505050565b6000611fc5602883612acc565b7f5f5f73657445746855736441676772656761746f723a2056616c756520616c728152671958591e481cd95d60c21b602082015260400192915050565b600061200f603683612acc565b7f63616c6343616e6f6e6963616c417373657473546f74616c56616c75653a20558152751b9cdd5c1c1bdc9d19590817dc5d5bdd19505cdcd95d60521b602082015260400192915050565b6000612067602d83612acc565b7f5f5f6765744c617465737452617465446174613a205072696d6974697665206481526c1bd95cc81b9bdd08195e1a5cdd609a1b602082015260400192915050565b60006120b6604983612acc565b7f6f6e6c7946756e644465706c6f7965724f776e65723a204f6e6c79207468652081527f46756e644465706c6f796572206f776e65722063616e2063616c6c207468697360208201526810333ab731ba34b7b760b91b604082015260600192915050565b6000612127601b83612acc565b7f536166654d6174683a206164646974696f6e206f766572666c6f770000000000815260200192915050565b6000612160602f83612acc565b7f63616c6343616e6f6e6963616c417373657456616c75653a20556e737570706f81526e393a32b21031b7b73b32b939b4b7b760891b602082015260400192915050565b60006121b1601e83612acc565b7f536166654d6174683a207375627472616374696f6e206f766572666c6f770000815260200192915050565b60006121ea602d83612acc565b7f5f5f63616c634465726976617469766556616c75653a2041727261797320756e81526c657175616c206c656e6774687360981b602082015260400192915050565b6000612239601a83612acc565b7f536166654d6174683a206469766973696f6e206279207a65726f000000000000815260200192915050565b6000612272602783612acc565b7f5f5f63616c63436f6e76657273696f6e416d6f756e743a2042616420657468558152667364207261746560c81b602082015260400192915050565b60006122bb602d83612acc565b7f5f5f76616c69646174655261746549734e6f745374616c653a205374616c652081526c1c985d194819195d1958dd1959609a1b602082015260400192915050565b600061230a604283612acc565b7f5f5f6164645072696d6974697665733a20556e657175616c205f7072696d697481527f6976657320616e64205f72617465417373657473206172726179206c656e6774602082015261687360f01b604082015260600192915050565b6000612374603583612acc565b7f63616c6343616e6f6e6963616c417373657473546f74616c56616c75653a2041815274727261797320756e657175616c206c656e6774687360581b602082015260400192915050565b60006123cb602b83612acc565b7f72656d6f766544657269766174697665733a2044657269766174697665206e6f81526a1d081e595d08185919195960aa1b602082015260400192915050565b6000612418602583612acc565b7f5f5f63616c634465726976617469766556616c75653a204e6f20756e6465726c81526479696e677360d81b602082015260400192915050565b600061245f602d83612acc565b7f5f5f63616c6343616e6f6e6963616c56616c75653a20496e76616c696420626181526c7365206173736574207261746560981b602082015260400192915050565b60006124ae602183612acc565b7f536166654d6174683a206d756c7469706c69636174696f6e206f766572666c6f8152607760f81b602082015260400192915050565b60006124f1601f83612acc565b7f5f5f61646444657269766174697665733a20416c726561647920616464656400815260200192915050565b600061252a602e83612acc565b7f5f5f63616c6343616e6f6e6963616c56616c75653a20496e76616c696420717581526d6f7465206173736574207261746560901b602082015260400192915050565b600061257a602b83612acc565b7f5f5f72656d6f76655072696d6974697665733a205072696d6974697665206e6f81526a1d081e595d08185919195960aa1b602082015260400192915050565b60006125c7602683612acc565b7f5f5f76616c696461746541676772656761746f723a204e6f20726174652064658152651d1958dd195960d21b602082015260400192915050565b600061260f603583612acc565b7f5f5f76616c6964617465446572697661746976655072696365466565643a20558152746e737570706f72746564206465726976617469766560581b602082015260400192915050565b6000612666604383612acc565b7f5f5f6164645072696d6974697665733a20556e657175616c205f7072696d697481527f6976657320616e64205f61676772656761746f7273206172726179206c656e6760208201526274687360e81b604082015260600192915050565b60006126d1602883612acc565b7f5f5f63616c63417373657456616c75653a20556e737570706f72746564205f62815267185cd9505cdcd95d60c21b602082015260400192915050565b600061271b604483612acc565b7f5f5f61646444657269766174697665733a20556e657175616c205f646572697681527f61746976657320616e64205f70726963654665656473206172726179206c656e6020820152636774687360e01b604082015260600192915050565b6000612787603383612acc565b7f5f5f63616c635072696d6974697665546f4465726976617469766556616c75658152723a20496e73756666696369656e74207261746560681b602082015260400192915050565b60006127dc602283612acc565b7f5f5f6164645072696d6974697665733a2056616c756520616c72656164792073815261195d60f21b602082015260400192915050565b611f6881612aef565b602081016106c48284611f5f565b604081016128388285611f5f565b6104386020830184611f5f565b606081016128538286611f5f565b6128606020830185611f77565b61150e6040830184612813565b6040810161287b8285611f5f565b6104386020830184612813565b602081016106c48284611f6e565b602081016106c48284611f77565b604080825281016128b58185611f80565b90506104386020830184611f5f565b602080825281016106c481611fb8565b602080825281016106c481612002565b602080825281016106c48161205a565b602080825281016106c4816120a9565b602080825281016106c48161211a565b602080825281016106c481612153565b602080825281016106c4816121a4565b602080825281016106c4816121dd565b602080825281016106c48161222c565b602080825281016106c481612265565b602080825281016106c4816122ae565b602080825281016106c4816122fd565b602080825281016106c481612367565b602080825281016106c4816123be565b602080825281016106c48161240b565b602080825281016106c481612452565b602080825281016106c4816124a1565b602080825281016106c4816124e4565b602080825281016106c48161251d565b602080825281016106c48161256d565b602080825281016106c4816125ba565b602080825281016106c481612602565b602080825281016106c481612659565b602080825281016106c4816126c4565b602080825281016106c48161270e565b602080825281016106c48161277a565b602080825281016106c4816127cf565b602081016106c48284612813565b6040518181016001600160401b0381118282101715612aa057600080fd5b604052919050565b60006001600160401b03821115612abe57600080fd5b5060209081020190565b5190565b90815260200190565b60006106c482612af2565b151590565b8061045981612b54565b90565b6001600160a01b031690565b60ff1690565b69ffffffffffffffffffff1690565b60006106c482612ae5565b60005b83811015612b39578181015183820152602001612b21565b838111156103815750506000910152565b601f01601f191690565b6002811061070b57fe5b612b6781612ad5565b811461070b57600080fd5b612b6781612ae0565b6002811061070b57600080fd5b612b6781612aef565b612b6781612afe565b612b6781612b0456fe46756e644465706c6f7965724f776e65724d6978696e3a67657446756e644465706c6f7965723a2573a26469706673582212202d0a5d8785e33b8c555ff435cdc94bfa9ff1febbfc15f01c620a82803302d50e64736f6c634300060c0033",
  "devdoc": {
    "author": "Enzyme Council <security@enzyme.finance>",
    "kind": "dev",
    "methods": {
      "addDerivatives(address[],address[])": {
        "params": {
          "_derivatives": "The derivatives to add",
          "_priceFeeds": "The ordered price feeds corresponding to the list of _derivatives"
        }
      },
      "addPrimitives(address[],address[],uint8[])": {
        "params": {
          "_aggregators": "The ordered aggregators corresponding to the list of _primitives",
          "_primitives": "The primitives to add",
          "_rateAssets": "The ordered rate assets corresponding to the list of _primitives"
        }
      },
      "calcCanonicalAssetValue(address,uint256,address)": {
        "details": "Does not alter protocol state, but not a view because calls to price feeds can potentially update third party state. See also __calcPrimitiveToDerivativeValue() for important notes regarding a derivative _quoteAsset.",
        "params": {
          "_amount": "The amount of the _baseAsset to convert",
          "_baseAsset": "The asset from which to convert",
          "_quoteAsset": "The asset to which to convert"
        },
        "returns": {
          "value_": "The equivalent quantity in the _quoteAsset"
        }
      },
      "calcCanonicalAssetsTotalValue(address[],uint256[],address)": {
        "details": "Does not alter protocol state, but not a view because calls to price feeds can potentially update third party state. Does not handle a derivative quote asset.",
        "params": {
          "_amounts": "The amounts of the _baseAssets to convert",
          "_baseAssets": "The assets to convert",
          "_quoteAsset": "The asset to which to convert"
        },
        "returns": {
          "value_": "The sum value of _baseAssets, denominated in the _quoteAsset"
        }
      },
      "getAggregatorForPrimitive(address)": {
        "params": {
          "_primitive": "The primitive asset for which to get the aggregator value"
        },
        "returns": {
          "aggregator_": "The aggregator address"
        }
      },
      "getEthUsdAggregator()": {
        "returns": {
          "ethUsdAggregator_": "The `ethUsdAggregator` variable value"
        }
      },
      "getFundDeployer()": {
        "returns": {
          "fundDeployer_": "The `FUND_DEPLOYER` variable value"
        }
      },
      "getOwner()": {
        "details": "Ownership is deferred to the owner of the FundDeployer contract",
        "returns": {
          "owner_": "The owner"
        }
      },
      "getPriceFeedForDerivative(address)": {
        "returns": {
          "priceFeed_": "The price feed contract address"
        }
      },
      "getRateAssetForPrimitive(address)": {
        "details": "This isn't strictly necessary as WETH_TOKEN will be undefined and thus the RateAsset will be the 0-position of the enum (i.e. ETH), but it makes the behavior more explicit",
        "returns": {
          "rateAsset_": "The rateAsset variable value"
        }
      },
      "getStaleRateThreshold()": {
        "returns": {
          "staleRateThreshold_": "The `STALE_RATE_THRESHOLD` value"
        }
      },
      "getUnitForPrimitive(address)": {
        "returns": {
          "unit_": "The unit variable value"
        }
      },
      "getWethToken()": {
        "returns": {
          "wethToken_": "The `WETH_TOKEN` variable value"
        }
      },
      "isSupportedAsset(address)": {
        "params": {
          "_asset": "The asset to check"
        },
        "returns": {
          "isSupported_": "True if the asset is a supported asset"
        }
      },
      "isSupportedDerivativeAsset(address)": {
        "params": {
          "_asset": "The asset to check"
        },
        "returns": {
          "isSupported_": "True if the asset is a supported derivative"
        }
      },
      "isSupportedPrimitiveAsset(address)": {
        "params": {
          "_asset": "The asset to check"
        },
        "returns": {
          "isSupported_": "True if the asset is a supported primitive"
        }
      },
      "removeDerivatives(address[])": {
        "params": {
          "_derivatives": "The derivatives to remove"
        }
      },
      "removePrimitives(address[])": {
        "params": {
          "_primitives": "The primitives to remove"
        }
      },
      "setEthUsdAggregator(address)": {
        "params": {
          "_nextEthUsdAggregator": "The `ehUsdAggregator` value to set"
        }
      },
      "updateDerivatives(address[],address[])": {
        "params": {
          "_derivatives": "The derivatives to update",
          "_priceFeeds": "The ordered price feeds corresponding to the list of _derivatives"
        }
      },
      "updatePrimitives(address[],address[],uint8[])": {
        "params": {
          "_aggregators": "The ordered aggregators corresponding to the list of _primitives",
          "_primitives": "The primitives to update",
          "_rateAssets": "The ordered rate assets corresponding to the list of _primitives"
        }
      }
    },
    "title": "ValueInterpreter Contract",
    "version": 1
  },
  "userdoc": {
    "kind": "user",
    "methods": {
      "addDerivatives(address[],address[])": {
        "notice": "Adds a list of derivatives with the given price feed values"
      },
      "addPrimitives(address[],address[],uint8[])": {
        "notice": "Adds a list of primitives with the given aggregator and rateAsset values"
      },
      "calcCanonicalAssetValue(address,uint256,address)": {
        "notice": "Calculates the value of a given amount of one asset in terms of another asset"
      },
      "calcCanonicalAssetsTotalValue(address[],uint256[],address)": {
        "notice": "Calculates the total value of given amounts of assets in a single quote asset"
      },
      "getAggregatorForPrimitive(address)": {
        "notice": "Gets the aggregator for a primitive"
      },
      "getEthUsdAggregator()": {
        "notice": "Gets the `ethUsdAggregator` variable value"
      },
      "getFundDeployer()": {
        "notice": "Gets the `FUND_DEPLOYER` variable"
      },
      "getOwner()": {
        "notice": "Gets the owner of this contract"
      },
      "getPriceFeedForDerivative(address)": {
        "notice": "Gets the registered price feed for a given derivative"
      },
      "getRateAssetForPrimitive(address)": {
        "notice": "Gets the rateAsset variable value for a primitive"
      },
      "getStaleRateThreshold()": {
        "notice": "Gets the `STALE_RATE_THRESHOLD` variable value"
      },
      "getUnitForPrimitive(address)": {
        "notice": "Gets the unit variable value for a primitive"
      },
      "getWethToken()": {
        "notice": "Gets the `WETH_TOKEN` variable value"
      },
      "isSupportedAsset(address)": {
        "notice": "Checks whether an asset is a supported asset"
      },
      "isSupportedDerivativeAsset(address)": {
        "notice": "Checks whether an asset is a supported derivative"
      },
      "isSupportedPrimitiveAsset(address)": {
        "notice": "Checks whether an asset is a supported primitive"
      },
      "removeDerivatives(address[])": {
        "notice": "Removes a list of derivatives"
      },
      "removePrimitives(address[])": {
        "notice": "Removes a list of primitives from the feed"
      },
      "setEthUsdAggregator(address)": {
        "notice": "Sets the `ehUsdAggregator` variable value"
      },
      "updateDerivatives(address[],address[])": {
        "notice": "Updates a list of derivatives with the given price feed values"
      },
      "updatePrimitives(address[],address[],uint8[])": {
        "notice": "Updates a list of primitives with the given aggregator and rateAsset values"
      }
    },
    "notice": "Interprets price feeds to provide covert value between asset pairs",
    "version": 1
  },
  "storageLayout": {
    "storage": [
      {
        "astId": 40825,
        "contract": "contracts/release/infrastructure/value-interpreter/ValueInterpreter.sol:ValueInterpreter",
        "label": "derivativeToPriceFeed",
        "offset": 0,
        "slot": "0",
        "type": "t_mapping(t_address,t_address)"
      },
      {
        "astId": 43724,
        "contract": "contracts/release/infrastructure/value-interpreter/ValueInterpreter.sol:ValueInterpreter",
        "label": "ethUsdAggregator",
        "offset": 0,
        "slot": "1",
        "type": "t_address"
      },
      {
        "astId": 43728,
        "contract": "contracts/release/infrastructure/value-interpreter/ValueInterpreter.sol:ValueInterpreter",
        "label": "primitiveToAggregatorInfo",
        "offset": 0,
        "slot": "2",
        "type": "t_mapping(t_address,t_struct(AggregatorInfo)43713_storage)"
      },
      {
        "astId": 43732,
        "contract": "contracts/release/infrastructure/value-interpreter/ValueInterpreter.sol:ValueInterpreter",
        "label": "primitiveToUnit",
        "offset": 0,
        "slot": "3",
        "type": "t_mapping(t_address,t_uint256)"
      }
    ],
    "types": {
      "t_address": {
        "encoding": "inplace",
        "label": "address",
        "numberOfBytes": "20"
      },
      "t_enum(RateAsset)43708": {
        "encoding": "inplace",
        "label": "enum ChainlinkPriceFeedMixin.RateAsset",
        "numberOfBytes": "1"
      },
      "t_mapping(t_address,t_address)": {
        "encoding": "mapping",
        "key": "t_address",
        "label": "mapping(address => address)",
        "numberOfBytes": "32",
        "value": "t_address"
      },
      "t_mapping(t_address,t_struct(AggregatorInfo)43713_storage)": {
        "encoding": "mapping",
        "key": "t_address",
        "label": "mapping(address => struct ChainlinkPriceFeedMixin.AggregatorInfo)",
        "numberOfBytes": "32",
        "value": "t_struct(AggregatorInfo)43713_storage"
      },
      "t_mapping(t_address,t_uint256)": {
        "encoding": "mapping",
        "key": "t_address",
        "label": "mapping(address => uint256)",
        "numberOfBytes": "32",
        "value": "t_uint256"
      },
      "t_struct(AggregatorInfo)43713_storage": {
        "encoding": "inplace",
        "label": "struct ChainlinkPriceFeedMixin.AggregatorInfo",
        "members": [
          {
            "astId": 43710,
            "contract": "contracts/release/infrastructure/value-interpreter/ValueInterpreter.sol:ValueInterpreter",
            "label": "aggregator",
            "offset": 0,
            "slot": "0",
            "type": "t_address"
          },
          {
            "astId": 43712,
            "contract": "contracts/release/infrastructure/value-interpreter/ValueInterpreter.sol:ValueInterpreter",
            "label": "rateAsset",
            "offset": 20,
            "slot": "0",
            "type": "t_enum(RateAsset)43708"
          }
        ],
        "numberOfBytes": "32"
      },
      "t_uint256": {
        "encoding": "inplace",
        "label": "uint256",
        "numberOfBytes": "32"
      }
    }
  }
}