{
  "address": "0x810090f35DFA6B18b5EB59d298e2A2443a2811E2",
  "abi": [
    {
      "inputs": [
        {
          "internalType": "address",
          "name": "_externalPositionManager",
          "type": "address"
        },
        {
          "internalType": "address",
          "name": "_gasRelayPaymasterFactory",
          "type": "address"
        },
        {
          "internalType": "address",
          "name": "_protocolFeeReserve",
          "type": "address"
        },
        {
          "internalType": "address",
          "name": "_protocolFeeTracker",
          "type": "address"
        },
        {
          "internalType": "address",
          "name": "_mlnToken",
          "type": "address"
        },
        {
          "internalType": "address",
          "name": "_wethToken",
          "type": "address"
        }
      ],
      "stateMutability": "nonpayable",
      "type": "constructor"
    },
    {
      "anonymous": false,
      "inputs": [
        {
          "indexed": false,
          "internalType": "address",
          "name": "prevAccessor",
          "type": "address"
        },
        {
          "indexed": false,
          "internalType": "address",
          "name": "nextAccessor",
          "type": "address"
        }
      ],
      "name": "AccessorSet",
      "type": "event"
    },
    {
      "anonymous": false,
      "inputs": [
        {
          "indexed": true,
          "internalType": "address",
          "name": "owner",
          "type": "address"
        },
        {
          "indexed": true,
          "internalType": "address",
          "name": "spender",
          "type": "address"
        },
        {
          "indexed": false,
          "internalType": "uint256",
          "name": "value",
          "type": "uint256"
        }
      ],
      "name": "Approval",
      "type": "event"
    },
    {
      "anonymous": false,
      "inputs": [
        {
          "indexed": false,
          "internalType": "address",
          "name": "manager",
          "type": "address"
        }
      ],
      "name": "AssetManagerAdded",
      "type": "event"
    },
    {
      "anonymous": false,
      "inputs": [
        {
          "indexed": false,
          "internalType": "address",
          "name": "manager",
          "type": "address"
        }
      ],
      "name": "AssetManagerRemoved",
      "type": "event"
    },
    {
      "anonymous": false,
      "inputs": [
        {
          "indexed": true,
          "internalType": "address",
          "name": "asset",
          "type": "address"
        },
        {
          "indexed": true,
          "internalType": "address",
          "name": "target",
          "type": "address"
        },
        {
          "indexed": false,
          "internalType": "uint256",
          "name": "amount",
          "type": "uint256"
        }
      ],
      "name": "AssetWithdrawn",
      "type": "event"
    },
    {
      "anonymous": false,
      "inputs": [
        {
          "indexed": true,
          "internalType": "address",
          "name": "sender",
          "type": "address"
        },
        {
          "indexed": false,
          "internalType": "uint256",
          "name": "amount",
          "type": "uint256"
        }
      ],
      "name": "EthReceived",
      "type": "event"
    },
    {
      "anonymous": false,
      "inputs": [
        {
          "indexed": true,
          "internalType": "address",
          "name": "externalPosition",
          "type": "address"
        }
      ],
      "name": "ExternalPositionAdded",
      "type": "event"
    },
    {
      "anonymous": false,
      "inputs": [
        {
          "indexed": true,
          "internalType": "address",
          "name": "externalPosition",
          "type": "address"
        }
      ],
      "name": "ExternalPositionRemoved",
      "type": "event"
    },
    {
      "anonymous": false,
      "inputs": [],
      "name": "FreelyTransferableSharesSet",
      "type": "event"
    },
    {
      "anonymous": false,
      "inputs": [
        {
          "indexed": false,
          "internalType": "address",
          "name": "prevMigrator",
          "type": "address"
        },
        {
          "indexed": false,
          "internalType": "address",
          "name": "nextMigrator",
          "type": "address"
        }
      ],
      "name": "MigratorSet",
      "type": "event"
    },
    {
      "anonymous": false,
      "inputs": [
        {
          "indexed": true,
          "internalType": "address",
          "name": "nominatedOwner",
          "type": "address"
        }
      ],
      "name": "NominatedOwnerRemoved",
      "type": "event"
    },
    {
      "anonymous": false,
      "inputs": [
        {
          "indexed": true,
          "internalType": "address",
          "name": "nominatedOwner",
          "type": "address"
        }
      ],
      "name": "NominatedOwnerSet",
      "type": "event"
    },
    {
      "anonymous": false,
      "inputs": [
        {
          "indexed": false,
          "internalType": "address",
          "name": "prevOwner",
          "type": "address"
        },
        {
          "indexed": false,
          "internalType": "address",
          "name": "nextOwner",
          "type": "address"
        }
      ],
      "name": "OwnerSet",
      "type": "event"
    },
    {
      "anonymous": false,
      "inputs": [
        {
          "indexed": true,
          "internalType": "address",
          "name": "prevOwner",
          "type": "address"
        },
        {
          "indexed": true,
          "internalType": "address",
          "name": "nextOwner",
          "type": "address"
        }
      ],
      "name": "OwnershipTransferred",
      "type": "event"
    },
    {
      "anonymous": false,
      "inputs": [
        {
          "indexed": false,
          "internalType": "uint256",
          "name": "sharesAmount",
          "type": "uint256"
        }
      ],
      "name": "ProtocolFeePaidInShares",
      "type": "event"
    },
    {
      "anonymous": false,
      "inputs": [
        {
          "indexed": false,
          "internalType": "uint256",
          "name": "sharesAmount",
          "type": "uint256"
        },
        {
          "indexed": false,
          "internalType": "uint256",
          "name": "mlnValue",
          "type": "uint256"
        },
        {
          "indexed": false,
          "internalType": "uint256",
          "name": "mlnBurned",
          "type": "uint256"
        }
      ],
      "name": "ProtocolFeeSharesBoughtBack",
      "type": "event"
    },
    {
      "anonymous": false,
      "inputs": [
        {
          "indexed": false,
          "internalType": "address",
          "name": "asset",
          "type": "address"
        }
      ],
      "name": "TrackedAssetAdded",
      "type": "event"
    },
    {
      "anonymous": false,
      "inputs": [
        {
          "indexed": false,
          "internalType": "address",
          "name": "asset",
          "type": "address"
        }
      ],
      "name": "TrackedAssetRemoved",
      "type": "event"
    },
    {
      "anonymous": false,
      "inputs": [
        {
          "indexed": true,
          "internalType": "address",
          "name": "from",
          "type": "address"
        },
        {
          "indexed": true,
          "internalType": "address",
          "name": "to",
          "type": "address"
        },
        {
          "indexed": false,
          "internalType": "uint256",
          "name": "value",
          "type": "uint256"
        }
      ],
      "name": "Transfer",
      "type": "event"
    },
    {
      "anonymous": false,
      "inputs": [
        {
          "indexed": false,
          "internalType": "address",
          "name": "prevVaultLib",
          "type": "address"
        },
        {
          "indexed": false,
          "internalType": "address",
          "name": "nextVaultLib",
          "type": "address"
        }
      ],
      "name": "VaultLibSet",
      "type": "event"
    },
    {
      "inputs": [
        {
          "internalType": "address[]",
          "name": "_managers",
          "type": "address[]"
        }
      ],
      "name": "addAssetManagers",
      "outputs": [],
      "stateMutability": "nonpayable",
      "type": "function"
    },
    {
      "inputs": [
        {
          "internalType": "address",
          "name": "_asset",
          "type": "address"
        }
      ],
      "name": "addTrackedAsset",
      "outputs": [],
      "stateMutability": "nonpayable",
      "type": "function"
    },
    {
      "inputs": [
        {
          "internalType": "address",
          "name": "_owner",
          "type": "address"
        },
        {
          "internalType": "address",
          "name": "_spender",
          "type": "address"
        }
      ],
      "name": "allowance",
      "outputs": [
        {
          "internalType": "uint256",
          "name": "",
          "type": "uint256"
        }
      ],
      "stateMutability": "view",
      "type": "function"
    },
    {
      "inputs": [
        {
          "internalType": "address",
          "name": "_spender",
          "type": "address"
        },
        {
          "internalType": "uint256",
          "name": "_amount",
          "type": "uint256"
        }
      ],
      "name": "approve",
      "outputs": [
        {
          "internalType": "bool",
          "name": "",
          "type": "bool"
        }
      ],
      "stateMutability": "nonpayable",
      "type": "function"
    },
    {
      "inputs": [
        {
          "internalType": "address",
          "name": "_account",
          "type": "address"
        }
      ],
      "name": "balanceOf",
      "outputs": [
        {
          "internalType": "uint256",
          "name": "",
          "type": "uint256"
        }
      ],
      "stateMutability": "view",
      "type": "function"
    },
    {
      "inputs": [
        {
          "internalType": "address",
          "name": "_target",
          "type": "address"
        },
        {
          "internalType": "uint256",
          "name": "_amount",
          "type": "uint256"
        }
      ],
      "name": "burnShares",
      "outputs": [],
      "stateMutability": "nonpayable",
      "type": "function"
    },
    {
      "inputs": [
        {
          "internalType": "uint256",
          "name": "_sharesAmount",
          "type": "uint256"
        },
        {
          "internalType": "uint256",
          "name": "_mlnValue",
          "type": "uint256"
        },
        {
          "internalType": "uint256",
          "name": "_gav",
          "type": "uint256"
        }
      ],
      "name": "buyBackProtocolFeeShares",
      "outputs": [],
      "stateMutability": "nonpayable",
      "type": "function"
    },
    {
      "inputs": [
        {
          "internalType": "address",
          "name": "_contract",
          "type": "address"
        },
        {
          "internalType": "bytes",
          "name": "_callData",
          "type": "bytes"
        }
      ],
      "name": "callOnContract",
      "outputs": [
        {
          "internalType": "bytes",
          "name": "returnData_",
          "type": "bytes"
        }
      ],
      "stateMutability": "nonpayable",
      "type": "function"
    },
    {
      "inputs": [
        {
          "internalType": "address",
          "name": "_who",
          "type": "address"
        }
      ],
      "name": "canManageAssets",
      "outputs": [
        {
          "internalType": "bool",
          "name": "canManageAssets_",
          "type": "bool"
        }
      ],
      "stateMutability": "view",
      "type": "function"
    },
    {
      "inputs": [
        {
          "internalType": "address",
          "name": "_who",
          "type": "address"
        }
      ],
      "name": "canMigrate",
      "outputs": [
        {
          "internalType": "bool",
          "name": "canMigrate_",
          "type": "bool"
        }
      ],
      "stateMutability": "view",
      "type": "function"
    },
    {
      "inputs": [
        {
          "internalType": "address",
          "name": "_who",
          "type": "address"
        }
      ],
      "name": "canRelayCalls",
      "outputs": [
        {
          "internalType": "bool",
          "name": "canRelayCalls_",
          "type": "bool"
        }
      ],
      "stateMutability": "view",
      "type": "function"
    },
    {
      "inputs": [],
      "name": "claimOwnership",
      "outputs": [],
      "stateMutability": "nonpayable",
      "type": "function"
    },
    {
      "inputs": [],
      "name": "decimals",
      "outputs": [
        {
          "internalType": "uint8",
          "name": "",
          "type": "uint8"
        }
      ],
      "stateMutability": "pure",
      "type": "function"
    },
    {
      "inputs": [],
      "name": "getAccessor",
      "outputs": [
        {
          "internalType": "address",
          "name": "accessor_",
          "type": "address"
        }
      ],
      "stateMutability": "view",
      "type": "function"
    },
    {
      "inputs": [],
      "name": "getActiveExternalPositions",
      "outputs": [
        {
          "internalType": "address[]",
          "name": "activeExternalPositions_",
          "type": "address[]"
        }
      ],
      "stateMutability": "view",
      "type": "function"
    },
    {
      "inputs": [],
      "name": "getCreator",
      "outputs": [
        {
          "internalType": "address",
          "name": "creator_",
          "type": "address"
        }
      ],
      "stateMutability": "view",
      "type": "function"
    },
    {
      "inputs": [
        {
          "internalType": "uint256",
          "name": "_typeId",
          "type": "uint256"
        }
      ],
      "name": "getExternalPositionLibForType",
      "outputs": [
        {
          "internalType": "address",
          "name": "externalPositionLib_",
          "type": "address"
        }
      ],
      "stateMutability": "view",
      "type": "function"
    },
    {
      "inputs": [],
      "name": "getExternalPositionManager",
      "outputs": [
        {
          "internalType": "address",
          "name": "externalPositionManager_",
          "type": "address"
        }
      ],
      "stateMutability": "view",
      "type": "function"
    },
    {
      "inputs": [],
      "name": "getFundDeployer",
      "outputs": [
        {
          "internalType": "address",
          "name": "fundDeployer_",
          "type": "address"
        }
      ],
      "stateMutability": "view",
      "type": "function"
    },
    {
      "inputs": [],
      "name": "getGasRelayPaymasterFactory",
      "outputs": [
        {
          "internalType": "address",
          "name": "gasRelayPaymasterFactory_",
          "type": "address"
        }
      ],
      "stateMutability": "view",
      "type": "function"
    },
    {
      "inputs": [],
      "name": "getGasRelayTrustedForwarder",
      "outputs": [
        {
          "internalType": "address",
          "name": "trustedForwarder_",
          "type": "address"
        }
      ],
      "stateMutability": "view",
      "type": "function"
    },
    {
      "inputs": [],
      "name": "getMigrator",
      "outputs": [
        {
          "internalType": "address",
          "name": "migrator_",
          "type": "address"
        }
      ],
      "stateMutability": "view",
      "type": "function"
    },
    {
      "inputs": [],
      "name": "getMlnToken",
      "outputs": [
        {
          "internalType": "address",
          "name": "mlnToken_",
          "type": "address"
        }
      ],
      "stateMutability": "view",
      "type": "function"
    },
    {
      "inputs": [],
      "name": "getNominatedOwner",
      "outputs": [
        {
          "internalType": "address",
          "name": "nominatedOwner_",
          "type": "address"
        }
      ],
      "stateMutability": "view",
      "type": "function"
    },
    {
      "inputs": [],
      "name": "getOwner",
      "outputs": [
        {
          "internalType": "address",
          "name": "owner_",
          "type": "address"
        }
      ],
      "stateMutability": "view",
      "type": "function"
    },
    {
      "inputs": [],
      "name": "getProtocolFeeReserve",
      "outputs": [
        {
          "internalType": "address",
          "name": "protocolFeeReserve_",
          "type": "address"
        }
      ],
      "stateMutability": "view",
      "type": "function"
    },
    {
      "inputs": [],
      "name": "getProtocolFeeTracker",
      "outputs": [
        {
          "internalType": "address",
          "name": "protocolFeeTracker_",
          "type": "address"
        }
      ],
      "stateMutability": "view",
      "type": "function"
    },
    {
      "inputs": [],
      "name": "getTrackedAssets",
      "outputs": [
        {
          "internalType": "address[]",
          "name": "trackedAssets_",
          "type": "address[]"
        }
      ],
      "stateMutability": "view",
      "type": "function"
    },
    {
      "inputs": [],
      "name": "getVaultLib",
      "outputs": [
        {
          "internalType": "address",
          "name": "vaultLib_",
          "type": "address"
        }
      ],
      "stateMutability": "view",
      "type": "function"
    },
    {
      "inputs": [],
      "name": "getWethToken",
      "outputs": [
        {
          "internalType": "address",
          "name": "wethToken_",
          "type": "address"
        }
      ],
      "stateMutability": "view",
      "type": "function"
    },
    {
      "inputs": [
        {
          "internalType": "address",
          "name": "_owner",
          "type": "address"
        },
        {
          "internalType": "address",
          "name": "_accessor",
          "type": "address"
        },
        {
          "internalType": "string",
          "name": "_fundName",
          "type": "string"
        }
      ],
      "name": "init",
      "outputs": [],
      "stateMutability": "nonpayable",
      "type": "function"
    },
    {
      "inputs": [
        {
          "internalType": "address",
          "name": "_externalPosition",
          "type": "address"
        }
      ],
      "name": "isActiveExternalPosition",
      "outputs": [
        {
          "internalType": "bool",
          "name": "isActiveExternalPosition_",
          "type": "bool"
        }
      ],
      "stateMutability": "view",
      "type": "function"
    },
    {
      "inputs": [
        {
          "internalType": "address",
          "name": "_who",
          "type": "address"
        }
      ],
      "name": "isAssetManager",
      "outputs": [
        {
          "internalType": "bool",
          "name": "isAssetManager_",
          "type": "bool"
        }
      ],
      "stateMutability": "view",
      "type": "function"
    },
    {
      "inputs": [
        {
          "internalType": "address",
          "name": "_asset",
          "type": "address"
        }
      ],
      "name": "isTrackedAsset",
      "outputs": [
        {
          "internalType": "bool",
          "name": "isTrackedAsset_",
          "type": "bool"
        }
      ],
      "stateMutability": "view",
      "type": "function"
    },
    {
      "inputs": [
        {
          "internalType": "address",
          "name": "_target",
          "type": "address"
        },
        {
          "internalType": "uint256",
          "name": "_amount",
          "type": "uint256"
        }
      ],
      "name": "mintShares",
      "outputs": [],
      "stateMutability": "nonpayable",
      "type": "function"
    },
    {
      "inputs": [],
      "name": "name",
      "outputs": [
        {
          "internalType": "string",
          "name": "",
          "type": "string"
        }
      ],
      "stateMutability": "view",
      "type": "function"
    },
    {
      "inputs": [],
      "name": "payProtocolFee",
      "outputs": [],
      "stateMutability": "nonpayable",
      "type": "function"
    },
    {
      "inputs": [],
      "name": "proxiableUUID",
      "outputs": [
        {
          "internalType": "bytes32",
          "name": "uuid_",
          "type": "bytes32"
        }
      ],
      "stateMutability": "pure",
      "type": "function"
    },
    {
      "inputs": [
        {
          "internalType": "enum IVault.VaultAction",
          "name": "_action",
          "type": "uint8"
        },
        {
          "internalType": "bytes",
          "name": "_actionData",
          "type": "bytes"
        }
      ],
      "name": "receiveValidatedVaultAction",
      "outputs": [],
      "stateMutability": "nonpayable",
      "type": "function"
    },
    {
      "inputs": [
        {
          "internalType": "address[]",
          "name": "_managers",
          "type": "address[]"
        }
      ],
      "name": "removeAssetManagers",
      "outputs": [],
      "stateMutability": "nonpayable",
      "type": "function"
    },
    {
      "inputs": [],
      "name": "removeNominatedOwner",
      "outputs": [],
      "stateMutability": "nonpayable",
      "type": "function"
    },
    {
      "inputs": [
        {
          "internalType": "address",
          "name": "_nextAccessor",
          "type": "address"
        }
      ],
      "name": "setAccessor",
      "outputs": [],
      "stateMutability": "nonpayable",
      "type": "function"
    },
    {
      "inputs": [
        {
          "internalType": "address",
          "name": "_nextAccessor",
          "type": "address"
        }
      ],
      "name": "setAccessorForFundReconfiguration",
      "outputs": [],
      "stateMutability": "nonpayable",
      "type": "function"
    },
    {
      "inputs": [],
      "name": "setFreelyTransferableShares",
      "outputs": [],
      "stateMutability": "nonpayable",
      "type": "function"
    },
    {
      "inputs": [
        {
          "internalType": "address",
          "name": "_nextMigrator",
          "type": "address"
        }
      ],
      "name": "setMigrator",
      "outputs": [],
      "stateMutability": "nonpayable",
      "type": "function"
    },
    {
      "inputs": [
        {
          "internalType": "address",
          "name": "_nextNominatedOwner",
          "type": "address"
        }
      ],
      "name": "setNominatedOwner",
      "outputs": [],
      "stateMutability": "nonpayable",
      "type": "function"
    },
    {
      "inputs": [
        {
          "internalType": "address",
          "name": "_nextVaultLib",
          "type": "address"
        }
      ],
      "name": "setVaultLib",
      "outputs": [],
      "stateMutability": "nonpayable",
      "type": "function"
    },
    {
      "inputs": [],
      "name": "sharesAreFreelyTransferable",
      "outputs": [
        {
          "internalType": "bool",
          "name": "sharesAreFreelyTransferable_",
          "type": "bool"
        }
      ],
      "stateMutability": "view",
      "type": "function"
    },
    {
      "inputs": [],
      "name": "symbol",
      "outputs": [
        {
          "internalType": "string",
          "name": "symbol_",
          "type": "string"
        }
      ],
      "stateMutability": "view",
      "type": "function"
    },
    {
      "inputs": [],
      "name": "totalSupply",
      "outputs": [
        {
          "internalType": "uint256",
          "name": "",
          "type": "uint256"
        }
      ],
      "stateMutability": "view",
      "type": "function"
    },
    {
      "inputs": [
        {
          "internalType": "address",
          "name": "_recipient",
          "type": "address"
        },
        {
          "internalType": "uint256",
          "name": "_amount",
          "type": "uint256"
        }
      ],
      "name": "transfer",
      "outputs": [
        {
          "internalType": "bool",
          "name": "success_",
          "type": "bool"
        }
      ],
      "stateMutability": "nonpayable",
      "type": "function"
    },
    {
      "inputs": [
        {
          "internalType": "address",
          "name": "_sender",
          "type": "address"
        },
        {
          "internalType": "address",
          "name": "_recipient",
          "type": "address"
        },
        {
          "internalType": "uint256",
          "name": "_amount",
          "type": "uint256"
        }
      ],
      "name": "transferFrom",
      "outputs": [
        {
          "internalType": "bool",
          "name": "success_",
          "type": "bool"
        }
      ],
      "stateMutability": "nonpayable",
      "type": "function"
    },
    {
      "inputs": [
        {
          "internalType": "address",
          "name": "_from",
          "type": "address"
        },
        {
          "internalType": "address",
          "name": "_to",
          "type": "address"
        },
        {
          "internalType": "uint256",
          "name": "_amount",
          "type": "uint256"
        }
      ],
      "name": "transferShares",
      "outputs": [],
      "stateMutability": "nonpayable",
      "type": "function"
    },
    {
      "inputs": [
        {
          "internalType": "address",
          "name": "_asset",
          "type": "address"
        },
        {
          "internalType": "address",
          "name": "_target",
          "type": "address"
        },
        {
          "internalType": "uint256",
          "name": "_amount",
          "type": "uint256"
        }
      ],
      "name": "withdrawAssetTo",
      "outputs": [],
      "stateMutability": "nonpayable",
      "type": "function"
    },
    {
      "stateMutability": "payable",
      "type": "receive"
    }
  ],
  "transactionHash": "0xf7fd79f1c31d47efc52d0e33ab82714f0e39ababb12161e8cbee050256f1e213",
  "args": [
    "0x2B64822cf4bbDd77d386F51AA2B40c5cdbeb80b5",
    "0x221416CFa5A3CD92035E537ded1dD12d4d587c03",
    "0x1966dc8ff30Bc4AeDEd27178642253b3cCC9AA3f",
    "0xDe1112a0960B9619da7F91D51fB571cdefE48B5E",
    "0xec67005c4E498Ec7f55E092bd1d35cbC47C91892",
    "0xc02aaa39b223fe8d0a0e5c4f27ead9083c756cc2"
  ],
  "solcInputHash": "bf82b92434eb8ee1ebfebd70a344c57e",
  "bytecode": "0x61014060405234801561001157600080fd5b506040516200483638038062004836833981810160405260c081101561003657600080fd5b5080516020820151604083015160608085015160808087015160a0978801516001600160601b031996851b871690925295831b851690965293811b831660c05290811b821660e05291821b81166101005291901b166101205260805160601c60a05160601c60c05160601c60e05160601c6101005160601c6101205160601c61474b620000eb60003980610e9552508061203b52508061289d5250806128ec525080612647525080612623525061474b6000f3fe6080604052600436106103395760003560e01c8063712bd102116101ab578063a9059cbb116100f7578063c4b9737011610095578063da41962e1161006f578063da41962e14610df5578063dd62ed3e14610e0a578063e70e605e14610e45578063ee7a7c0414610e5a576103d4565b8063c4b9737014610db6578063cd63d57814610dcb578063d5c20fa214610de0576103d4565b8063ac259456116100d1578063ac25945614610ce4578063b3fc38e914610cf9578063b8b7f14714610d0e578063bfc77beb14610d73576103d4565b8063a9059cbb14610bed578063a90cce4b14610c26578063ab9253ac14610cb1576103d4565b8063797ed339116101645780638156eecf1161013e5780638156eecf14610b99578063893d20e814610bae57806395d89b4114610bc357806397c0ac8714610bd8576103d4565b8063797ed33914610b1e5780637c81ac2d14610b515780637de07cea14610b66576103d4565b8063712bd10214610a13578063714ca2d114610a46578063728e17a014610a79578063740f2b5a14610aac578063749cc8f514610adf57806375d8bb0e14610af4576103d4565b80634140d607116102855780635a53e3481161022357806364cb36cb116101fd57806364cb36cb1461093b578063682cea19146109b65780636ea21143146109cb57806370a08231146109e0576103d4565b80635a53e3481461085f5780635c9a6d37146108745780636487aa1114610908576103d4565b80634e71e0c81161025f5780634e71e0c8146107c95780634ef0762e146107de578063528c198a1461081157806352d1902d1461084a576103d4565b80634140d6071461073e578063495d753c146107715780634c252f91146107b4576103d4565b806323cf3118116102f257806328c2ad9c116102cc57806328c2ad9c14610650578063313ce5671461066557806336861889146106905780633e11553d146106c3576103d4565b806323cf31181461058357806324e60012146105b6578063288b6a361461063b576103d4565b806306fdde03146103d9578063095ea7b3146104635780630ee2cb10146104b057806318160ddd146104e15780631ff46bfa1461050857806323b872dd14610540576103d4565b366103d4573031610348610e93565b6001600160a01b031663d0e30db0826040518263ffffffff1660e01b81526004016000604051808303818588803b15801561038257600080fd5b505af1158015610396573d6000803e3d6000fd5b50506040805185815290513394507f85177f287940f2f05425a4029951af0e047a7f9c4eaa9a6e6917bcd869f866959350908190036020019150a250005b600080fd5b3480156103e557600080fd5b506103ee610eb8565b6040805160208082528351818301528351919283929083019185019080838360005b83811015610428578181015183820152602001610410565b50505050905090810190601f1680156104555780820380516001836020036101000a031916815260200191505b509250505060405180910390f35b34801561046f57600080fd5b5061049c6004803603604081101561048657600080fd5b506001600160a01b038135169060200135610f4e565b604080519115158252519081900360200190f35b3480156104bc57600080fd5b506104c5610f64565b604080516001600160a01b039092168252519081900360200190f35b3480156104ed57600080fd5b506104f6610f73565b60408051918252519081900360200190f35b34801561051457600080fd5b5061053e6004803603606081101561052b57600080fd5b5080359060208101359060400135610f79565b005b34801561054c57600080fd5b5061049c6004803603606081101561056357600080fd5b506001600160a01b03813581169160208101359091169060400135611118565b34801561058f57600080fd5b5061053e600480360360208110156105a657600080fd5b50356001600160a01b031661113a565b3480156105c257600080fd5b5061053e600480360360408110156105d957600080fd5b60ff8235169190810190604081016020820135600160201b8111156105fd57600080fd5b82018360208201111561060f57600080fd5b803590602001918460018302840111600160201b8311171561063057600080fd5b509092509050611258565b34801561064757600080fd5b506104c56115e4565b34801561065c57600080fd5b5061049c6115f8565b34801561067157600080fd5b5061067a611601565b6040805160ff9092168252519081900360200190f35b34801561069c57600080fd5b5061049c600480360360208110156106b357600080fd5b50356001600160a01b0316611606565b3480156106cf57600080fd5b5061053e600480360360208110156106e657600080fd5b810190602081018135600160201b81111561070057600080fd5b82018360208201111561071257600080fd5b803590602001918460208302840111600160201b8311171561073357600080fd5b50909250905061165c565b34801561074a57600080fd5b5061053e6004803603602081101561076157600080fd5b50356001600160a01b03166117dc565b34801561077d57600080fd5b5061053e6004803603606081101561079457600080fd5b506001600160a01b03813581169160208101359091169060400135611883565b3480156107c057600080fd5b506104c5610e93565b3480156107d557600080fd5b5061053e6118d7565b3480156107ea57600080fd5b5061053e6004803603602081101561080157600080fd5b50356001600160a01b0316611989565b34801561081d57600080fd5b5061053e6004803603604081101561083457600080fd5b506001600160a01b0381351690602001356119de565b34801561085657600080fd5b506104f6611a35565b34801561086b57600080fd5b506104c5611a59565b34801561088057600080fd5b5061053e6004803603606081101561089757600080fd5b6001600160a01b038235811692602081013590911691810190606081016040820135600160201b8111156108ca57600080fd5b8201836020820111156108dc57600080fd5b803590602001918460018302840111600160201b831117156108fd57600080fd5b509092509050611a68565b34801561091457600080fd5b5061049c6004803603602081101561092b57600080fd5b50356001600160a01b0316611b56565b34801561094757600080fd5b5061053e6004803603602081101561095e57600080fd5b810190602081018135600160201b81111561097857600080fd5b82018360208201111561098a57600080fd5b803590602001918460208302840111600160201b831117156109ab57600080fd5b509092509050611b74565b3480156109c257600080fd5b506104c5611cde565b3480156109d757600080fd5b506104c5611d03565b3480156109ec57600080fd5b506104f660048036036020811015610a0357600080fd5b50356001600160a01b0316611de4565b348015610a1f57600080fd5b5061049c60048036036020811015610a3657600080fd5b50356001600160a01b0316611dff565b348015610a5257600080fd5b5061049c60048036036020811015610a6957600080fd5b50356001600160a01b0316611e1d565b348015610a8557600080fd5b5061053e60048036036020811015610a9c57600080fd5b50356001600160a01b0316611e4a565b348015610ab857600080fd5b5061053e60048036036020811015610acf57600080fd5b50356001600160a01b0316611fd9565b348015610aeb57600080fd5b506104c5612039565b348015610b0057600080fd5b506104c560048036036020811015610b1757600080fd5b503561205d565b348015610b2a57600080fd5b5061049c60048036036020811015610b4157600080fd5b50356001600160a01b03166120dc565b348015610b5d57600080fd5b5061053e6120fa565b348015610b7257600080fd5b5061049c60048036036020811015610b8957600080fd5b50356001600160a01b03166121cf565b348015610ba557600080fd5b5061053e6121fe565b348015610bba57600080fd5b506104c56122ec565b348015610bcf57600080fd5b506103ee6122fb565b348015610be457600080fd5b506104c561242f565b348015610bf957600080fd5b5061049c60048036036040811015610c1057600080fd5b506001600160a01b03813516906020013561247a565b348015610c3257600080fd5b506103ee60048036036040811015610c4957600080fd5b6001600160a01b038235169190810190604081016020820135600160201b811115610c7357600080fd5b820183602082011115610c8557600080fd5b803590602001918460018302840111600160201b83111715610ca657600080fd5b509092509050612491565b348015610cbd57600080fd5b5061053e60048036036020811015610cd457600080fd5b50356001600160a01b03166125d8565b348015610cf057600080fd5b506104c5612621565b348015610d0557600080fd5b506104c5612645565b348015610d1a57600080fd5b50610d23612669565b60408051602080825283518183015283519192839290830191858101910280838360005b83811015610d5f578181015183820152602001610d47565b505050509050019250505060405180910390f35b348015610d7f57600080fd5b5061053e60048036036060811015610d9657600080fd5b506001600160a01b038135811691602081013590911690604001356126ca565b348015610dc257600080fd5b50610d2361271e565b348015610dd757600080fd5b506104c561277e565b348015610dec57600080fd5b5061053e61278d565b348015610e0157600080fd5b506104c561289b565b348015610e1657600080fd5b506104f660048036036040811015610e2d57600080fd5b506001600160a01b03813581169160200135166128bf565b348015610e5157600080fd5b506104c56128ea565b348015610e6657600080fd5b5061053e60048036036040811015610e7d57600080fd5b506001600160a01b03813516906020013561290e565b7f00000000000000000000000000000000000000000000000000000000000000005b90565b60008054604080516020601f6002600019610100600188161502019095169490940493840181900481028201810190925282815260609390929091830182828015610f445780601f10610f1957610100808354040283529160200191610f44565b820191906000526020600020905b815481529060010190602001808311610f2757829003601f168201915b5050505050905090565b6000610f5b338484612961565b50600192915050565b6006546001600160a01b031690565b60025490565b6005546001600160a01b03163314610fc25760405162461bcd60e51b815260040180806020018281038252602f815260200180614409602f913960400191505060405180910390fd5b6000610fcc61289b565b6001600160a01b03166396c45aec8585856040518463ffffffff1660e01b8152600401808481526020018381526020018281526020019350505050602060405180830381600087803b15801561102157600080fd5b505af1158015611035573d6000803e3d6000fd5b505050506040513d602081101561104b57600080fd5b505190508061105a5750611113565b61106b61106561289b565b85612a4d565b6110736128ea565b6001600160a01b03166342966c68826040518263ffffffff1660e01b815260040180828152602001915050600060405180830381600087803b1580156110b857600080fd5b505af11580156110cc573d6000803e3d6000fd5b5050604080518781526020810187905280820185905290517ff8c67da77ed4cb50a4dec91c60cf78ee219033bd3c55a86d133178c557c2d2cf9350908190036060019150a1505b505050565b6000611125848484612b3d565b611130848484612c2e565b90505b9392505050565b6008546001600160a01b031661114e612c97565b6001600160a01b0316146111935760405162461bcd60e51b81526004018080602001828103825260258152602001806141c56025913960400191505060405180910390fd5b6007546001600160a01b039081169082168114156111f8576040805162461bcd60e51b815260206004820152601e60248201527f7365744d69677261746f723a2056616c756520616c7265616479207365740000604482015290519081900360640190fd5b600780546001600160a01b0319166001600160a01b03848116918217909255604080519284168352602083019190915280517f9d0761a1fa4d686cd87f8dbf8ca52f90cf19c3c4dc36e66ebbf08fc5ba203f2c9281900390910190a15050565b6005546001600160a01b031633146112a15760405162461bcd60e51b815260040180806020018281038252602f815260200180614409602f913960400191505060405180910390fd5b600883600a8111156112af57fe5b14156112f9576112f482828080601f016020809104026020016040519081016040528093929190818152602001838380828437600092019190915250612cdb92505050565b611113565b600483600a81111561130757fe5b141561134c576112f482828080601f016020809104026020016040519081016040528093929190818152602001838380828437600092019190915250612cfa92505050565b600583600a81111561135a57fe5b141561139f576112f482828080601f016020809104026020016040519081016040528093929190818152602001838380828437600092019190915250612d1992505050565b600183600a8111156113ad57fe5b14156113f2576112f482828080601f016020809104026020016040519081016040528093929190818152602001838380828437600092019190915250612d5a92505050565b600983600a81111561140057fe5b1415611445576112f482828080601f016020809104026020016040519081016040528093929190818152602001838380828437600092019190915250612d8a92505050565b600283600a81111561145357fe5b1415611498576112f482828080601f01602080910402602001604051908101604052809392919081815260200183838082843760009201919091525061300d92505050565b600a83600a8111156114a657fe5b14156114eb576112f482828080601f01602080910402602001604051908101604052809392919081815260200183838082843760009201919091525061303d92505050565b600683600a8111156114f957fe5b141561153e576112f482828080601f01602080910402602001604051908101604052809392919081815260200183838082843760009201919091525061305c92505050565b600383600a81111561154c57fe5b1415611591576112f482828080601f01602080910402602001604051908101604052809392919081815260200183838082843760009201919091525061307b92505050565b600783600a81111561159f57fe5b14156111135761111382828080601f0160208091040260200160405190810160405280939291908181526020018383808284376000920191909152506130b692505050565b600b5461010090046001600160a01b031690565b600b5460ff1690565b601290565b60006116106122ec565b6001600160a01b0316826001600160a01b03161480611633575061163382611b56565b80611656575061164161277e565b6001600160a01b0316826001600160a01b0316145b92915050565b6008546001600160a01b0316611670612c97565b6001600160a01b0316146116b55760405162461bcd60e51b81526004018080602001828103825260258152602001806141c56025913960400191505060405180910390fd5b60005b81811015611113576116e48383838181106116cf57fe5b905060200201356001600160a01b0316611b56565b156117205760405162461bcd60e51b815260040180806020018281038252602c815260200180614282602c913960400191505060405180910390fd5b6001600d600085858581811061173257fe5b905060200201356001600160a01b03166001600160a01b03166001600160a01b0316815260200190815260200160002060006101000a81548160ff0219169083151502179055507f8cf4dd2d46ca2e74b9cc238f9e9c907b5a6a50e2f652162a062d5e8129f35d7a8383838181106117a657fe5b905060200201356001600160a01b031660405180826001600160a01b0316815260200191505060405180910390a16001016116b8565b6006546001600160a01b031633146118255760405162461bcd60e51b81526004018080602001828103825260328152602001806143af6032913960400191505060405180910390fd5b600061182f611cde565b905061183a826130f1565b604080516001600160a01b0380841682528416602082015281517fe504a0278c9d64c1a72d2f528a0c5e3686e093fcd478b3b1224a5c6983207df6929181900390910190a15050565b6005546001600160a01b031633146118cc5760405162461bcd60e51b815260040180806020018281038252602f815260200180614409602f913960400191505060405180910390fd5b6111138383836131d7565b600b5461010090046001600160a01b03163381146119265760405162461bcd60e51b815260040180806020018281038252603e8152602001806145c8603e913960400191505060405180910390fd5b600b8054610100600160a81b0319169055600880546001600160a01b038381166001600160a01b0319831681179093556040519116919082907f8be0079c531659141344cd1fd0a4f28419497f9722a3daafe3b4186f6b6457e090600090a35050565b6005546001600160a01b031633146119d25760405162461bcd60e51b815260040180806020018281038252602f815260200180614409602f913960400191505060405180910390fd5b6119db81613292565b50565b6005546001600160a01b03163314611a275760405162461bcd60e51b815260040180806020018281038252602f815260200180614409602f913960400191505060405180910390fd5b611a31828261339b565b5050565b7f027b9570e9fedc1a80b937ae9a06861e5faef3992491af30b684a64b3fbec7a590565b6005546001600160a01b031690565b6006546001600160a01b031615611ac6576040805162461bcd60e51b815260206004820152601f60248201527f696e69743a2050726f787920616c726561647920696e697469616c697a656400604482015290519081900360640190fd5b600680546001600160a01b03191633179055611ae460008383614131565b50611aee83613481565b611af784613529565b7fe504a0278c9d64c1a72d2f528a0c5e3686e093fcd478b3b1224a5c6983207df66000611b22611cde565b60405180836001600160a01b03168152602001826001600160a01b031681526020019250505060405180910390a150505050565b6001600160a01b03166000908152600d602052604090205460ff1690565b6008546001600160a01b0316611b88612c97565b6001600160a01b031614611bcd5760405162461bcd60e51b81526004018080602001828103825260258152602001806141c56025913960400191505060405180910390fd5b60005b8181101561111357611be78383838181106116cf57fe5b611c225760405162461bcd60e51b815260040180806020018281038252602b8152602001806146b5602b913960400191505060405180910390fd5b6000600d6000858585818110611c3457fe5b905060200201356001600160a01b03166001600160a01b03166001600160a01b0316815260200190815260200160002060006101000a81548160ff0219169083151502179055507f1a3f6d43a85364a6a2d8297f0cd634e060a6ef9bc11b3a0c89e47d40b89c2f7e838383818110611ca857fe5b905060200201356001600160a01b031660405180826001600160a01b0316815260200191505060405180910390a1600101611bd0565b7f360894a13ba1a3210667c828492db98dca3e2076cc3735a920a3ca505d382bbc5490565b6000611d0d612621565b6001600160a01b03166398a7c4c76040518163ffffffff1660e01b815260040160206040518083038186803b158015611d4557600080fd5b505afa158015611d59573d6000803e3d6000fd5b505050506040513d6020811015611d6f57600080fd5b505160408051637da0a87760e01b815290516001600160a01b0390921691637da0a87791600480820192602092909190829003018186803b158015611db357600080fd5b505afa158015611dc7573d6000803e3d6000fd5b505050506040513d6020811015611ddd57600080fd5b5051905090565b6001600160a01b031660009081526003602052604090205490565b6001600160a01b03166000908152600e602052604090205460ff1690565b6000611e276122ec565b6001600160a01b0316826001600160a01b03161480611656575061165682611b56565b6008546001600160a01b0316611e5e612c97565b6001600160a01b031614611ea35760405162461bcd60e51b81526004018080602001828103825260258152602001806141c56025913960400191505060405180910390fd5b6001600160a01b038116611ee85760405162461bcd60e51b81526004018080602001828103825260368152602001806143796036913960400191505060405180910390fd5b6008546001600160a01b0382811691161415611f355760405162461bcd60e51b815260040180806020018281038252603b8152602001806144ae603b913960400191505060405180910390fd5b600b546001600160a01b03828116610100909204161415611f875760405162461bcd60e51b815260040180806020018281038252603b81526020018061453c603b913960400191505060405180910390fd5b600b8054610100600160a81b0319166101006001600160a01b038416908102919091179091556040517f132c19de901bb4ed8403c34734b6c841d5dc57745824da452a52433519ea5abf90600090a250565b611fe161242f565b6001600160a01b0316336001600160a01b0316146120305760405162461bcd60e51b81526004018080602001828103825260288152602001806143e16028913960400191505060405180910390fd5b6119db81613481565b7f000000000000000000000000000000000000000000000000000000000000000090565b6000612067612645565b6001600160a01b03166375d8bb0e836040518263ffffffff1660e01b81526004018082815260200191505060206040518083038186803b1580156120aa57600080fd5b505afa1580156120be573d6000803e3d6000fd5b505050506040513d60208110156120d457600080fd5b505192915050565b6001600160a01b03166000908152600a602052604090205460ff1690565b6008546001600160a01b031661210e612c97565b6001600160a01b0316146121535760405162461bcd60e51b81526004018080602001828103825260258152602001806141c56025913960400191505060405180910390fd5b61215b6115f8565b156121975760405162461bcd60e51b815260040180806020018281038252602881526020018061468d6028913960400191505060405180910390fd5b600b805460ff191660011790556040517f505ab4202e673074a7b93ec3c2ca442c3526a42232835c56d223bd09672c5b0d90600090a1565b6008546000906001600160a01b03838116911614806116565750506007546001600160a01b0390811691161490565b6008546001600160a01b0316612212612c97565b6001600160a01b0316146122575760405162461bcd60e51b81526004018080602001828103825260258152602001806141c56025913960400191505060405180910390fd5b600b5461010090046001600160a01b0316806122a45760405162461bcd60e51b81526004018080602001828103825260318152602001806143486031913960400191505060405180910390fd5b600b8054610100600160a81b03191690556040516001600160a01b038216907fe4136584a5e8bb85d66301f3ce8b11cc2e5a8bea3979f10ea2451353849acc4790600090a250565b6008546001600160a01b031690565b60065460408051625a3d8360e91b815290516060926001600160a01b03169163b47b0600916004808301926000929190829003018186803b15801561233f57600080fd5b505afa158015612353573d6000803e3d6000fd5b505050506040513d6000823e601f3d908101601f19168201604052602081101561237c57600080fd5b8101908080516040519392919084600160201b82111561239b57600080fd5b9083019060208201858111156123b057600080fd5b8251600160201b8111828201881017156123c957600080fd5b82525081516020918201929091019080838360005b838110156123f65781810151838201526020016123de565b50505050905090810190601f1680156124235780820380516001836020036101000a031916815260200191505b50604052505050905090565b600654604080516307af8e9f60e31b815230600482015290516000926001600160a01b031691633d7c74f8916024808301926020929190829003018186803b158015611db357600080fd5b6000612487338484612b3d565b611133838361361d565b6005546060906001600160a01b031633146124dd5760405162461bcd60e51b815260040180806020018281038252602f815260200180614409602f913960400191505060405180910390fd5b6000846001600160a01b03168484604051808383808284376040519201945060009350909150508083038183865af19150503d806000811461253b576040519150601f19603f3d011682016040523d82523d6000602084013e612540565b606091505b509250905081816125cf5760405162461bcd60e51b81526004018080602001828103825283818151815260200191508051906020019080838360005b8381101561259457818101518382015260200161257c565b50505050905090810190601f1680156125c15780820380516001836020036101000a031916815260200191505b509250505060405180910390fd5b50509392505050565b6006546001600160a01b031633146120305760405162461bcd60e51b81526004018080602001828103825260328152602001806144e96032913960400191505060405180910390fd5b7f000000000000000000000000000000000000000000000000000000000000000090565b7f000000000000000000000000000000000000000000000000000000000000000090565b6060600c805480602002602001604051908101604052809291908181526020018280548015610f4457602002820191906000526020600020905b81546001600160a01b031681526001909101906020018083116126a3575050505050905090565b6005546001600160a01b031633146127135760405162461bcd60e51b815260040180806020018281038252602f815260200180614409602f913960400191505060405180910390fd5b611113838383613626565b60606009805480602002602001604051908101604052809291908181526020018280548015610f44576020028201919060005260206000209081546001600160a01b031681526001909101906020018083116126a3575050505050905090565b6007546001600160a01b031690565b6005546001600160a01b031633146127d65760405162461bcd60e51b815260040180806020018281038252602f815260200180614409602f913960400191505060405180910390fd5b60006127e0612039565b6001600160a01b031663296102526040518163ffffffff1660e01b8152600401602060405180830381600087803b15801561281a57600080fd5b505af115801561282e573d6000803e3d6000fd5b505050506040513d602081101561284457600080fd5b50519050806128535750612899565b61286461285e61289b565b8261339b565b6040805182815290517f390f4e733d9d6104fbfb7508fdaf57640ea4179603e995d21027fda40e2576979181900360200190a1505b565b7f000000000000000000000000000000000000000000000000000000000000000090565b6001600160a01b03918216600090815260046020908152604080832093909416825291909152205490565b7f000000000000000000000000000000000000000000000000000000000000000090565b6005546001600160a01b031633146129575760405162461bcd60e51b815260040180806020018281038252602f815260200180614409602f913960400191505060405180910390fd5b611a318282612a4d565b6001600160a01b0383166129a65760405162461bcd60e51b815260040180806020018281038252602481526020018061463f6024913960400191505060405180910390fd5b6001600160a01b0382166129eb5760405162461bcd60e51b81526004018080602001828103825260228152602001806142606022913960400191505060405180910390fd5b6001600160a01b03808416600081815260046020908152604080832094871680845294825291829020859055815185815291517f8c5be1e5ebec7d5bd14f71427d1e84f3dd0314c0f7b2291e5b200ac8c7c3b9259281900390910190a3505050565b6001600160a01b038216612a925760405162461bcd60e51b815260040180806020018281038252602181526020018061451b6021913960400191505060405180910390fd5b612acf8160405180606001604052806022815260200161420d602291396001600160a01b0385166000908152600360205260409020549190613778565b6001600160a01b038316600090815260036020526040902055600254612af590826137d2565b6002556040805182815290516000916001600160a01b038516917fddf252ad1be2c89b69c2b068fc378daa952ba7f163c4a11628f55a4df523b3ef9181900360200190a35050565b612b456115f8565b15612bb45760055460408051631f3abfcf60e31b81526001600160a01b0386811660048301529151919092169163f9d5fe78916024808301926000929190829003018186803b158015612b9757600080fd5b505afa158015612bab573d6000803e3d6000fd5b50505050611113565b60055460408051630979029360e11b81526001600160a01b038681166004830152858116602483015260448201859052915191909216916312f2052691606480830192600092919082900301818387803b158015612c1157600080fd5b505af1158015612c25573d6000803e3d6000fd5b50505050505050565b6000612c3b848484613626565b612c8d8433612c8885604051806060016040528060288152602001614438602891396001600160a01b038a1660009081526004602090815260408083203384529091529020549190613778565b612961565b5060019392505050565b600060183610801590612cc25750612cad611d03565b6001600160a01b0316336001600160a01b0316145b15612cd6575060131936013560601c610eb5565b503390565b6119db818060200190516020811015612cf357600080fd5b50516137f7565b6119db818060200190516020811015612d1257600080fd5b5051613292565b6000806000838060200190516060811015612d3357600080fd5b50805160208201516040909201519094509092509050612d54838383613898565b50505050565b600080828060200190516040811015612d7257600080fd5b50805160209091015190925090506111138282612a4d565b60006060806060808580602001905160a0811015612da757600080fd5b815160208301805160405192949293830192919084600160201b821115612dcd57600080fd5b908301906020820185811115612de257600080fd5b8251600160201b811182820188101715612dfb57600080fd5b82525081516020918201929091019080838360005b83811015612e28578181015183820152602001612e10565b50505050905090810190601f168015612e555780820380516001836020036101000a031916815260200191505b5060405260200180516040519392919084600160201b821115612e7757600080fd5b908301906020820185811115612e8c57600080fd5b82518660208202830111600160201b82111715612ea857600080fd5b82525081516020918201928201910280838360005b83811015612ed5578181015183820152602001612ebd565b5050505090500160405260200180516040519392919084600160201b821115612efd57600080fd5b908301906020820185811115612f1257600080fd5b82518660208202830111600160201b82111715612f2e57600080fd5b82525081516020918201928201910280838360005b83811015612f5b578181015183820152602001612f43565b5050505090500160405260200180516040519392919084600160201b821115612f8357600080fd5b908301906020820185811115612f9857600080fd5b82518660208202830111600160201b82111715612fb457600080fd5b82525081516020918201928201910280838360005b83811015612fe1578181015183820152602001612fc9565b505050509050016040525050509450945094509450945061300585858585856139a5565b505050505050565b60008082806020019051604081101561302557600080fd5b5080516020909101519092509050611113828261339b565b6119db81806020019051602081101561305557600080fd5b5051613b1d565b6119db81806020019051602081101561307457600080fd5b5051613b8e565b600080600083806020019051606081101561309557600080fd5b50805160208201516040909201519094509092509050612d54838383613626565b60008060008380602001905160608110156130d057600080fd5b50805160208201516040909201519094509092509050612d548383836131d7565b806001600160a01b03166352d1902d6040518163ffffffff1660e01b815260040160206040518083038186803b15801561312a57600080fd5b505afa15801561313e573d6000803e3d6000fd5b505050506040513d602081101561315457600080fd5b50517f027b9570e9fedc1a80b937ae9a06861e5faef3992491af30b684a64b3fbec7a5146131b35760405162461bcd60e51b815260040180806020018281038252603181526020018061422f6031913960400191505060405180910390fd5b7f360894a13ba1a3210667c828492db98dca3e2076cc3735a920a3ca505d382bbc55565b826001600160a01b03811630141561322d576040805162461bcd60e51b815260206004820152601460248201527343616e6e6f7420616374206f6e2073686172657360601b604482015290519081900360640190fd5b6132416001600160a01b0385168484613c07565b826001600160a01b0316846001600160a01b03167f6f9cbac839b826cc524f53d10416c053fce34ec15fd1001720e777cc49720e76846040518082815260200191505060405180910390a350505050565b806001600160a01b0381163014156132e8576040805162461bcd60e51b815260206004820152601460248201527343616e6e6f7420616374206f6e2073686172657360601b604482015290519081900360640190fd5b6132f1826120dc565b611a31576132fd613c59565b6001600160a01b0382166000818152600a60209081526040808320805460ff191660019081179091556009805491820181559093527f6e1540171b6c0c960b71a7020d9f60077f6af931a8bbf590da0223dacf75c7af90920180546001600160a01b03191684179055815192835290517fa0d2bfad19dc0c6970d2a2fcff65458a6d7c4fa3b6d904f44961b2c744bdf5919281900390910190a15050565b6001600160a01b0382166133f6576040805162461bcd60e51b815260206004820152601f60248201527f45524332303a206d696e7420746f20746865207a65726f206164647265737300604482015290519081900360640190fd5b6002546134039082613c9f565b6002556001600160a01b0382166000908152600360205260409020546134299082613c9f565b6001600160a01b03831660008181526003602090815260408083209490945583518581529351929391927fddf252ad1be2c89b69c2b068fc378daa952ba7f163c4a11628f55a4df523b3ef9281900390910190a35050565b6001600160a01b0381166134c65760405162461bcd60e51b815260040180806020018281038252602c81526020018061459c602c913960400191505060405180910390fd5b600580546001600160a01b038381166001600160a01b0319831681179093556040805191909216808252602082019390935281517fb5a9def940973a936e331170816650368964b0602957d4bc60f5ddc2dc1b69cd929181900390910190a15050565b6001600160a01b03811661356e5760405162461bcd60e51b81526004018080602001828103825260268152602001806142d46026913960400191505060405180910390fd5b6008546001600160a01b039081169082168114156135bd5760405162461bcd60e51b815260040180806020018281038252602b815260200180614483602b913960400191505060405180910390fd5b600880546001600160a01b0319166001600160a01b03848116918217909255604080519284168352602083019190915280517f342827c97908e5e2f71151c08502a66d44b6f758e3ac2f1de95f02eb95f0a7359281900390910190a15050565b6000610f5b3384845b6001600160a01b03831661366b5760405162461bcd60e51b81526004018080602001828103825260258152602001806145776025913960400191505060405180910390fd5b6001600160a01b0382166136b05760405162461bcd60e51b81526004018080602001828103825260238152602001806141ea6023913960400191505060405180910390fd5b6136ed816040518060600160405280602681526020016142ae602691396001600160a01b0386166000908152600360205260409020549190613778565b6001600160a01b03808516600090815260036020526040808220939093559084168152205461371c9082613c9f565b6001600160a01b0380841660008181526003602090815260409182902094909455805185815290519193928716927fddf252ad1be2c89b69c2b068fc378daa952ba7f163c4a11628f55a4df523b3ef92918290030190a3505050565b600081848411156137ca5760405162461bcd60e51b815260206004820181815283516024840152835190928392604490910191908501908083836000831561259457818101518382015260200161257c565b505050900390565b6000611133838360405180606001604052806026815260200161432260269139613778565b61380081611dff565b6119db5761380c613c59565b6001600160a01b0381166000818152600e6020526040808220805460ff19166001908117909155600c8054918201815583527fdf6966c971051c3d54ec59162606531493a51404a002842f56009d7e5cf4a8c70180546001600160a01b03191684179055517f07524f5de87a754cb09f25965c3355b50dfece5fa624111739d5bf5caa05ebe69190a250565b826001600160a01b0381163014156138ee576040805162461bcd60e51b815260206004820152601460248201527343616e6e6f7420616374206f6e2073686172657360601b604482015290519081900360640190fd5b60408051636eb1769f60e11b81523060048201526001600160a01b038581166024830152915186926000929084169163dd62ed3e91604480820192602092909190829003018186803b15801561394357600080fd5b505afa158015613957573d6000803e3d6000fd5b505050506040513d602081101561396d57600080fd5b5051111561398a5761398a6001600160a01b038216856000613ce3565b61399e6001600160a01b0382168585613ce3565b5050505050565b6139ae85611dff565b6139e95760405162461bcd60e51b81526004018080602001828103825260398152602001806146066039913960400191505060405180910390fd5b60005b8351811015613a2e57613a26848281518110613a0457fe5b602002602001015187858481518110613a1957fe5b60200260200101516131d7565b6001016139ec565b5060405163e5c23a9760e01b81526020600482018181528651602484015286516001600160a01b0389169363e5c23a979389939283926044019185019080838360005b83811015613a89578181015183820152602001613a71565b50505050905090810190601f168015613ab65780820380516001836020036101000a031916815260200191505b5092505050600060405180830381600087803b158015613ad557600080fd5b505af1158015613ae9573d6000803e3d6000fd5b5050505060005b815181101561300557613b15828281518110613b0857fe5b6020026020010151613292565b600101613af0565b613b2681611dff565b156119db576001600160a01b0381166000908152600e60205260409020805460ff19169055613b56600c82613df6565b506040516001600160a01b038216907f5af401380f7c5a87ba294191b430d5c1c6dcc133c1d774c092cb0d6a52e20bef90600090a250565b613b97816120dc565b156119db576001600160a01b0381166000908152600a60205260409020805460ff19169055613bc7600982613df6565b50604080516001600160a01b038316815290517f22c4fcf23b40d39b02733ec19a3975b31172f2a5b2ce5d0f1831525276cd71569181900360200190a150565b604080516001600160a01b038416602482015260448082018490528251808303909101815260649091019091526020810180516001600160e01b031663a9059cbb60e01b179052611113908490613eee565b600c5460095460149101106128995760405162461bcd60e51b81526004018080602001828103825260288152602001806142fa6028913960400191505060405180910390fd5b6000828201838110156111335760405162461bcd60e51b81526004018080602001828103825260238152602001806144606023913960400191505060405180910390fd5b801580613d69575060408051636eb1769f60e11b81523060048201526001600160a01b03848116602483015291519185169163dd62ed3e91604480820192602092909190829003018186803b158015613d3b57600080fd5b505afa158015613d4f573d6000803e3d6000fd5b505050506040513d6020811015613d6557600080fd5b5051155b613da45760405162461bcd60e51b81526004018080602001828103825260368152602001806146e06036913960400191505060405180910390fd5b604080516001600160a01b038416602482015260448082018490528251808303909101815260649091019091526020810180516001600160e01b031663095ea7b360e01b179052611113908490613eee565b8154600090815b81811015613ee657836001600160a01b0316858281548110613e1b57fe5b6000918252602090912001546001600160a01b03161415613ede5760018203811015613ea957846001830381548110613e5057fe5b9060005260206000200160009054906101000a90046001600160a01b0316858281548110613e7a57fe5b9060005260206000200160006101000a8154816001600160a01b0302191690836001600160a01b031602179055505b84805480613eb357fe5b600082815260209020810160001990810180546001600160a01b031916905501905560019250613ee6565b600101613dfd565b505092915050565b6060613f43826040518060400160405280602081526020017f5361666545524332303a206c6f772d6c6576656c2063616c6c206661696c6564815250856001600160a01b0316613f9f9092919063ffffffff16565b80519091501561111357808060200190516020811015613f6257600080fd5b50516111135760405162461bcd60e51b815260040180806020018281038252602a815260200180614663602a913960400191505060405180910390fd5b6060611130848460008585613fb3856140c5565b614004576040805162461bcd60e51b815260206004820152601d60248201527f416464726573733a2063616c6c20746f206e6f6e2d636f6e7472616374000000604482015290519081900360640190fd5b60006060866001600160a01b031685876040518082805190602001908083835b602083106140435780518252601f199092019160209182019101614024565b6001836020036101000a03801982511681845116808217855250505050505090500191505060006040518083038185875af1925050503d80600081146140a5576040519150601f19603f3d011682016040523d82523d6000602084013e6140aa565b606091505b50915091506140ba8282866140cb565b979650505050505050565b3b151590565b606083156140da575081611133565b8251156140ea5782518084602001fd5b60405162461bcd60e51b815260206004820181815284516024840152845185939192839260440191908501908083836000831561259457818101518382015260200161257c565b828054600181600116156101000203166002900490600052602060002090601f016020900481019282601f106141725782800160ff1982351617855561419f565b8280016001018555821561419f579182015b8281111561419f578235825591602001919060010190614184565b506141ab9291506141af565b5090565b5b808211156141ab57600081556001016141b056fe4f6e6c7920746865206f776e65722063616e2063616c6c20746869732066756e6374696f6e45524332303a207472616e7366657220746f20746865207a65726f206164647265737345524332303a206275726e20616d6f756e7420657863656564732062616c616e63655f5f757064617465436f6465416464726573733a205f6e6578745661756c744c6962206e6f7420636f6d70617469626c6545524332303a20617070726f766520746f20746865207a65726f206164647265737361646441737365744d616e61676572733a204d616e6167657220616c7265616479207265676973746572656445524332303a207472616e7366657220616d6f756e7420657863656564732062616c616e63655f5f7365744f776e65723a205f6e6578744f776e65722063616e6e6f7420626520656d7074795f5f76616c6964617465506f736974696f6e734c696d69743a204c696d69742065786365656465645661756c744c6962536166654d6174683a207375627472616374696f6e206f766572666c6f7772656d6f76654e6f6d696e617465644f776e65723a205468657265206973206e6f206e6f6d696e61746564206f776e65727365744e6f6d696e617465644f776e65723a205f6e6578744e6f6d696e617465644f776e65722063616e6e6f7420626520656d7074797365745661756c744c69623a204f6e6c792063616c6c61626c652062792074686520636f6e74726163742063726561746f724f6e6c79207468652046756e644465706c6f7965722063616e206d616b6520746869732063616c6c4f6e6c79207468652064657369676e61746564206163636573736f722063616e206d616b6520746869732063616c6c45524332303a207472616e7366657220616d6f756e74206578636565647320616c6c6f77616e63655661756c744c6962536166654d6174683a206164646974696f6e206f766572666c6f775f5f7365744f776e65723a205f6e6578744f776e6572206973207468652063757272656e74206f776e65727365744e6f6d696e617465644f776e65723a205f6e6578744e6f6d696e617465644f776e657220697320616c726561647920746865206f776e65727365744163636573736f723a204f6e6c792063616c6c61626c652062792074686520636f6e74726163742063726561746f7245524332303a206275726e2066726f6d20746865207a65726f20616464726573737365744e6f6d696e617465644f776e65723a205f6e6578744e6f6d696e617465644f776e657220697320616c7265616479206e6f6d696e6174656445524332303a207472616e736665722066726f6d20746865207a65726f20616464726573735f5f7365744163636573736f723a205f6e6578744163636573736f722063616e6e6f7420626520656d707479636c61696d4f776e6572736869703a204f6e6c7920746865206e6f6d696e617465644f776e65722063616e2063616c6c20746869732066756e6374696f6e5f5f63616c6c4f6e45787465726e616c506f736974696f6e3a204e6f7420616e206163746976652065787465726e616c20706f736974696f6e45524332303a20617070726f76652066726f6d20746865207a65726f20616464726573735361666545524332303a204552433230206f7065726174696f6e20646964206e6f742073756363656564736574467265656c795472616e7366657261626c655368617265733a20416c72656164792073657472656d6f766541737365744d616e61676572733a204d616e61676572206e6f7420726567697374657265645361666545524332303a20617070726f76652066726f6d206e6f6e2d7a65726f20746f206e6f6e2d7a65726f20616c6c6f77616e6365a2646970667358221220c638023a8b6ef8fadd42ab2d6466a381ccc88c41adc7fda4e8585fb01adffbd064736f6c634300060c0033",
  "devdoc": {
    "author": "Enzyme Council <security@enzyme.finance>",
    "details": "The difference in terminology between \"asset\" and \"trackedAsset\" is intentional. A fund might actually have asset balances of un-tracked assets, but only tracked assets are used in gav calculations. Note that this contract inherits VaultLibSafeMath (a verbatim Open Zeppelin SafeMath copy) from SharesTokenBase via VaultLibBase2",
    "kind": "dev",
    "methods": {
      "addAssetManagers(address[])": {
        "params": {
          "_managers": "The accounts to add as asset managers"
        }
      },
      "addTrackedAsset(address)": {
        "params": {
          "_asset": "The asset to add as a tracked asset"
        }
      },
      "allowance(address,address)": {
        "details": "Standard implementation of ERC20's allowance(). Can be overridden."
      },
      "approve(address,uint256)": {
        "details": "Standard implementation of ERC20's approve(). Can be overridden."
      },
      "balanceOf(address)": {
        "details": "Standard implementation of ERC20's balanceOf(). Can be overridden."
      },
      "burnShares(address,uint256)": {
        "params": {
          "_amount": "The amount of shares to burn",
          "_target": "The account for which to burn shares"
        }
      },
      "buyBackProtocolFeeShares(uint256,uint256,uint256)": {
        "details": "Since the vault controls both the MLN to burn and the admin function to burn any user's fund shares, there is no need to transfer assets back-and-forth with the ProtocolFeeReserve. We only need to know the correct discounted amount of MLN to burn.",
        "params": {
          "_gav": "The total fund GAV",
          "_mlnValue": "The MLN-denominated market value of _sharesAmount",
          "_sharesAmount": "The amount of shares to buy back"
        }
      },
      "callOnContract(address,bytes)": {
        "params": {
          "_callData": "The call data for the call",
          "_contract": "The contract to call"
        },
        "returns": {
          "returnData_": "The data returned by the call"
        }
      },
      "canManageAssets(address)": {
        "params": {
          "_who": "The account to check"
        },
        "returns": {
          "canManageAssets_": "True if the account can manage assets"
        }
      },
      "canMigrate(address)": {
        "params": {
          "_who": "The account to check"
        },
        "returns": {
          "canMigrate_": "True if the account is allowed to migrate the VaultProxy"
        }
      },
      "canRelayCalls(address)": {
        "params": {
          "_who": "The account to check"
        },
        "returns": {
          "canRelayCalls_": "True if the account can use gas relaying on this fund"
        }
      },
      "decimals()": {
        "details": "Standard implementation of ERC20's decimals(). Can not be overridden."
      },
      "getAccessor()": {
        "returns": {
          "accessor_": "The `accessor` variable value"
        }
      },
      "getActiveExternalPositions()": {
        "returns": {
          "activeExternalPositions_": "The `activeExternalPositions` variable value"
        }
      },
      "getCreator()": {
        "returns": {
          "creator_": "The `creator` variable value"
        }
      },
      "getExternalPositionLibForType(uint256)": {
        "params": {
          "_typeId": "The type for which to get the external position library"
        },
        "returns": {
          "externalPositionLib_": "The external position library"
        }
      },
      "getExternalPositionManager()": {
        "returns": {
          "externalPositionManager_": "The `EXTERNAL_POSITION_MANAGER` variable value"
        }
      },
      "getFundDeployer()": {
        "returns": {
          "fundDeployer_": "The fund deployer contract associated with this vault"
        }
      },
      "getGasRelayPaymasterFactory()": {
        "returns": {
          "gasRelayPaymasterFactory_": "The `GAS_RELAY_PAYMASTER_FACTORY` variable value"
        }
      },
      "getGasRelayTrustedForwarder()": {
        "returns": {
          "trustedForwarder_": "The trusted forwarder"
        }
      },
      "getMigrator()": {
        "returns": {
          "migrator_": "The `migrator` variable value"
        }
      },
      "getMlnToken()": {
        "returns": {
          "mlnToken_": "The `MLN_TOKEN` variable value"
        }
      },
      "getNominatedOwner()": {
        "returns": {
          "nominatedOwner_": "The account that is nominated to be the owner"
        }
      },
      "getOwner()": {
        "returns": {
          "owner_": "The `owner` variable value"
        }
      },
      "getProtocolFeeReserve()": {
        "returns": {
          "protocolFeeReserve_": "The `PROTOCOL_FEE_RESERVE` variable value"
        }
      },
      "getProtocolFeeTracker()": {
        "returns": {
          "protocolFeeTracker_": "The `PROTOCOL_FEE_TRACKER` variable value"
        }
      },
      "getTrackedAssets()": {
        "returns": {
          "trackedAssets_": "The `trackedAssets` variable value"
        }
      },
      "getVaultLib()": {
        "returns": {
          "vaultLib_": "The address of the VaultLib target"
        }
      },
      "getWethToken()": {
        "returns": {
          "wethToken_": "The `WETH_TOKEN` variable value"
        }
      },
      "init(address,address,string)": {
        "details": "Serves as a per-proxy pseudo-constructor",
        "params": {
          "_accessor": "The address to set as the permissioned accessor of the VaultLib",
          "_fundName": "The name of the fund",
          "_owner": "The address to set as the fund owner"
        }
      },
      "isActiveExternalPosition(address)": {
        "params": {
          "_externalPosition": "The externalPosition to check"
        },
        "returns": {
          "isActiveExternalPosition_": "True if the address is an active external position on the vault"
        }
      },
      "isAssetManager(address)": {
        "params": {
          "_who": "The account to check"
        },
        "returns": {
          "isAssetManager_": "True if the account is an allowed asset manager"
        }
      },
      "isTrackedAsset(address)": {
        "params": {
          "_asset": "The address to check"
        },
        "returns": {
          "isTrackedAsset_": "True if the address is a tracked asset"
        }
      },
      "mintShares(address,uint256)": {
        "params": {
          "_amount": "The amount of shares to mint",
          "_target": "The account for which to burn shares"
        }
      },
      "name()": {
        "details": "Standard implementation of ERC20's name(). Can be overridden."
      },
      "proxiableUUID()": {
        "details": "The UUID is `bytes32(keccak256('mln.proxiable.vaultlib'))`",
        "returns": {
          "uuid_": "The bytes32 hash representing the UUID"
        }
      },
      "receiveValidatedVaultAction(uint8,bytes)": {
        "params": {
          "_action": "The VaultAction to perform",
          "_actionData": "The call data for the action to perform"
        }
      },
      "removeAssetManagers(address[])": {
        "params": {
          "_managers": "The accounts to remove as asset managers"
        }
      },
      "setAccessor(address)": {
        "params": {
          "_nextAccessor": "The address to set as the permissioned accessor of the VaultLib"
        }
      },
      "setAccessorForFundReconfiguration(address)": {
        "params": {
          "_nextAccessor": "The next accessor"
        }
      },
      "setFreelyTransferableShares()": {
        "details": "Once set, this can never be allowed to be unset, as it provides a critical transferability guarantee to liquidity pools and other smart contract holders that rely on transfers to function properly. Enabling this option will skip all policies run upon transferring shares, but will still respect the shares action timelock."
      },
      "setMigrator(address)": {
        "details": "Set to address(0) to remove the migrator.",
        "params": {
          "_nextMigrator": "The account to set as the allowed migrator"
        }
      },
      "setNominatedOwner(address)": {
        "details": "Does not prohibit overwriting the current nominatedOwner",
        "params": {
          "_nextNominatedOwner": "The account to nominate"
        }
      },
      "setVaultLib(address)": {
        "details": "This function is absolutely critical. __updateCodeAddress() validates that the target is a valid Proxiable contract instance. Does not block _nextVaultLib from being the same as the current VaultLib",
        "params": {
          "_nextVaultLib": "The address to set as the VaultLib"
        }
      },
      "sharesAreFreelyTransferable()": {
        "returns": {
          "sharesAreFreelyTransferable_": "True if shares are (permanently) freely transferable"
        }
      },
      "symbol()": {
        "details": "Defers the shares symbol value to the Dispatcher contract",
        "returns": {
          "symbol_": "The `symbol` value"
        }
      },
      "totalSupply()": {
        "details": "Standard implementation of ERC20's totalSupply(). Can be overridden."
      },
      "transfer(address,uint256)": {
        "details": "Standard implementation of ERC20's transfer(). Overridden to allow arbitrary logic in ComptrollerProxy prior to transfer."
      },
      "transferFrom(address,address,uint256)": {
        "details": "Standard implementation of ERC20's transferFrom(). Overridden to allow arbitrary logic in ComptrollerProxy prior to transfer."
      },
      "transferShares(address,address,uint256)": {
        "details": "For protocol use only, all other transfers should operate via standard ERC20 functions",
        "params": {
          "_amount": "The amount of shares to transfer",
          "_from": "The account from which to transfer shares",
          "_to": "The account to which to transfer shares"
        }
      },
      "withdrawAssetTo(address,address,uint256)": {
        "params": {
          "_amount": "The amount of asset to withdraw",
          "_asset": "The asset to withdraw",
          "_target": "The account to which to withdraw the asset"
        }
      }
    },
    "title": "VaultLib Contract",
    "version": 1
  },
  "userdoc": {
    "kind": "user",
    "methods": {
      "addAssetManagers(address[])": {
        "notice": "Registers accounts that can manage vault holdings within the protocol"
      },
      "addTrackedAsset(address)": {
        "notice": "Adds a tracked asset"
      },
      "burnShares(address,uint256)": {
        "notice": "Burns fund shares from a particular account"
      },
      "buyBackProtocolFeeShares(uint256,uint256,uint256)": {
        "notice": "Buys back shares collected as protocol fee at a discounted shares price, using MLN"
      },
      "callOnContract(address,bytes)": {
        "notice": "Makes an arbitrary call with this contract as the sender"
      },
      "canManageAssets(address)": {
        "notice": "Checks whether an account can manage assets"
      },
      "canMigrate(address)": {
        "notice": "Checks whether an account is allowed to migrate the VaultProxy"
      },
      "canRelayCalls(address)": {
        "notice": "Checks whether an account can use gas relaying"
      },
      "claimOwnership()": {
        "notice": "Claim ownership of the contract"
      },
      "getAccessor()": {
        "notice": "Gets the `accessor` variable"
      },
      "getActiveExternalPositions()": {
        "notice": "Gets the `activeExternalPositions` variable"
      },
      "getCreator()": {
        "notice": "Gets the `creator` variable"
      },
      "getExternalPositionLibForType(uint256)": {
        "notice": "Gets the external position library contract for a given type"
      },
      "getExternalPositionManager()": {
        "notice": "Gets the `EXTERNAL_POSITION_MANAGER` variable"
      },
      "getFundDeployer()": {
        "notice": "Gets the vaults fund deployer"
      },
      "getGasRelayPaymasterFactory()": {
        "notice": "Gets the `GAS_RELAY_PAYMASTER_FACTORY` variable"
      },
      "getGasRelayTrustedForwarder()": {
        "notice": "Gets the trusted forwarder for GSN relaying"
      },
      "getMigrator()": {
        "notice": "Gets the `migrator` variable"
      },
      "getMlnToken()": {
        "notice": "Gets the `MLN_TOKEN` variable"
      },
      "getNominatedOwner()": {
        "notice": "Gets the account that is nominated to be the next owner of this contract"
      },
      "getOwner()": {
        "notice": "Gets the `owner` variable"
      },
      "getProtocolFeeReserve()": {
        "notice": "Gets the `PROTOCOL_FEE_RESERVE` variable"
      },
      "getProtocolFeeTracker()": {
        "notice": "Gets the `PROTOCOL_FEE_TRACKER` variable"
      },
      "getTrackedAssets()": {
        "notice": "Gets the `trackedAssets` variable"
      },
      "getVaultLib()": {
        "notice": "Gets the VaultLib target for the VaultProxy"
      },
      "getWethToken()": {
        "notice": "Gets the `WETH_TOKEN` variable"
      },
      "init(address,address,string)": {
        "notice": "Initializes the VaultProxy with core configuration"
      },
      "isActiveExternalPosition(address)": {
        "notice": "Check whether an external position is active on the vault"
      },
      "isAssetManager(address)": {
        "notice": "Checks whether an account is an allowed asset manager"
      },
      "isTrackedAsset(address)": {
        "notice": "Checks whether an address is a tracked asset of the vault"
      },
      "mintShares(address,uint256)": {
        "notice": "Mints fund shares to a particular account"
      },
      "payProtocolFee()": {
        "notice": "Pays the due protocol fee by minting shares to the ProtocolFeeReserve"
      },
      "proxiableUUID()": {
        "notice": "Returns a unique bytes32 hash for VaultLib instances"
      },
      "receiveValidatedVaultAction(uint8,bytes)": {
        "notice": "Dispatches a call initiated from an Extension, validated by the ComptrollerProxy"
      },
      "removeAssetManagers(address[])": {
        "notice": "Deregisters accounts that can manage vault holdings within the protocol"
      },
      "removeNominatedOwner()": {
        "notice": "Revoke the nomination of a new contract owner"
      },
      "setAccessor(address)": {
        "notice": "Sets the permissioned accessor of the VaultLib"
      },
      "setAccessorForFundReconfiguration(address)": {
        "notice": "Updates the accessor during a config change within this release"
      },
      "setFreelyTransferableShares()": {
        "notice": "Sets shares as (permanently) freely transferable"
      },
      "setMigrator(address)": {
        "notice": "Sets the account that is allowed to migrate a fund to new releases"
      },
      "setNominatedOwner(address)": {
        "notice": "Nominate a new contract owner"
      },
      "setVaultLib(address)": {
        "notice": "Sets the VaultLib target for the VaultProxy"
      },
      "sharesAreFreelyTransferable()": {
        "notice": "Checks whether shares are (permanently) freely transferable"
      },
      "symbol()": {
        "notice": "Gets the `symbol` value of the shares token"
      },
      "transferShares(address,address,uint256)": {
        "notice": "Transfers fund shares from one account to another"
      },
      "withdrawAssetTo(address,address,uint256)": {
        "notice": "Withdraws an asset from the VaultProxy to a given account"
      }
    },
    "notice": "The per-release proxiable library contract for VaultProxy",
    "version": 1
  },
  "storageLayout": {
    "storage": [
      {
        "astId": 7717,
        "contract": "contracts/release/core/fund/vault/VaultLib.sol:VaultLib",
        "label": "sharesName",
        "offset": 0,
        "slot": "0",
        "type": "t_string_storage"
      },
      {
        "astId": 7719,
        "contract": "contracts/release/core/fund/vault/VaultLib.sol:VaultLib",
        "label": "sharesSymbol",
        "offset": 0,
        "slot": "1",
        "type": "t_string_storage"
      },
      {
        "astId": 7721,
        "contract": "contracts/release/core/fund/vault/VaultLib.sol:VaultLib",
        "label": "sharesTotalSupply",
        "offset": 0,
        "slot": "2",
        "type": "t_uint256"
      },
      {
        "astId": 7725,
        "contract": "contracts/release/core/fund/vault/VaultLib.sol:VaultLib",
        "label": "sharesBalances",
        "offset": 0,
        "slot": "3",
        "type": "t_mapping(t_address,t_uint256)"
      },
      {
        "astId": 7731,
        "contract": "contracts/release/core/fund/vault/VaultLib.sol:VaultLib",
        "label": "sharesAllowances",
        "offset": 0,
        "slot": "4",
        "type": "t_mapping(t_address,t_mapping(t_address,t_uint256))"
      },
      {
        "astId": 7357,
        "contract": "contracts/release/core/fund/vault/VaultLib.sol:VaultLib",
        "label": "accessor",
        "offset": 0,
        "slot": "5",
        "type": "t_address"
      },
      {
        "astId": 7359,
        "contract": "contracts/release/core/fund/vault/VaultLib.sol:VaultLib",
        "label": "creator",
        "offset": 0,
        "slot": "6",
        "type": "t_address"
      },
      {
        "astId": 7361,
        "contract": "contracts/release/core/fund/vault/VaultLib.sol:VaultLib",
        "label": "migrator",
        "offset": 0,
        "slot": "7",
        "type": "t_address"
      },
      {
        "astId": 7363,
        "contract": "contracts/release/core/fund/vault/VaultLib.sol:VaultLib",
        "label": "owner",
        "offset": 0,
        "slot": "8",
        "type": "t_address"
      },
      {
        "astId": 7242,
        "contract": "contracts/release/core/fund/vault/VaultLib.sol:VaultLib",
        "label": "trackedAssets",
        "offset": 0,
        "slot": "9",
        "type": "t_array(t_address)dyn_storage"
      },
      {
        "astId": 7246,
        "contract": "contracts/release/core/fund/vault/VaultLib.sol:VaultLib",
        "label": "assetToIsTracked",
        "offset": 0,
        "slot": "10",
        "type": "t_mapping(t_address,t_bool)"
      },
      {
        "astId": 7305,
        "contract": "contracts/release/core/fund/vault/VaultLib.sol:VaultLib",
        "label": "freelyTransferableShares",
        "offset": 0,
        "slot": "11",
        "type": "t_bool"
      },
      {
        "astId": 7307,
        "contract": "contracts/release/core/fund/vault/VaultLib.sol:VaultLib",
        "label": "nominatedOwner",
        "offset": 1,
        "slot": "11",
        "type": "t_address"
      },
      {
        "astId": 7310,
        "contract": "contracts/release/core/fund/vault/VaultLib.sol:VaultLib",
        "label": "activeExternalPositions",
        "offset": 0,
        "slot": "12",
        "type": "t_array(t_address)dyn_storage"
      },
      {
        "astId": 7314,
        "contract": "contracts/release/core/fund/vault/VaultLib.sol:VaultLib",
        "label": "accountToIsAssetManager",
        "offset": 0,
        "slot": "13",
        "type": "t_mapping(t_address,t_bool)"
      },
      {
        "astId": 7318,
        "contract": "contracts/release/core/fund/vault/VaultLib.sol:VaultLib",
        "label": "externalPositionToIsActive",
        "offset": 0,
        "slot": "14",
        "type": "t_mapping(t_address,t_bool)"
      }
    ],
    "types": {
      "t_address": {
        "encoding": "inplace",
        "label": "address",
        "numberOfBytes": "20"
      },
      "t_array(t_address)dyn_storage": {
        "base": "t_address",
        "encoding": "dynamic_array",
        "label": "address[]",
        "numberOfBytes": "32"
      },
      "t_bool": {
        "encoding": "inplace",
        "label": "bool",
        "numberOfBytes": "1"
      },
      "t_mapping(t_address,t_bool)": {
        "encoding": "mapping",
        "key": "t_address",
        "label": "mapping(address => bool)",
        "numberOfBytes": "32",
        "value": "t_bool"
      },
      "t_mapping(t_address,t_mapping(t_address,t_uint256))": {
        "encoding": "mapping",
        "key": "t_address",
        "label": "mapping(address => mapping(address => uint256))",
        "numberOfBytes": "32",
        "value": "t_mapping(t_address,t_uint256)"
      },
      "t_mapping(t_address,t_uint256)": {
        "encoding": "mapping",
        "key": "t_address",
        "label": "mapping(address => uint256)",
        "numberOfBytes": "32",
        "value": "t_uint256"
      },
      "t_string_storage": {
        "encoding": "bytes",
        "label": "string",
        "numberOfBytes": "32"
      },
      "t_uint256": {
        "encoding": "inplace",
        "label": "uint256",
        "numberOfBytes": "32"
      }
    }
  }
}