{
  "address": "0xB468647B04bF657C9ee2de65252037d781eABafD",
  "abi": [
    {
      "inputs": [
        {
          "internalType": "address",
          "name": "_externalPositionManager",
          "type": "address"
        },
        {
          "internalType": "address",
          "name": "_gasRelayPaymasterFactory",
          "type": "address"
        },
        {
          "internalType": "address",
          "name": "_protocolFeeReserve",
          "type": "address"
        },
        {
          "internalType": "address",
          "name": "_protocolFeeTracker",
          "type": "address"
        },
        {
          "internalType": "address",
          "name": "_mlnToken",
          "type": "address"
        },
        {
          "internalType": "address",
          "name": "_wethToken",
          "type": "address"
        }
      ],
      "stateMutability": "nonpayable",
      "type": "constructor"
    },
    {
      "anonymous": false,
      "inputs": [
        {
          "indexed": false,
          "internalType": "address",
          "name": "prevAccessor",
          "type": "address"
        },
        {
          "indexed": false,
          "internalType": "address",
          "name": "nextAccessor",
          "type": "address"
        }
      ],
      "name": "AccessorSet",
      "type": "event"
    },
    {
      "anonymous": false,
      "inputs": [
        {
          "indexed": true,
          "internalType": "address",
          "name": "owner",
          "type": "address"
        },
        {
          "indexed": true,
          "internalType": "address",
          "name": "spender",
          "type": "address"
        },
        {
          "indexed": false,
          "internalType": "uint256",
          "name": "value",
          "type": "uint256"
        }
      ],
      "name": "Approval",
      "type": "event"
    },
    {
      "anonymous": false,
      "inputs": [
        {
          "indexed": false,
          "internalType": "address",
          "name": "manager",
          "type": "address"
        }
      ],
      "name": "AssetManagerAdded",
      "type": "event"
    },
    {
      "anonymous": false,
      "inputs": [
        {
          "indexed": false,
          "internalType": "address",
          "name": "manager",
          "type": "address"
        }
      ],
      "name": "AssetManagerRemoved",
      "type": "event"
    },
    {
      "anonymous": false,
      "inputs": [
        {
          "indexed": true,
          "internalType": "address",
          "name": "asset",
          "type": "address"
        },
        {
          "indexed": true,
          "internalType": "address",
          "name": "target",
          "type": "address"
        },
        {
          "indexed": false,
          "internalType": "uint256",
          "name": "amount",
          "type": "uint256"
        }
      ],
      "name": "AssetWithdrawn",
      "type": "event"
    },
    {
      "anonymous": false,
      "inputs": [
        {
          "indexed": true,
          "internalType": "address",
          "name": "sender",
          "type": "address"
        },
        {
          "indexed": false,
          "internalType": "uint256",
          "name": "amount",
          "type": "uint256"
        }
      ],
      "name": "EthReceived",
      "type": "event"
    },
    {
      "anonymous": false,
      "inputs": [
        {
          "indexed": true,
          "internalType": "address",
          "name": "externalPosition",
          "type": "address"
        }
      ],
      "name": "ExternalPositionAdded",
      "type": "event"
    },
    {
      "anonymous": false,
      "inputs": [
        {
          "indexed": true,
          "internalType": "address",
          "name": "externalPosition",
          "type": "address"
        }
      ],
      "name": "ExternalPositionRemoved",
      "type": "event"
    },
    {
      "anonymous": false,
      "inputs": [],
      "name": "FreelyTransferableSharesSet",
      "type": "event"
    },
    {
      "anonymous": false,
      "inputs": [
        {
          "indexed": false,
          "internalType": "address",
          "name": "prevMigrator",
          "type": "address"
        },
        {
          "indexed": false,
          "internalType": "address",
          "name": "nextMigrator",
          "type": "address"
        }
      ],
      "name": "MigratorSet",
      "type": "event"
    },
    {
      "anonymous": false,
      "inputs": [
        {
          "indexed": true,
          "internalType": "address",
          "name": "nominatedOwner",
          "type": "address"
        }
      ],
      "name": "NominatedOwnerRemoved",
      "type": "event"
    },
    {
      "anonymous": false,
      "inputs": [
        {
          "indexed": true,
          "internalType": "address",
          "name": "nominatedOwner",
          "type": "address"
        }
      ],
      "name": "NominatedOwnerSet",
      "type": "event"
    },
    {
      "anonymous": false,
      "inputs": [
        {
          "indexed": false,
          "internalType": "address",
          "name": "prevOwner",
          "type": "address"
        },
        {
          "indexed": false,
          "internalType": "address",
          "name": "nextOwner",
          "type": "address"
        }
      ],
      "name": "OwnerSet",
      "type": "event"
    },
    {
      "anonymous": false,
      "inputs": [
        {
          "indexed": true,
          "internalType": "address",
          "name": "prevOwner",
          "type": "address"
        },
        {
          "indexed": true,
          "internalType": "address",
          "name": "nextOwner",
          "type": "address"
        }
      ],
      "name": "OwnershipTransferred",
      "type": "event"
    },
    {
      "anonymous": false,
      "inputs": [
        {
          "indexed": false,
          "internalType": "uint256",
          "name": "sharesAmount",
          "type": "uint256"
        }
      ],
      "name": "ProtocolFeePaidInShares",
      "type": "event"
    },
    {
      "anonymous": false,
      "inputs": [
        {
          "indexed": false,
          "internalType": "uint256",
          "name": "sharesAmount",
          "type": "uint256"
        },
        {
          "indexed": false,
          "internalType": "uint256",
          "name": "mlnValue",
          "type": "uint256"
        },
        {
          "indexed": false,
          "internalType": "uint256",
          "name": "mlnBurned",
          "type": "uint256"
        }
      ],
      "name": "ProtocolFeeSharesBoughtBack",
      "type": "event"
    },
    {
      "anonymous": false,
      "inputs": [
        {
          "indexed": false,
          "internalType": "address",
          "name": "asset",
          "type": "address"
        }
      ],
      "name": "TrackedAssetAdded",
      "type": "event"
    },
    {
      "anonymous": false,
      "inputs": [
        {
          "indexed": false,
          "internalType": "address",
          "name": "asset",
          "type": "address"
        }
      ],
      "name": "TrackedAssetRemoved",
      "type": "event"
    },
    {
      "anonymous": false,
      "inputs": [
        {
          "indexed": true,
          "internalType": "address",
          "name": "from",
          "type": "address"
        },
        {
          "indexed": true,
          "internalType": "address",
          "name": "to",
          "type": "address"
        },
        {
          "indexed": false,
          "internalType": "uint256",
          "name": "value",
          "type": "uint256"
        }
      ],
      "name": "Transfer",
      "type": "event"
    },
    {
      "anonymous": false,
      "inputs": [
        {
          "indexed": false,
          "internalType": "address",
          "name": "prevVaultLib",
          "type": "address"
        },
        {
          "indexed": false,
          "internalType": "address",
          "name": "nextVaultLib",
          "type": "address"
        }
      ],
      "name": "VaultLibSet",
      "type": "event"
    },
    {
      "inputs": [
        {
          "internalType": "address[]",
          "name": "_managers",
          "type": "address[]"
        }
      ],
      "name": "addAssetManagers",
      "outputs": [],
      "stateMutability": "nonpayable",
      "type": "function"
    },
    {
      "inputs": [
        {
          "internalType": "address",
          "name": "_asset",
          "type": "address"
        }
      ],
      "name": "addTrackedAsset",
      "outputs": [],
      "stateMutability": "nonpayable",
      "type": "function"
    },
    {
      "inputs": [
        {
          "internalType": "address",
          "name": "_owner",
          "type": "address"
        },
        {
          "internalType": "address",
          "name": "_spender",
          "type": "address"
        }
      ],
      "name": "allowance",
      "outputs": [
        {
          "internalType": "uint256",
          "name": "",
          "type": "uint256"
        }
      ],
      "stateMutability": "view",
      "type": "function"
    },
    {
      "inputs": [
        {
          "internalType": "address",
          "name": "_spender",
          "type": "address"
        },
        {
          "internalType": "uint256",
          "name": "_amount",
          "type": "uint256"
        }
      ],
      "name": "approve",
      "outputs": [
        {
          "internalType": "bool",
          "name": "",
          "type": "bool"
        }
      ],
      "stateMutability": "nonpayable",
      "type": "function"
    },
    {
      "inputs": [
        {
          "internalType": "address",
          "name": "_account",
          "type": "address"
        }
      ],
      "name": "balanceOf",
      "outputs": [
        {
          "internalType": "uint256",
          "name": "",
          "type": "uint256"
        }
      ],
      "stateMutability": "view",
      "type": "function"
    },
    {
      "inputs": [
        {
          "internalType": "address",
          "name": "_target",
          "type": "address"
        },
        {
          "internalType": "uint256",
          "name": "_amount",
          "type": "uint256"
        }
      ],
      "name": "burnShares",
      "outputs": [],
      "stateMutability": "nonpayable",
      "type": "function"
    },
    {
      "inputs": [
        {
          "internalType": "uint256",
          "name": "_sharesAmount",
          "type": "uint256"
        },
        {
          "internalType": "uint256",
          "name": "_mlnValue",
          "type": "uint256"
        },
        {
          "internalType": "uint256",
          "name": "_gav",
          "type": "uint256"
        }
      ],
      "name": "buyBackProtocolFeeShares",
      "outputs": [],
      "stateMutability": "nonpayable",
      "type": "function"
    },
    {
      "inputs": [
        {
          "internalType": "address",
          "name": "_contract",
          "type": "address"
        },
        {
          "internalType": "bytes",
          "name": "_callData",
          "type": "bytes"
        }
      ],
      "name": "callOnContract",
      "outputs": [
        {
          "internalType": "bytes",
          "name": "returnData_",
          "type": "bytes"
        }
      ],
      "stateMutability": "nonpayable",
      "type": "function"
    },
    {
      "inputs": [
        {
          "internalType": "address",
          "name": "_who",
          "type": "address"
        }
      ],
      "name": "canManageAssets",
      "outputs": [
        {
          "internalType": "bool",
          "name": "canManageAssets_",
          "type": "bool"
        }
      ],
      "stateMutability": "view",
      "type": "function"
    },
    {
      "inputs": [
        {
          "internalType": "address",
          "name": "_who",
          "type": "address"
        }
      ],
      "name": "canMigrate",
      "outputs": [
        {
          "internalType": "bool",
          "name": "canMigrate_",
          "type": "bool"
        }
      ],
      "stateMutability": "view",
      "type": "function"
    },
    {
      "inputs": [
        {
          "internalType": "address",
          "name": "_who",
          "type": "address"
        }
      ],
      "name": "canRelayCalls",
      "outputs": [
        {
          "internalType": "bool",
          "name": "canRelayCalls_",
          "type": "bool"
        }
      ],
      "stateMutability": "view",
      "type": "function"
    },
    {
      "inputs": [],
      "name": "claimOwnership",
      "outputs": [],
      "stateMutability": "nonpayable",
      "type": "function"
    },
    {
      "inputs": [],
      "name": "decimals",
      "outputs": [
        {
          "internalType": "uint8",
          "name": "",
          "type": "uint8"
        }
      ],
      "stateMutability": "pure",
      "type": "function"
    },
    {
      "inputs": [],
      "name": "getAccessor",
      "outputs": [
        {
          "internalType": "address",
          "name": "accessor_",
          "type": "address"
        }
      ],
      "stateMutability": "view",
      "type": "function"
    },
    {
      "inputs": [],
      "name": "getActiveExternalPositions",
      "outputs": [
        {
          "internalType": "address[]",
          "name": "activeExternalPositions_",
          "type": "address[]"
        }
      ],
      "stateMutability": "view",
      "type": "function"
    },
    {
      "inputs": [],
      "name": "getCreator",
      "outputs": [
        {
          "internalType": "address",
          "name": "creator_",
          "type": "address"
        }
      ],
      "stateMutability": "view",
      "type": "function"
    },
    {
      "inputs": [
        {
          "internalType": "uint256",
          "name": "_typeId",
          "type": "uint256"
        }
      ],
      "name": "getExternalPositionLibForType",
      "outputs": [
        {
          "internalType": "address",
          "name": "externalPositionLib_",
          "type": "address"
        }
      ],
      "stateMutability": "view",
      "type": "function"
    },
    {
      "inputs": [],
      "name": "getExternalPositionManager",
      "outputs": [
        {
          "internalType": "address",
          "name": "externalPositionManager_",
          "type": "address"
        }
      ],
      "stateMutability": "view",
      "type": "function"
    },
    {
      "inputs": [],
      "name": "getFundDeployer",
      "outputs": [
        {
          "internalType": "address",
          "name": "fundDeployer_",
          "type": "address"
        }
      ],
      "stateMutability": "view",
      "type": "function"
    },
    {
      "inputs": [],
      "name": "getGasRelayPaymasterFactory",
      "outputs": [
        {
          "internalType": "address",
          "name": "gasRelayPaymasterFactory_",
          "type": "address"
        }
      ],
      "stateMutability": "view",
      "type": "function"
    },
    {
      "inputs": [],
      "name": "getGasRelayTrustedForwarder",
      "outputs": [
        {
          "internalType": "address",
          "name": "trustedForwarder_",
          "type": "address"
        }
      ],
      "stateMutability": "view",
      "type": "function"
    },
    {
      "inputs": [],
      "name": "getMigrator",
      "outputs": [
        {
          "internalType": "address",
          "name": "migrator_",
          "type": "address"
        }
      ],
      "stateMutability": "view",
      "type": "function"
    },
    {
      "inputs": [],
      "name": "getMlnToken",
      "outputs": [
        {
          "internalType": "address",
          "name": "mlnToken_",
          "type": "address"
        }
      ],
      "stateMutability": "view",
      "type": "function"
    },
    {
      "inputs": [],
      "name": "getNominatedOwner",
      "outputs": [
        {
          "internalType": "address",
          "name": "nominatedOwner_",
          "type": "address"
        }
      ],
      "stateMutability": "view",
      "type": "function"
    },
    {
      "inputs": [],
      "name": "getOwner",
      "outputs": [
        {
          "internalType": "address",
          "name": "owner_",
          "type": "address"
        }
      ],
      "stateMutability": "view",
      "type": "function"
    },
    {
      "inputs": [],
      "name": "getProtocolFeeReserve",
      "outputs": [
        {
          "internalType": "address",
          "name": "protocolFeeReserve_",
          "type": "address"
        }
      ],
      "stateMutability": "view",
      "type": "function"
    },
    {
      "inputs": [],
      "name": "getProtocolFeeTracker",
      "outputs": [
        {
          "internalType": "address",
          "name": "protocolFeeTracker_",
          "type": "address"
        }
      ],
      "stateMutability": "view",
      "type": "function"
    },
    {
      "inputs": [],
      "name": "getTrackedAssets",
      "outputs": [
        {
          "internalType": "address[]",
          "name": "trackedAssets_",
          "type": "address[]"
        }
      ],
      "stateMutability": "view",
      "type": "function"
    },
    {
      "inputs": [],
      "name": "getVaultLib",
      "outputs": [
        {
          "internalType": "address",
          "name": "vaultLib_",
          "type": "address"
        }
      ],
      "stateMutability": "view",
      "type": "function"
    },
    {
      "inputs": [],
      "name": "getWethToken",
      "outputs": [
        {
          "internalType": "address",
          "name": "wethToken_",
          "type": "address"
        }
      ],
      "stateMutability": "view",
      "type": "function"
    },
    {
      "inputs": [
        {
          "internalType": "address",
          "name": "_owner",
          "type": "address"
        },
        {
          "internalType": "address",
          "name": "_accessor",
          "type": "address"
        },
        {
          "internalType": "string",
          "name": "_fundName",
          "type": "string"
        }
      ],
      "name": "init",
      "outputs": [],
      "stateMutability": "nonpayable",
      "type": "function"
    },
    {
      "inputs": [
        {
          "internalType": "address",
          "name": "_externalPosition",
          "type": "address"
        }
      ],
      "name": "isActiveExternalPosition",
      "outputs": [
        {
          "internalType": "bool",
          "name": "isActiveExternalPosition_",
          "type": "bool"
        }
      ],
      "stateMutability": "view",
      "type": "function"
    },
    {
      "inputs": [
        {
          "internalType": "address",
          "name": "_who",
          "type": "address"
        }
      ],
      "name": "isAssetManager",
      "outputs": [
        {
          "internalType": "bool",
          "name": "isAssetManager_",
          "type": "bool"
        }
      ],
      "stateMutability": "view",
      "type": "function"
    },
    {
      "inputs": [
        {
          "internalType": "address",
          "name": "_asset",
          "type": "address"
        }
      ],
      "name": "isTrackedAsset",
      "outputs": [
        {
          "internalType": "bool",
          "name": "isTrackedAsset_",
          "type": "bool"
        }
      ],
      "stateMutability": "view",
      "type": "function"
    },
    {
      "inputs": [
        {
          "internalType": "address",
          "name": "_target",
          "type": "address"
        },
        {
          "internalType": "uint256",
          "name": "_amount",
          "type": "uint256"
        }
      ],
      "name": "mintShares",
      "outputs": [],
      "stateMutability": "nonpayable",
      "type": "function"
    },
    {
      "inputs": [],
      "name": "name",
      "outputs": [
        {
          "internalType": "string",
          "name": "",
          "type": "string"
        }
      ],
      "stateMutability": "view",
      "type": "function"
    },
    {
      "inputs": [],
      "name": "payProtocolFee",
      "outputs": [],
      "stateMutability": "nonpayable",
      "type": "function"
    },
    {
      "inputs": [],
      "name": "proxiableUUID",
      "outputs": [
        {
          "internalType": "bytes32",
          "name": "uuid_",
          "type": "bytes32"
        }
      ],
      "stateMutability": "pure",
      "type": "function"
    },
    {
      "inputs": [
        {
          "internalType": "enum IVault.VaultAction",
          "name": "_action",
          "type": "uint8"
        },
        {
          "internalType": "bytes",
          "name": "_actionData",
          "type": "bytes"
        }
      ],
      "name": "receiveValidatedVaultAction",
      "outputs": [],
      "stateMutability": "nonpayable",
      "type": "function"
    },
    {
      "inputs": [
        {
          "internalType": "address[]",
          "name": "_managers",
          "type": "address[]"
        }
      ],
      "name": "removeAssetManagers",
      "outputs": [],
      "stateMutability": "nonpayable",
      "type": "function"
    },
    {
      "inputs": [],
      "name": "removeNominatedOwner",
      "outputs": [],
      "stateMutability": "nonpayable",
      "type": "function"
    },
    {
      "inputs": [
        {
          "internalType": "address",
          "name": "_nextAccessor",
          "type": "address"
        }
      ],
      "name": "setAccessor",
      "outputs": [],
      "stateMutability": "nonpayable",
      "type": "function"
    },
    {
      "inputs": [
        {
          "internalType": "address",
          "name": "_nextAccessor",
          "type": "address"
        }
      ],
      "name": "setAccessorForFundReconfiguration",
      "outputs": [],
      "stateMutability": "nonpayable",
      "type": "function"
    },
    {
      "inputs": [],
      "name": "setFreelyTransferableShares",
      "outputs": [],
      "stateMutability": "nonpayable",
      "type": "function"
    },
    {
      "inputs": [
        {
          "internalType": "address",
          "name": "_nextMigrator",
          "type": "address"
        }
      ],
      "name": "setMigrator",
      "outputs": [],
      "stateMutability": "nonpayable",
      "type": "function"
    },
    {
      "inputs": [
        {
          "internalType": "address",
          "name": "_nextNominatedOwner",
          "type": "address"
        }
      ],
      "name": "setNominatedOwner",
      "outputs": [],
      "stateMutability": "nonpayable",
      "type": "function"
    },
    {
      "inputs": [
        {
          "internalType": "address",
          "name": "_nextVaultLib",
          "type": "address"
        }
      ],
      "name": "setVaultLib",
      "outputs": [],
      "stateMutability": "nonpayable",
      "type": "function"
    },
    {
      "inputs": [],
      "name": "sharesAreFreelyTransferable",
      "outputs": [
        {
          "internalType": "bool",
          "name": "sharesAreFreelyTransferable_",
          "type": "bool"
        }
      ],
      "stateMutability": "view",
      "type": "function"
    },
    {
      "inputs": [],
      "name": "symbol",
      "outputs": [
        {
          "internalType": "string",
          "name": "symbol_",
          "type": "string"
        }
      ],
      "stateMutability": "view",
      "type": "function"
    },
    {
      "inputs": [],
      "name": "totalSupply",
      "outputs": [
        {
          "internalType": "uint256",
          "name": "",
          "type": "uint256"
        }
      ],
      "stateMutability": "view",
      "type": "function"
    },
    {
      "inputs": [
        {
          "internalType": "address",
          "name": "_recipient",
          "type": "address"
        },
        {
          "internalType": "uint256",
          "name": "_amount",
          "type": "uint256"
        }
      ],
      "name": "transfer",
      "outputs": [
        {
          "internalType": "bool",
          "name": "success_",
          "type": "bool"
        }
      ],
      "stateMutability": "nonpayable",
      "type": "function"
    },
    {
      "inputs": [
        {
          "internalType": "address",
          "name": "_sender",
          "type": "address"
        },
        {
          "internalType": "address",
          "name": "_recipient",
          "type": "address"
        },
        {
          "internalType": "uint256",
          "name": "_amount",
          "type": "uint256"
        }
      ],
      "name": "transferFrom",
      "outputs": [
        {
          "internalType": "bool",
          "name": "success_",
          "type": "bool"
        }
      ],
      "stateMutability": "nonpayable",
      "type": "function"
    },
    {
      "inputs": [
        {
          "internalType": "address",
          "name": "_from",
          "type": "address"
        },
        {
          "internalType": "address",
          "name": "_to",
          "type": "address"
        },
        {
          "internalType": "uint256",
          "name": "_amount",
          "type": "uint256"
        }
      ],
      "name": "transferShares",
      "outputs": [],
      "stateMutability": "nonpayable",
      "type": "function"
    },
    {
      "inputs": [
        {
          "internalType": "address",
          "name": "_asset",
          "type": "address"
        },
        {
          "internalType": "address",
          "name": "_target",
          "type": "address"
        },
        {
          "internalType": "uint256",
          "name": "_amount",
          "type": "uint256"
        }
      ],
      "name": "withdrawAssetTo",
      "outputs": [],
      "stateMutability": "nonpayable",
      "type": "function"
    },
    {
      "inputs": [
        {
          "internalType": "address",
          "name": "_asset",
          "type": "address"
        },
        {
          "internalType": "address",
          "name": "_target",
          "type": "address"
        },
        {
          "internalType": "uint256",
          "name": "_amount",
          "type": "uint256"
        }
      ],
      "name": "withdrawAssetToVault",
      "outputs": [],
      "stateMutability": "nonpayable",
      "type": "function"
    },
    {
      "stateMutability": "payable",
      "type": "receive"
    }
  ],
  "transactionHash": "0x22f1205ea8e00627a071caee23f8e2620ec283eafb7426129c1f0216a1dce266",
  "args": [
    "0x124dDf9BdD2DdaD012ef1D5bBd77c00F05C610DA",
    "0x5322471a7E37Ac2B8902cFcba84d266b37D811A0",
    "0xbe18A1B61ceaF59aEB6A9bC81AB4FB87D56Ba167",
    "0x0b27a79cb9C0B38eE06Ca3d94DAA68e0Ed17F953",
    "0xec67005c4E498Ec7f55E092bd1d35cbC47C91892",
    "0xc02aaa39b223fe8d0a0e5c4f27ead9083c756cc2"
  ],
  "solcInputHash": "9ea19bfcf79891da52df9f3687bdf904",
  "bytecode": "0x61014060405234801561001157600080fd5b506040516200481d3803806200481d833981810160405260c081101561003657600080fd5b5080516020820151604083015160608085015160808087015160a0978801516001600160601b031996851b871690925295831b851690965293811b831660c05290811b821660e05291821b81166101005291901b166101205260805160601c60a05160601c60c05160601c60e05160601c6101005160601c6101205160601c614732620000eb60003980610eb052508061200d52508061286f5250806128be5250806126195250806125f552506147326000f3fe6080604052600436106103545760003560e01c806370a08231116101c6578063a9059cbb116100f7578063c4b9737011610095578063da41962e1161006f578063da41962e14610e10578063dd62ed3e14610e25578063e70e605e14610e60578063ee7a7c0414610e75576103ef565b8063c4b9737014610dd1578063cd63d57814610de6578063d5c20fa214610dfb576103ef565b8063ac259456116100d1578063ac25945614610cff578063b3fc38e914610d14578063b8b7f14714610d29578063bfc77beb14610d8e576103ef565b8063a9059cbb14610c08578063a90cce4b14610c41578063ab9253ac14610ccc576103ef565b8063797ed339116101645780638156eecf1161013e5780638156eecf14610bb4578063893d20e814610bc957806395d89b4114610bde57806397c0ac8714610bf3576103ef565b8063797ed33914610b395780637c81ac2d14610b6c5780637de07cea14610b81576103ef565b8063728e17a0116101a0578063728e17a014610a94578063740f2b5a14610ac7578063749cc8f514610afa57806375d8bb0e14610b0f576103ef565b806370a08231146109fb578063712bd10214610a2e578063714ca2d114610a61576103ef565b80634140d607116102a05780635a53e3481161023e57806364cb36cb1161021857806364cb36cb14610956578063682cea19146109d15780636c6653191461078c5780636ea21143146109e6576103ef565b80635a53e3481461087a5780635c9a6d371461088f5780636487aa1114610923576103ef565b80634e71e0c81161027a5780634e71e0c8146107e45780634ef0762e146107f9578063528c198a1461082c57806352d1902d14610865576103ef565b80634140d60714610759578063495d753c1461078c5780634c252f91146107cf576103ef565b806323cf31181161030d57806328c2ad9c116102e757806328c2ad9c1461066b578063313ce5671461068057806336861889146106ab5780633e11553d146106de576103ef565b806323cf31181461059e57806324e60012146105d1578063288b6a3614610656576103ef565b806306fdde03146103f4578063095ea7b31461047e5780630ee2cb10146104cb57806318160ddd146104fc5780631ff46bfa1461052357806323b872dd1461055b576103ef565b366103ef573031610363610eae565b6001600160a01b031663d0e30db0826040518263ffffffff1660e01b81526004016000604051808303818588803b15801561039d57600080fd5b505af11580156103b1573d6000803e3d6000fd5b50506040805185815290513394507f85177f287940f2f05425a4029951af0e047a7f9c4eaa9a6e6917bcd869f866959350908190036020019150a250005b600080fd5b34801561040057600080fd5b50610409610ed3565b6040805160208082528351818301528351919283929083019185019080838360005b8381101561044357818101518382015260200161042b565b50505050905090810190601f1680156104705780820380516001836020036101000a031916815260200191505b509250505060405180910390f35b34801561048a57600080fd5b506104b7600480360360408110156104a157600080fd5b506001600160a01b038135169060200135610f69565b604080519115158252519081900360200190f35b3480156104d757600080fd5b506104e0610f7f565b604080516001600160a01b039092168252519081900360200190f35b34801561050857600080fd5b50610511610f8e565b60408051918252519081900360200190f35b34801561052f57600080fd5b506105596004803603606081101561054657600080fd5b5080359060208101359060400135610f94565b005b34801561056757600080fd5b506104b76004803603606081101561057e57600080fd5b506001600160a01b03813581169160208101359091169060400135611133565b3480156105aa57600080fd5b50610559600480360360208110156105c157600080fd5b50356001600160a01b0316611155565b3480156105dd57600080fd5b50610559600480360360408110156105f457600080fd5b60ff8235169190810190604081016020820135600160201b81111561061857600080fd5b82018360208201111561062a57600080fd5b803590602001918460018302840111600160201b8311171561064b57600080fd5b509092509050611273565b34801561066257600080fd5b506104e06115ff565b34801561067757600080fd5b506104b7611613565b34801561068c57600080fd5b5061069561161c565b6040805160ff9092168252519081900360200190f35b3480156106b757600080fd5b506104b7600480360360208110156106ce57600080fd5b50356001600160a01b0316611621565b3480156106ea57600080fd5b506105596004803603602081101561070157600080fd5b810190602081018135600160201b81111561071b57600080fd5b82018360208201111561072d57600080fd5b803590602001918460208302840111600160201b8311171561074e57600080fd5b509092509050611677565b34801561076557600080fd5b506105596004803603602081101561077c57600080fd5b50356001600160a01b03166117f7565b34801561079857600080fd5b50610559600480360360608110156107af57600080fd5b506001600160a01b0381358116916020810135909116906040013561189e565b3480156107db57600080fd5b506104e0610eae565b3480156107f057600080fd5b506105596118a9565b34801561080557600080fd5b506105596004803603602081101561081c57600080fd5b50356001600160a01b031661195b565b34801561083857600080fd5b506105596004803603604081101561084f57600080fd5b506001600160a01b0381351690602001356119b0565b34801561087157600080fd5b50610511611a07565b34801561088657600080fd5b506104e0611a2b565b34801561089b57600080fd5b50610559600480360360608110156108b257600080fd5b6001600160a01b038235811692602081013590911691810190606081016040820135600160201b8111156108e557600080fd5b8201836020820111156108f757600080fd5b803590602001918460018302840111600160201b8311171561091857600080fd5b509092509050611a3a565b34801561092f57600080fd5b506104b76004803603602081101561094657600080fd5b50356001600160a01b0316611b28565b34801561096257600080fd5b506105596004803603602081101561097957600080fd5b810190602081018135600160201b81111561099357600080fd5b8201836020820111156109a557600080fd5b803590602001918460208302840111600160201b831117156109c657600080fd5b509092509050611b46565b3480156109dd57600080fd5b506104e0611cb0565b3480156109f257600080fd5b506104e0611cd5565b348015610a0757600080fd5b5061051160048036036020811015610a1e57600080fd5b50356001600160a01b0316611db6565b348015610a3a57600080fd5b506104b760048036036020811015610a5157600080fd5b50356001600160a01b0316611dd1565b348015610a6d57600080fd5b506104b760048036036020811015610a8457600080fd5b50356001600160a01b0316611def565b348015610aa057600080fd5b5061055960048036036020811015610ab757600080fd5b50356001600160a01b0316611e1c565b348015610ad357600080fd5b5061055960048036036020811015610aea57600080fd5b50356001600160a01b0316611fab565b348015610b0657600080fd5b506104e061200b565b348015610b1b57600080fd5b506104e060048036036020811015610b3257600080fd5b503561202f565b348015610b4557600080fd5b506104b760048036036020811015610b5c57600080fd5b50356001600160a01b03166120ae565b348015610b7857600080fd5b506105596120cc565b348015610b8d57600080fd5b506104b760048036036020811015610ba457600080fd5b50356001600160a01b03166121a1565b348015610bc057600080fd5b506105596121d0565b348015610bd557600080fd5b506104e06122be565b348015610bea57600080fd5b506104096122cd565b348015610bff57600080fd5b506104e0612401565b348015610c1457600080fd5b506104b760048036036040811015610c2b57600080fd5b506001600160a01b03813516906020013561244c565b348015610c4d57600080fd5b5061040960048036036040811015610c6457600080fd5b6001600160a01b038235169190810190604081016020820135600160201b811115610c8e57600080fd5b820183602082011115610ca057600080fd5b803590602001918460018302840111600160201b83111715610cc157600080fd5b509092509050612463565b348015610cd857600080fd5b5061055960048036036020811015610cef57600080fd5b50356001600160a01b03166125aa565b348015610d0b57600080fd5b506104e06125f3565b348015610d2057600080fd5b506104e0612617565b348015610d3557600080fd5b50610d3e61263b565b60408051602080825283518183015283519192839290830191858101910280838360005b83811015610d7a578181015183820152602001610d62565b505050509050019250505060405180910390f35b348015610d9a57600080fd5b5061055960048036036060811015610db157600080fd5b506001600160a01b0381358116916020810135909116906040013561269c565b348015610ddd57600080fd5b50610d3e6126f0565b348015610df257600080fd5b506104e0612750565b348015610e0757600080fd5b5061055961275f565b348015610e1c57600080fd5b506104e061286d565b348015610e3157600080fd5b5061051160048036036040811015610e4857600080fd5b506001600160a01b0381358116916020013516612891565b348015610e6c57600080fd5b506104e06128bc565b348015610e8157600080fd5b5061055960048036036040811015610e9857600080fd5b506001600160a01b0381351690602001356128e0565b7f00000000000000000000000000000000000000000000000000000000000000005b90565b60008054604080516020601f6002600019610100600188161502019095169490940493840181900481028201810190925282815260609390929091830182828015610f5f5780601f10610f3457610100808354040283529160200191610f5f565b820191906000526020600020905b815481529060010190602001808311610f4257829003601f168201915b5050505050905090565b6000610f76338484612933565b50600192915050565b6006546001600160a01b031690565b60025490565b6005546001600160a01b03163314610fdd5760405162461bcd60e51b815260040180806020018281038252602f8152602001806143f0602f913960400191505060405180910390fd5b6000610fe761286d565b6001600160a01b03166396c45aec8585856040518463ffffffff1660e01b8152600401808481526020018381526020018281526020019350505050602060405180830381600087803b15801561103c57600080fd5b505af1158015611050573d6000803e3d6000fd5b505050506040513d602081101561106657600080fd5b5051905080611075575061112e565b61108661108061286d565b85612a1f565b61108e6128bc565b6001600160a01b03166342966c68826040518263ffffffff1660e01b815260040180828152602001915050600060405180830381600087803b1580156110d357600080fd5b505af11580156110e7573d6000803e3d6000fd5b5050604080518781526020810187905280820185905290517ff8c67da77ed4cb50a4dec91c60cf78ee219033bd3c55a86d133178c557c2d2cf9350908190036060019150a1505b505050565b6000611140848484612b0f565b61114b848484612c00565b90505b9392505050565b6008546001600160a01b0316611169612c69565b6001600160a01b0316146111ae5760405162461bcd60e51b81526004018080602001828103825260258152602001806141ac6025913960400191505060405180910390fd5b6007546001600160a01b03908116908216811415611213576040805162461bcd60e51b815260206004820152601e60248201527f7365744d69677261746f723a2056616c756520616c7265616479207365740000604482015290519081900360640190fd5b600780546001600160a01b0319166001600160a01b03848116918217909255604080519284168352602083019190915280517f9d0761a1fa4d686cd87f8dbf8ca52f90cf19c3c4dc36e66ebbf08fc5ba203f2c9281900390910190a15050565b6005546001600160a01b031633146112bc5760405162461bcd60e51b815260040180806020018281038252602f8152602001806143f0602f913960400191505060405180910390fd5b600883600a8111156112ca57fe5b14156113145761130f82828080601f016020809104026020016040519081016040528093929190818152602001838380828437600092019190915250612cad92505050565b61112e565b600483600a81111561132257fe5b14156113675761130f82828080601f016020809104026020016040519081016040528093929190818152602001838380828437600092019190915250612ccc92505050565b600583600a81111561137557fe5b14156113ba5761130f82828080601f016020809104026020016040519081016040528093929190818152602001838380828437600092019190915250612ceb92505050565b600183600a8111156113c857fe5b141561140d5761130f82828080601f016020809104026020016040519081016040528093929190818152602001838380828437600092019190915250612d2c92505050565b600983600a81111561141b57fe5b14156114605761130f82828080601f016020809104026020016040519081016040528093929190818152602001838380828437600092019190915250612d5c92505050565b600283600a81111561146e57fe5b14156114b35761130f82828080601f016020809104026020016040519081016040528093929190818152602001838380828437600092019190915250612fdf92505050565b600a83600a8111156114c157fe5b14156115065761130f82828080601f01602080910402602001604051908101604052809392919081815260200183838082843760009201919091525061300f92505050565b600683600a81111561151457fe5b14156115595761130f82828080601f01602080910402602001604051908101604052809392919081815260200183838082843760009201919091525061302e92505050565b600383600a81111561156757fe5b14156115ac5761130f82828080601f01602080910402602001604051908101604052809392919081815260200183838082843760009201919091525061304d92505050565b600783600a8111156115ba57fe5b141561112e5761112e82828080601f01602080910402602001604051908101604052809392919081815260200183838082843760009201919091525061308892505050565b600b5461010090046001600160a01b031690565b600b5460ff1690565b601290565b600061162b6122be565b6001600160a01b0316826001600160a01b0316148061164e575061164e82611b28565b80611671575061165c612750565b6001600160a01b0316826001600160a01b0316145b92915050565b6008546001600160a01b031661168b612c69565b6001600160a01b0316146116d05760405162461bcd60e51b81526004018080602001828103825260258152602001806141ac6025913960400191505060405180910390fd5b60005b8181101561112e576116ff8383838181106116ea57fe5b905060200201356001600160a01b0316611b28565b1561173b5760405162461bcd60e51b815260040180806020018281038252602c815260200180614269602c913960400191505060405180910390fd5b6001600d600085858581811061174d57fe5b905060200201356001600160a01b03166001600160a01b03166001600160a01b0316815260200190815260200160002060006101000a81548160ff0219169083151502179055507f8cf4dd2d46ca2e74b9cc238f9e9c907b5a6a50e2f652162a062d5e8129f35d7a8383838181106117c157fe5b905060200201356001600160a01b031660405180826001600160a01b0316815260200191505060405180910390a16001016116d3565b6006546001600160a01b031633146118405760405162461bcd60e51b81526004018080602001828103825260328152602001806143966032913960400191505060405180910390fd5b600061184a611cb0565b9050611855826130c3565b604080516001600160a01b0380841682528416602082015281517fe504a0278c9d64c1a72d2f528a0c5e3686e093fcd478b3b1224a5c6983207df6929181900390910190a15050565b61112e8383836131a9565b600b5461010090046001600160a01b03163381146118f85760405162461bcd60e51b815260040180806020018281038252603e8152602001806145af603e913960400191505060405180910390fd5b600b8054610100600160a81b0319169055600880546001600160a01b038381166001600160a01b0319831681179093556040519116919082907f8be0079c531659141344cd1fd0a4f28419497f9722a3daafe3b4186f6b6457e090600090a35050565b6005546001600160a01b031633146119a45760405162461bcd60e51b815260040180806020018281038252602f8152602001806143f0602f913960400191505060405180910390fd5b6119ad816132cb565b50565b6005546001600160a01b031633146119f95760405162461bcd60e51b815260040180806020018281038252602f8152602001806143f0602f913960400191505060405180910390fd5b611a0382826133d4565b5050565b7f027b9570e9fedc1a80b937ae9a06861e5faef3992491af30b684a64b3fbec7a590565b6005546001600160a01b031690565b6006546001600160a01b031615611a98576040805162461bcd60e51b815260206004820152601f60248201527f696e69743a2050726f787920616c726561647920696e697469616c697a656400604482015290519081900360640190fd5b600680546001600160a01b03191633179055611ab660008383614118565b50611ac0836134ba565b611ac984613562565b7fe504a0278c9d64c1a72d2f528a0c5e3686e093fcd478b3b1224a5c6983207df66000611af4611cb0565b60405180836001600160a01b03168152602001826001600160a01b031681526020019250505060405180910390a150505050565b6001600160a01b03166000908152600d602052604090205460ff1690565b6008546001600160a01b0316611b5a612c69565b6001600160a01b031614611b9f5760405162461bcd60e51b81526004018080602001828103825260258152602001806141ac6025913960400191505060405180910390fd5b60005b8181101561112e57611bb98383838181106116ea57fe5b611bf45760405162461bcd60e51b815260040180806020018281038252602b81526020018061469c602b913960400191505060405180910390fd5b6000600d6000858585818110611c0657fe5b905060200201356001600160a01b03166001600160a01b03166001600160a01b0316815260200190815260200160002060006101000a81548160ff0219169083151502179055507f1a3f6d43a85364a6a2d8297f0cd634e060a6ef9bc11b3a0c89e47d40b89c2f7e838383818110611c7a57fe5b905060200201356001600160a01b031660405180826001600160a01b0316815260200191505060405180910390a1600101611ba2565b7f360894a13ba1a3210667c828492db98dca3e2076cc3735a920a3ca505d382bbc5490565b6000611cdf6125f3565b6001600160a01b03166398a7c4c76040518163ffffffff1660e01b815260040160206040518083038186803b158015611d1757600080fd5b505afa158015611d2b573d6000803e3d6000fd5b505050506040513d6020811015611d4157600080fd5b505160408051637da0a87760e01b815290516001600160a01b0390921691637da0a87791600480820192602092909190829003018186803b158015611d8557600080fd5b505afa158015611d99573d6000803e3d6000fd5b505050506040513d6020811015611daf57600080fd5b5051905090565b6001600160a01b031660009081526003602052604090205490565b6001600160a01b03166000908152600e602052604090205460ff1690565b6000611df96122be565b6001600160a01b0316826001600160a01b03161480611671575061167182611b28565b6008546001600160a01b0316611e30612c69565b6001600160a01b031614611e755760405162461bcd60e51b81526004018080602001828103825260258152602001806141ac6025913960400191505060405180910390fd5b6001600160a01b038116611eba5760405162461bcd60e51b81526004018080602001828103825260368152602001806143606036913960400191505060405180910390fd5b6008546001600160a01b0382811691161415611f075760405162461bcd60e51b815260040180806020018281038252603b815260200180614495603b913960400191505060405180910390fd5b600b546001600160a01b03828116610100909204161415611f595760405162461bcd60e51b815260040180806020018281038252603b815260200180614523603b913960400191505060405180910390fd5b600b8054610100600160a81b0319166101006001600160a01b038416908102919091179091556040517f132c19de901bb4ed8403c34734b6c841d5dc57745824da452a52433519ea5abf90600090a250565b611fb3612401565b6001600160a01b0316336001600160a01b0316146120025760405162461bcd60e51b81526004018080602001828103825260288152602001806143c86028913960400191505060405180910390fd5b6119ad816134ba565b7f000000000000000000000000000000000000000000000000000000000000000090565b6000612039612617565b6001600160a01b03166375d8bb0e836040518263ffffffff1660e01b81526004018082815260200191505060206040518083038186803b15801561207c57600080fd5b505afa158015612090573d6000803e3d6000fd5b505050506040513d60208110156120a657600080fd5b505192915050565b6001600160a01b03166000908152600a602052604090205460ff1690565b6008546001600160a01b03166120e0612c69565b6001600160a01b0316146121255760405162461bcd60e51b81526004018080602001828103825260258152602001806141ac6025913960400191505060405180910390fd5b61212d611613565b156121695760405162461bcd60e51b81526004018080602001828103825260288152602001806146746028913960400191505060405180910390fd5b600b805460ff191660011790556040517f505ab4202e673074a7b93ec3c2ca442c3526a42232835c56d223bd09672c5b0d90600090a1565b6008546000906001600160a01b03838116911614806116715750506007546001600160a01b0390811691161490565b6008546001600160a01b03166121e4612c69565b6001600160a01b0316146122295760405162461bcd60e51b81526004018080602001828103825260258152602001806141ac6025913960400191505060405180910390fd5b600b5461010090046001600160a01b0316806122765760405162461bcd60e51b815260040180806020018281038252603181526020018061432f6031913960400191505060405180910390fd5b600b8054610100600160a81b03191690556040516001600160a01b038216907fe4136584a5e8bb85d66301f3ce8b11cc2e5a8bea3979f10ea2451353849acc4790600090a250565b6008546001600160a01b031690565b60065460408051625a3d8360e91b815290516060926001600160a01b03169163b47b0600916004808301926000929190829003018186803b15801561231157600080fd5b505afa158015612325573d6000803e3d6000fd5b505050506040513d6000823e601f3d908101601f19168201604052602081101561234e57600080fd5b8101908080516040519392919084600160201b82111561236d57600080fd5b90830190602082018581111561238257600080fd5b8251600160201b81118282018810171561239b57600080fd5b82525081516020918201929091019080838360005b838110156123c85781810151838201526020016123b0565b50505050905090810190601f1680156123f55780820380516001836020036101000a031916815260200191505b50604052505050905090565b600654604080516307af8e9f60e31b815230600482015290516000926001600160a01b031691633d7c74f8916024808301926020929190829003018186803b158015611d8557600080fd5b6000612459338484612b0f565b61114e8383613656565b6005546060906001600160a01b031633146124af5760405162461bcd60e51b815260040180806020018281038252602f8152602001806143f0602f913960400191505060405180910390fd5b6000846001600160a01b03168484604051808383808284376040519201945060009350909150508083038183865af19150503d806000811461250d576040519150601f19603f3d011682016040523d82523d6000602084013e612512565b606091505b509250905081816125a15760405162461bcd60e51b81526004018080602001828103825283818151815260200191508051906020019080838360005b8381101561256657818101518382015260200161254e565b50505050905090810190601f1680156125935780820380516001836020036101000a031916815260200191505b509250505060405180910390fd5b50509392505050565b6006546001600160a01b031633146120025760405162461bcd60e51b81526004018080602001828103825260328152602001806144d06032913960400191505060405180910390fd5b7f000000000000000000000000000000000000000000000000000000000000000090565b7f000000000000000000000000000000000000000000000000000000000000000090565b6060600c805480602002602001604051908101604052809291908181526020018280548015610f5f57602002820191906000526020600020905b81546001600160a01b03168152600190910190602001808311612675575050505050905090565b6005546001600160a01b031633146126e55760405162461bcd60e51b815260040180806020018281038252602f8152602001806143f0602f913960400191505060405180910390fd5b61112e83838361365f565b60606009805480602002602001604051908101604052809291908181526020018280548015610f5f576020028201919060005260206000209081546001600160a01b03168152600190910190602001808311612675575050505050905090565b6007546001600160a01b031690565b6005546001600160a01b031633146127a85760405162461bcd60e51b815260040180806020018281038252602f8152602001806143f0602f913960400191505060405180910390fd5b60006127b261200b565b6001600160a01b031663296102526040518163ffffffff1660e01b8152600401602060405180830381600087803b1580156127ec57600080fd5b505af1158015612800573d6000803e3d6000fd5b505050506040513d602081101561281657600080fd5b5051905080612825575061286b565b61283661283061286d565b826133d4565b6040805182815290517f390f4e733d9d6104fbfb7508fdaf57640ea4179603e995d21027fda40e2576979181900360200190a1505b565b7f000000000000000000000000000000000000000000000000000000000000000090565b6001600160a01b03918216600090815260046020908152604080832093909416825291909152205490565b7f000000000000000000000000000000000000000000000000000000000000000090565b6005546001600160a01b031633146129295760405162461bcd60e51b815260040180806020018281038252602f8152602001806143f0602f913960400191505060405180910390fd5b611a038282612a1f565b6001600160a01b0383166129785760405162461bcd60e51b81526004018080602001828103825260248152602001806146266024913960400191505060405180910390fd5b6001600160a01b0382166129bd5760405162461bcd60e51b81526004018080602001828103825260228152602001806142476022913960400191505060405180910390fd5b6001600160a01b03808416600081815260046020908152604080832094871680845294825291829020859055815185815291517f8c5be1e5ebec7d5bd14f71427d1e84f3dd0314c0f7b2291e5b200ac8c7c3b9259281900390910190a3505050565b6001600160a01b038216612a645760405162461bcd60e51b81526004018080602001828103825260218152602001806145026021913960400191505060405180910390fd5b612aa1816040518060600160405280602281526020016141f4602291396001600160a01b03851660009081526003602052604090205491906137b1565b6001600160a01b038316600090815260036020526040902055600254612ac7908261380b565b6002556040805182815290516000916001600160a01b038516917fddf252ad1be2c89b69c2b068fc378daa952ba7f163c4a11628f55a4df523b3ef9181900360200190a35050565b612b17611613565b15612b865760055460408051631f3abfcf60e31b81526001600160a01b0386811660048301529151919092169163f9d5fe78916024808301926000929190829003018186803b158015612b6957600080fd5b505afa158015612b7d573d6000803e3d6000fd5b5050505061112e565b60055460408051630979029360e11b81526001600160a01b038681166004830152858116602483015260448201859052915191909216916312f2052691606480830192600092919082900301818387803b158015612be357600080fd5b505af1158015612bf7573d6000803e3d6000fd5b50505050505050565b6000612c0d84848461365f565b612c5f8433612c5a8560405180606001604052806028815260200161441f602891396001600160a01b038a16600090815260046020908152604080832033845290915290205491906137b1565b612933565b5060019392505050565b600060183610801590612c945750612c7f611cd5565b6001600160a01b0316336001600160a01b0316145b15612ca8575060131936013560601c610ed0565b503390565b6119ad818060200190516020811015612cc557600080fd5b5051613830565b6119ad818060200190516020811015612ce457600080fd5b50516132cb565b6000806000838060200190516060811015612d0557600080fd5b50805160208201516040909201519094509092509050612d268383836138d1565b50505050565b600080828060200190516040811015612d4457600080fd5b508051602090910151909250905061112e8282612a1f565b60006060806060808580602001905160a0811015612d7957600080fd5b815160208301805160405192949293830192919084600160201b821115612d9f57600080fd5b908301906020820185811115612db457600080fd5b8251600160201b811182820188101715612dcd57600080fd5b82525081516020918201929091019080838360005b83811015612dfa578181015183820152602001612de2565b50505050905090810190601f168015612e275780820380516001836020036101000a031916815260200191505b5060405260200180516040519392919084600160201b821115612e4957600080fd5b908301906020820185811115612e5e57600080fd5b82518660208202830111600160201b82111715612e7a57600080fd5b82525081516020918201928201910280838360005b83811015612ea7578181015183820152602001612e8f565b5050505090500160405260200180516040519392919084600160201b821115612ecf57600080fd5b908301906020820185811115612ee457600080fd5b82518660208202830111600160201b82111715612f0057600080fd5b82525081516020918201928201910280838360005b83811015612f2d578181015183820152602001612f15565b5050505090500160405260200180516040519392919084600160201b821115612f5557600080fd5b908301906020820185811115612f6a57600080fd5b82518660208202830111600160201b82111715612f8657600080fd5b82525081516020918201928201910280838360005b83811015612fb3578181015183820152602001612f9b565b5050505090500160405250505094509450945094509450612fd785858585856139de565b505050505050565b600080828060200190516040811015612ff757600080fd5b508051602090910151909250905061112e82826133d4565b6119ad81806020019051602081101561302757600080fd5b5051613b56565b6119ad81806020019051602081101561304657600080fd5b5051613bc7565b600080600083806020019051606081101561306757600080fd5b50805160208201516040909201519094509092509050612d2683838361365f565b60008060008380602001905160608110156130a257600080fd5b50805160208201516040909201519094509092509050612d268383836131a9565b806001600160a01b03166352d1902d6040518163ffffffff1660e01b815260040160206040518083038186803b1580156130fc57600080fd5b505afa158015613110573d6000803e3d6000fd5b505050506040513d602081101561312657600080fd5b50517f027b9570e9fedc1a80b937ae9a06861e5faef3992491af30b684a64b3fbec7a5146131855760405162461bcd60e51b81526004018080602001828103825260318152602001806142166031913960400191505060405180910390fd5b7f360894a13ba1a3210667c828492db98dca3e2076cc3735a920a3ca505d382bbc55565b826001600160a01b0381163014156131ff576040805162461bcd60e51b815260206004820152601460248201527343616e6e6f7420616374206f6e2073686172657360601b604482015290519081900360640190fd5b836001600160a01b031663a9059cbb84846040518363ffffffff1660e01b815260040180836001600160a01b0316815260200182815260200192505050602060405180830381600087803b15801561325657600080fd5b505af115801561326a573d6000803e3d6000fd5b505050506040513d602081101561328057600080fd5b50506040805183815290516001600160a01b0380861692908716917f6f9cbac839b826cc524f53d10416c053fce34ec15fd1001720e777cc49720e769181900360200190a350505050565b806001600160a01b038116301415613321576040805162461bcd60e51b815260206004820152601460248201527343616e6e6f7420616374206f6e2073686172657360601b604482015290519081900360640190fd5b61332a826120ae565b611a0357613336613c40565b6001600160a01b0382166000818152600a60209081526040808320805460ff191660019081179091556009805491820181559093527f6e1540171b6c0c960b71a7020d9f60077f6af931a8bbf590da0223dacf75c7af90920180546001600160a01b03191684179055815192835290517fa0d2bfad19dc0c6970d2a2fcff65458a6d7c4fa3b6d904f44961b2c744bdf5919281900390910190a15050565b6001600160a01b03821661342f576040805162461bcd60e51b815260206004820152601f60248201527f45524332303a206d696e7420746f20746865207a65726f206164647265737300604482015290519081900360640190fd5b60025461343c9082613c86565b6002556001600160a01b0382166000908152600360205260409020546134629082613c86565b6001600160a01b03831660008181526003602090815260408083209490945583518581529351929391927fddf252ad1be2c89b69c2b068fc378daa952ba7f163c4a11628f55a4df523b3ef9281900390910190a35050565b6001600160a01b0381166134ff5760405162461bcd60e51b815260040180806020018281038252602c815260200180614583602c913960400191505060405180910390fd5b600580546001600160a01b038381166001600160a01b0319831681179093556040805191909216808252602082019390935281517fb5a9def940973a936e331170816650368964b0602957d4bc60f5ddc2dc1b69cd929181900390910190a15050565b6001600160a01b0381166135a75760405162461bcd60e51b81526004018080602001828103825260268152602001806142bb6026913960400191505060405180910390fd5b6008546001600160a01b039081169082168114156135f65760405162461bcd60e51b815260040180806020018281038252602b81526020018061446a602b913960400191505060405180910390fd5b600880546001600160a01b0319166001600160a01b03848116918217909255604080519284168352602083019190915280517f342827c97908e5e2f71151c08502a66d44b6f758e3ac2f1de95f02eb95f0a7359281900390910190a15050565b6000610f763384845b6001600160a01b0383166136a45760405162461bcd60e51b815260040180806020018281038252602581526020018061455e6025913960400191505060405180910390fd5b6001600160a01b0382166136e95760405162461bcd60e51b81526004018080602001828103825260238152602001806141d16023913960400191505060405180910390fd5b61372681604051806060016040528060268152602001614295602691396001600160a01b03861660009081526003602052604090205491906137b1565b6001600160a01b0380851660009081526003602052604080822093909355908416815220546137559082613c86565b6001600160a01b0380841660008181526003602090815260409182902094909455805185815290519193928716927fddf252ad1be2c89b69c2b068fc378daa952ba7f163c4a11628f55a4df523b3ef92918290030190a3505050565b600081848411156138035760405162461bcd60e51b815260206004820181815283516024840152835190928392604490910191908501908083836000831561256657818101518382015260200161254e565b505050900390565b600061114e8383604051806060016040528060268152602001614309602691396137b1565b61383981611dd1565b6119ad57613845613c40565b6001600160a01b0381166000818152600e6020526040808220805460ff19166001908117909155600c8054918201815583527fdf6966c971051c3d54ec59162606531493a51404a002842f56009d7e5cf4a8c70180546001600160a01b03191684179055517f07524f5de87a754cb09f25965c3355b50dfece5fa624111739d5bf5caa05ebe69190a250565b826001600160a01b038116301415613927576040805162461bcd60e51b815260206004820152601460248201527343616e6e6f7420616374206f6e2073686172657360601b604482015290519081900360640190fd5b60408051636eb1769f60e11b81523060048201526001600160a01b038581166024830152915186926000929084169163dd62ed3e91604480820192602092909190829003018186803b15801561397c57600080fd5b505afa158015613990573d6000803e3d6000fd5b505050506040513d60208110156139a657600080fd5b505111156139c3576139c36001600160a01b038216856000613cca565b6139d76001600160a01b0382168585613cca565b5050505050565b6139e785611dd1565b613a225760405162461bcd60e51b81526004018080602001828103825260398152602001806145ed6039913960400191505060405180910390fd5b60005b8351811015613a6757613a5f848281518110613a3d57fe5b602002602001015187858481518110613a5257fe5b60200260200101516131a9565b600101613a25565b5060405163e5c23a9760e01b81526020600482018181528651602484015286516001600160a01b0389169363e5c23a979389939283926044019185019080838360005b83811015613ac2578181015183820152602001613aaa565b50505050905090810190601f168015613aef5780820380516001836020036101000a031916815260200191505b5092505050600060405180830381600087803b158015613b0e57600080fd5b505af1158015613b22573d6000803e3d6000fd5b5050505060005b8151811015612fd757613b4e828281518110613b4157fe5b60200260200101516132cb565b600101613b29565b613b5f81611dd1565b156119ad576001600160a01b0381166000908152600e60205260409020805460ff19169055613b8f600c82613ddd565b506040516001600160a01b038216907f5af401380f7c5a87ba294191b430d5c1c6dcc133c1d774c092cb0d6a52e20bef90600090a250565b613bd0816120ae565b156119ad576001600160a01b0381166000908152600a60205260409020805460ff19169055613c00600982613ddd565b50604080516001600160a01b038316815290517f22c4fcf23b40d39b02733ec19a3975b31172f2a5b2ce5d0f1831525276cd71569181900360200190a150565b600c54600954601491011061286b5760405162461bcd60e51b81526004018080602001828103825260288152602001806142e16028913960400191505060405180910390fd5b60008282018381101561114e5760405162461bcd60e51b81526004018080602001828103825260238152602001806144476023913960400191505060405180910390fd5b801580613d50575060408051636eb1769f60e11b81523060048201526001600160a01b03848116602483015291519185169163dd62ed3e91604480820192602092909190829003018186803b158015613d2257600080fd5b505afa158015613d36573d6000803e3d6000fd5b505050506040513d6020811015613d4c57600080fd5b5051155b613d8b5760405162461bcd60e51b81526004018080602001828103825260368152602001806146c76036913960400191505060405180910390fd5b604080516001600160a01b038416602482015260448082018490528251808303909101815260649091019091526020810180516001600160e01b031663095ea7b360e01b17905261112e908490613ed5565b8154600090815b81811015613ecd57836001600160a01b0316858281548110613e0257fe5b6000918252602090912001546001600160a01b03161415613ec55760018203811015613e9057846001830381548110613e3757fe5b9060005260206000200160009054906101000a90046001600160a01b0316858281548110613e6157fe5b9060005260206000200160006101000a8154816001600160a01b0302191690836001600160a01b031602179055505b84805480613e9a57fe5b600082815260209020810160001990810180546001600160a01b031916905501905560019250613ecd565b600101613de4565b505092915050565b6060613f2a826040518060400160405280602081526020017f5361666545524332303a206c6f772d6c6576656c2063616c6c206661696c6564815250856001600160a01b0316613f869092919063ffffffff16565b80519091501561112e57808060200190516020811015613f4957600080fd5b505161112e5760405162461bcd60e51b815260040180806020018281038252602a81526020018061464a602a913960400191505060405180910390fd5b606061114b848460008585613f9a856140ac565b613feb576040805162461bcd60e51b815260206004820152601d60248201527f416464726573733a2063616c6c20746f206e6f6e2d636f6e7472616374000000604482015290519081900360640190fd5b60006060866001600160a01b031685876040518082805190602001908083835b6020831061402a5780518252601f19909201916020918201910161400b565b6001836020036101000a03801982511681845116808217855250505050505090500191505060006040518083038185875af1925050503d806000811461408c576040519150601f19603f3d011682016040523d82523d6000602084013e614091565b606091505b50915091506140a18282866140b2565b979650505050505050565b3b151590565b606083156140c157508161114e565b8251156140d15782518084602001fd5b60405162461bcd60e51b815260206004820181815284516024840152845185939192839260440191908501908083836000831561256657818101518382015260200161254e565b828054600181600116156101000203166002900490600052602060002090601f016020900481019282601f106141595782800160ff19823516178555614186565b82800160010185558215614186579182015b8281111561418657823582559160200191906001019061416b565b50614192929150614196565b5090565b5b80821115614192576000815560010161419756fe4f6e6c7920746865206f776e65722063616e2063616c6c20746869732066756e6374696f6e45524332303a207472616e7366657220746f20746865207a65726f206164647265737345524332303a206275726e20616d6f756e7420657863656564732062616c616e63655f5f757064617465436f6465416464726573733a205f6e6578745661756c744c6962206e6f7420636f6d70617469626c6545524332303a20617070726f766520746f20746865207a65726f206164647265737361646441737365744d616e61676572733a204d616e6167657220616c7265616479207265676973746572656445524332303a207472616e7366657220616d6f756e7420657863656564732062616c616e63655f5f7365744f776e65723a205f6e6578744f776e65722063616e6e6f7420626520656d7074795f5f76616c6964617465506f736974696f6e734c696d69743a204c696d69742065786365656465645661756c744c6962536166654d6174683a207375627472616374696f6e206f766572666c6f7772656d6f76654e6f6d696e617465644f776e65723a205468657265206973206e6f206e6f6d696e61746564206f776e65727365744e6f6d696e617465644f776e65723a205f6e6578744e6f6d696e617465644f776e65722063616e6e6f7420626520656d7074797365745661756c744c69623a204f6e6c792063616c6c61626c652062792074686520636f6e74726163742063726561746f724f6e6c79207468652046756e644465706c6f7965722063616e206d616b6520746869732063616c6c4f6e6c79207468652064657369676e61746564206163636573736f722063616e206d616b6520746869732063616c6c45524332303a207472616e7366657220616d6f756e74206578636565647320616c6c6f77616e63655661756c744c6962536166654d6174683a206164646974696f6e206f766572666c6f775f5f7365744f776e65723a205f6e6578744f776e6572206973207468652063757272656e74206f776e65727365744e6f6d696e617465644f776e65723a205f6e6578744e6f6d696e617465644f776e657220697320616c726561647920746865206f776e65727365744163636573736f723a204f6e6c792063616c6c61626c652062792074686520636f6e74726163742063726561746f7245524332303a206275726e2066726f6d20746865207a65726f20616464726573737365744e6f6d696e617465644f776e65723a205f6e6578744e6f6d696e617465644f776e657220697320616c7265616479206e6f6d696e6174656445524332303a207472616e736665722066726f6d20746865207a65726f20616464726573735f5f7365744163636573736f723a205f6e6578744163636573736f722063616e6e6f7420626520656d707479636c61696d4f776e6572736869703a204f6e6c7920746865206e6f6d696e617465644f776e65722063616e2063616c6c20746869732066756e6374696f6e5f5f63616c6c4f6e45787465726e616c506f736974696f6e3a204e6f7420616e206163746976652065787465726e616c20706f736974696f6e45524332303a20617070726f76652066726f6d20746865207a65726f20616464726573735361666545524332303a204552433230206f7065726174696f6e20646964206e6f742073756363656564736574467265656c795472616e7366657261626c655368617265733a20416c72656164792073657472656d6f766541737365744d616e61676572733a204d616e61676572206e6f7420726567697374657265645361666545524332303a20617070726f76652066726f6d206e6f6e2d7a65726f20746f206e6f6e2d7a65726f20616c6c6f77616e6365a2646970667358221220f59bac99f24841140e2256e17530d5abe54b00d0588461ae6e74e96bffe092f364736f6c634300060c0033",
  "devdoc": {
    "author": "Enzyme Council <security@enzyme.finance>",
    "details": "The difference in terminology between \"asset\" and \"trackedAsset\" is intentional. A fund might actually have asset balances of un-tracked assets, but only tracked assets are used in gav calculations. Note that this contract inherits VaultLibSafeMath (a verbatim Open Zeppelin SafeMath copy) from SharesTokenBase via VaultLibBase2",
    "kind": "dev",
    "methods": {
      "addAssetManagers(address[])": {
        "params": {
          "_managers": "The accounts to add as asset managers"
        }
      },
      "addTrackedAsset(address)": {
        "params": {
          "_asset": "The asset to add as a tracked asset"
        }
      },
      "allowance(address,address)": {
        "details": "Standard implementation of ERC20's allowance(). Can be overridden."
      },
      "approve(address,uint256)": {
        "details": "Standard implementation of ERC20's approve(). Can be overridden."
      },
      "balanceOf(address)": {
        "details": "Standard implementation of ERC20's balanceOf(). Can be overridden."
      },
      "burnShares(address,uint256)": {
        "params": {
          "_amount": "The amount of shares to burn",
          "_target": "The account for which to burn shares"
        }
      },
      "buyBackProtocolFeeShares(uint256,uint256,uint256)": {
        "details": "Since the vault controls both the MLN to burn and the admin function to burn any user's fund shares, there is no need to transfer assets back-and-forth with the ProtocolFeeReserve. We only need to know the correct discounted amount of MLN to burn.",
        "params": {
          "_gav": "The total fund GAV",
          "_mlnValue": "The MLN-denominated market value of _sharesAmount",
          "_sharesAmount": "The amount of shares to buy back"
        }
      },
      "callOnContract(address,bytes)": {
        "params": {
          "_callData": "The call data for the call",
          "_contract": "The contract to call"
        },
        "returns": {
          "returnData_": "The data returned by the call"
        }
      },
      "canManageAssets(address)": {
        "params": {
          "_who": "The account to check"
        },
        "returns": {
          "canManageAssets_": "True if the account can manage assets"
        }
      },
      "canMigrate(address)": {
        "params": {
          "_who": "The account to check"
        },
        "returns": {
          "canMigrate_": "True if the account is allowed to migrate the VaultProxy"
        }
      },
      "canRelayCalls(address)": {
        "params": {
          "_who": "The account to check"
        },
        "returns": {
          "canRelayCalls_": "True if the account can use gas relaying on this fund"
        }
      },
      "decimals()": {
        "details": "Standard implementation of ERC20's decimals(). Can not be overridden."
      },
      "getAccessor()": {
        "returns": {
          "accessor_": "The `accessor` variable value"
        }
      },
      "getActiveExternalPositions()": {
        "returns": {
          "activeExternalPositions_": "The `activeExternalPositions` variable value"
        }
      },
      "getCreator()": {
        "returns": {
          "creator_": "The `creator` variable value"
        }
      },
      "getExternalPositionLibForType(uint256)": {
        "params": {
          "_typeId": "The type for which to get the external position library"
        },
        "returns": {
          "externalPositionLib_": "The external position library"
        }
      },
      "getExternalPositionManager()": {
        "returns": {
          "externalPositionManager_": "The `EXTERNAL_POSITION_MANAGER` variable value"
        }
      },
      "getFundDeployer()": {
        "returns": {
          "fundDeployer_": "The fund deployer contract associated with this vault"
        }
      },
      "getGasRelayPaymasterFactory()": {
        "returns": {
          "gasRelayPaymasterFactory_": "The `GAS_RELAY_PAYMASTER_FACTORY` variable value"
        }
      },
      "getGasRelayTrustedForwarder()": {
        "returns": {
          "trustedForwarder_": "The trusted forwarder"
        }
      },
      "getMigrator()": {
        "returns": {
          "migrator_": "The `migrator` variable value"
        }
      },
      "getMlnToken()": {
        "returns": {
          "mlnToken_": "The `MLN_TOKEN` variable value"
        }
      },
      "getNominatedOwner()": {
        "returns": {
          "nominatedOwner_": "The account that is nominated to be the owner"
        }
      },
      "getOwner()": {
        "returns": {
          "owner_": "The `owner` variable value"
        }
      },
      "getProtocolFeeReserve()": {
        "returns": {
          "protocolFeeReserve_": "The `PROTOCOL_FEE_RESERVE` variable value"
        }
      },
      "getProtocolFeeTracker()": {
        "returns": {
          "protocolFeeTracker_": "The `PROTOCOL_FEE_TRACKER` variable value"
        }
      },
      "getTrackedAssets()": {
        "returns": {
          "trackedAssets_": "The `trackedAssets` variable value"
        }
      },
      "getVaultLib()": {
        "returns": {
          "vaultLib_": "The address of the VaultLib target"
        }
      },
      "getWethToken()": {
        "returns": {
          "wethToken_": "The `WETH_TOKEN` variable value"
        }
      },
      "init(address,address,string)": {
        "details": "Serves as a per-proxy pseudo-constructor",
        "params": {
          "_accessor": "The address to set as the permissioned accessor of the VaultLib",
          "_fundName": "The name of the fund",
          "_owner": "The address to set as the fund owner"
        }
      },
      "isActiveExternalPosition(address)": {
        "params": {
          "_externalPosition": "The externalPosition to check"
        },
        "returns": {
          "isActiveExternalPosition_": "True if the address is an active external position on the vault"
        }
      },
      "isAssetManager(address)": {
        "params": {
          "_who": "The account to check"
        },
        "returns": {
          "isAssetManager_": "True if the account is an allowed asset manager"
        }
      },
      "isTrackedAsset(address)": {
        "params": {
          "_asset": "The address to check"
        },
        "returns": {
          "isTrackedAsset_": "True if the address is a tracked asset"
        }
      },
      "mintShares(address,uint256)": {
        "params": {
          "_amount": "The amount of shares to mint",
          "_target": "The account for which to burn shares"
        }
      },
      "name()": {
        "details": "Standard implementation of ERC20's name(). Can be overridden."
      },
      "proxiableUUID()": {
        "details": "The UUID is `bytes32(keccak256('mln.proxiable.vaultlib'))`",
        "returns": {
          "uuid_": "The bytes32 hash representing the UUID"
        }
      },
      "receiveValidatedVaultAction(uint8,bytes)": {
        "params": {
          "_action": "The VaultAction to perform",
          "_actionData": "The call data for the action to perform"
        }
      },
      "removeAssetManagers(address[])": {
        "params": {
          "_managers": "The accounts to remove as asset managers"
        }
      },
      "setAccessor(address)": {
        "params": {
          "_nextAccessor": "The address to set as the permissioned accessor of the VaultLib"
        }
      },
      "setAccessorForFundReconfiguration(address)": {
        "params": {
          "_nextAccessor": "The next accessor"
        }
      },
      "setFreelyTransferableShares()": {
        "details": "Once set, this can never be allowed to be unset, as it provides a critical transferability guarantee to liquidity pools and other smart contract holders that rely on transfers to function properly. Enabling this option will skip all policies run upon transferring shares, but will still respect the shares action timelock."
      },
      "setMigrator(address)": {
        "details": "Set to address(0) to remove the migrator.",
        "params": {
          "_nextMigrator": "The account to set as the allowed migrator"
        }
      },
      "setNominatedOwner(address)": {
        "details": "Does not prohibit overwriting the current nominatedOwner",
        "params": {
          "_nextNominatedOwner": "The account to nominate"
        }
      },
      "setVaultLib(address)": {
        "details": "This function is absolutely critical. __updateCodeAddress() validates that the target is a valid Proxiable contract instance. Does not block _nextVaultLib from being the same as the current VaultLib",
        "params": {
          "_nextVaultLib": "The address to set as the VaultLib"
        }
      },
      "sharesAreFreelyTransferable()": {
        "returns": {
          "sharesAreFreelyTransferable_": "True if shares are (permanently) freely transferable"
        }
      },
      "symbol()": {
        "details": "Defers the shares symbol value to the Dispatcher contract",
        "returns": {
          "symbol_": "The `symbol` value"
        }
      },
      "totalSupply()": {
        "details": "Standard implementation of ERC20's totalSupply(). Can be overridden."
      },
      "transfer(address,uint256)": {
        "details": "Standard implementation of ERC20's transfer(). Overridden to allow arbitrary logic in ComptrollerProxy prior to transfer."
      },
      "transferFrom(address,address,uint256)": {
        "details": "Standard implementation of ERC20's transferFrom(). Overridden to allow arbitrary logic in ComptrollerProxy prior to transfer."
      },
      "transferShares(address,address,uint256)": {
        "details": "For protocol use only, all other transfers should operate via standard ERC20 functions",
        "params": {
          "_amount": "The amount of shares to transfer",
          "_from": "The account from which to transfer shares",
          "_to": "The account to which to transfer shares"
        }
      },
      "withdrawAssetTo(address,address,uint256)": {
        "params": {
          "_amount": "The amount of asset to withdraw",
          "_asset": "The asset to withdraw",
          "_target": "The account to which to withdraw the asset"
        }
      },
      "withdrawAssetToVault(address,address,uint256)": {
        "params": {
          "_amount": "The amount of asset to withdraw",
          "_asset": "The asset to withdraw",
          "_target": "The account to which to withdraw the asset"
        }
      }
    },
    "title": "VaultLib Contract",
    "version": 1
  },
  "userdoc": {
    "kind": "user",
    "methods": {
      "addAssetManagers(address[])": {
        "notice": "Registers accounts that can manage vault holdings within the protocol"
      },
      "addTrackedAsset(address)": {
        "notice": "Adds a tracked asset"
      },
      "burnShares(address,uint256)": {
        "notice": "Burns fund shares from a particular account"
      },
      "buyBackProtocolFeeShares(uint256,uint256,uint256)": {
        "notice": "Buys back shares collected as protocol fee at a discounted shares price, using MLN"
      },
      "callOnContract(address,bytes)": {
        "notice": "Makes an arbitrary call with this contract as the sender"
      },
      "canManageAssets(address)": {
        "notice": "Checks whether an account can manage assets"
      },
      "canMigrate(address)": {
        "notice": "Checks whether an account is allowed to migrate the VaultProxy"
      },
      "canRelayCalls(address)": {
        "notice": "Checks whether an account can use gas relaying"
      },
      "claimOwnership()": {
        "notice": "Claim ownership of the contract"
      },
      "getAccessor()": {
        "notice": "Gets the `accessor` variable"
      },
      "getActiveExternalPositions()": {
        "notice": "Gets the `activeExternalPositions` variable"
      },
      "getCreator()": {
        "notice": "Gets the `creator` variable"
      },
      "getExternalPositionLibForType(uint256)": {
        "notice": "Gets the external position library contract for a given type"
      },
      "getExternalPositionManager()": {
        "notice": "Gets the `EXTERNAL_POSITION_MANAGER` variable"
      },
      "getFundDeployer()": {
        "notice": "Gets the vaults fund deployer"
      },
      "getGasRelayPaymasterFactory()": {
        "notice": "Gets the `GAS_RELAY_PAYMASTER_FACTORY` variable"
      },
      "getGasRelayTrustedForwarder()": {
        "notice": "Gets the trusted forwarder for GSN relaying"
      },
      "getMigrator()": {
        "notice": "Gets the `migrator` variable"
      },
      "getMlnToken()": {
        "notice": "Gets the `MLN_TOKEN` variable"
      },
      "getNominatedOwner()": {
        "notice": "Gets the account that is nominated to be the next owner of this contract"
      },
      "getOwner()": {
        "notice": "Gets the `owner` variable"
      },
      "getProtocolFeeReserve()": {
        "notice": "Gets the `PROTOCOL_FEE_RESERVE` variable"
      },
      "getProtocolFeeTracker()": {
        "notice": "Gets the `PROTOCOL_FEE_TRACKER` variable"
      },
      "getTrackedAssets()": {
        "notice": "Gets the `trackedAssets` variable"
      },
      "getVaultLib()": {
        "notice": "Gets the VaultLib target for the VaultProxy"
      },
      "getWethToken()": {
        "notice": "Gets the `WETH_TOKEN` variable"
      },
      "init(address,address,string)": {
        "notice": "Initializes the VaultProxy with core configuration"
      },
      "isActiveExternalPosition(address)": {
        "notice": "Check whether an external position is active on the vault"
      },
      "isAssetManager(address)": {
        "notice": "Checks whether an account is an allowed asset manager"
      },
      "isTrackedAsset(address)": {
        "notice": "Checks whether an address is a tracked asset of the vault"
      },
      "mintShares(address,uint256)": {
        "notice": "Mints fund shares to a particular account"
      },
      "payProtocolFee()": {
        "notice": "Pays the due protocol fee by minting shares to the ProtocolFeeReserve"
      },
      "proxiableUUID()": {
        "notice": "Returns a unique bytes32 hash for VaultLib instances"
      },
      "receiveValidatedVaultAction(uint8,bytes)": {
        "notice": "Dispatches a call initiated from an Extension, validated by the ComptrollerProxy"
      },
      "removeAssetManagers(address[])": {
        "notice": "Deregisters accounts that can manage vault holdings within the protocol"
      },
      "removeNominatedOwner()": {
        "notice": "Revoke the nomination of a new contract owner"
      },
      "setAccessor(address)": {
        "notice": "Sets the permissioned accessor of the VaultLib"
      },
      "setAccessorForFundReconfiguration(address)": {
        "notice": "Updates the accessor during a config change within this release"
      },
      "setFreelyTransferableShares()": {
        "notice": "Sets shares as (permanently) freely transferable"
      },
      "setMigrator(address)": {
        "notice": "Sets the account that is allowed to migrate a fund to new releases"
      },
      "setNominatedOwner(address)": {
        "notice": "Nominate a new contract owner"
      },
      "setVaultLib(address)": {
        "notice": "Sets the VaultLib target for the VaultProxy"
      },
      "sharesAreFreelyTransferable()": {
        "notice": "Checks whether shares are (permanently) freely transferable"
      },
      "symbol()": {
        "notice": "Gets the `symbol` value of the shares token"
      },
      "transferShares(address,address,uint256)": {
        "notice": "Transfers fund shares from one account to another"
      },
      "withdrawAssetTo(address,address,uint256)": {
        "notice": "Withdraws an asset from the VaultProxy to a given account"
      },
      "withdrawAssetToVault(address,address,uint256)": {
        "notice": "Withdraws an asset from the VaultProxy to a given account"
      }
    },
    "notice": "The per-release proxiable library contract for VaultProxy",
    "version": 1
  },
  "storageLayout": {
    "storage": [
      {
        "astId": 7717,
        "contract": "contracts/release/core/fund/vault/VaultLib.sol:VaultLib",
        "label": "sharesName",
        "offset": 0,
        "slot": "0",
        "type": "t_string_storage"
      },
      {
        "astId": 7719,
        "contract": "contracts/release/core/fund/vault/VaultLib.sol:VaultLib",
        "label": "sharesSymbol",
        "offset": 0,
        "slot": "1",
        "type": "t_string_storage"
      },
      {
        "astId": 7721,
        "contract": "contracts/release/core/fund/vault/VaultLib.sol:VaultLib",
        "label": "sharesTotalSupply",
        "offset": 0,
        "slot": "2",
        "type": "t_uint256"
      },
      {
        "astId": 7725,
        "contract": "contracts/release/core/fund/vault/VaultLib.sol:VaultLib",
        "label": "sharesBalances",
        "offset": 0,
        "slot": "3",
        "type": "t_mapping(t_address,t_uint256)"
      },
      {
        "astId": 7731,
        "contract": "contracts/release/core/fund/vault/VaultLib.sol:VaultLib",
        "label": "sharesAllowances",
        "offset": 0,
        "slot": "4",
        "type": "t_mapping(t_address,t_mapping(t_address,t_uint256))"
      },
      {
        "astId": 7357,
        "contract": "contracts/release/core/fund/vault/VaultLib.sol:VaultLib",
        "label": "accessor",
        "offset": 0,
        "slot": "5",
        "type": "t_address"
      },
      {
        "astId": 7359,
        "contract": "contracts/release/core/fund/vault/VaultLib.sol:VaultLib",
        "label": "creator",
        "offset": 0,
        "slot": "6",
        "type": "t_address"
      },
      {
        "astId": 7361,
        "contract": "contracts/release/core/fund/vault/VaultLib.sol:VaultLib",
        "label": "migrator",
        "offset": 0,
        "slot": "7",
        "type": "t_address"
      },
      {
        "astId": 7363,
        "contract": "contracts/release/core/fund/vault/VaultLib.sol:VaultLib",
        "label": "owner",
        "offset": 0,
        "slot": "8",
        "type": "t_address"
      },
      {
        "astId": 7242,
        "contract": "contracts/release/core/fund/vault/VaultLib.sol:VaultLib",
        "label": "trackedAssets",
        "offset": 0,
        "slot": "9",
        "type": "t_array(t_address)dyn_storage"
      },
      {
        "astId": 7246,
        "contract": "contracts/release/core/fund/vault/VaultLib.sol:VaultLib",
        "label": "assetToIsTracked",
        "offset": 0,
        "slot": "10",
        "type": "t_mapping(t_address,t_bool)"
      },
      {
        "astId": 7305,
        "contract": "contracts/release/core/fund/vault/VaultLib.sol:VaultLib",
        "label": "freelyTransferableShares",
        "offset": 0,
        "slot": "11",
        "type": "t_bool"
      },
      {
        "astId": 7307,
        "contract": "contracts/release/core/fund/vault/VaultLib.sol:VaultLib",
        "label": "nominatedOwner",
        "offset": 1,
        "slot": "11",
        "type": "t_address"
      },
      {
        "astId": 7310,
        "contract": "contracts/release/core/fund/vault/VaultLib.sol:VaultLib",
        "label": "activeExternalPositions",
        "offset": 0,
        "slot": "12",
        "type": "t_array(t_address)dyn_storage"
      },
      {
        "astId": 7314,
        "contract": "contracts/release/core/fund/vault/VaultLib.sol:VaultLib",
        "label": "accountToIsAssetManager",
        "offset": 0,
        "slot": "13",
        "type": "t_mapping(t_address,t_bool)"
      },
      {
        "astId": 7318,
        "contract": "contracts/release/core/fund/vault/VaultLib.sol:VaultLib",
        "label": "externalPositionToIsActive",
        "offset": 0,
        "slot": "14",
        "type": "t_mapping(t_address,t_bool)"
      }
    ],
    "types": {
      "t_address": {
        "encoding": "inplace",
        "label": "address",
        "numberOfBytes": "20"
      },
      "t_array(t_address)dyn_storage": {
        "base": "t_address",
        "encoding": "dynamic_array",
        "label": "address[]",
        "numberOfBytes": "32"
      },
      "t_bool": {
        "encoding": "inplace",
        "label": "bool",
        "numberOfBytes": "1"
      },
      "t_mapping(t_address,t_bool)": {
        "encoding": "mapping",
        "key": "t_address",
        "label": "mapping(address => bool)",
        "numberOfBytes": "32",
        "value": "t_bool"
      },
      "t_mapping(t_address,t_mapping(t_address,t_uint256))": {
        "encoding": "mapping",
        "key": "t_address",
        "label": "mapping(address => mapping(address => uint256))",
        "numberOfBytes": "32",
        "value": "t_mapping(t_address,t_uint256)"
      },
      "t_mapping(t_address,t_uint256)": {
        "encoding": "mapping",
        "key": "t_address",
        "label": "mapping(address => uint256)",
        "numberOfBytes": "32",
        "value": "t_uint256"
      },
      "t_string_storage": {
        "encoding": "bytes",
        "label": "string",
        "numberOfBytes": "32"
      },
      "t_uint256": {
        "encoding": "inplace",
        "label": "uint256",
        "numberOfBytes": "32"
      }
    }
  }
}